{
  "_format": "hh-sol-artifact-1",
  "contractName": "Punish",
  "sourceName": "contracts/Punish.sol",
  "abi": [
    {
      "anonymous": false,
      "inputs": [],
      "name": "LogDecreaseMissedBlocksCounter",
      "type": "event"
    },
    {
      "anonymous": false,
      "inputs": [
        {
          "indexed": true,
          "internalType": "address",
          "name": "val",
          "type": "address"
        },
        {
          "indexed": false,
          "internalType": "uint256",
          "name": "time",
          "type": "uint256"
        }
      ],
      "name": "LogPunishValidator",
      "type": "event"
    },
    {
      "inputs": [],
      "name": "MaxValidators",
      "outputs": [
        {
          "internalType": "uint16",
          "name": "",
          "type": "uint16"
        }
      ],
      "stateMutability": "view",
      "type": "function"
    },
    {
      "inputs": [],
      "name": "MinimalStakingCoin",
      "outputs": [
        {
          "internalType": "uint256",
          "name": "",
          "type": "uint256"
        }
      ],
      "stateMutability": "view",
      "type": "function"
    },
    {
      "inputs": [],
      "name": "ProposalAddr",
      "outputs": [
        {
          "internalType": "address",
          "name": "",
          "type": "address"
        }
      ],
      "stateMutability": "view",
      "type": "function"
    },
    {
      "inputs": [],
      "name": "PunishContractAddr",
      "outputs": [
        {
          "internalType": "address",
          "name": "",
          "type": "address"
        }
      ],
      "stateMutability": "view",
      "type": "function"
    },
    {
      "inputs": [],
      "name": "StakingLockPeriod",
      "outputs": [
        {
          "internalType": "uint64",
          "name": "",
          "type": "uint64"
        }
      ],
      "stateMutability": "view",
      "type": "function"
    },
    {
      "inputs": [],
      "name": "ValidatorContractAddr",
      "outputs": [
        {
          "internalType": "address payable",
          "name": "",
          "type": "address"
        }
      ],
      "stateMutability": "view",
      "type": "function"
    },
    {
      "inputs": [],
      "name": "burnPartPercent",
      "outputs": [
        {
          "internalType": "uint256",
          "name": "",
          "type": "uint256"
        }
      ],
      "stateMutability": "view",
      "type": "function"
    },
    {
      "inputs": [],
      "name": "burnStopAmount",
      "outputs": [
        {
          "internalType": "uint256",
          "name": "",
          "type": "uint256"
        }
      ],
      "stateMutability": "view",
      "type": "function"
    },
    {
      "inputs": [
        {
          "internalType": "address",
          "name": "val",
          "type": "address"
        }
      ],
      "name": "cleanPunishRecord",
      "outputs": [
        {
          "internalType": "bool",
          "name": "",
          "type": "bool"
        }
      ],
      "stateMutability": "nonpayable",
      "type": "function"
    },
    {
      "inputs": [],
      "name": "contractPartPercent",
      "outputs": [
        {
          "internalType": "uint256",
          "name": "",
          "type": "uint256"
        }
      ],
      "stateMutability": "view",
      "type": "function"
    },
    {
      "inputs": [
        {
          "internalType": "uint256",
          "name": "epoch",
          "type": "uint256"
        }
      ],
      "name": "decreaseMissedBlocksCounter",
      "outputs": [],
      "stateMutability": "nonpayable",
      "type": "function"
    },
    {
      "inputs": [],
      "name": "decreaseRate",
      "outputs": [
        {
          "internalType": "uint256",
          "name": "",
          "type": "uint256"
        }
      ],
      "stateMutability": "view",
      "type": "function"
    },
    {
      "inputs": [],
      "name": "extraRewardsPerBlock",
      "outputs": [
        {
          "internalType": "uint256",
          "name": "",
          "type": "uint256"
        }
      ],
      "stateMutability": "view",
      "type": "function"
    },
    {
      "inputs": [
        {
          "internalType": "address",
          "name": "val",
          "type": "address"
        }
      ],
      "name": "getPunishRecord",
      "outputs": [
        {
          "internalType": "uint256",
          "name": "",
          "type": "uint256"
        }
      ],
      "stateMutability": "view",
      "type": "function"
    },
    {
      "inputs": [],
      "name": "getPunishValidatorsLen",
      "outputs": [
        {
          "internalType": "uint256",
          "name": "",
          "type": "uint256"
        }
      ],
      "stateMutability": "view",
      "type": "function"
    },
    {
      "inputs": [],
      "name": "initialize",
      "outputs": [],
      "stateMutability": "nonpayable",
      "type": "function"
    },
    {
      "inputs": [],
      "name": "initialized",
      "outputs": [
        {
          "internalType": "bool",
          "name": "",
          "type": "bool"
        }
      ],
      "stateMutability": "view",
      "type": "function"
    },
    {
      "inputs": [],
      "name": "minimumValidatorStaking",
      "outputs": [
        {
          "internalType": "uint256",
          "name": "",
          "type": "uint256"
        }
      ],
      "stateMutability": "view",
      "type": "function"
    },
    {
      "inputs": [
        {
          "internalType": "address",
          "name": "val",
          "type": "address"
        }
      ],
      "name": "punish",
      "outputs": [],
      "stateMutability": "nonpayable",
      "type": "function"
    },
    {
      "inputs": [],
      "name": "punishThreshold",
      "outputs": [
        {
          "internalType": "uint256",
          "name": "",
          "type": "uint256"
        }
      ],
      "stateMutability": "view",
      "type": "function"
    },
    {
      "inputs": [
        {
          "internalType": "uint256",
          "name": "",
          "type": "uint256"
        }
      ],
      "name": "punishValidators",
      "outputs": [
        {
          "internalType": "address",
          "name": "",
          "type": "address"
        }
      ],
      "stateMutability": "view",
      "type": "function"
    },
    {
      "inputs": [],
      "name": "removeThreshold",
      "outputs": [
        {
          "internalType": "uint256",
          "name": "",
          "type": "uint256"
        }
      ],
      "stateMutability": "view",
      "type": "function"
    },
    {
      "inputs": [],
      "name": "rewardFund",
      "outputs": [
        {
          "internalType": "uint256",
          "name": "",
          "type": "uint256"
        }
      ],
      "stateMutability": "view",
      "type": "function"
    },
    {
      "inputs": [],
      "name": "stakerPartPercent",
      "outputs": [
        {
          "internalType": "uint256",
          "name": "",
          "type": "uint256"
        }
      ],
      "stateMutability": "view",
      "type": "function"
    },
    {
      "inputs": [],
      "name": "totalBurnt",
      "outputs": [
        {
          "internalType": "uint256",
          "name": "",
          "type": "uint256"
        }
      ],
      "stateMutability": "view",
      "type": "function"
    },
    {
      "inputs": [],
      "name": "totalRewards",
      "outputs": [
        {
          "internalType": "uint256",
          "name": "",
          "type": "uint256"
        }
      ],
      "stateMutability": "view",
      "type": "function"
    },
    {
      "inputs": [],
      "name": "validatorPartPercent",
      "outputs": [
        {
          "internalType": "uint256",
          "name": "",
          "type": "uint256"
        }
      ],
      "stateMutability": "view",
      "type": "function"
    }
  ],
  "bytecode": "0x608060405234801561001057600080fd5b50610d2f806100206000396000f3fe608060405234801561001057600080fd5b50600436106101a95760003560e01c80638ae53dbd116100f9578063d93d2cb911610097578063ea7221a111610071578063ea7221a11461033a578063efe222661461034d578063f62af26c14610356578063fca737c01461036957600080fd5b8063d93d2cb9146102fc578063db78dd281461030f578063e0d8ea531461033257600080fd5b8063be645692116100d3578063be645692146102bf578063c967f90f146102cf578063cb1ea725146102ea578063cd779d21146102f357600080fd5b80638ae53dbd14610295578063966ff650146102a45780639d7714ce146102ad57600080fd5b806337dbc8cc1161016657806344c1aa991161014057806344c1aa99146102665780636233be5d1461026f57806363e1d451146102785780638129fc1c1461028b57600080fd5b806337dbc8cc1461024b5780633a061bd31461025457806342127ee71461025d57600080fd5b80630976c65d146101ae5780630e15561a146101d2578063158ef93e146101db5780631b5e358c146101f85780632897183d1461021957806332f3c17f14610222575b600080fd5b6101bf69d3c21bcecceda100000081565b6040519081526020015b60405180910390f35b6101bf60035481565b6000546101e89060ff1681565b60405190151581526020016101c9565b61020161f00181565b6040516001600160a01b0390911681526020016101c9565b6101bf60065481565b6101bf610230366004610bd8565b6001600160a01b031660009081526008602052604090205490565b6101bf61271081565b61020161f00081565b6101bf61138881565b6101bf60055481565b61020161f00281565b6101e8610286366004610bd8565b610372565b61029361059e565b005b6101bf670de0b6b3a764000081565b6101bf60015481565b6101bf6a52b7d2dcc80cd2e400000081565b6101bf6801bc16d674ec80000081565b6102d7601e81565b60405161ffff90911681526020016101c9565b6101bf60045481565b6101bf61afc881565b61029361030a366004610c08565b610619565b6103196201518081565b60405167ffffffffffffffff90911681526020016101c9565b6009546101bf565b610293610348366004610bd8565b6108ae565b6101bf60025481565b610201610364366004610c08565b610bae565b6101bf619c4081565b6000805460ff1661039e5760405162461bcd60e51b815260040161039590610c21565b60405180910390fd5b3361f000146103ef5760405162461bcd60e51b815260206004820152601860248201527f56616c696461746f727320636f6e7472616374206f6e6c7900000000000000006044820152606401610395565b6001600160a01b03821660009081526008602052604090205415610427576001600160a01b0382166000908152600860205260408120555b6001600160a01b03821660009081526008602052604090206002015460ff168015610453575060095415155b156105965760095461046790600190610c5d565b6001600160a01b0383166000908152600860205260409020600101541461053757600980546000919061049c90600190610c5d565b815481106104ac576104ac610c76565b60009182526020808320909101546001600160a01b03868116845260089092526040909220600101546009805492909316935083929181106104f0576104f0610c76565b600091825260208083209190910180546001600160a01b0319166001600160a01b039485161790558583168252600890526040808220600190810154949093168252902001555b600980548061054857610548610c8c565b60008281526020808220830160001990810180546001600160a01b03191690559092019092556001600160a01b038416825260089052604081206001810191909155600201805460ff191690555b506001919050565b60005460ff16156105e75760405162461bcd60e51b8152602060048201526013602482015272105b1c9958591e481a5b9a5d1a585b1a5e9959606a1b6044820152606401610395565b600780546001600160a01b03191661f0001790556030600481905560606005556006556000805460ff19166001179055565b3341146106555760405162461bcd60e51b815260206004820152600a6024820152694d696e6572206f6e6c7960b01b6044820152606401610395565b436000908152600b602052604090205460ff16156106a95760405162461bcd60e51b8152602060048201526011602482015270105b1c9958591e48191958dc99585cd959607a1b6044820152606401610395565b60005460ff166106cb5760405162461bcd60e51b815260040161039590610c21565b806106d68143610cb8565b156107165760405162461bcd60e51b815260206004820152601060248201526f426c6f636b2065706f6368206f6e6c7960801b6044820152606401610395565b436000908152600b60205260409020805460ff19166001179055600954156108aa5760005b60095481101561087f576006546005546107559190610ccc565b600860006009848154811061076c5761076c610c76565b60009182526020808320909101546001600160a01b03168352820192909252604001902054111561082e576006546005546107a79190610ccc565b60086000600984815481106107be576107be610c76565b60009182526020808320909101546001600160a01b031683528201929092526040019020546107ed9190610c5d565b600860006009848154811061080457610804610c76565b60009182526020808320909101546001600160a01b0316835282019290925260400190205561086d565b6000600860006009848154811061084757610847610c76565b60009182526020808320909101546001600160a01b031683528201929092526040019020555b8061087781610ce0565b91505061073b565b506040517f181d51be54e8e8eaca6eae0eab32d4162099236bd519e7238d015d0870db464190600090a15b5050565b3341146108ea5760405162461bcd60e51b815260206004820152600a6024820152694d696e6572206f6e6c7960b01b6044820152606401610395565b60005460ff1661090c5760405162461bcd60e51b815260040161039590610c21565b436000908152600a602052604090205460ff161561095f5760405162461bcd60e51b815260206004820152601060248201526f105b1c9958591e481c1d5b9a5cda195960821b6044820152606401610395565b436000908152600a60209081526040808320805460ff191660011790556001600160a01b0384168352600890915290206002015460ff16610a0857600980546001600160a01b038316600081815260086020526040812060018082018590558085019095557f6e1540171b6c0c960b71a7020d9f60077f6af931a8bbf590da0223dacf75c7af90930180546001600160a01b0319168317905552600201805460ff191690911790555b6001600160a01b0381166000908152600860205260408120805491610a2c83610ce0565b90915550506005546001600160a01b038216600090815260086020526040902054610a579190610cb8565b600003610adb576007546040516340a141ff60e01b81526001600160a01b038381166004830152909116906340a141ff90602401600060405180830381600087803b158015610aa557600080fd5b505af1158015610ab9573d6000803e3d6000fd5b5050506001600160a01b03821660009081526008602052604081205550610b68565b6004546001600160a01b038216600090815260086020526040902054610b019190610cb8565b600003610b68576007546040516305dd095960e41b81526001600160a01b03838116600483015290911690635dd0959090602401600060405180830381600087803b158015610b4f57600080fd5b505af1158015610b63573d6000803e3d6000fd5b505050505b806001600160a01b03167f770e0cca42c35d00240986ce8d3ed438be04663c91dac6576b79537d7c180f1e42604051610ba391815260200190565b60405180910390a250565b60098181548110610bbe57600080fd5b6000918252602090912001546001600160a01b0316905081565b600060208284031215610bea57600080fd5b81356001600160a01b0381168114610c0157600080fd5b9392505050565b600060208284031215610c1a57600080fd5b5035919050565b6020808252600c908201526b139bdd081a5b9a5d081e595d60a21b604082015260600190565b634e487b7160e01b600052601160045260246000fd5b81810381811115610c7057610c70610c47565b92915050565b634e487b7160e01b600052603260045260246000fd5b634e487b7160e01b600052603160045260246000fd5b634e487b7160e01b600052601260045260246000fd5b600082610cc757610cc7610ca2565b500690565b600082610cdb57610cdb610ca2565b500490565b600060018201610cf257610cf2610c47565b506001019056fea26469706673582212200c02505f067bf4f89ebd4429162336f7be4e7899fa4b0672d6e21b049072cd3464736f6c63430008110033",
  "linkReferences": {},
  "deployedLinkReferences": {}
}