{"contracts/Params.sol":{"Params":{"abi":[{"inputs":[],"name":"MaxValidators","outputs":[{"internalType":"uint16","name":"","type":"uint16"}],"stateMutability":"view","type":"function"},{"inputs":[],"name":"MinimalStakingCoin","outputs":[{"internalType":"uint256","name":"","type":"uint256"}],"stateMutability":"view","type":"function"},{"inputs":[],"name":"ProposalAddr","outputs":[{"internalType":"address","name":"","type":"address"}],"stateMutability":"view","type":"function"},{"inputs":[],"name":"PunishContractAddr","outputs":[{"internalType":"address","name":"","type":"address"}],"stateMutability":"view","type":"function"},{"inputs":[],"name":"StakingLockPeriod","outputs":[{"internalType":"uint64","name":"","type":"uint64"}],"stateMutability":"view","type":"function"},{"inputs":[],"name":"ValidatorContractAddr","outputs":[{"internalType":"address payable","name":"","type":"address"}],"stateMutability":"view","type":"function"},{"inputs":[],"name":"burnPartPercent","outputs":[{"internalType":"uint256","name":"","type":"uint256"}],"stateMutability":"view","type":"function"},{"inputs":[],"name":"burnStopAmount","outputs":[{"internalType":"uint256","name":"","type":"uint256"}],"stateMutability":"view","type":"function"},{"inputs":[],"name":"contractPartPercent","outputs":[{"internalType":"uint256","name":"","type":"uint256"}],"stateMutability":"view","type":"function"},{"inputs":[],"name":"extraRewardsPerBlock","outputs":[{"internalType":"uint256","name":"","type":"uint256"}],"stateMutability":"view","type":"function"},{"inputs":[],"name":"initialized","outputs":[{"internalType":"bool","name":"","type":"bool"}],"stateMutability":"view","type":"function"},{"inputs":[],"name":"minimumValidatorStaking","outputs":[{"internalType":"uint256","name":"","type":"uint256"}],"stateMutability":"view","type":"function"},{"inputs":[],"name":"rewardFund","outputs":[{"internalType":"uint256","name":"","type":"uint256"}],"stateMutability":"view","type":"function"},{"inputs":[],"name":"stakerPartPercent","outputs":[{"internalType":"uint256","name":"","type":"uint256"}],"stateMutability":"view","type":"function"},{"inputs":[],"name":"totalBurnt","outputs":[{"internalType":"uint256","name":"","type":"uint256"}],"stateMutability":"view","type":"function"},{"inputs":[],"name":"totalRewards","outputs":[{"internalType":"uint256","name":"","type":"uint256"}],"stateMutability":"view","type":"function"},{"inputs":[],"name":"validatorPartPercent","outputs":[{"internalType":"uint256","name":"","type":"uint256"}],"stateMutability":"view","type":"function"}],"evm":{"bytecode":{"linkReferences":{},"object":"608060405234801561001057600080fd5b50610268806100206000396000f3fe608060405234801561001057600080fd5b506004361061010b5760003560e01c80638ae53dbd116100a2578063c967f90f11610071578063c967f90f146101d9578063cd779d21146101f4578063db78dd28146101fd578063efe2226614610220578063fca737c01461022957600080fd5b80638ae53dbd1461019f578063966ff650146101ae5780639d7714ce146101b7578063be645692146101c957600080fd5b806337dbc8cc116100de57806337dbc8cc1461017b5780633a061bd31461018457806342127ee71461018d5780636233be5d1461019657600080fd5b80630976c65d146101105780630e15561a14610134578063158ef93e1461013d5780631b5e358c1461015a575b600080fd5b61012169d3c21bcecceda100000081565b6040519081526020015b60405180910390f35b61012160035481565b60005461014a9060ff1681565b604051901515815260200161012b565b61016361f00181565b6040516001600160a01b03909116815260200161012b565b61012161271081565b61016361f00081565b61012161138881565b61016361f00281565b610121670de0b6b3a764000081565b61012160015481565b6101216a52b7d2dcc80cd2e400000081565b6101216801bc16d674ec80000081565b6101e1601e81565b60405161ffff909116815260200161012b565b61012161afc881565b6102076201518081565b60405167ffffffffffffffff909116815260200161012b565b61012160025481565b610121619c408156fea2646970667358221220235cf705272e303d1e9d06cc9e469cf15bad3b481253c3735e37d2ebdf9191b364736f6c63430008110033","opcodes":"PUSH1 0x80 PUSH1 0x40 MSTORE CALLVALUE DUP1 ISZERO PUSH2 0x10 JUMPI PUSH1 0x0 DUP1 REVERT JUMPDEST POP PUSH2 0x268 DUP1 PUSH2 0x20 PUSH1 0x0 CODECOPY PUSH1 0x0 RETURN INVALID PUSH1 0x80 PUSH1 0x40 MSTORE CALLVALUE DUP1 ISZERO PUSH2 0x10 JUMPI PUSH1 0x0 DUP1 REVERT JUMPDEST POP PUSH1 0x4 CALLDATASIZE LT PUSH2 0x10B JUMPI PUSH1 0x0 CALLDATALOAD PUSH1 0xE0 SHR DUP1 PUSH4 0x8AE53DBD GT PUSH2 0xA2 JUMPI DUP1 PUSH4 0xC967F90F GT PUSH2 0x71 JUMPI DUP1 PUSH4 0xC967F90F EQ PUSH2 0x1D9 JUMPI DUP1 PUSH4 0xCD779D21 EQ PUSH2 0x1F4 JUMPI DUP1 PUSH4 0xDB78DD28 EQ PUSH2 0x1FD JUMPI DUP1 PUSH4 0xEFE22266 EQ PUSH2 0x220 JUMPI DUP1 PUSH4 0xFCA737C0 EQ PUSH2 0x229 JUMPI PUSH1 0x0 DUP1 REVERT JUMPDEST DUP1 PUSH4 0x8AE53DBD EQ PUSH2 0x19F JUMPI DUP1 PUSH4 0x966FF650 EQ PUSH2 0x1AE JUMPI DUP1 PUSH4 0x9D7714CE EQ PUSH2 0x1B7 JUMPI DUP1 PUSH4 0xBE645692 EQ PUSH2 0x1C9 JUMPI PUSH1 0x0 DUP1 REVERT JUMPDEST DUP1 PUSH4 0x37DBC8CC GT PUSH2 0xDE JUMPI DUP1 PUSH4 0x37DBC8CC EQ PUSH2 0x17B JUMPI DUP1 PUSH4 0x3A061BD3 EQ PUSH2 0x184 JUMPI DUP1 PUSH4 0x42127EE7 EQ PUSH2 0x18D JUMPI DUP1 PUSH4 0x6233BE5D EQ PUSH2 0x196 JUMPI PUSH1 0x0 DUP1 REVERT JUMPDEST DUP1 PUSH4 0x976C65D EQ PUSH2 0x110 JUMPI DUP1 PUSH4 0xE15561A EQ PUSH2 0x134 JUMPI DUP1 PUSH4 0x158EF93E EQ PUSH2 0x13D JUMPI DUP1 PUSH4 0x1B5E358C EQ PUSH2 0x15A JUMPI JUMPDEST PUSH1 0x0 DUP1 REVERT JUMPDEST PUSH2 0x121 PUSH10 0xD3C21BCECCEDA1000000 DUP2 JUMP JUMPDEST PUSH1 0x40 MLOAD SWAP1 DUP2 MSTORE PUSH1 0x20 ADD JUMPDEST PUSH1 0x40 MLOAD DUP1 SWAP2 SUB SWAP1 RETURN JUMPDEST PUSH2 0x121 PUSH1 0x3 SLOAD DUP2 JUMP JUMPDEST PUSH1 0x0 SLOAD PUSH2 0x14A SWAP1 PUSH1 0xFF AND DUP2 JUMP JUMPDEST PUSH1 0x40 MLOAD SWAP1 ISZERO ISZERO DUP2 MSTORE PUSH1 0x20 ADD PUSH2 0x12B JUMP JUMPDEST PUSH2 0x163 PUSH2 0xF001 DUP2 JUMP JUMPDEST PUSH1 0x40 MLOAD PUSH1 0x1 PUSH1 0x1 PUSH1 0xA0 SHL SUB SWAP1 SWAP2 AND DUP2 MSTORE PUSH1 0x20 ADD PUSH2 0x12B JUMP JUMPDEST PUSH2 0x121 PUSH2 0x2710 DUP2 JUMP JUMPDEST PUSH2 0x163 PUSH2 0xF000 DUP2 JUMP JUMPDEST PUSH2 0x121 PUSH2 0x1388 DUP2 JUMP JUMPDEST PUSH2 0x163 PUSH2 0xF002 DUP2 JUMP JUMPDEST PUSH2 0x121 PUSH8 0xDE0B6B3A7640000 DUP2 JUMP JUMPDEST PUSH2 0x121 PUSH1 0x1 SLOAD DUP2 JUMP JUMPDEST PUSH2 0x121 PUSH11 0x52B7D2DCC80CD2E4000000 DUP2 JUMP JUMPDEST PUSH2 0x121 PUSH9 0x1BC16D674EC800000 DUP2 JUMP JUMPDEST PUSH2 0x1E1 PUSH1 0x1E DUP2 JUMP JUMPDEST PUSH1 0x40 MLOAD PUSH2 0xFFFF SWAP1 SWAP2 AND DUP2 MSTORE PUSH1 0x20 ADD PUSH2 0x12B JUMP JUMPDEST PUSH2 0x121 PUSH2 0xAFC8 DUP2 JUMP JUMPDEST PUSH2 0x207 PUSH3 0x15180 DUP2 JUMP JUMPDEST PUSH1 0x40 MLOAD PUSH8 0xFFFFFFFFFFFFFFFF SWAP1 SWAP2 AND DUP2 MSTORE PUSH1 0x20 ADD PUSH2 0x12B JUMP JUMPDEST PUSH2 0x121 PUSH1 0x2 SLOAD DUP2 JUMP JUMPDEST PUSH2 0x121 PUSH2 0x9C40 DUP2 JUMP INVALID LOG2 PUSH5 0x6970667358 0x22 SLT KECCAK256 0x23 0x5C 0xF7 SDIV 0x27 0x2E ADDRESS RETURNDATASIZE 0x1E SWAP14 MOD 0xCC SWAP15 CHAINID SWAP13 CALL JUMPDEST 0xAD EXTCODESIZE BASEFEE SLT MSTORE8 0xC3 PUSH20 0x5E37D2EBDF9191B364736F6C6343000811003300 "},"methodIdentifiers":{"MaxValidators()":"c967f90f","MinimalStakingCoin()":"be645692","ProposalAddr()":"6233be5d","PunishContractAddr()":"1b5e358c","StakingLockPeriod()":"db78dd28","ValidatorContractAddr()":"3a061bd3","burnPartPercent()":"37dbc8cc","burnStopAmount()":"9d7714ce","contractPartPercent()":"fca737c0","extraRewardsPerBlock()":"8ae53dbd","initialized()":"158ef93e","minimumValidatorStaking()":"0976c65d","rewardFund()":"efe22266","stakerPartPercent()":"cd779d21","totalBurnt()":"966ff650","totalRewards()":"0e15561a","validatorPartPercent()":"42127ee7"}}}}}