{"contracts/Punish.sol":{"Punish":{"abi":[{"anonymous":false,"inputs":[],"name":"LogDecreaseMissedBlocksCounter","type":"event"},{"anonymous":false,"inputs":[{"indexed":true,"internalType":"address","name":"val","type":"address"},{"indexed":false,"internalType":"uint256","name":"time","type":"uint256"}],"name":"LogPunishValidator","type":"event"},{"inputs":[],"name":"MaxValidators","outputs":[{"internalType":"uint16","name":"","type":"uint16"}],"stateMutability":"view","type":"function"},{"inputs":[],"name":"MinimalStakingCoin","outputs":[{"internalType":"uint256","name":"","type":"uint256"}],"stateMutability":"view","type":"function"},{"inputs":[],"name":"ProposalAddr","outputs":[{"internalType":"address","name":"","type":"address"}],"stateMutability":"view","type":"function"},{"inputs":[],"name":"PunishContractAddr","outputs":[{"internalType":"address","name":"","type":"address"}],"stateMutability":"view","type":"function"},{"inputs":[],"name":"StakingLockPeriod","outputs":[{"internalType":"uint64","name":"","type":"uint64"}],"stateMutability":"view","type":"function"},{"inputs":[],"name":"ValidatorContractAddr","outputs":[{"internalType":"address payable","name":"","type":"address"}],"stateMutability":"view","type":"function"},{"inputs":[],"name":"burnPartPercent","outputs":[{"internalType":"uint256","name":"","type":"uint256"}],"stateMutability":"view","type":"function"},{"inputs":[],"name":"burnStopAmount","outputs":[{"internalType":"uint256","name":"","type":"uint256"}],"stateMutability":"view","type":"function"},{"inputs":[{"internalType":"address","name":"val","type":"address"}],"name":"cleanPunishRecord","outputs":[{"internalType":"bool","name":"","type":"bool"}],"stateMutability":"nonpayable","type":"function"},{"inputs":[],"name":"contractPartPercent","outputs":[{"internalType":"uint256","name":"","type":"uint256"}],"stateMutability":"view","type":"function"},{"inputs":[{"internalType":"uint256","name":"epoch","type":"uint256"}],"name":"decreaseMissedBlocksCounter","outputs":[],"stateMutability":"nonpayable","type":"function"},{"inputs":[],"name":"decreaseRate","outputs":[{"internalType":"uint256","name":"","type":"uint256"}],"stateMutability":"view","type":"function"},{"inputs":[],"name":"extraRewardsPerBlock","outputs":[{"internalType":"uint256","name":"","type":"uint256"}],"stateMutability":"view","type":"function"},{"inputs":[{"internalType":"address","name":"val","type":"address"}],"name":"getPunishRecord","outputs":[{"internalType":"uint256","name":"","type":"uint256"}],"stateMutability":"view","type":"function"},{"inputs":[],"name":"getPunishValidatorsLen","outputs":[{"internalType":"uint256","name":"","type":"uint256"}],"stateMutability":"view","type":"function"},{"inputs":[],"name":"initialize","outputs":[],"stateMutability":"nonpayable","type":"function"},{"inputs":[],"name":"initialized","outputs":[{"internalType":"bool","name":"","type":"bool"}],"stateMutability":"view","type":"function"},{"inputs":[],"name":"minimumValidatorStaking","outputs":[{"internalType":"uint256","name":"","type":"uint256"}],"stateMutability":"view","type":"function"},{"inputs":[{"internalType":"address","name":"val","type":"address"}],"name":"punish","outputs":[],"stateMutability":"nonpayable","type":"function"},{"inputs":[],"name":"punishThreshold","outputs":[{"internalType":"uint256","name":"","type":"uint256"}],"stateMutability":"view","type":"function"},{"inputs":[{"internalType":"uint256","name":"","type":"uint256"}],"name":"punishValidators","outputs":[{"internalType":"address","name":"","type":"address"}],"stateMutability":"view","type":"function"},{"inputs":[],"name":"removeThreshold","outputs":[{"internalType":"uint256","name":"","type":"uint256"}],"stateMutability":"view","type":"function"},{"inputs":[],"name":"rewardFund","outputs":[{"internalType":"uint256","name":"","type":"uint256"}],"stateMutability":"view","type":"function"},{"inputs":[],"name":"stakerPartPercent","outputs":[{"internalType":"uint256","name":"","type":"uint256"}],"stateMutability":"view","type":"function"},{"inputs":[],"name":"totalBurnt","outputs":[{"internalType":"uint256","name":"","type":"uint256"}],"stateMutability":"view","type":"function"},{"inputs":[],"name":"totalRewards","outputs":[{"internalType":"uint256","name":"","type":"uint256"}],"stateMutability":"view","type":"function"},{"inputs":[],"name":"validatorPartPercent","outputs":[{"internalType":"uint256","name":"","type":"uint256"}],"stateMutability":"view","type":"function"}],"evm":{"bytecode":{"linkReferences":{},"object":"608060405234801561001057600080fd5b50610d2f806100206000396000f3fe608060405234801561001057600080fd5b50600436106101a95760003560e01c80638ae53dbd116100f9578063d93d2cb911610097578063ea7221a111610071578063ea7221a11461033a578063efe222661461034d578063f62af26c14610356578063fca737c01461036957600080fd5b8063d93d2cb9146102fc578063db78dd281461030f578063e0d8ea531461033257600080fd5b8063be645692116100d3578063be645692146102bf578063c967f90f146102cf578063cb1ea725146102ea578063cd779d21146102f357600080fd5b80638ae53dbd14610295578063966ff650146102a45780639d7714ce146102ad57600080fd5b806337dbc8cc1161016657806344c1aa991161014057806344c1aa99146102665780636233be5d1461026f57806363e1d451146102785780638129fc1c1461028b57600080fd5b806337dbc8cc1461024b5780633a061bd31461025457806342127ee71461025d57600080fd5b80630976c65d146101ae5780630e15561a146101d2578063158ef93e146101db5780631b5e358c146101f85780632897183d1461021957806332f3c17f14610222575b600080fd5b6101bf69d3c21bcecceda100000081565b6040519081526020015b60405180910390f35b6101bf60035481565b6000546101e89060ff1681565b60405190151581526020016101c9565b61020161f00181565b6040516001600160a01b0390911681526020016101c9565b6101bf60065481565b6101bf610230366004610bd8565b6001600160a01b031660009081526008602052604090205490565b6101bf61271081565b61020161f00081565b6101bf61138881565b6101bf60055481565b61020161f00281565b6101e8610286366004610bd8565b610372565b61029361059e565b005b6101bf670de0b6b3a764000081565b6101bf60015481565b6101bf6a52b7d2dcc80cd2e400000081565b6101bf6801bc16d674ec80000081565b6102d7601e81565b60405161ffff90911681526020016101c9565b6101bf60045481565b6101bf61afc881565b61029361030a366004610c08565b610619565b6103196201518081565b60405167ffffffffffffffff90911681526020016101c9565b6009546101bf565b610293610348366004610bd8565b6108ae565b6101bf60025481565b610201610364366004610c08565b610bae565b6101bf619c4081565b6000805460ff1661039e5760405162461bcd60e51b815260040161039590610c21565b60405180910390fd5b3361f000146103ef5760405162461bcd60e51b815260206004820152601860248201527f56616c696461746f727320636f6e7472616374206f6e6c7900000000000000006044820152606401610395565b6001600160a01b03821660009081526008602052604090205415610427576001600160a01b0382166000908152600860205260408120555b6001600160a01b03821660009081526008602052604090206002015460ff168015610453575060095415155b156105965760095461046790600190610c5d565b6001600160a01b0383166000908152600860205260409020600101541461053757600980546000919061049c90600190610c5d565b815481106104ac576104ac610c76565b60009182526020808320909101546001600160a01b03868116845260089092526040909220600101546009805492909316935083929181106104f0576104f0610c76565b600091825260208083209190910180546001600160a01b0319166001600160a01b039485161790558583168252600890526040808220600190810154949093168252902001555b600980548061054857610548610c8c565b60008281526020808220830160001990810180546001600160a01b03191690559092019092556001600160a01b038416825260089052604081206001810191909155600201805460ff191690555b506001919050565b60005460ff16156105e75760405162461bcd60e51b8152602060048201526013602482015272105b1c9958591e481a5b9a5d1a585b1a5e9959606a1b6044820152606401610395565b600780546001600160a01b03191661f0001790556030600481905560606005556006556000805460ff19166001179055565b3341146106555760405162461bcd60e51b815260206004820152600a6024820152694d696e6572206f6e6c7960b01b6044820152606401610395565b436000908152600b602052604090205460ff16156106a95760405162461bcd60e51b8152602060048201526011602482015270105b1c9958591e48191958dc99585cd959607a1b6044820152606401610395565b60005460ff166106cb5760405162461bcd60e51b815260040161039590610c21565b806106d68143610cb8565b156107165760405162461bcd60e51b815260206004820152601060248201526f426c6f636b2065706f6368206f6e6c7960801b6044820152606401610395565b436000908152600b60205260409020805460ff19166001179055600954156108aa5760005b60095481101561087f576006546005546107559190610ccc565b600860006009848154811061076c5761076c610c76565b60009182526020808320909101546001600160a01b03168352820192909252604001902054111561082e576006546005546107a79190610ccc565b60086000600984815481106107be576107be610c76565b60009182526020808320909101546001600160a01b031683528201929092526040019020546107ed9190610c5d565b600860006009848154811061080457610804610c76565b60009182526020808320909101546001600160a01b0316835282019290925260400190205561086d565b6000600860006009848154811061084757610847610c76565b60009182526020808320909101546001600160a01b031683528201929092526040019020555b8061087781610ce0565b91505061073b565b506040517f181d51be54e8e8eaca6eae0eab32d4162099236bd519e7238d015d0870db464190600090a15b5050565b3341146108ea5760405162461bcd60e51b815260206004820152600a6024820152694d696e6572206f6e6c7960b01b6044820152606401610395565b60005460ff1661090c5760405162461bcd60e51b815260040161039590610c21565b436000908152600a602052604090205460ff161561095f5760405162461bcd60e51b815260206004820152601060248201526f105b1c9958591e481c1d5b9a5cda195960821b6044820152606401610395565b436000908152600a60209081526040808320805460ff191660011790556001600160a01b0384168352600890915290206002015460ff16610a0857600980546001600160a01b038316600081815260086020526040812060018082018590558085019095557f6e1540171b6c0c960b71a7020d9f60077f6af931a8bbf590da0223dacf75c7af90930180546001600160a01b0319168317905552600201805460ff191690911790555b6001600160a01b0381166000908152600860205260408120805491610a2c83610ce0565b90915550506005546001600160a01b038216600090815260086020526040902054610a579190610cb8565b600003610adb576007546040516340a141ff60e01b81526001600160a01b038381166004830152909116906340a141ff90602401600060405180830381600087803b158015610aa557600080fd5b505af1158015610ab9573d6000803e3d6000fd5b5050506001600160a01b03821660009081526008602052604081205550610b68565b6004546001600160a01b038216600090815260086020526040902054610b019190610cb8565b600003610b68576007546040516305dd095960e41b81526001600160a01b03838116600483015290911690635dd0959090602401600060405180830381600087803b158015610b4f57600080fd5b505af1158015610b63573d6000803e3d6000fd5b505050505b806001600160a01b03167f770e0cca42c35d00240986ce8d3ed438be04663c91dac6576b79537d7c180f1e42604051610ba391815260200190565b60405180910390a250565b60098181548110610bbe57600080fd5b6000918252602090912001546001600160a01b0316905081565b600060208284031215610bea57600080fd5b81356001600160a01b0381168114610c0157600080fd5b9392505050565b600060208284031215610c1a57600080fd5b5035919050565b6020808252600c908201526b139bdd081a5b9a5d081e595d60a21b604082015260600190565b634e487b7160e01b600052601160045260246000fd5b81810381811115610c7057610c70610c47565b92915050565b634e487b7160e01b600052603260045260246000fd5b634e487b7160e01b600052603160045260246000fd5b634e487b7160e01b600052601260045260246000fd5b600082610cc757610cc7610ca2565b500690565b600082610cdb57610cdb610ca2565b500490565b600060018201610cf257610cf2610c47565b506001019056fea26469706673582212200c02505f067bf4f89ebd4429162336f7be4e7899fa4b0672d6e21b049072cd3464736f6c63430008110033","opcodes":"PUSH1 0x80 PUSH1 0x40 MSTORE CALLVALUE DUP1 ISZERO PUSH2 0x10 JUMPI PUSH1 0x0 DUP1 REVERT JUMPDEST POP PUSH2 0xD2F DUP1 PUSH2 0x20 PUSH1 0x0 CODECOPY PUSH1 0x0 RETURN INVALID PUSH1 0x80 PUSH1 0x40 MSTORE CALLVALUE DUP1 ISZERO PUSH2 0x10 JUMPI PUSH1 0x0 DUP1 REVERT JUMPDEST POP PUSH1 0x4 CALLDATASIZE LT PUSH2 0x1A9 JUMPI PUSH1 0x0 CALLDATALOAD PUSH1 0xE0 SHR DUP1 PUSH4 0x8AE53DBD GT PUSH2 0xF9 JUMPI DUP1 PUSH4 0xD93D2CB9 GT PUSH2 0x97 JUMPI DUP1 PUSH4 0xEA7221A1 GT PUSH2 0x71 JUMPI DUP1 PUSH4 0xEA7221A1 EQ PUSH2 0x33A JUMPI DUP1 PUSH4 0xEFE22266 EQ PUSH2 0x34D JUMPI DUP1 PUSH4 0xF62AF26C EQ PUSH2 0x356 JUMPI DUP1 PUSH4 0xFCA737C0 EQ PUSH2 0x369 JUMPI PUSH1 0x0 DUP1 REVERT JUMPDEST DUP1 PUSH4 0xD93D2CB9 EQ PUSH2 0x2FC JUMPI DUP1 PUSH4 0xDB78DD28 EQ PUSH2 0x30F JUMPI DUP1 PUSH4 0xE0D8EA53 EQ PUSH2 0x332 JUMPI PUSH1 0x0 DUP1 REVERT JUMPDEST DUP1 PUSH4 0xBE645692 GT PUSH2 0xD3 JUMPI DUP1 PUSH4 0xBE645692 EQ PUSH2 0x2BF JUMPI DUP1 PUSH4 0xC967F90F EQ PUSH2 0x2CF JUMPI DUP1 PUSH4 0xCB1EA725 EQ PUSH2 0x2EA JUMPI DUP1 PUSH4 0xCD779D21 EQ PUSH2 0x2F3 JUMPI PUSH1 0x0 DUP1 REVERT JUMPDEST DUP1 PUSH4 0x8AE53DBD EQ PUSH2 0x295 JUMPI DUP1 PUSH4 0x966FF650 EQ PUSH2 0x2A4 JUMPI DUP1 PUSH4 0x9D7714CE EQ PUSH2 0x2AD JUMPI PUSH1 0x0 DUP1 REVERT JUMPDEST DUP1 PUSH4 0x37DBC8CC GT PUSH2 0x166 JUMPI DUP1 PUSH4 0x44C1AA99 GT PUSH2 0x140 JUMPI DUP1 PUSH4 0x44C1AA99 EQ PUSH2 0x266 JUMPI DUP1 PUSH4 0x6233BE5D EQ PUSH2 0x26F JUMPI DUP1 PUSH4 0x63E1D451 EQ PUSH2 0x278 JUMPI DUP1 PUSH4 0x8129FC1C EQ PUSH2 0x28B JUMPI PUSH1 0x0 DUP1 REVERT JUMPDEST DUP1 PUSH4 0x37DBC8CC EQ PUSH2 0x24B JUMPI DUP1 PUSH4 0x3A061BD3 EQ PUSH2 0x254 JUMPI DUP1 PUSH4 0x42127EE7 EQ PUSH2 0x25D JUMPI PUSH1 0x0 DUP1 REVERT JUMPDEST DUP1 PUSH4 0x976C65D EQ PUSH2 0x1AE JUMPI DUP1 PUSH4 0xE15561A EQ PUSH2 0x1D2 JUMPI DUP1 PUSH4 0x158EF93E EQ PUSH2 0x1DB JUMPI DUP1 PUSH4 0x1B5E358C EQ PUSH2 0x1F8 JUMPI DUP1 PUSH4 0x2897183D EQ PUSH2 0x219 JUMPI DUP1 PUSH4 0x32F3C17F EQ PUSH2 0x222 JUMPI JUMPDEST PUSH1 0x0 DUP1 REVERT JUMPDEST PUSH2 0x1BF PUSH10 0xD3C21BCECCEDA1000000 DUP2 JUMP JUMPDEST PUSH1 0x40 MLOAD SWAP1 DUP2 MSTORE PUSH1 0x20 ADD JUMPDEST PUSH1 0x40 MLOAD DUP1 SWAP2 SUB SWAP1 RETURN JUMPDEST PUSH2 0x1BF PUSH1 0x3 SLOAD DUP2 JUMP JUMPDEST PUSH1 0x0 SLOAD PUSH2 0x1E8 SWAP1 PUSH1 0xFF AND DUP2 JUMP JUMPDEST PUSH1 0x40 MLOAD SWAP1 ISZERO ISZERO DUP2 MSTORE PUSH1 0x20 ADD PUSH2 0x1C9 JUMP JUMPDEST PUSH2 0x201 PUSH2 0xF001 DUP2 JUMP JUMPDEST PUSH1 0x40 MLOAD PUSH1 0x1 PUSH1 0x1 PUSH1 0xA0 SHL SUB SWAP1 SWAP2 AND DUP2 MSTORE PUSH1 0x20 ADD PUSH2 0x1C9 JUMP JUMPDEST PUSH2 0x1BF PUSH1 0x6 SLOAD DUP2 JUMP JUMPDEST PUSH2 0x1BF PUSH2 0x230 CALLDATASIZE PUSH1 0x4 PUSH2 0xBD8 JUMP JUMPDEST PUSH1 0x1 PUSH1 0x1 PUSH1 0xA0 SHL SUB AND PUSH1 0x0 SWAP1 DUP2 MSTORE PUSH1 0x8 PUSH1 0x20 MSTORE PUSH1 0x40 SWAP1 KECCAK256 SLOAD SWAP1 JUMP JUMPDEST PUSH2 0x1BF PUSH2 0x2710 DUP2 JUMP JUMPDEST PUSH2 0x201 PUSH2 0xF000 DUP2 JUMP JUMPDEST PUSH2 0x1BF PUSH2 0x1388 DUP2 JUMP JUMPDEST PUSH2 0x1BF PUSH1 0x5 SLOAD DUP2 JUMP JUMPDEST PUSH2 0x201 PUSH2 0xF002 DUP2 JUMP JUMPDEST PUSH2 0x1E8 PUSH2 0x286 CALLDATASIZE PUSH1 0x4 PUSH2 0xBD8 JUMP JUMPDEST PUSH2 0x372 JUMP JUMPDEST PUSH2 0x293 PUSH2 0x59E JUMP JUMPDEST STOP JUMPDEST PUSH2 0x1BF PUSH8 0xDE0B6B3A7640000 DUP2 JUMP JUMPDEST PUSH2 0x1BF PUSH1 0x1 SLOAD DUP2 JUMP JUMPDEST PUSH2 0x1BF PUSH11 0x52B7D2DCC80CD2E4000000 DUP2 JUMP JUMPDEST PUSH2 0x1BF PUSH9 0x1BC16D674EC800000 DUP2 JUMP JUMPDEST PUSH2 0x2D7 PUSH1 0x1E DUP2 JUMP JUMPDEST PUSH1 0x40 MLOAD PUSH2 0xFFFF SWAP1 SWAP2 AND DUP2 MSTORE PUSH1 0x20 ADD PUSH2 0x1C9 JUMP JUMPDEST PUSH2 0x1BF PUSH1 0x4 SLOAD DUP2 JUMP JUMPDEST PUSH2 0x1BF PUSH2 0xAFC8 DUP2 JUMP JUMPDEST PUSH2 0x293 PUSH2 0x30A CALLDATASIZE PUSH1 0x4 PUSH2 0xC08 JUMP JUMPDEST PUSH2 0x619 JUMP JUMPDEST PUSH2 0x319 PUSH3 0x15180 DUP2 JUMP JUMPDEST PUSH1 0x40 MLOAD PUSH8 0xFFFFFFFFFFFFFFFF SWAP1 SWAP2 AND DUP2 MSTORE PUSH1 0x20 ADD PUSH2 0x1C9 JUMP JUMPDEST PUSH1 0x9 SLOAD PUSH2 0x1BF JUMP JUMPDEST PUSH2 0x293 PUSH2 0x348 CALLDATASIZE PUSH1 0x4 PUSH2 0xBD8 JUMP JUMPDEST PUSH2 0x8AE JUMP JUMPDEST PUSH2 0x1BF PUSH1 0x2 SLOAD DUP2 JUMP JUMPDEST PUSH2 0x201 PUSH2 0x364 CALLDATASIZE PUSH1 0x4 PUSH2 0xC08 JUMP JUMPDEST PUSH2 0xBAE JUMP JUMPDEST PUSH2 0x1BF PUSH2 0x9C40 DUP2 JUMP JUMPDEST PUSH1 0x0 DUP1 SLOAD PUSH1 0xFF AND PUSH2 0x39E JUMPI PUSH1 0x40 MLOAD PUSH3 0x461BCD PUSH1 0xE5 SHL DUP2 MSTORE PUSH1 0x4 ADD PUSH2 0x395 SWAP1 PUSH2 0xC21 JUMP JUMPDEST PUSH1 0x40 MLOAD DUP1 SWAP2 SUB SWAP1 REVERT JUMPDEST CALLER PUSH2 0xF000 EQ PUSH2 0x3EF JUMPI PUSH1 0x40 MLOAD PUSH3 0x461BCD PUSH1 0xE5 SHL DUP2 MSTORE PUSH1 0x20 PUSH1 0x4 DUP3 ADD MSTORE PUSH1 0x18 PUSH1 0x24 DUP3 ADD MSTORE PUSH32 0x56616C696461746F727320636F6E7472616374206F6E6C790000000000000000 PUSH1 0x44 DUP3 ADD MSTORE PUSH1 0x64 ADD PUSH2 0x395 JUMP JUMPDEST PUSH1 0x1 PUSH1 0x1 PUSH1 0xA0 SHL SUB DUP3 AND PUSH1 0x0 SWAP1 DUP2 MSTORE PUSH1 0x8 PUSH1 0x20 MSTORE PUSH1 0x40 SWAP1 KECCAK256 SLOAD ISZERO PUSH2 0x427 JUMPI PUSH1 0x1 PUSH1 0x1 PUSH1 0xA0 SHL SUB DUP3 AND PUSH1 0x0 SWAP1 DUP2 MSTORE PUSH1 0x8 PUSH1 0x20 MSTORE PUSH1 0x40 DUP2 KECCAK256 SSTORE JUMPDEST PUSH1 0x1 PUSH1 0x1 PUSH1 0xA0 SHL SUB DUP3 AND PUSH1 0x0 SWAP1 DUP2 MSTORE PUSH1 0x8 PUSH1 0x20 MSTORE PUSH1 0x40 SWAP1 KECCAK256 PUSH1 0x2 ADD SLOAD PUSH1 0xFF AND DUP1 ISZERO PUSH2 0x453 JUMPI POP PUSH1 0x9 SLOAD ISZERO ISZERO JUMPDEST ISZERO PUSH2 0x596 JUMPI PUSH1 0x9 SLOAD PUSH2 0x467 SWAP1 PUSH1 0x1 SWAP1 PUSH2 0xC5D JUMP JUMPDEST PUSH1 0x1 PUSH1 0x1 PUSH1 0xA0 SHL SUB DUP4 AND PUSH1 0x0 SWAP1 DUP2 MSTORE PUSH1 0x8 PUSH1 0x20 MSTORE PUSH1 0x40 SWAP1 KECCAK256 PUSH1 0x1 ADD SLOAD EQ PUSH2 0x537 JUMPI PUSH1 0x9 DUP1 SLOAD PUSH1 0x0 SWAP2 SWAP1 PUSH2 0x49C SWAP1 PUSH1 0x1 SWAP1 PUSH2 0xC5D JUMP JUMPDEST DUP2 SLOAD DUP2 LT PUSH2 0x4AC JUMPI PUSH2 0x4AC PUSH2 0xC76 JUMP JUMPDEST PUSH1 0x0 SWAP2 DUP3 MSTORE PUSH1 0x20 DUP1 DUP4 KECCAK256 SWAP1 SWAP2 ADD SLOAD PUSH1 0x1 PUSH1 0x1 PUSH1 0xA0 SHL SUB DUP7 DUP2 AND DUP5 MSTORE PUSH1 0x8 SWAP1 SWAP3 MSTORE PUSH1 0x40 SWAP1 SWAP3 KECCAK256 PUSH1 0x1 ADD SLOAD PUSH1 0x9 DUP1 SLOAD SWAP3 SWAP1 SWAP4 AND SWAP4 POP DUP4 SWAP3 SWAP2 DUP2 LT PUSH2 0x4F0 JUMPI PUSH2 0x4F0 PUSH2 0xC76 JUMP JUMPDEST PUSH1 0x0 SWAP2 DUP3 MSTORE PUSH1 0x20 DUP1 DUP4 KECCAK256 SWAP2 SWAP1 SWAP2 ADD DUP1 SLOAD PUSH1 0x1 PUSH1 0x1 PUSH1 0xA0 SHL SUB NOT AND PUSH1 0x1 PUSH1 0x1 PUSH1 0xA0 SHL SUB SWAP5 DUP6 AND OR SWAP1 SSTORE DUP6 DUP4 AND DUP3 MSTORE PUSH1 0x8 SWAP1 MSTORE PUSH1 0x40 DUP1 DUP3 KECCAK256 PUSH1 0x1 SWAP1 DUP2 ADD SLOAD SWAP5 SWAP1 SWAP4 AND DUP3 MSTORE SWAP1 KECCAK256 ADD SSTORE JUMPDEST PUSH1 0x9 DUP1 SLOAD DUP1 PUSH2 0x548 JUMPI PUSH2 0x548 PUSH2 0xC8C JUMP JUMPDEST PUSH1 0x0 DUP3 DUP2 MSTORE PUSH1 0x20 DUP1 DUP3 KECCAK256 DUP4 ADD PUSH1 0x0 NOT SWAP1 DUP2 ADD DUP1 SLOAD PUSH1 0x1 PUSH1 0x1 PUSH1 0xA0 SHL SUB NOT AND SWAP1 SSTORE SWAP1 SWAP3 ADD SWAP1 SWAP3 SSTORE PUSH1 0x1 PUSH1 0x1 PUSH1 0xA0 SHL SUB DUP5 AND DUP3 MSTORE PUSH1 0x8 SWAP1 MSTORE PUSH1 0x40 DUP2 KECCAK256 PUSH1 0x1 DUP2 ADD SWAP2 SWAP1 SWAP2 SSTORE PUSH1 0x2 ADD DUP1 SLOAD PUSH1 0xFF NOT AND SWAP1 SSTORE JUMPDEST POP PUSH1 0x1 SWAP2 SWAP1 POP JUMP JUMPDEST PUSH1 0x0 SLOAD PUSH1 0xFF AND ISZERO PUSH2 0x5E7 JUMPI PUSH1 0x40 MLOAD PUSH3 0x461BCD PUSH1 0xE5 SHL DUP2 MSTORE PUSH1 0x20 PUSH1 0x4 DUP3 ADD MSTORE PUSH1 0x13 PUSH1 0x24 DUP3 ADD MSTORE PUSH19 0x105B1C9958591E481A5B9A5D1A585B1A5E9959 PUSH1 0x6A SHL PUSH1 0x44 DUP3 ADD MSTORE PUSH1 0x64 ADD PUSH2 0x395 JUMP JUMPDEST PUSH1 0x7 DUP1 SLOAD PUSH1 0x1 PUSH1 0x1 PUSH1 0xA0 SHL SUB NOT AND PUSH2 0xF000 OR SWAP1 SSTORE PUSH1 0x30 PUSH1 0x4 DUP2 SWAP1 SSTORE PUSH1 0x60 PUSH1 0x5 SSTORE PUSH1 0x6 SSTORE PUSH1 0x0 DUP1 SLOAD PUSH1 0xFF NOT AND PUSH1 0x1 OR SWAP1 SSTORE JUMP JUMPDEST CALLER COINBASE EQ PUSH2 0x655 JUMPI PUSH1 0x40 MLOAD PUSH3 0x461BCD PUSH1 0xE5 SHL DUP2 MSTORE PUSH1 0x20 PUSH1 0x4 DUP3 ADD MSTORE PUSH1 0xA PUSH1 0x24 DUP3 ADD MSTORE PUSH10 0x4D696E6572206F6E6C79 PUSH1 0xB0 SHL PUSH1 0x44 DUP3 ADD MSTORE PUSH1 0x64 ADD PUSH2 0x395 JUMP JUMPDEST NUMBER PUSH1 0x0 SWAP1 DUP2 MSTORE PUSH1 0xB PUSH1 0x20 MSTORE PUSH1 0x40 SWAP1 KECCAK256 SLOAD PUSH1 0xFF AND ISZERO PUSH2 0x6A9 JUMPI PUSH1 0x40 MLOAD PUSH3 0x461BCD PUSH1 0xE5 SHL DUP2 MSTORE PUSH1 0x20 PUSH1 0x4 DUP3 ADD MSTORE PUSH1 0x11 PUSH1 0x24 DUP3 ADD MSTORE PUSH17 0x105B1C9958591E48191958DC99585CD959 PUSH1 0x7A SHL PUSH1 0x44 DUP3 ADD MSTORE PUSH1 0x64 ADD PUSH2 0x395 JUMP JUMPDEST PUSH1 0x0 SLOAD PUSH1 0xFF AND PUSH2 0x6CB JUMPI PUSH1 0x40 MLOAD PUSH3 0x461BCD PUSH1 0xE5 SHL DUP2 MSTORE PUSH1 0x4 ADD PUSH2 0x395 SWAP1 PUSH2 0xC21 JUMP JUMPDEST DUP1 PUSH2 0x6D6 DUP2 NUMBER PUSH2 0xCB8 JUMP JUMPDEST ISZERO PUSH2 0x716 JUMPI PUSH1 0x40 MLOAD PUSH3 0x461BCD PUSH1 0xE5 SHL DUP2 MSTORE PUSH1 0x20 PUSH1 0x4 DUP3 ADD MSTORE PUSH1 0x10 PUSH1 0x24 DUP3 ADD MSTORE PUSH16 0x426C6F636B2065706F6368206F6E6C79 PUSH1 0x80 SHL PUSH1 0x44 DUP3 ADD MSTORE PUSH1 0x64 ADD PUSH2 0x395 JUMP JUMPDEST NUMBER PUSH1 0x0 SWAP1 DUP2 MSTORE PUSH1 0xB PUSH1 0x20 MSTORE PUSH1 0x40 SWAP1 KECCAK256 DUP1 SLOAD PUSH1 0xFF NOT AND PUSH1 0x1 OR SWAP1 SSTORE PUSH1 0x9 SLOAD ISZERO PUSH2 0x8AA JUMPI PUSH1 0x0 JUMPDEST PUSH1 0x9 SLOAD DUP2 LT ISZERO PUSH2 0x87F JUMPI PUSH1 0x6 SLOAD PUSH1 0x5 SLOAD PUSH2 0x755 SWAP2 SWAP1 PUSH2 0xCCC JUMP JUMPDEST PUSH1 0x8 PUSH1 0x0 PUSH1 0x9 DUP5 DUP2 SLOAD DUP2 LT PUSH2 0x76C JUMPI PUSH2 0x76C PUSH2 0xC76 JUMP JUMPDEST PUSH1 0x0 SWAP2 DUP3 MSTORE PUSH1 0x20 DUP1 DUP4 KECCAK256 SWAP1 SWAP2 ADD SLOAD PUSH1 0x1 PUSH1 0x1 PUSH1 0xA0 SHL SUB AND DUP4 MSTORE DUP3 ADD SWAP3 SWAP1 SWAP3 MSTORE PUSH1 0x40 ADD SWAP1 KECCAK256 SLOAD GT ISZERO PUSH2 0x82E JUMPI PUSH1 0x6 SLOAD PUSH1 0x5 SLOAD PUSH2 0x7A7 SWAP2 SWAP1 PUSH2 0xCCC JUMP JUMPDEST PUSH1 0x8 PUSH1 0x0 PUSH1 0x9 DUP5 DUP2 SLOAD DUP2 LT PUSH2 0x7BE JUMPI PUSH2 0x7BE PUSH2 0xC76 JUMP JUMPDEST PUSH1 0x0 SWAP2 DUP3 MSTORE PUSH1 0x20 DUP1 DUP4 KECCAK256 SWAP1 SWAP2 ADD SLOAD PUSH1 0x1 PUSH1 0x1 PUSH1 0xA0 SHL SUB AND DUP4 MSTORE DUP3 ADD SWAP3 SWAP1 SWAP3 MSTORE PUSH1 0x40 ADD SWAP1 KECCAK256 SLOAD PUSH2 0x7ED SWAP2 SWAP1 PUSH2 0xC5D JUMP JUMPDEST PUSH1 0x8 PUSH1 0x0 PUSH1 0x9 DUP5 DUP2 SLOAD DUP2 LT PUSH2 0x804 JUMPI PUSH2 0x804 PUSH2 0xC76 JUMP JUMPDEST PUSH1 0x0 SWAP2 DUP3 MSTORE PUSH1 0x20 DUP1 DUP4 KECCAK256 SWAP1 SWAP2 ADD SLOAD PUSH1 0x1 PUSH1 0x1 PUSH1 0xA0 SHL SUB AND DUP4 MSTORE DUP3 ADD SWAP3 SWAP1 SWAP3 MSTORE PUSH1 0x40 ADD SWAP1 KECCAK256 SSTORE PUSH2 0x86D JUMP JUMPDEST PUSH1 0x0 PUSH1 0x8 PUSH1 0x0 PUSH1 0x9 DUP5 DUP2 SLOAD DUP2 LT PUSH2 0x847 JUMPI PUSH2 0x847 PUSH2 0xC76 JUMP JUMPDEST PUSH1 0x0 SWAP2 DUP3 MSTORE PUSH1 0x20 DUP1 DUP4 KECCAK256 SWAP1 SWAP2 ADD SLOAD PUSH1 0x1 PUSH1 0x1 PUSH1 0xA0 SHL SUB AND DUP4 MSTORE DUP3 ADD SWAP3 SWAP1 SWAP3 MSTORE PUSH1 0x40 ADD SWAP1 KECCAK256 SSTORE JUMPDEST DUP1 PUSH2 0x877 DUP2 PUSH2 0xCE0 JUMP JUMPDEST SWAP2 POP POP PUSH2 0x73B JUMP JUMPDEST POP PUSH1 0x40 MLOAD PUSH32 0x181D51BE54E8E8EACA6EAE0EAB32D4162099236BD519E7238D015D0870DB4641 SWAP1 PUSH1 0x0 SWAP1 LOG1 JUMPDEST POP POP JUMP JUMPDEST CALLER COINBASE EQ PUSH2 0x8EA JUMPI PUSH1 0x40 MLOAD PUSH3 0x461BCD PUSH1 0xE5 SHL DUP2 MSTORE PUSH1 0x20 PUSH1 0x4 DUP3 ADD MSTORE PUSH1 0xA PUSH1 0x24 DUP3 ADD MSTORE PUSH10 0x4D696E6572206F6E6C79 PUSH1 0xB0 SHL PUSH1 0x44 DUP3 ADD MSTORE PUSH1 0x64 ADD PUSH2 0x395 JUMP JUMPDEST PUSH1 0x0 SLOAD PUSH1 0xFF AND PUSH2 0x90C JUMPI PUSH1 0x40 MLOAD PUSH3 0x461BCD PUSH1 0xE5 SHL DUP2 MSTORE PUSH1 0x4 ADD PUSH2 0x395 SWAP1 PUSH2 0xC21 JUMP JUMPDEST NUMBER PUSH1 0x0 SWAP1 DUP2 MSTORE PUSH1 0xA PUSH1 0x20 MSTORE PUSH1 0x40 SWAP1 KECCAK256 SLOAD PUSH1 0xFF AND ISZERO PUSH2 0x95F JUMPI PUSH1 0x40 MLOAD PUSH3 0x461BCD PUSH1 0xE5 SHL DUP2 MSTORE PUSH1 0x20 PUSH1 0x4 DUP3 ADD MSTORE PUSH1 0x10 PUSH1 0x24 DUP3 ADD MSTORE PUSH16 0x105B1C9958591E481C1D5B9A5CDA1959 PUSH1 0x82 SHL PUSH1 0x44 DUP3 ADD MSTORE PUSH1 0x64 ADD PUSH2 0x395 JUMP JUMPDEST NUMBER PUSH1 0x0 SWAP1 DUP2 MSTORE PUSH1 0xA PUSH1 0x20 SWAP1 DUP2 MSTORE PUSH1 0x40 DUP1 DUP4 KECCAK256 DUP1 SLOAD PUSH1 0xFF NOT AND PUSH1 0x1 OR SWAP1 SSTORE PUSH1 0x1 PUSH1 0x1 PUSH1 0xA0 SHL SUB DUP5 AND DUP4 MSTORE PUSH1 0x8 SWAP1 SWAP2 MSTORE SWAP1 KECCAK256 PUSH1 0x2 ADD SLOAD PUSH1 0xFF AND PUSH2 0xA08 JUMPI PUSH1 0x9 DUP1 SLOAD PUSH1 0x1 PUSH1 0x1 PUSH1 0xA0 SHL SUB DUP4 AND PUSH1 0x0 DUP2 DUP2 MSTORE PUSH1 0x8 PUSH1 0x20 MSTORE PUSH1 0x40 DUP2 KECCAK256 PUSH1 0x1 DUP1 DUP3 ADD DUP6 SWAP1 SSTORE DUP1 DUP6 ADD SWAP1 SWAP6 SSTORE PUSH32 0x6E1540171B6C0C960B71A7020D9F60077F6AF931A8BBF590DA0223DACF75C7AF SWAP1 SWAP4 ADD DUP1 SLOAD PUSH1 0x1 PUSH1 0x1 PUSH1 0xA0 SHL SUB NOT AND DUP4 OR SWAP1 SSTORE MSTORE PUSH1 0x2 ADD DUP1 SLOAD PUSH1 0xFF NOT AND SWAP1 SWAP2 OR SWAP1 SSTORE JUMPDEST PUSH1 0x1 PUSH1 0x1 PUSH1 0xA0 SHL SUB DUP2 AND PUSH1 0x0 SWAP1 DUP2 MSTORE PUSH1 0x8 PUSH1 0x20 MSTORE PUSH1 0x40 DUP2 KECCAK256 DUP1 SLOAD SWAP2 PUSH2 0xA2C DUP4 PUSH2 0xCE0 JUMP JUMPDEST SWAP1 SWAP2 SSTORE POP POP PUSH1 0x5 SLOAD PUSH1 0x1 PUSH1 0x1 PUSH1 0xA0 SHL SUB DUP3 AND PUSH1 0x0 SWAP1 DUP2 MSTORE PUSH1 0x8 PUSH1 0x20 MSTORE PUSH1 0x40 SWAP1 KECCAK256 SLOAD PUSH2 0xA57 SWAP2 SWAP1 PUSH2 0xCB8 JUMP JUMPDEST PUSH1 0x0 SUB PUSH2 0xADB JUMPI PUSH1 0x7 SLOAD PUSH1 0x40 MLOAD PUSH4 0x40A141FF PUSH1 0xE0 SHL DUP2 MSTORE PUSH1 0x1 PUSH1 0x1 PUSH1 0xA0 SHL SUB DUP4 DUP2 AND PUSH1 0x4 DUP4 ADD MSTORE SWAP1 SWAP2 AND SWAP1 PUSH4 0x40A141FF SWAP1 PUSH1 0x24 ADD PUSH1 0x0 PUSH1 0x40 MLOAD DUP1 DUP4 SUB DUP2 PUSH1 0x0 DUP8 DUP1 EXTCODESIZE ISZERO DUP1 ISZERO PUSH2 0xAA5 JUMPI PUSH1 0x0 DUP1 REVERT JUMPDEST POP GAS CALL ISZERO DUP1 ISZERO PUSH2 0xAB9 JUMPI RETURNDATASIZE PUSH1 0x0 DUP1 RETURNDATACOPY RETURNDATASIZE PUSH1 0x0 REVERT JUMPDEST POP POP POP PUSH1 0x1 PUSH1 0x1 PUSH1 0xA0 SHL SUB DUP3 AND PUSH1 0x0 SWAP1 DUP2 MSTORE PUSH1 0x8 PUSH1 0x20 MSTORE PUSH1 0x40 DUP2 KECCAK256 SSTORE POP PUSH2 0xB68 JUMP JUMPDEST PUSH1 0x4 SLOAD PUSH1 0x1 PUSH1 0x1 PUSH1 0xA0 SHL SUB DUP3 AND PUSH1 0x0 SWAP1 DUP2 MSTORE PUSH1 0x8 PUSH1 0x20 MSTORE PUSH1 0x40 SWAP1 KECCAK256 SLOAD PUSH2 0xB01 SWAP2 SWAP1 PUSH2 0xCB8 JUMP JUMPDEST PUSH1 0x0 SUB PUSH2 0xB68 JUMPI PUSH1 0x7 SLOAD PUSH1 0x40 MLOAD PUSH4 0x5DD0959 PUSH1 0xE4 SHL DUP2 MSTORE PUSH1 0x1 PUSH1 0x1 PUSH1 0xA0 SHL SUB DUP4 DUP2 AND PUSH1 0x4 DUP4 ADD MSTORE SWAP1 SWAP2 AND SWAP1 PUSH4 0x5DD09590 SWAP1 PUSH1 0x24 ADD PUSH1 0x0 PUSH1 0x40 MLOAD DUP1 DUP4 SUB DUP2 PUSH1 0x0 DUP8 DUP1 EXTCODESIZE ISZERO DUP1 ISZERO PUSH2 0xB4F JUMPI PUSH1 0x0 DUP1 REVERT JUMPDEST POP GAS CALL ISZERO DUP1 ISZERO PUSH2 0xB63 JUMPI RETURNDATASIZE PUSH1 0x0 DUP1 RETURNDATACOPY RETURNDATASIZE PUSH1 0x0 REVERT JUMPDEST POP POP POP POP JUMPDEST DUP1 PUSH1 0x1 PUSH1 0x1 PUSH1 0xA0 SHL SUB AND PUSH32 0x770E0CCA42C35D00240986CE8D3ED438BE04663C91DAC6576B79537D7C180F1E TIMESTAMP PUSH1 0x40 MLOAD PUSH2 0xBA3 SWAP2 DUP2 MSTORE PUSH1 0x20 ADD SWAP1 JUMP JUMPDEST PUSH1 0x40 MLOAD DUP1 SWAP2 SUB SWAP1 LOG2 POP JUMP JUMPDEST PUSH1 0x9 DUP2 DUP2 SLOAD DUP2 LT PUSH2 0xBBE JUMPI PUSH1 0x0 DUP1 REVERT JUMPDEST PUSH1 0x0 SWAP2 DUP3 MSTORE PUSH1 0x20 SWAP1 SWAP2 KECCAK256 ADD SLOAD PUSH1 0x1 PUSH1 0x1 PUSH1 0xA0 SHL SUB AND SWAP1 POP DUP2 JUMP JUMPDEST PUSH1 0x0 PUSH1 0x20 DUP3 DUP5 SUB SLT ISZERO PUSH2 0xBEA JUMPI PUSH1 0x0 DUP1 REVERT JUMPDEST DUP2 CALLDATALOAD PUSH1 0x1 PUSH1 0x1 PUSH1 0xA0 SHL SUB DUP2 AND DUP2 EQ PUSH2 0xC01 JUMPI PUSH1 0x0 DUP1 REVERT JUMPDEST SWAP4 SWAP3 POP POP POP JUMP JUMPDEST PUSH1 0x0 PUSH1 0x20 DUP3 DUP5 SUB SLT ISZERO PUSH2 0xC1A JUMPI PUSH1 0x0 DUP1 REVERT JUMPDEST POP CALLDATALOAD SWAP2 SWAP1 POP JUMP JUMPDEST PUSH1 0x20 DUP1 DUP3 MSTORE PUSH1 0xC SWAP1 DUP3 ADD MSTORE PUSH12 0x139BDD081A5B9A5D081E595D PUSH1 0xA2 SHL PUSH1 0x40 DUP3 ADD MSTORE PUSH1 0x60 ADD SWAP1 JUMP JUMPDEST PUSH4 0x4E487B71 PUSH1 0xE0 SHL PUSH1 0x0 MSTORE PUSH1 0x11 PUSH1 0x4 MSTORE PUSH1 0x24 PUSH1 0x0 REVERT JUMPDEST DUP2 DUP2 SUB DUP2 DUP2 GT ISZERO PUSH2 0xC70 JUMPI PUSH2 0xC70 PUSH2 0xC47 JUMP JUMPDEST SWAP3 SWAP2 POP POP JUMP JUMPDEST PUSH4 0x4E487B71 PUSH1 0xE0 SHL PUSH1 0x0 MSTORE PUSH1 0x32 PUSH1 0x4 MSTORE PUSH1 0x24 PUSH1 0x0 REVERT JUMPDEST PUSH4 0x4E487B71 PUSH1 0xE0 SHL PUSH1 0x0 MSTORE PUSH1 0x31 PUSH1 0x4 MSTORE PUSH1 0x24 PUSH1 0x0 REVERT JUMPDEST PUSH4 0x4E487B71 PUSH1 0xE0 SHL PUSH1 0x0 MSTORE PUSH1 0x12 PUSH1 0x4 MSTORE PUSH1 0x24 PUSH1 0x0 REVERT JUMPDEST PUSH1 0x0 DUP3 PUSH2 0xCC7 JUMPI PUSH2 0xCC7 PUSH2 0xCA2 JUMP JUMPDEST POP MOD SWAP1 JUMP JUMPDEST PUSH1 0x0 DUP3 PUSH2 0xCDB JUMPI PUSH2 0xCDB PUSH2 0xCA2 JUMP JUMPDEST POP DIV SWAP1 JUMP JUMPDEST PUSH1 0x0 PUSH1 0x1 DUP3 ADD PUSH2 0xCF2 JUMPI PUSH2 0xCF2 PUSH2 0xC47 JUMP JUMPDEST POP PUSH1 0x1 ADD SWAP1 JUMP INVALID LOG2 PUSH5 0x6970667358 0x22 SLT KECCAK256 0xC MUL POP 0x5F MOD PUSH28 0xF4F89EBD4429162336F7BE4E7899FA4B0672D6E21B049072CD346473 PUSH16 0x6C634300081100330000000000000000 "},"methodIdentifiers":{"MaxValidators()":"c967f90f","MinimalStakingCoin()":"be645692","ProposalAddr()":"6233be5d","PunishContractAddr()":"1b5e358c","StakingLockPeriod()":"db78dd28","ValidatorContractAddr()":"3a061bd3","burnPartPercent()":"37dbc8cc","burnStopAmount()":"9d7714ce","cleanPunishRecord(address)":"63e1d451","contractPartPercent()":"fca737c0","decreaseMissedBlocksCounter(uint256)":"d93d2cb9","decreaseRate()":"2897183d","extraRewardsPerBlock()":"8ae53dbd","getPunishRecord(address)":"32f3c17f","getPunishValidatorsLen()":"e0d8ea53","initialize()":"8129fc1c","initialized()":"158ef93e","minimumValidatorStaking()":"0976c65d","punish(address)":"ea7221a1","punishThreshold()":"cb1ea725","punishValidators(uint256)":"f62af26c","removeThreshold()":"44c1aa99","rewardFund()":"efe22266","stakerPartPercent()":"cd779d21","totalBurnt()":"966ff650","totalRewards()":"0e15561a","validatorPartPercent()":"42127ee7"}}}}}