{"contracts/Validators.sol":{"Validators":{"abi":[{"anonymous":false,"inputs":[{"indexed":true,"internalType":"address","name":"val","type":"address"},{"indexed":false,"internalType":"uint256","name":"time","type":"uint256"}],"name":"LogAddToTopValidators","type":"event"},{"anonymous":false,"inputs":[{"indexed":true,"internalType":"address","name":"val","type":"address"},{"indexed":true,"internalType":"address","name":"fee","type":"address"},{"indexed":false,"internalType":"uint256","name":"time","type":"uint256"}],"name":"LogCreateValidator","type":"event"},{"anonymous":false,"inputs":[{"indexed":true,"internalType":"address","name":"coinbase","type":"address"},{"indexed":false,"internalType":"uint256","name":"blockReward","type":"uint256"},{"indexed":false,"internalType":"uint256","name":"time","type":"uint256"},{"indexed":false,"internalType":"address[]","name":"To","type":"address[]"},{"indexed":false,"internalType":"uint64[]","name":"Gass","type":"uint64[]"}],"name":"LogDistributeBlockReward","type":"event"},{"anonymous":false,"inputs":[{"indexed":true,"internalType":"address","name":"val","type":"address"},{"indexed":true,"internalType":"address","name":"fee","type":"address"},{"indexed":false,"internalType":"uint256","name":"time","type":"uint256"}],"name":"LogEditValidator","type":"event"},{"anonymous":false,"inputs":[{"indexed":true,"internalType":"address","name":"val","type":"address"},{"indexed":false,"internalType":"uint256","name":"time","type":"uint256"}],"name":"LogReactive","type":"event"},{"anonymous":false,"inputs":[{"indexed":true,"internalType":"address","name":"val","type":"address"},{"indexed":false,"internalType":"uint256","name":"time","type":"uint256"}],"name":"LogRemoveFromTopValidators","type":"event"},{"anonymous":false,"inputs":[{"indexed":true,"internalType":"address","name":"val","type":"address"},{"indexed":false,"internalType":"uint256","name":"hb","type":"uint256"},{"indexed":false,"internalType":"uint256","name":"time","type":"uint256"}],"name":"LogRemoveValidator","type":"event"},{"anonymous":false,"inputs":[{"indexed":true,"internalType":"address","name":"val","type":"address"},{"indexed":false,"internalType":"uint256","name":"hb","type":"uint256"},{"indexed":false,"internalType":"uint256","name":"time","type":"uint256"}],"name":"LogRemoveValidatorIncoming","type":"event"},{"anonymous":false,"inputs":[{"indexed":true,"internalType":"address","name":"staker","type":"address"},{"indexed":true,"internalType":"address","name":"val","type":"address"},{"indexed":false,"internalType":"uint256","name":"staking","type":"uint256"},{"indexed":false,"internalType":"uint256","name":"time","type":"uint256"}],"name":"LogStake","type":"event"},{"anonymous":false,"inputs":[{"indexed":true,"internalType":"address","name":"staker","type":"address"},{"indexed":true,"internalType":"address","name":"val","type":"address"},{"indexed":false,"internalType":"uint256","name":"amount","type":"uint256"},{"indexed":false,"internalType":"uint256","name":"time","type":"uint256"}],"name":"LogUnstake","type":"event"},{"anonymous":false,"inputs":[{"indexed":false,"internalType":"address[]","name":"newSet","type":"address[]"}],"name":"LogUpdateValidator","type":"event"},{"anonymous":false,"inputs":[{"indexed":true,"internalType":"address","name":"val","type":"address"},{"indexed":true,"internalType":"address","name":"fee","type":"address"},{"indexed":false,"internalType":"uint256","name":"hb","type":"uint256"},{"indexed":false,"internalType":"uint256","name":"time","type":"uint256"}],"name":"LogWithdrawProfits","type":"event"},{"anonymous":false,"inputs":[{"indexed":true,"internalType":"address","name":"staker","type":"address"},{"indexed":true,"internalType":"address","name":"val","type":"address"},{"indexed":false,"internalType":"uint256","name":"amount","type":"uint256"},{"indexed":false,"internalType":"uint256","name":"time","type":"uint256"}],"name":"LogWithdrawStaking","type":"event"},{"anonymous":false,"inputs":[{"indexed":false,"internalType":"address","name":"user","type":"address"},{"indexed":false,"internalType":"address","name":"validator","type":"address"},{"indexed":false,"internalType":"uint256","name":"reward","type":"uint256"},{"indexed":false,"internalType":"uint256","name":"timeStamp","type":"uint256"}],"name":"withdrawStakingRewardEv","type":"event"},{"inputs":[],"name":"MaxValidators","outputs":[{"internalType":"uint16","name":"","type":"uint16"}],"stateMutability":"view","type":"function"},{"inputs":[],"name":"MinimalStakingCoin","outputs":[{"internalType":"uint256","name":"","type":"uint256"}],"stateMutability":"view","type":"function"},{"inputs":[],"name":"ProposalAddr","outputs":[{"internalType":"address","name":"","type":"address"}],"stateMutability":"view","type":"function"},{"inputs":[],"name":"PunishContractAddr","outputs":[{"internalType":"address","name":"","type":"address"}],"stateMutability":"view","type":"function"},{"inputs":[],"name":"StakingLockPeriod","outputs":[{"internalType":"uint64","name":"","type":"uint64"}],"stateMutability":"view","type":"function"},{"inputs":[],"name":"ValidatorContractAddr","outputs":[{"internalType":"address payable","name":"","type":"address"}],"stateMutability":"view","type":"function"},{"inputs":[],"name":"burnPartPercent","outputs":[{"internalType":"uint256","name":"","type":"uint256"}],"stateMutability":"view","type":"function"},{"inputs":[],"name":"burnStopAmount","outputs":[{"internalType":"uint256","name":"","type":"uint256"}],"stateMutability":"view","type":"function"},{"inputs":[{"internalType":"address","name":"","type":"address"}],"name":"contractCreator","outputs":[{"internalType":"address","name":"","type":"address"}],"stateMutability":"view","type":"function"},{"inputs":[],"name":"contractPartPercent","outputs":[{"internalType":"uint256","name":"","type":"uint256"}],"stateMutability":"view","type":"function"},{"inputs":[{"internalType":"address payable","name":"feeAddr","type":"address"},{"internalType":"string","name":"moniker","type":"string"},{"internalType":"string","name":"identity","type":"string"},{"internalType":"string","name":"website","type":"string"},{"internalType":"string","name":"email","type":"string"},{"internalType":"string","name":"details","type":"string"}],"name":"createOrEditValidator","outputs":[{"internalType":"bool","name":"","type":"bool"}],"stateMutability":"payable","type":"function"},{"inputs":[{"internalType":"uint256","name":"","type":"uint256"}],"name":"currentValidatorSet","outputs":[{"internalType":"address","name":"","type":"address"}],"stateMutability":"view","type":"function"},{"inputs":[{"internalType":"address[]","name":"_to","type":"address[]"},{"internalType":"uint64[]","name":"_gass","type":"uint64[]"}],"name":"distributeBlockReward","outputs":[],"stateMutability":"payable","type":"function"},{"inputs":[],"name":"extraRewardsPerBlock","outputs":[{"internalType":"uint256","name":"","type":"uint256"}],"stateMutability":"view","type":"function"},{"inputs":[],"name":"getActiveValidators","outputs":[{"internalType":"address[]","name":"","type":"address[]"}],"stateMutability":"view","type":"function"},{"inputs":[{"internalType":"address","name":"staker","type":"address"},{"internalType":"address","name":"val","type":"address"}],"name":"getStakingInfo","outputs":[{"internalType":"uint256","name":"","type":"uint256"},{"internalType":"uint256","name":"","type":"uint256"},{"internalType":"uint256","name":"","type":"uint256"}],"stateMutability":"view","type":"function"},{"inputs":[],"name":"getTopValidators","outputs":[{"internalType":"address[]","name":"","type":"address[]"}],"stateMutability":"view","type":"function"},{"inputs":[],"name":"getTotalStakeOfActiveValidators","outputs":[{"internalType":"uint256","name":"total","type":"uint256"},{"internalType":"uint256","name":"len","type":"uint256"}],"stateMutability":"view","type":"function"},{"inputs":[{"internalType":"address","name":"val","type":"address"}],"name":"getValidatorDescription","outputs":[{"internalType":"string","name":"","type":"string"},{"internalType":"string","name":"","type":"string"},{"internalType":"string","name":"","type":"string"},{"internalType":"string","name":"","type":"string"},{"internalType":"string","name":"","type":"string"}],"stateMutability":"view","type":"function"},{"inputs":[{"internalType":"address","name":"val","type":"address"}],"name":"getValidatorInfo","outputs":[{"internalType":"address payable","name":"","type":"address"},{"internalType":"enum Validators.Status","name":"","type":"uint8"},{"internalType":"uint256","name":"","type":"uint256"},{"internalType":"uint256","name":"","type":"uint256"},{"internalType":"uint256","name":"","type":"uint256"},{"internalType":"address[]","name":"","type":"address[]"}],"stateMutability":"view","type":"function"},{"inputs":[{"internalType":"uint256","name":"","type":"uint256"}],"name":"highestValidatorsSet","outputs":[{"internalType":"address","name":"","type":"address"}],"stateMutability":"view","type":"function"},{"inputs":[{"internalType":"address[]","name":"vals","type":"address[]"}],"name":"initialize","outputs":[],"stateMutability":"nonpayable","type":"function"},{"inputs":[],"name":"initialized","outputs":[{"internalType":"bool","name":"","type":"bool"}],"stateMutability":"view","type":"function"},{"inputs":[{"internalType":"address","name":"who","type":"address"}],"name":"isActiveValidator","outputs":[{"internalType":"bool","name":"","type":"bool"}],"stateMutability":"view","type":"function"},{"inputs":[{"internalType":"address","name":"who","type":"address"}],"name":"isTopValidator","outputs":[{"internalType":"bool","name":"","type":"bool"}],"stateMutability":"view","type":"function"},{"inputs":[{"internalType":"address","name":"","type":"address"}],"name":"lastRewardTime","outputs":[{"internalType":"uint256","name":"","type":"uint256"}],"stateMutability":"view","type":"function"},{"inputs":[],"name":"minimumValidatorStaking","outputs":[{"internalType":"uint256","name":"","type":"uint256"}],"stateMutability":"view","type":"function"},{"inputs":[{"internalType":"address","name":"","type":"address"},{"internalType":"uint256","name":"","type":"uint256"}],"name":"reflectionPercentSum","outputs":[{"internalType":"uint256","name":"","type":"uint256"}],"stateMutability":"view","type":"function"},{"inputs":[{"internalType":"address","name":"val","type":"address"}],"name":"removeValidator","outputs":[],"stateMutability":"nonpayable","type":"function"},{"inputs":[{"internalType":"address","name":"val","type":"address"}],"name":"removeValidatorIncoming","outputs":[],"stateMutability":"nonpayable","type":"function"},{"inputs":[],"name":"rewardFund","outputs":[{"internalType":"uint256","name":"","type":"uint256"}],"stateMutability":"view","type":"function"},{"inputs":[{"internalType":"address","name":"_contract","type":"address"}],"name":"setContractCreator","outputs":[{"internalType":"bool","name":"","type":"bool"}],"stateMutability":"nonpayable","type":"function"},{"inputs":[{"internalType":"address","name":"validator","type":"address"}],"name":"stake","outputs":[{"internalType":"bool","name":"","type":"bool"}],"stateMutability":"payable","type":"function"},{"inputs":[{"internalType":"address","name":"","type":"address"},{"internalType":"address","name":"","type":"address"}],"name":"stakeTime","outputs":[{"internalType":"uint256","name":"","type":"uint256"}],"stateMutability":"view","type":"function"},{"inputs":[],"name":"stakerPartPercent","outputs":[{"internalType":"uint256","name":"","type":"uint256"}],"stateMutability":"view","type":"function"},{"inputs":[],"name":"totalBurnt","outputs":[{"internalType":"uint256","name":"","type":"uint256"}],"stateMutability":"view","type":"function"},{"inputs":[],"name":"totalJailedHB","outputs":[{"internalType":"uint256","name":"","type":"uint256"}],"stateMutability":"view","type":"function"},{"inputs":[],"name":"totalRewards","outputs":[{"internalType":"uint256","name":"","type":"uint256"}],"stateMutability":"view","type":"function"},{"inputs":[],"name":"totalStake","outputs":[{"internalType":"uint256","name":"","type":"uint256"}],"stateMutability":"view","type":"function"},{"inputs":[{"internalType":"address","name":"validator","type":"address"}],"name":"tryReactive","outputs":[{"internalType":"bool","name":"","type":"bool"}],"stateMutability":"nonpayable","type":"function"},{"inputs":[{"internalType":"address","name":"validator","type":"address"}],"name":"unstake","outputs":[{"internalType":"bool","name":"","type":"bool"}],"stateMutability":"nonpayable","type":"function"},{"inputs":[{"internalType":"address[]","name":"newSet","type":"address[]"},{"internalType":"uint256","name":"epoch","type":"uint256"}],"name":"updateActiveValidatorSet","outputs":[],"stateMutability":"nonpayable","type":"function"},{"inputs":[{"internalType":"string","name":"moniker","type":"string"},{"internalType":"string","name":"identity","type":"string"},{"internalType":"string","name":"website","type":"string"},{"internalType":"string","name":"email","type":"string"},{"internalType":"string","name":"details","type":"string"}],"name":"validateDescription","outputs":[{"internalType":"bool","name":"","type":"bool"}],"stateMutability":"pure","type":"function"},{"inputs":[],"name":"validatorPartPercent","outputs":[{"internalType":"uint256","name":"","type":"uint256"}],"stateMutability":"view","type":"function"},{"inputs":[{"internalType":"address","name":"_staker","type":"address"},{"internalType":"address","name":"_validator","type":"address"}],"name":"viewStakeReward","outputs":[{"internalType":"uint256","name":"","type":"uint256"}],"stateMutability":"view","type":"function"},{"inputs":[{"internalType":"address","name":"validator","type":"address"}],"name":"withdrawProfits","outputs":[{"internalType":"bool","name":"","type":"bool"}],"stateMutability":"nonpayable","type":"function"},{"inputs":[{"internalType":"address","name":"validator","type":"address"}],"name":"withdrawStaking","outputs":[{"internalType":"bool","name":"","type":"bool"}],"stateMutability":"nonpayable","type":"function"},{"inputs":[{"internalType":"address","name":"validator","type":"address"}],"name":"withdrawStakingReward","outputs":[{"internalType":"bool","name":"","type":"bool"}],"stateMutability":"nonpayable","type":"function"},{"stateMutability":"payable","type":"receive"}],"evm":{"bytecode":{"linkReferences":{},"object":"608060405234801561001057600080fd5b50614d9f806100206000396000f3fe6080604052600436106102965760003560e01c80638a11d7c91161015a578063b6c88519116100c1578063cd779d211161007a578063cd779d211461085d578063d571770c14610873578063db78dd28146108a9578063efe22266146108d8578063f2888dbb146108ee578063fca737c01461090e57600080fd5b8063b6c885191461079b578063bb1c0310146107bb578063bd10ba76146107ce578063be645692146107ee578063c253c3841461080b578063c967f90f1461083557600080fd5b80639d7714ce116101135780639d7714ce146106e15780639de7025814610700578063a224cee714610722578063a406fcb714610742578063a43569b314610755578063afeea1151461078657600080fd5b80638a11d7c91461060f5780638ae53dbd146106415780638b0e9f3f1461065d57806392f2c43714610673578063966ff650146106ab57806398e3b626146106c157600080fd5b80633b5d441e116101fe5780636233be5d116101b75780636233be5d1461050b5780636846992a146105215780636969a25c1461054157806372d30a70146105615780637f4f95fa1461058157806382bd3d92146105ef57600080fd5b80633b5d441e1461044657806340550a1c1461047357806340a141ff1461049357806342127ee7146104b55780634b3d500b146104cb5780635dd09590146104eb57600080fd5b80631b5e358c116102505780631b5e358c14610399578063222d3b05146103c757806326476204146103e757806337dbc8cc146103fa5780633a061bd3146104105780633ae898ca1461042657600080fd5b8062362a77146102ba57806301aec704146102ef5780630976c65d146103355780630e15561a146103535780631303f7cf14610369578063158ef93e1461037f57600080fd5b366102b55734600260008282546102ad9190614389565b925050819055005b600080fd5b3480156102c657600080fd5b506102da6102d53660046143b1565b610924565b60405190151581526020015b60405180910390f35b3480156102fb57600080fd5b5061032761030a3660046143d5565b600b60209081526000928352604080842090915290825290205481565b6040519081526020016102e6565b34801561034157600080fd5b5061032769d3c21bcecceda100000081565b34801561035f57600080fd5b5061032760035481565b34801561037557600080fd5b5061032760095481565b34801561038b57600080fd5b506000546102da9060ff1681565b3480156103a557600080fd5b506103af61f00181565b6040516001600160a01b0390911681526020016102e6565b3480156103d357600080fd5b506102da6103e23660046143b1565b610b48565b6102da6103f53660046143b1565b610d7a565b34801561040657600080fd5b5061032761271081565b34801561041c57600080fd5b506103af61f00081565b34801561043257600080fd5b506103276104413660046143d5565b6111ab565b34801561045257600080fd5b506103276104613660046143b1565b600c6020526000908152604090205481565b34801561047f57600080fd5b506102da61048e3660046143b1565b61128f565b34801561049f57600080fd5b506104b36104ae3660046143b1565b6112f8565b005b3480156104c157600080fd5b5061032761138881565b3480156104d757600080fd5b506103af6104e636600461440e565b6113c2565b3480156104f757600080fd5b506104b36105063660046143b1565b6113ec565b34801561051757600080fd5b506103af61f00281565b34801561052d57600080fd5b506104b361053c366004614504565b611440565b34801561054d57600080fd5b506103af61055c36600461440e565b611611565b34801561056d57600080fd5b506102da61057c3660046143b1565b611621565b34801561058d57600080fd5b506105d461059c3660046143d5565b6001600160a01b0391821660009081526005602090815260408083209390941682529190915220805460018201546002909201549092565b604080519384526020840192909252908201526060016102e6565b3480156105fb57600080fd5b506102da61060a3660046143b1565b6117d1565b34801561061b57600080fd5b5061062f61062a3660046143b1565b611a15565b6040516102e6969594939291906145a2565b34801561064d57600080fd5b50610327670de0b6b3a764000081565b34801561066957600080fd5b5061032760085481565b34801561067f57600080fd5b5061032761068e366004614606565b600d60209081526000928352604080842090915290825290205481565b3480156106b757600080fd5b5061032760015481565b3480156106cd57600080fd5b506102da6106dc3660046143b1565b611e28565b3480156106ed57600080fd5b506103276a52b7d2dcc80cd2e400000081565b34801561070c57600080fd5b50610715611e88565b6040516102e69190614632565b34801561072e57600080fd5b506104b361073d366004614645565b611eea565b6102da61075036600461470c565b6122f4565b34801561076157600080fd5b506107756107703660046143b1565b612878565b6040516102e6959493929190614858565b34801561079257600080fd5b50610715612c85565b3480156107a757600080fd5b506102da6107b6366004614928565b612ce5565b6104b36107c93660046149f9565b612e71565b3480156107da57600080fd5b506102da6107e93660046143b1565b6133db565b3480156107fa57600080fd5b506103276801bc16d674ec80000081565b34801561081757600080fd5b50610820613461565b604080519283526020830191909152016102e6565b34801561084157600080fd5b5061084a601e81565b60405161ffff90911681526020016102e6565b34801561086957600080fd5b5061032761afc881565b34801561087f57600080fd5b506103af61088e3660046143b1565b600a602052600090815260409020546001600160a01b031681565b3480156108b557600080fd5b506108c06201518081565b6040516001600160401b0390911681526020016102e6565b3480156108e457600080fd5b5061032760025481565b3480156108fa57600080fd5b506102da6109093660046143b1565b613476565b34801561091a57600080fd5b50610327619c4081565b600032816001600160a01b038416600090815260046020819052604090912054600160a01b900460ff169081111561095e5761095e614548565b036109a65760405162461bcd60e51b815260206004820152601360248201527215985b1a59185d1bdc881b9bdd08195e1a5cdd606a1b60448201526064015b60405180910390fd5b6001600160a01b03838116600090815260046020526040902054811690821614610a295760405162461bcd60e51b815260206004820152602e60248201527f596f7520617265206e6f742074686520666565207265636569766572206f662060448201526d3a3434b9903b30b634b230ba37b960911b606482015260840161099d565b6001600160a01b03831660009081526004602052604090206007015480610a925760405162461bcd60e51b815260206004820152601a60248201527f596f7520646f6e2774206861766520616e792070726f66697473000000000000604482015260640161099d565b6001600160a01b0384166000908152600460205260408120600701558015610aec576040516001600160a01b0383169082156108fc029083906000818181858888f19350505050158015610aea573d6000803e3d6000fd5b505b610af584611621565b50604080518281524260208201526001600160a01b0380851692908716917f51a69b4502f660774c9339825c7b5adbf0b8622289134647e29728ec5d9b3bb9910160405180910390a35060019392505050565b3260008181526005602090815260408083206001600160a01b038616845282528083206004928390529083205492939290918491600160a01b900460ff1690811115610b9657610b96614548565b03610bd95760405162461bcd60e51b81526020600482015260136024820152721d985b1a59185d1bdc881b9bdd08195e1a5cdd606a1b604482015260640161099d565b8060010154600003610c2d5760405162461bcd60e51b815260206004820152601960248201527f596f75206861766520746f20756e7374616b6520666972737400000000000000604482015260640161099d565b60018101544390610c42906201518090614389565b1115610c9a5760405162461bcd60e51b815260206004820152602160248201527f596f7572207374616b696e6720686176656e277420756e6c6f636b65642079656044820152601d60fa1b606482015260840161099d565b8054610ce35760405162461bcd60e51b8152602060048201526018602482015277596f7520646f6e2774206861766520616e79207374616b6560401b604482015260640161099d565b80546000808355600183018190556040516001600160a01b0385169183156108fc02918491818181858888f19350505050158015610d25573d6000803e3d6000fd5b50604080518281524260208201526001600160a01b0380881692908616917fa70cd94070cd852339a76b32cf2d95a3c8f2a322269163d276071c1c1495561991015b60405180910390a3506001949350505050565b6000805460ff16610d9d5760405162461bcd60e51b815260040161099d90614ac1565b323460016001600160a01b038516600090815260046020819052604090912054600160a01b900460ff1690811115610dd757610dd7614548565b1480610e18575060026001600160a01b038516600090815260046020819052604090912054600160a01b900460ff1690811115610e1657610e16614548565b145b610e7a5760405162461bcd60e51b815260206004820152602d60248201527f43616e2774207374616b6520746f20612076616c696461746f7220696e20616260448201526c6e6f726d616c2073746174757360981b606482015260840161099d565b6001600160a01b0380831660009081526005602090815260408083209388168352929052206001015415610efb5760405162461bcd60e51b815260206004820152602260248201527f43616e2774207374616b65207768656e20796f752061726520756e7374616b696044820152616e6760f01b606482015260840161099d565b6001600160a01b038416600090815260046020526040902060018101546801bc16d674ec80000090610f2e908490614389565b1015610f7c5760405162461bcd60e51b815260206004820152601860248201527f5374616b696e6720636f696e73206e6f7420656e6f7567680000000000000000604482015260640161099d565b6001600160a01b0380841660009081526005602090815260408083209389168352929052908120549003611095576001600160a01b0380841660009081526005602090815260408083209389168352929052908120600201549003611090576009810180546001600160a01b038086166000818152600560209081526040808320948c1680845294825280832060020186905560018601875595825280822090940180546001600160a01b031916909217909155908152600c90915290812054900361105e576001600160a01b0385166000908152600c602052604090204290555b6001600160a01b038086166000818152600c60209081526040808320549488168352600b825280832093835292905220555b6110a0565b61109e85611621565b505b8181600101546110b09190614389565b600182015560028154600160a01b900460ff1660048111156110d4576110d4614548565b146110eb57805460ff60a01b1916600160a11b1781555b6110f98582600101546138fc565b6001600160a01b0380841660009081526005602090815260408083209389168352929052205461112a908390614389565b6001600160a01b038085166000908152600560209081526040808320938a168352929052205560085461115e908390614389565b600855604080518381524260208201526001600160a01b0380881692908616917fb9ba725934532316cffe10975da6eb25ad49c2d1c294d982c46c9f8d684ee0759101610d67565b919050565b6001600160a01b038082166000818152600d602090815260408083209487168352600b8252808320848452825280832054835284825280832054938352600c825280832054835293905291822054829161120491614ae7565b90508015611283576001600160a01b038085166000908152600560209081526040808320938716835292815290829020825160608101845281548082526001830154938201939093526002909101549281019290925268056bc75e2d6310000090611270908490614afa565b61127a9190614b27565b92505050611289565b60009150505b92915050565b6000805b6006548110156112ef57826001600160a01b0316600682815481106112ba576112ba614b3b565b6000918252602090912001546001600160a01b0316036112dd5750600192915050565b806112e781614b51565b915050611293565b50600092915050565b3361f001146113405760405162461bcd60e51b815260206004820152601460248201527350756e69736820636f6e7472616374206f6e6c7960601b604482015260640161099d565b6001600160a01b03811660009081526004602052604090206007015461136582613bc5565b600754600110156113be5761137982613cdc565b604080518281524260208201526001600160a01b038416917fa26de7ab324eac08c596549f421e5c8741213d237d2e9a2c9c0ebde0a7a849fe91015b60405180910390a25b5050565b600781815481106113d257600080fd5b6000918252602090912001546001600160a01b0316905081565b3361f001146114345760405162461bcd60e51b815260206004820152601460248201527350756e69736820636f6e7472616374206f6e6c7960601b604482015260640161099d565b61143d81613bc5565b50565b33411461147c5760405162461bcd60e51b815260206004820152600a6024820152694d696e6572206f6e6c7960b01b604482015260640161099d565b436000908152600f602090815260408083206001845290915290205460ff16156114e85760405162461bcd60e51b815260206004820152601a60248201527f56616c696461746f727320616c72656164792075706461746564000000000000604482015260640161099d565b60005460ff1661150a5760405162461bcd60e51b815260040161099d90614ac1565b806115158143614b6a565b156115555760405162461bcd60e51b815260206004820152601060248201526f426c6f636b2065706f6368206f6e6c7960801b604482015260640161099d565b436000908152600f6020908152604080832060018085529252909120805460ff1916909117905582516115c15760405162461bcd60e51b815260206004820152601460248201527356616c696461746f722073657420656d7074792160601b604482015260640161099d565b82516115d49060069060208601906142f9565b507feacea8f3c22f06c0b18306bdb04d0a967255129e8ce0094debb0a0ff89d006b5836040516116049190614632565b60405180910390a1505050565b600681815481106113d257600080fd5b326000908152600b602090815260408083206001600160a01b03851684529091528120546116825760405162461bcd60e51b815260206004820152600e60248201526d1b9bdd1a1a5b99c81cdd185ad95960921b604482015260640161099d565b3260008181526005602090815260408083206001600160a01b038716808552908352818420600d8452828520958552600b8452828520828652845282852054855285845282852054918552600c8452828520548552949092528220546116e89190614ae7565b905080156117c7576001600160a01b0384166000818152600c6020908152604080832054328452600b835281842094845293909152812091909155825468056bc75e2d631000009061173b908490614afa565b6117459190614b27565b604051909150329082156108fc029083906000818181858888f19350505050158015611775573d6000803e3d6000fd5b50604080513281526001600160a01b03871660208201529081018290524260608201527f7daf1212d032f2f66db6dbb919bbd591be3d954b5b6ee491709cbb5fbe4f51709060800160405180910390a1505b5060019392505050565b60003361f0021461181d5760405162461bcd60e51b815260206004820152601660248201527550726f706f73616c20636f6e7472616374206f6e6c7960501b604482015260640161099d565b60005460ff1661183f5760405162461bcd60e51b815260040161099d90614ac1565b60036001600160a01b038316600090815260046020819052604090912054600160a01b900460ff169081111561187757611877614548565b141580156118bb575060046001600160a01b038316600090815260046020819052604090912054600160a01b900460ff16908111156118b8576118b8614548565b14155b156118c857506001919050565b60046001600160a01b038316600090815260046020819052604090912054600160a01b900460ff169081111561190057611900614548565b036119b057600e546040516363e1d45160e01b81526001600160a01b038481166004830152909116906363e1d451906024016020604051808303816000875af1158015611951573d6000803e3d6000fd5b505050506040513d601f19601f820116820180604052508101906119759190614b7e565b6119b05760405162461bcd60e51b815260206004820152600c60248201526b18db19585b8819985a5b195960a21b604482015260640161099d565b6001600160a01b038216600081815260046020908152604091829020805460ff60a01b1916600160a01b17905590514281527fd8b2c426ec1be69ca7583d26b1e893946e3227430d3ebc3bd64d9e1c469cb400910160405180910390a2506001919050565b6001600160a01b038181166000908152600460208181526040808420815160e081019092528054958616825293948594859485948594606094869491939192840191600160a01b90910460ff1690811115611a7257611a72614548565b6004811115611a8357611a83614548565b815260200160018201548152602001600282016040518060a0016040529081600082018054611ab190614ba0565b80601f0160208091040260200160405190810160405280929190818152602001828054611add90614ba0565b8015611b2a5780601f10611aff57610100808354040283529160200191611b2a565b820191906000526020600020905b815481529060010190602001808311611b0d57829003601f168201915b50505050508152602001600182018054611b4390614ba0565b80601f0160208091040260200160405190810160405280929190818152602001828054611b6f90614ba0565b8015611bbc5780601f10611b9157610100808354040283529160200191611bbc565b820191906000526020600020905b815481529060010190602001808311611b9f57829003601f168201915b50505050508152602001600282018054611bd590614ba0565b80601f0160208091040260200160405190810160405280929190818152602001828054611c0190614ba0565b8015611c4e5780601f10611c2357610100808354040283529160200191611c4e565b820191906000526020600020905b815481529060010190602001808311611c3157829003601f168201915b50505050508152602001600382018054611c6790614ba0565b80601f0160208091040260200160405190810160405280929190818152602001828054611c9390614ba0565b8015611ce05780601f10611cb557610100808354040283529160200191611ce0565b820191906000526020600020905b815481529060010190602001808311611cc357829003601f168201915b50505050508152602001600482018054611cf990614ba0565b80601f0160208091040260200160405190810160405280929190818152602001828054611d2590614ba0565b8015611d725780601f10611d4757610100808354040283529160200191611d72565b820191906000526020600020905b815481529060010190602001808311611d5557829003601f168201915b5050505050815250508152602001600782015481526020016008820154815260200160098201805480602002602001604051908101604052809291908181526020018280548015611dec57602002820191906000526020600020905b81546001600160a01b03168152600190910190602001808311611dce575b505050919092525050815160208301516040840151608085015160a086015160c090960151939e929d50909b5099509297509550909350505050565b6000805b6007548110156112ef57826001600160a01b031660078281548110611e5357611e53614b3b565b6000918252602090912001546001600160a01b031603611e765750600192915050565b80611e8081614b51565b915050611e2c565b60606006805480602002602001604051908101604052809291908181526020018280548015611ee057602002820191906000526020600020905b81546001600160a01b03168152600190910190602001808311611ec2575b5050505050905090565b60005460ff1615611f335760405162461bcd60e51b8152602060048201526013602482015272105b1c9958591e481a5b9a5d1a585b1a5e9959606a1b604482015260640161099d565b600e80546001600160a01b03191661f00117905560005b818110156122e2576000838383818110611f6657611f66614b3b565b9050602002016020810190611f7b91906143b1565b6001600160a01b031603611fd15760405162461bcd60e51b815260206004820152601960248201527f496e76616c69642076616c696461746f72206164647265737300000000000000604482015260640161099d565b42600c6000858585818110611fe857611fe8614b3b565b9050602002016020810190611ffd91906143b1565b6001600160a01b0316815260208101919091526040016000205561204183838381811061202c5761202c614b3b565b905060200201602081019061048e91906143b1565b6120a157600683838381811061205957612059614b3b565b905060200201602081019061206e91906143b1565b81546001810183556000928352602090922090910180546001600160a01b0319166001600160a01b039092169190911790555b6120cb8383838181106120b6576120b6614b3b565b90506020020160208101906106dc91906143b1565b61212b5760078383838181106120e3576120e3614b3b565b90506020020160208101906120f891906143b1565b81546001810183556000928352602090922090910180546001600160a01b0319166001600160a01b039092169190911790555b600060048185858581811061214257612142614b3b565b905060200201602081019061215791906143b1565b6001600160a01b03908116825260208201929092526040016000205416036121fd5782828281811061218b5761218b614b3b565b90506020020160208101906121a091906143b1565b600460008585858181106121b6576121b6614b3b565b90506020020160208101906121cb91906143b1565b6001600160a01b039081168252602082019290925260400160002080546001600160a01b031916929091169190911790555b60006004600085858581811061221557612215614b3b565b905060200201602081019061222a91906143b1565b6001600160a01b03168152602081019190915260400160002054600160a01b900460ff16600481111561225f5761225f614548565b036122d05760026004600085858581811061227c5761227c614b3b565b905060200201602081019061229191906143b1565b6001600160a01b031681526020810191909152604001600020805460ff60a01b1916600160a01b8360048111156122ca576122ca614548565b02179055505b806122da81614b51565b915050611f4a565b50506000805460ff1916600117905550565b6000805460ff166123175760405162461bcd60e51b815260040161099d90614ac1565b6001600160a01b038c166123635760405162461bcd60e51b8152602060048201526013602482015272496e76616c696420666565206164647265737360681b604482015260640161099d565b6124728b8b8080601f01602080910402602001604051908101604052809392919081815260200183838082843760009201919091525050604080516020601f8f018190048102820181019092528d815292508d91508c908190840183828082843760009201919091525050604080516020601f8e018190048102820181019092528c815292508c91508b908190840183828082843760009201919091525050604080516020601f8d018190048102820181019092528b815292508b91508a908190840183828082843760009201919091525050604080516020601f8c018190048102820181019092528a815292508a9150899081908401838280828437600092019190915250612ce592505050565b6124b45760405162461bcd60e51b815260206004820152601360248201527224b73b30b634b2103232b9b1b934b83a34b7b760691b604482015260640161099d565b326000806001600160a01b038316600090815260046020819052604090912054600160a01b900460ff16908111156124ee576124ee614548565b0361252457506001600160a01b0381166000908152600460205260409020805460ff60a01b1916600160a01b1790556001612535565b341561253557600092505050612869565b6001600160a01b038281166000908152600460205260409020548116908f16146125a7578d60046000846001600160a01b03166001600160a01b0316815260200190815260200160002060000160006101000a8154816001600160a01b0302191690836001600160a01b031602179055505b6040518060a001604052808e8e8080601f016020809104026020016040519081016040528093929190818152602001838380828437600092019190915250505090825250604080516020601f8f018190048102820181019092528d815291810191908e908e9081908401838280828437600092019190915250505090825250604080516020601f8d018190048102820181019092528b815291810191908c908c9081908401838280828437600092019190915250505090825250604080516020601f8b0181900481028201810190925289815291810191908a908a9081908401838280828437600092019190915250505090825250604080516020601f89018190048102820181019092528781529181019190889088908190840183828082843760009201829052509390945250506001600160a01b038516815260046020526040902082516002909101915081906127009082614c29565b50602082015160018201906127159082614c29565b506040820151600282019061272a9082614c29565b506060820151600382019061273f9082614c29565b50608082015160048201906127549082614c29565b5090505080156128145769d3c21bcecceda10000003410156127b85760405162461bcd60e51b815260206004820152601860248201527f496e76616c69642076616c696461746f7220616d6f756e740000000000000000604482015260640161099d565b6127c182610d7a565b508d6001600160a01b0316826001600160a01b03167f887eec9d757b7247dd8e51198f9d1b8f27979bceb34bdcc1bffd4ec5ec736c224260405161280791815260200190565b60405180910390a3612862565b8d6001600160a01b0316826001600160a01b03167fb8421f65501371f54d58de1937ff1e1ccdb76423ef6f84acea1814a0f6362ca04260405161285991815260200190565b60405180910390a35b6001925050505b9b9a5050505050505050505050565b6001600160a01b038181166000908152600460208181526040808420815160e081019092528054958616825260609586958695869586959294929390840191600160a01b90910460ff16908111156128d2576128d2614548565b60048111156128e3576128e3614548565b815260200160018201548152602001600282016040518060a001604052908160008201805461291190614ba0565b80601f016020809104026020016040519081016040528092919081815260200182805461293d90614ba0565b801561298a5780601f1061295f5761010080835404028352916020019161298a565b820191906000526020600020905b81548152906001019060200180831161296d57829003601f168201915b505050505081526020016001820180546129a390614ba0565b80601f01602080910402602001604051908101604052809291908181526020018280546129cf90614ba0565b8015612a1c5780601f106129f157610100808354040283529160200191612a1c565b820191906000526020600020905b8154815290600101906020018083116129ff57829003601f168201915b50505050508152602001600282018054612a3590614ba0565b80601f0160208091040260200160405190810160405280929190818152602001828054612a6190614ba0565b8015612aae5780601f10612a8357610100808354040283529160200191612aae565b820191906000526020600020905b815481529060010190602001808311612a9157829003601f168201915b50505050508152602001600382018054612ac790614ba0565b80601f0160208091040260200160405190810160405280929190818152602001828054612af390614ba0565b8015612b405780601f10612b1557610100808354040283529160200191612b40565b820191906000526020600020905b815481529060010190602001808311612b2357829003601f168201915b50505050508152602001600482018054612b5990614ba0565b80601f0160208091040260200160405190810160405280929190818152602001828054612b8590614ba0565b8015612bd25780601f10612ba757610100808354040283529160200191612bd2565b820191906000526020600020905b815481529060010190602001808311612bb557829003601f168201915b5050505050815250508152602001600782015481526020016008820154815260200160098201805480602002602001604051908101604052809291908181526020018280548015612c4c57602002820191906000526020600020905b81546001600160a01b03168152600190910190602001808311612c2e575b5050509190925250505060609081015180516020820151604083015193830151608090930151919b909a50929850909650945092505050565b60606007805480602002602001604051908101604052809291908181526020018280548015611ee0576020028201919060005260206000209081546001600160a01b03168152600190910190602001808311611ec2575050505050905090565b6000604686511115612d325760405162461bcd60e51b8152602060048201526016602482015275092dcecc2d8d2c840dadedcd2d6cae440d8cadccee8d60531b604482015260640161099d565b610bb885511115612d855760405162461bcd60e51b815260206004820152601760248201527f496e76616c6964206964656e74697479206c656e677468000000000000000000604482015260640161099d565b608c84511115612dd05760405162461bcd60e51b8152602060048201526016602482015275092dcecc2d8d2c840eecac4e6d2e8ca40d8cadccee8d60531b604482015260640161099d565b608c83511115612e195760405162461bcd60e51b8152602060048201526014602482015273092dcecc2d8d2c840cadac2d2d840d8cadccee8d60631b604482015260640161099d565b61011882511115612e655760405162461bcd60e51b8152602060048201526016602482015275092dcecc2d8d2c840c8cae8c2d2d8e640d8cadccee8d60531b604482015260640161099d565b50600195945050505050565b334114612ead5760405162461bcd60e51b815260206004820152600a6024820152694d696e6572206f6e6c7960b01b604482015260640161099d565b436000908152600f6020908152604080832083805290915290205460ff1615612f185760405162461bcd60e51b815260206004820152601960248201527f426c6f636b20697320616c726561647920726577617264656400000000000000604482015260640161099d565b60005460ff16612f3a5760405162461bcd60e51b815260040161099d90614ac1565b436000908152600f602090815260408083208380529091528120805460ff19166001179055339034908190620186a0612f7561138884614afa565b612f7f9190614b27565b9050612f8b8183614ae7565b91506000620186a0612f9f61271086614afa565b612fa99190614b27565b90506a52b7d2dcc80cd2e400000081600154612fc59190614389565b1161302257612fd48184614ae7565b92508060016000828254612fe89190614389565b909155505080156130225760405160009082156108fc0290839083818181858288f19350505050158015613020573d6000803e3d6000fd5b505b8651156131cf576000620186a061303b619c4087614afa565b6130459190614b27565b90506130518185614ae7565b935060008851826130629190614b27565b905080156131cc5760005b89518110156131ca5760006001600160a01b03168a828151811061309357613093614b3b565b60200260200101516001600160a01b0316141580156130f9575060006001600160a01b0316600a60008c84815181106130ce576130ce614b3b565b6020908102919091018101516001600160a01b03908116835290820192909252604001600020541614155b80156131275750600089828151811061311457613114614b3b565b60200260200101516001600160401b0316115b156131b857600a60008b838151811061314257613142614b3b565b60200260200101516001600160a01b03166001600160a01b0316815260200190815260200160002060009054906101000a90046001600160a01b03166001600160a01b03166108fc839081150290604051600060405180830381858888f193505050501580156131b6573d6000803e3d6000fd5b505b806131c281614b51565b91505061306d565b505b50505b6001600160a01b0385166000818152600d60209081526040808320600c83528184208054855290835281842054948452429055600490915290206001015415613285576001600160a01b0386166000908152600460205260409020600101546132418568056bc75e2d63100000614afa565b61324b9190614b27565b6132559082614389565b6001600160a01b0387166000908152600d60209081526040808320600c83528184205484529091529020556132bf565b6001600160a01b0386166000908152600d60209081526040808320600c835281842054845290915290208190556132bc8484614389565b92505b6001600160a01b0386166000908152600460208190526040822054600160a01b900460ff16908111156132f4576132f4614548565b03613303575050505050505050565b670de0b6b3a7640000600254101580156133245750670de0b6b3a764000047115b1561337f57670de0b6b3a7640000600260008282546133439190614ae7565b92505081905550670de0b6b3a7640000600360008282546133649190614389565b9091555061337c9050670de0b6b3a764000084614389565b92505b61338a836000613d4b565b856001600160a01b03167f1d6ce8f9f300ecd90371399ce90da8388bba45019701a1fd6d6ee08ea580077684428b8b6040516133c99493929190614ce8565b60405180910390a25050505050505050565b6001600160a01b038181166000908152600a6020526040812054909116156134345760405162461bcd60e51b815260206004820152600c60248201526b1a5b9d985b1a590818d85b1b60a21b604482015260640161099d565b506001600160a01b03166000908152600a6020526040902080546001600160a01b03191632179055600190565b60008061346e6000614083565b915091509091565b6000805460ff166134995760405162461bcd60e51b815260040161099d90614ac1565b3260006001600160a01b038416600090815260046020819052604090912054600160a01b900460ff16908111156134d2576134d2614548565b036135155760405162461bcd60e51b815260206004820152601360248201527215985b1a59185d1bdc881b9bdd08195e1a5cdd606a1b604482015260640161099d565b6001600160a01b0380821660009081526005602090815260408083209387168352928152828220600490915291902081546001830154156135a45760405162461bcd60e51b815260206004820152602360248201527f596f752061726520616c726561647920696e20756e7374616b696e672073746160448201526274757360e81b606482015260840161099d565b600081116135ef5760405162461bcd60e51b8152602060048201526018602482015277596f7520646f6e2774206861766520616e79207374616b6560401b604482015260640161099d565b6007546001148015613605575061360586611e28565b801561362857506801bc16d674ec8000008183600101546136269190614ae7565b105b156136a95760405162461bcd60e51b815260206004820152604560248201527f596f752063616e277420756e7374616b652c2076616c696461746f72206c697360448201527f742077696c6c20626520656d7074792061667465722074686973206f7065726160648201526474696f6e2160d81b608482015260a40161099d565b60098201546136ba90600190614ae7565b8360020154146137a6576009820180546136d690600190614ae7565b815481106136e6576136e6614b3b565b9060005260206000200160009054906101000a90046001600160a01b03168260090184600201548154811061371d5761371d614b3b565b9060005260206000200160006101000a8154816001600160a01b0302191690836001600160a01b031602179055508260020154600560008460090186600201548154811061376d5761376d614b3b565b60009182526020808320909101546001600160a01b0390811684528382019490945260409283018220938b168252929092529020600201555b816009018054806137b9576137b9614d53565b600082815260209020810160001990810180546001600160a01b031916905501905560018201546137eb908290614ae7565b60018084019190915543908401556000600284015560085461380e908290614ae7565b60085560018201546801bc16d674ec800000118015613863575060046001600160a01b038716600090815260046020819052604090912054600160a01b900460ff169081111561386057613860614548565b14155b1561388257815460ff60a01b1916600360a01b1782556138828661419a565b61388b86611621565b506001600160a01b038481166000818152600b60209081526040808320948b1680845294825280832092909255815185815242918101919091527f449002ae18e748d69a55f38514400d64f966492e593e32d6e9b8b24db98a0bc1910160405180910390a350600195945050505050565b60005b60075481101561395757826001600160a01b03166007828154811061392657613926614b3b565b6000918252602090912001546001600160a01b03160361394557505050565b8061394f81614b51565b9150506138ff565b50600754601e11156139e157600780546001810182556000919091527fa66cc928b5edb82af9bd49922954155ab7b0942694bea4ce44661d9a8736c6880180546001600160a01b0319166001600160a01b0384169081179091556040514281527f1e3310ad6891b30e03874ec3d1422a6386c5da63d9faf595f5d99eeaf443b99a906020016113b5565b60006004600060076000815481106139fb576139fb614b3b565b60009182526020808320909101546001600160a01b03168352820192909252604001812060019081015492505b600754811015613acf57826004600060078481548110613a4a57613a4a614b3b565b60009182526020808320909101546001600160a01b031683528201929092526040019020600101541015613abd576004600060078381548110613a8f57613a8f614b3b565b60009182526020808320909101546001600160a01b0316835282019290925260400190206001015492509050805b80613ac781614b51565b915050613a28565b50818311613add5750505050565b836001600160a01b03167f1e3310ad6891b30e03874ec3d1422a6386c5da63d9faf595f5d99eeaf443b99a42604051613b1891815260200190565b60405180910390a260078181548110613b3357613b33614b3b565b600091825260209182902001546040514281526001600160a01b03909116917f7521e44559c870c316e84e60bc4785d9c034a8ab1d6acdce8134ac03f946c6ed910160405180910390a28360078281548110613b9157613b91614b3b565b9060005260206000200160006101000a8154816001600160a01b0302191690836001600160a01b0316021790555050505050565b6001600160a01b0381166000908152600460208190526040822054600160a01b900460ff1690811115613bfa57613bfa614548565b1480613c095750600654600110155b15613c115750565b6001600160a01b0381166000908152600460205260409020600701548015613c9c57613c3d8183613d4b565b80600954613c4b9190614389565b6009556001600160a01b038216600090815260046020526040902060080154613c75908290614389565b6001600160a01b038316600090815260046020526040812060088101929092556007909101555b604080518281524260208201526001600160a01b038416917fe294e9d73f8eee23e21b2e1567960625a6b5d339cb127b55d0d09473a995123591016113b5565b6001600160a01b0381166000908152600460208190526040822054600160a01b900460ff1690811115613d1157613d11614548565b03613d195750565b6001600160a01b0381166000908152600460205260409020805460ff60a01b1916600160a21b17905561143d8161419a565b81600003613d57575050565b600080613d6383614083565b90925090506000819003613d775750505050565b60008083600003613f01576000613d8e8488614b27565b9050613d9a8482614afa565b613da49088614ae7565b925060005b600654811015613e9657600060068281548110613dc857613dc8614b3b565b6000918252602090912001546001600160a01b0316905060046001600160a01b038216600090815260046020819052604090912054600160a01b900460ff1690811115613e1757613e17614548565b14158015613e375750876001600160a01b0316816001600160a01b031614155b15613e83576001600160a01b038116600090815260046020526040902060070154613e63908490614389565b6001600160a01b0382166000908152600460205260409020600701559250825b5080613e8e81614b51565b915050613da9565b50600083118015613eaf57506001600160a01b03821615155b15613ef8576001600160a01b038216600090815260046020526040902060070154613edb908490614389565b6001600160a01b0383166000908152600460205260409020600701555b50505050505050565b6000805b60065481101561403557600060068281548110613f2457613f24614b3b565b6000918252602090912001546001600160a01b0316905060046001600160a01b038216600090815260046020819052604090912054600160a01b900460ff1690811115613f7357613f73614548565b14158015613f935750876001600160a01b0316816001600160a01b031614155b15614022576001600160a01b0381166000908152600460205260408120600101548890613fc0908c614afa565b613fca9190614b27565b9050613fd68185614389565b6001600160a01b03831660009081526004602052604090206007015492955093508491614004908290614389565b6001600160a01b038316600090815260046020526040902060070155505b508061402d81614b51565b915050613f05565b506140408188614ae7565b9250600083118015613eaf57506001600160a01b03821615613ef8576001600160a01b038216600090815260046020526040902060070154613edb908490614389565b60008060005b600654811015614194576004806000600684815481106140ab576140ab614b3b565b60009182526020808320909101546001600160a01b0316835282019290925260400190205460ff600160a01b9091041660048111156140ec576140ec614548565b1415801561412457506006818154811061410857614108614b3b565b6000918252602090912001546001600160a01b03858116911614155b1561418257600460006006838154811061414057614140614b3b565b60009182526020808320909101546001600160a01b031683528201929092526040019020600101546141729084614389565b92508161417e81614b51565b9250505b8061418c81614b51565b915050614089565b50915091565b60005b600754811080156141b057506007546001105b156113be57600781815481106141c8576141c8614b3b565b6000918252602090912001546001600160a01b03908116908316036142e7576007546141f690600190614ae7565b8114614277576007805461420c90600190614ae7565b8154811061421c5761421c614b3b565b600091825260209091200154600780546001600160a01b03909216918390811061424857614248614b3b565b9060005260206000200160006101000a8154816001600160a01b0302191690836001600160a01b031602179055505b600780548061428857614288614d53565b600082815260209020810160001990810180546001600160a01b03191690550190556040516001600160a01b038316907f7521e44559c870c316e84e60bc4785d9c034a8ab1d6acdce8134ac03f946c6ed906113b59042815260200190565b806142f181614b51565b91505061419d565b82805482825590600052602060002090810192821561434e579160200282015b8281111561434e57825182546001600160a01b0319166001600160a01b03909116178255602090920191600190910190614319565b5061435a92915061435e565b5090565b5b8082111561435a576000815560010161435f565b634e487b7160e01b600052601160045260246000fd5b8082018082111561128957611289614373565b6001600160a01b038116811461143d57600080fd5b6000602082840312156143c357600080fd5b81356143ce8161439c565b9392505050565b600080604083850312156143e857600080fd5b82356143f38161439c565b915060208301356144038161439c565b809150509250929050565b60006020828403121561442057600080fd5b5035919050565b634e487b7160e01b600052604160045260246000fd5b604051601f8201601f191681016001600160401b038111828210171561446557614465614427565b604052919050565b60006001600160401b0382111561448657614486614427565b5060051b60200190565b600082601f8301126144a157600080fd5b813560206144b66144b18361446d565b61443d565b82815260059290921b840181019181810190868411156144d557600080fd5b8286015b848110156144f95780356144ec8161439c565b83529183019183016144d9565b509695505050505050565b6000806040838503121561451757600080fd5b82356001600160401b0381111561452d57600080fd5b61453985828601614490565b95602094909401359450505050565b634e487b7160e01b600052602160045260246000fd5b600081518084526020808501945080840160005b838110156145975781516001600160a01b031687529582019590820190600101614572565b509495945050505050565b6001600160a01b03871681526000600587106145ce57634e487b7160e01b600052602160045260246000fd5b86602083015285604083015284606083015283608083015260c060a08301526145fa60c083018461455e565b98975050505050505050565b6000806040838503121561461957600080fd5b82356146248161439c565b946020939093013593505050565b6020815260006143ce602083018461455e565b6000806020838503121561465857600080fd5b82356001600160401b038082111561466f57600080fd5b818501915085601f83011261468357600080fd5b81358181111561469257600080fd5b8660208260051b85010111156146a757600080fd5b60209290920196919550909350505050565b80356111a68161439c565b60008083601f8401126146d657600080fd5b5081356001600160401b038111156146ed57600080fd5b60208301915083602082850101111561470557600080fd5b9250929050565b600080600080600080600080600080600060c08c8e03121561472d57600080fd5b6147368c6146b9565b9a506001600160401b038060208e0135111561475157600080fd5b6147618e60208f01358f016146c4565b909b50995060408d013581101561477757600080fd5b6147878e60408f01358f016146c4565b909950975060608d013581101561479d57600080fd5b6147ad8e60608f01358f016146c4565b909750955060808d01358110156147c357600080fd5b6147d38e60808f01358f016146c4565b909550935060a08d01358110156147e957600080fd5b506147fa8d60a08e01358e016146c4565b81935080925050509295989b509295989b9093969950565b6000815180845260005b818110156148385760208185018101518683018201520161481c565b506000602082860101526020601f19601f83011685010191505092915050565b60a08152600061486b60a0830188614812565b828103602084015261487d8188614812565b905082810360408401526148918187614812565b905082810360608401526148a58186614812565b905082810360808401526145fa8185614812565b600082601f8301126148ca57600080fd5b81356001600160401b038111156148e3576148e3614427565b6148f6601f8201601f191660200161443d565b81815284602083860101111561490b57600080fd5b816020850160208301376000918101602001919091529392505050565b600080600080600060a0868803121561494057600080fd5b85356001600160401b038082111561495757600080fd5b61496389838a016148b9565b9650602088013591508082111561497957600080fd5b61498589838a016148b9565b9550604088013591508082111561499b57600080fd5b6149a789838a016148b9565b945060608801359150808211156149bd57600080fd5b6149c989838a016148b9565b935060808801359150808211156149df57600080fd5b506149ec888289016148b9565b9150509295509295909350565b60008060408385031215614a0c57600080fd5b82356001600160401b0380821115614a2357600080fd5b614a2f86838701614490565b9350602091508185013581811115614a4657600080fd5b8501601f81018713614a5757600080fd5b8035614a656144b18261446d565b81815260059190911b82018401908481019089831115614a8457600080fd5b928501925b82841015614ab15783358581168114614aa25760008081fd5b82529285019290850190614a89565b8096505050505050509250929050565b6020808252600c908201526b139bdd081a5b9a5d081e595d60a21b604082015260600190565b8181038181111561128957611289614373565b808202811582820484141761128957611289614373565b634e487b7160e01b600052601260045260246000fd5b600082614b3657614b36614b11565b500490565b634e487b7160e01b600052603260045260246000fd5b600060018201614b6357614b63614373565b5060010190565b600082614b7957614b79614b11565b500690565b600060208284031215614b9057600080fd5b815180151581146143ce57600080fd5b600181811c90821680614bb457607f821691505b602082108103614bd457634e487b7160e01b600052602260045260246000fd5b50919050565b601f821115614c2457600081815260208120601f850160051c81016020861015614c015750805b601f850160051c820191505b81811015614c2057828155600101614c0d565b5050505b505050565b81516001600160401b03811115614c4257614c42614427565b614c5681614c508454614ba0565b84614bda565b602080601f831160018114614c8b5760008415614c735750858301515b600019600386901b1c1916600185901b178555614c20565b600085815260208120601f198616915b82811015614cba57888601518255948401946001909101908401614c9b565b5085821015614cd85787850151600019600388901b60f8161c191681555b5050505050600190811b01905550565b84815260006020858184015260806040840152614d08608084018661455e565b838103606085015284518082528286019183019060005b81811015614d445783516001600160401b031683529284019291840191600101614d1f565b50909998505050505050505050565b634e487b7160e01b600052603160045260246000fdfea2646970667358221220c7a35159f806465075d0453d03f5ef103361e5630d623fbb33b6e51f72a2287164736f6c63430008110033","opcodes":"PUSH1 0x80 PUSH1 0x40 MSTORE CALLVALUE DUP1 ISZERO PUSH2 0x10 JUMPI PUSH1 0x0 DUP1 REVERT JUMPDEST POP PUSH2 0x4D9F DUP1 PUSH2 0x20 PUSH1 0x0 CODECOPY PUSH1 0x0 RETURN INVALID PUSH1 0x80 PUSH1 0x40 MSTORE PUSH1 0x4 CALLDATASIZE LT PUSH2 0x296 JUMPI PUSH1 0x0 CALLDATALOAD PUSH1 0xE0 SHR DUP1 PUSH4 0x8A11D7C9 GT PUSH2 0x15A JUMPI DUP1 PUSH4 0xB6C88519 GT PUSH2 0xC1 JUMPI DUP1 PUSH4 0xCD779D21 GT PUSH2 0x7A JUMPI DUP1 PUSH4 0xCD779D21 EQ PUSH2 0x85D JUMPI DUP1 PUSH4 0xD571770C EQ PUSH2 0x873 JUMPI DUP1 PUSH4 0xDB78DD28 EQ PUSH2 0x8A9 JUMPI DUP1 PUSH4 0xEFE22266 EQ PUSH2 0x8D8 JUMPI DUP1 PUSH4 0xF2888DBB EQ PUSH2 0x8EE JUMPI DUP1 PUSH4 0xFCA737C0 EQ PUSH2 0x90E JUMPI PUSH1 0x0 DUP1 REVERT JUMPDEST DUP1 PUSH4 0xB6C88519 EQ PUSH2 0x79B JUMPI DUP1 PUSH4 0xBB1C0310 EQ PUSH2 0x7BB JUMPI DUP1 PUSH4 0xBD10BA76 EQ PUSH2 0x7CE JUMPI DUP1 PUSH4 0xBE645692 EQ PUSH2 0x7EE JUMPI DUP1 PUSH4 0xC253C384 EQ PUSH2 0x80B JUMPI DUP1 PUSH4 0xC967F90F EQ PUSH2 0x835 JUMPI PUSH1 0x0 DUP1 REVERT JUMPDEST DUP1 PUSH4 0x9D7714CE GT PUSH2 0x113 JUMPI DUP1 PUSH4 0x9D7714CE EQ PUSH2 0x6E1 JUMPI DUP1 PUSH4 0x9DE70258 EQ PUSH2 0x700 JUMPI DUP1 PUSH4 0xA224CEE7 EQ PUSH2 0x722 JUMPI DUP1 PUSH4 0xA406FCB7 EQ PUSH2 0x742 JUMPI DUP1 PUSH4 0xA43569B3 EQ PUSH2 0x755 JUMPI DUP1 PUSH4 0xAFEEA115 EQ PUSH2 0x786 JUMPI PUSH1 0x0 DUP1 REVERT JUMPDEST DUP1 PUSH4 0x8A11D7C9 EQ PUSH2 0x60F JUMPI DUP1 PUSH4 0x8AE53DBD EQ PUSH2 0x641 JUMPI DUP1 PUSH4 0x8B0E9F3F EQ PUSH2 0x65D JUMPI DUP1 PUSH4 0x92F2C437 EQ PUSH2 0x673 JUMPI DUP1 PUSH4 0x966FF650 EQ PUSH2 0x6AB JUMPI DUP1 PUSH4 0x98E3B626 EQ PUSH2 0x6C1 JUMPI PUSH1 0x0 DUP1 REVERT JUMPDEST DUP1 PUSH4 0x3B5D441E GT PUSH2 0x1FE JUMPI DUP1 PUSH4 0x6233BE5D GT PUSH2 0x1B7 JUMPI DUP1 PUSH4 0x6233BE5D EQ PUSH2 0x50B JUMPI DUP1 PUSH4 0x6846992A EQ PUSH2 0x521 JUMPI DUP1 PUSH4 0x6969A25C EQ PUSH2 0x541 JUMPI DUP1 PUSH4 0x72D30A70 EQ PUSH2 0x561 JUMPI DUP1 PUSH4 0x7F4F95FA EQ PUSH2 0x581 JUMPI DUP1 PUSH4 0x82BD3D92 EQ PUSH2 0x5EF JUMPI PUSH1 0x0 DUP1 REVERT JUMPDEST DUP1 PUSH4 0x3B5D441E EQ PUSH2 0x446 JUMPI DUP1 PUSH4 0x40550A1C EQ PUSH2 0x473 JUMPI DUP1 PUSH4 0x40A141FF EQ PUSH2 0x493 JUMPI DUP1 PUSH4 0x42127EE7 EQ PUSH2 0x4B5 JUMPI DUP1 PUSH4 0x4B3D500B EQ PUSH2 0x4CB JUMPI DUP1 PUSH4 0x5DD09590 EQ PUSH2 0x4EB JUMPI PUSH1 0x0 DUP1 REVERT JUMPDEST DUP1 PUSH4 0x1B5E358C GT PUSH2 0x250 JUMPI DUP1 PUSH4 0x1B5E358C EQ PUSH2 0x399 JUMPI DUP1 PUSH4 0x222D3B05 EQ PUSH2 0x3C7 JUMPI DUP1 PUSH4 0x26476204 EQ PUSH2 0x3E7 JUMPI DUP1 PUSH4 0x37DBC8CC EQ PUSH2 0x3FA JUMPI DUP1 PUSH4 0x3A061BD3 EQ PUSH2 0x410 JUMPI DUP1 PUSH4 0x3AE898CA EQ PUSH2 0x426 JUMPI PUSH1 0x0 DUP1 REVERT JUMPDEST DUP1 PUSH3 0x362A77 EQ PUSH2 0x2BA JUMPI DUP1 PUSH4 0x1AEC704 EQ PUSH2 0x2EF JUMPI DUP1 PUSH4 0x976C65D EQ PUSH2 0x335 JUMPI DUP1 PUSH4 0xE15561A EQ PUSH2 0x353 JUMPI DUP1 PUSH4 0x1303F7CF EQ PUSH2 0x369 JUMPI DUP1 PUSH4 0x158EF93E EQ PUSH2 0x37F JUMPI PUSH1 0x0 DUP1 REVERT JUMPDEST CALLDATASIZE PUSH2 0x2B5 JUMPI CALLVALUE PUSH1 0x2 PUSH1 0x0 DUP3 DUP3 SLOAD PUSH2 0x2AD SWAP2 SWAP1 PUSH2 0x4389 JUMP JUMPDEST SWAP3 POP POP DUP2 SWAP1 SSTORE STOP JUMPDEST PUSH1 0x0 DUP1 REVERT JUMPDEST CALLVALUE DUP1 ISZERO PUSH2 0x2C6 JUMPI PUSH1 0x0 DUP1 REVERT JUMPDEST POP PUSH2 0x2DA PUSH2 0x2D5 CALLDATASIZE PUSH1 0x4 PUSH2 0x43B1 JUMP JUMPDEST PUSH2 0x924 JUMP JUMPDEST PUSH1 0x40 MLOAD SWAP1 ISZERO ISZERO DUP2 MSTORE PUSH1 0x20 ADD JUMPDEST PUSH1 0x40 MLOAD DUP1 SWAP2 SUB SWAP1 RETURN JUMPDEST CALLVALUE DUP1 ISZERO PUSH2 0x2FB JUMPI PUSH1 0x0 DUP1 REVERT JUMPDEST POP PUSH2 0x327 PUSH2 0x30A CALLDATASIZE PUSH1 0x4 PUSH2 0x43D5 JUMP JUMPDEST PUSH1 0xB PUSH1 0x20 SWAP1 DUP2 MSTORE PUSH1 0x0 SWAP3 DUP4 MSTORE PUSH1 0x40 DUP1 DUP5 KECCAK256 SWAP1 SWAP2 MSTORE SWAP1 DUP3 MSTORE SWAP1 KECCAK256 SLOAD DUP2 JUMP JUMPDEST PUSH1 0x40 MLOAD SWAP1 DUP2 MSTORE PUSH1 0x20 ADD PUSH2 0x2E6 JUMP JUMPDEST CALLVALUE DUP1 ISZERO PUSH2 0x341 JUMPI PUSH1 0x0 DUP1 REVERT JUMPDEST POP PUSH2 0x327 PUSH10 0xD3C21BCECCEDA1000000 DUP2 JUMP JUMPDEST CALLVALUE DUP1 ISZERO PUSH2 0x35F JUMPI PUSH1 0x0 DUP1 REVERT JUMPDEST POP PUSH2 0x327 PUSH1 0x3 SLOAD DUP2 JUMP JUMPDEST CALLVALUE DUP1 ISZERO PUSH2 0x375 JUMPI PUSH1 0x0 DUP1 REVERT JUMPDEST POP PUSH2 0x327 PUSH1 0x9 SLOAD DUP2 JUMP JUMPDEST CALLVALUE DUP1 ISZERO PUSH2 0x38B JUMPI PUSH1 0x0 DUP1 REVERT JUMPDEST POP PUSH1 0x0 SLOAD PUSH2 0x2DA SWAP1 PUSH1 0xFF AND DUP2 JUMP JUMPDEST CALLVALUE DUP1 ISZERO PUSH2 0x3A5 JUMPI PUSH1 0x0 DUP1 REVERT JUMPDEST POP PUSH2 0x3AF PUSH2 0xF001 DUP2 JUMP JUMPDEST PUSH1 0x40 MLOAD PUSH1 0x1 PUSH1 0x1 PUSH1 0xA0 SHL SUB SWAP1 SWAP2 AND DUP2 MSTORE PUSH1 0x20 ADD PUSH2 0x2E6 JUMP JUMPDEST CALLVALUE DUP1 ISZERO PUSH2 0x3D3 JUMPI PUSH1 0x0 DUP1 REVERT JUMPDEST POP PUSH2 0x2DA PUSH2 0x3E2 CALLDATASIZE PUSH1 0x4 PUSH2 0x43B1 JUMP JUMPDEST PUSH2 0xB48 JUMP JUMPDEST PUSH2 0x2DA PUSH2 0x3F5 CALLDATASIZE PUSH1 0x4 PUSH2 0x43B1 JUMP JUMPDEST PUSH2 0xD7A JUMP JUMPDEST CALLVALUE DUP1 ISZERO PUSH2 0x406 JUMPI PUSH1 0x0 DUP1 REVERT JUMPDEST POP PUSH2 0x327 PUSH2 0x2710 DUP2 JUMP JUMPDEST CALLVALUE DUP1 ISZERO PUSH2 0x41C JUMPI PUSH1 0x0 DUP1 REVERT JUMPDEST POP PUSH2 0x3AF PUSH2 0xF000 DUP2 JUMP JUMPDEST CALLVALUE DUP1 ISZERO PUSH2 0x432 JUMPI PUSH1 0x0 DUP1 REVERT JUMPDEST POP PUSH2 0x327 PUSH2 0x441 CALLDATASIZE PUSH1 0x4 PUSH2 0x43D5 JUMP JUMPDEST PUSH2 0x11AB JUMP JUMPDEST CALLVALUE DUP1 ISZERO PUSH2 0x452 JUMPI PUSH1 0x0 DUP1 REVERT JUMPDEST POP PUSH2 0x327 PUSH2 0x461 CALLDATASIZE PUSH1 0x4 PUSH2 0x43B1 JUMP JUMPDEST PUSH1 0xC PUSH1 0x20 MSTORE PUSH1 0x0 SWAP1 DUP2 MSTORE PUSH1 0x40 SWAP1 KECCAK256 SLOAD DUP2 JUMP JUMPDEST CALLVALUE DUP1 ISZERO PUSH2 0x47F JUMPI PUSH1 0x0 DUP1 REVERT JUMPDEST POP PUSH2 0x2DA PUSH2 0x48E CALLDATASIZE PUSH1 0x4 PUSH2 0x43B1 JUMP JUMPDEST PUSH2 0x128F JUMP JUMPDEST CALLVALUE DUP1 ISZERO PUSH2 0x49F JUMPI PUSH1 0x0 DUP1 REVERT JUMPDEST POP PUSH2 0x4B3 PUSH2 0x4AE CALLDATASIZE PUSH1 0x4 PUSH2 0x43B1 JUMP JUMPDEST PUSH2 0x12F8 JUMP JUMPDEST STOP JUMPDEST CALLVALUE DUP1 ISZERO PUSH2 0x4C1 JUMPI PUSH1 0x0 DUP1 REVERT JUMPDEST POP PUSH2 0x327 PUSH2 0x1388 DUP2 JUMP JUMPDEST CALLVALUE DUP1 ISZERO PUSH2 0x4D7 JUMPI PUSH1 0x0 DUP1 REVERT JUMPDEST POP PUSH2 0x3AF PUSH2 0x4E6 CALLDATASIZE PUSH1 0x4 PUSH2 0x440E JUMP JUMPDEST PUSH2 0x13C2 JUMP JUMPDEST CALLVALUE DUP1 ISZERO PUSH2 0x4F7 JUMPI PUSH1 0x0 DUP1 REVERT JUMPDEST POP PUSH2 0x4B3 PUSH2 0x506 CALLDATASIZE PUSH1 0x4 PUSH2 0x43B1 JUMP JUMPDEST PUSH2 0x13EC JUMP JUMPDEST CALLVALUE DUP1 ISZERO PUSH2 0x517 JUMPI PUSH1 0x0 DUP1 REVERT JUMPDEST POP PUSH2 0x3AF PUSH2 0xF002 DUP2 JUMP JUMPDEST CALLVALUE DUP1 ISZERO PUSH2 0x52D JUMPI PUSH1 0x0 DUP1 REVERT JUMPDEST POP PUSH2 0x4B3 PUSH2 0x53C CALLDATASIZE PUSH1 0x4 PUSH2 0x4504 JUMP JUMPDEST PUSH2 0x1440 JUMP JUMPDEST CALLVALUE DUP1 ISZERO PUSH2 0x54D JUMPI PUSH1 0x0 DUP1 REVERT JUMPDEST POP PUSH2 0x3AF PUSH2 0x55C CALLDATASIZE PUSH1 0x4 PUSH2 0x440E JUMP JUMPDEST PUSH2 0x1611 JUMP JUMPDEST CALLVALUE DUP1 ISZERO PUSH2 0x56D JUMPI PUSH1 0x0 DUP1 REVERT JUMPDEST POP PUSH2 0x2DA PUSH2 0x57C CALLDATASIZE PUSH1 0x4 PUSH2 0x43B1 JUMP JUMPDEST PUSH2 0x1621 JUMP JUMPDEST CALLVALUE DUP1 ISZERO PUSH2 0x58D JUMPI PUSH1 0x0 DUP1 REVERT JUMPDEST POP PUSH2 0x5D4 PUSH2 0x59C CALLDATASIZE PUSH1 0x4 PUSH2 0x43D5 JUMP JUMPDEST PUSH1 0x1 PUSH1 0x1 PUSH1 0xA0 SHL SUB SWAP2 DUP3 AND PUSH1 0x0 SWAP1 DUP2 MSTORE PUSH1 0x5 PUSH1 0x20 SWAP1 DUP2 MSTORE PUSH1 0x40 DUP1 DUP4 KECCAK256 SWAP4 SWAP1 SWAP5 AND DUP3 MSTORE SWAP2 SWAP1 SWAP2 MSTORE KECCAK256 DUP1 SLOAD PUSH1 0x1 DUP3 ADD SLOAD PUSH1 0x2 SWAP1 SWAP3 ADD SLOAD SWAP1 SWAP3 JUMP JUMPDEST PUSH1 0x40 DUP1 MLOAD SWAP4 DUP5 MSTORE PUSH1 0x20 DUP5 ADD SWAP3 SWAP1 SWAP3 MSTORE SWAP1 DUP3 ADD MSTORE PUSH1 0x60 ADD PUSH2 0x2E6 JUMP JUMPDEST CALLVALUE DUP1 ISZERO PUSH2 0x5FB JUMPI PUSH1 0x0 DUP1 REVERT JUMPDEST POP PUSH2 0x2DA PUSH2 0x60A CALLDATASIZE PUSH1 0x4 PUSH2 0x43B1 JUMP JUMPDEST PUSH2 0x17D1 JUMP JUMPDEST CALLVALUE DUP1 ISZERO PUSH2 0x61B JUMPI PUSH1 0x0 DUP1 REVERT JUMPDEST POP PUSH2 0x62F PUSH2 0x62A CALLDATASIZE PUSH1 0x4 PUSH2 0x43B1 JUMP JUMPDEST PUSH2 0x1A15 JUMP JUMPDEST PUSH1 0x40 MLOAD PUSH2 0x2E6 SWAP7 SWAP6 SWAP5 SWAP4 SWAP3 SWAP2 SWAP1 PUSH2 0x45A2 JUMP JUMPDEST CALLVALUE DUP1 ISZERO PUSH2 0x64D JUMPI PUSH1 0x0 DUP1 REVERT JUMPDEST POP PUSH2 0x327 PUSH8 0xDE0B6B3A7640000 DUP2 JUMP JUMPDEST CALLVALUE DUP1 ISZERO PUSH2 0x669 JUMPI PUSH1 0x0 DUP1 REVERT JUMPDEST POP PUSH2 0x327 PUSH1 0x8 SLOAD DUP2 JUMP JUMPDEST CALLVALUE DUP1 ISZERO PUSH2 0x67F JUMPI PUSH1 0x0 DUP1 REVERT JUMPDEST POP PUSH2 0x327 PUSH2 0x68E CALLDATASIZE PUSH1 0x4 PUSH2 0x4606 JUMP JUMPDEST PUSH1 0xD PUSH1 0x20 SWAP1 DUP2 MSTORE PUSH1 0x0 SWAP3 DUP4 MSTORE PUSH1 0x40 DUP1 DUP5 KECCAK256 SWAP1 SWAP2 MSTORE SWAP1 DUP3 MSTORE SWAP1 KECCAK256 SLOAD DUP2 JUMP JUMPDEST CALLVALUE DUP1 ISZERO PUSH2 0x6B7 JUMPI PUSH1 0x0 DUP1 REVERT JUMPDEST POP PUSH2 0x327 PUSH1 0x1 SLOAD DUP2 JUMP JUMPDEST CALLVALUE DUP1 ISZERO PUSH2 0x6CD JUMPI PUSH1 0x0 DUP1 REVERT JUMPDEST POP PUSH2 0x2DA PUSH2 0x6DC CALLDATASIZE PUSH1 0x4 PUSH2 0x43B1 JUMP JUMPDEST PUSH2 0x1E28 JUMP JUMPDEST CALLVALUE DUP1 ISZERO PUSH2 0x6ED JUMPI PUSH1 0x0 DUP1 REVERT JUMPDEST POP PUSH2 0x327 PUSH11 0x52B7D2DCC80CD2E4000000 DUP2 JUMP JUMPDEST CALLVALUE DUP1 ISZERO PUSH2 0x70C JUMPI PUSH1 0x0 DUP1 REVERT JUMPDEST POP PUSH2 0x715 PUSH2 0x1E88 JUMP JUMPDEST PUSH1 0x40 MLOAD PUSH2 0x2E6 SWAP2 SWAP1 PUSH2 0x4632 JUMP JUMPDEST CALLVALUE DUP1 ISZERO PUSH2 0x72E JUMPI PUSH1 0x0 DUP1 REVERT JUMPDEST POP PUSH2 0x4B3 PUSH2 0x73D CALLDATASIZE PUSH1 0x4 PUSH2 0x4645 JUMP JUMPDEST PUSH2 0x1EEA JUMP JUMPDEST PUSH2 0x2DA PUSH2 0x750 CALLDATASIZE PUSH1 0x4 PUSH2 0x470C JUMP JUMPDEST PUSH2 0x22F4 JUMP JUMPDEST CALLVALUE DUP1 ISZERO PUSH2 0x761 JUMPI PUSH1 0x0 DUP1 REVERT JUMPDEST POP PUSH2 0x775 PUSH2 0x770 CALLDATASIZE PUSH1 0x4 PUSH2 0x43B1 JUMP JUMPDEST PUSH2 0x2878 JUMP JUMPDEST PUSH1 0x40 MLOAD PUSH2 0x2E6 SWAP6 SWAP5 SWAP4 SWAP3 SWAP2 SWAP1 PUSH2 0x4858 JUMP JUMPDEST CALLVALUE DUP1 ISZERO PUSH2 0x792 JUMPI PUSH1 0x0 DUP1 REVERT JUMPDEST POP PUSH2 0x715 PUSH2 0x2C85 JUMP JUMPDEST CALLVALUE DUP1 ISZERO PUSH2 0x7A7 JUMPI PUSH1 0x0 DUP1 REVERT JUMPDEST POP PUSH2 0x2DA PUSH2 0x7B6 CALLDATASIZE PUSH1 0x4 PUSH2 0x4928 JUMP JUMPDEST PUSH2 0x2CE5 JUMP JUMPDEST PUSH2 0x4B3 PUSH2 0x7C9 CALLDATASIZE PUSH1 0x4 PUSH2 0x49F9 JUMP JUMPDEST PUSH2 0x2E71 JUMP JUMPDEST CALLVALUE DUP1 ISZERO PUSH2 0x7DA JUMPI PUSH1 0x0 DUP1 REVERT JUMPDEST POP PUSH2 0x2DA PUSH2 0x7E9 CALLDATASIZE PUSH1 0x4 PUSH2 0x43B1 JUMP JUMPDEST PUSH2 0x33DB JUMP JUMPDEST CALLVALUE DUP1 ISZERO PUSH2 0x7FA JUMPI PUSH1 0x0 DUP1 REVERT JUMPDEST POP PUSH2 0x327 PUSH9 0x1BC16D674EC800000 DUP2 JUMP JUMPDEST CALLVALUE DUP1 ISZERO PUSH2 0x817 JUMPI PUSH1 0x0 DUP1 REVERT JUMPDEST POP PUSH2 0x820 PUSH2 0x3461 JUMP JUMPDEST PUSH1 0x40 DUP1 MLOAD SWAP3 DUP4 MSTORE PUSH1 0x20 DUP4 ADD SWAP2 SWAP1 SWAP2 MSTORE ADD PUSH2 0x2E6 JUMP JUMPDEST CALLVALUE DUP1 ISZERO PUSH2 0x841 JUMPI PUSH1 0x0 DUP1 REVERT JUMPDEST POP PUSH2 0x84A PUSH1 0x1E DUP2 JUMP JUMPDEST PUSH1 0x40 MLOAD PUSH2 0xFFFF SWAP1 SWAP2 AND DUP2 MSTORE PUSH1 0x20 ADD PUSH2 0x2E6 JUMP JUMPDEST CALLVALUE DUP1 ISZERO PUSH2 0x869 JUMPI PUSH1 0x0 DUP1 REVERT JUMPDEST POP PUSH2 0x327 PUSH2 0xAFC8 DUP2 JUMP JUMPDEST CALLVALUE DUP1 ISZERO PUSH2 0x87F JUMPI PUSH1 0x0 DUP1 REVERT JUMPDEST POP PUSH2 0x3AF PUSH2 0x88E CALLDATASIZE PUSH1 0x4 PUSH2 0x43B1 JUMP JUMPDEST PUSH1 0xA PUSH1 0x20 MSTORE PUSH1 0x0 SWAP1 DUP2 MSTORE PUSH1 0x40 SWAP1 KECCAK256 SLOAD PUSH1 0x1 PUSH1 0x1 PUSH1 0xA0 SHL SUB AND DUP2 JUMP JUMPDEST CALLVALUE DUP1 ISZERO PUSH2 0x8B5 JUMPI PUSH1 0x0 DUP1 REVERT JUMPDEST POP PUSH2 0x8C0 PUSH3 0x15180 DUP2 JUMP JUMPDEST PUSH1 0x40 MLOAD PUSH1 0x1 PUSH1 0x1 PUSH1 0x40 SHL SUB SWAP1 SWAP2 AND DUP2 MSTORE PUSH1 0x20 ADD PUSH2 0x2E6 JUMP JUMPDEST CALLVALUE DUP1 ISZERO PUSH2 0x8E4 JUMPI PUSH1 0x0 DUP1 REVERT JUMPDEST POP PUSH2 0x327 PUSH1 0x2 SLOAD DUP2 JUMP JUMPDEST CALLVALUE DUP1 ISZERO PUSH2 0x8FA JUMPI PUSH1 0x0 DUP1 REVERT JUMPDEST POP PUSH2 0x2DA PUSH2 0x909 CALLDATASIZE PUSH1 0x4 PUSH2 0x43B1 JUMP JUMPDEST PUSH2 0x3476 JUMP JUMPDEST CALLVALUE DUP1 ISZERO PUSH2 0x91A JUMPI PUSH1 0x0 DUP1 REVERT JUMPDEST POP PUSH2 0x327 PUSH2 0x9C40 DUP2 JUMP JUMPDEST PUSH1 0x0 ORIGIN DUP2 PUSH1 0x1 PUSH1 0x1 PUSH1 0xA0 SHL SUB DUP5 AND PUSH1 0x0 SWAP1 DUP2 MSTORE PUSH1 0x4 PUSH1 0x20 DUP2 SWAP1 MSTORE PUSH1 0x40 SWAP1 SWAP2 KECCAK256 SLOAD PUSH1 0x1 PUSH1 0xA0 SHL SWAP1 DIV PUSH1 0xFF AND SWAP1 DUP2 GT ISZERO PUSH2 0x95E JUMPI PUSH2 0x95E PUSH2 0x4548 JUMP JUMPDEST SUB PUSH2 0x9A6 JUMPI PUSH1 0x40 MLOAD PUSH3 0x461BCD PUSH1 0xE5 SHL DUP2 MSTORE PUSH1 0x20 PUSH1 0x4 DUP3 ADD MSTORE PUSH1 0x13 PUSH1 0x24 DUP3 ADD MSTORE PUSH19 0x15985B1A59185D1BDC881B9BDD08195E1A5CDD PUSH1 0x6A SHL PUSH1 0x44 DUP3 ADD MSTORE PUSH1 0x64 ADD JUMPDEST PUSH1 0x40 MLOAD DUP1 SWAP2 SUB SWAP1 REVERT JUMPDEST PUSH1 0x1 PUSH1 0x1 PUSH1 0xA0 SHL SUB DUP4 DUP2 AND PUSH1 0x0 SWAP1 DUP2 MSTORE PUSH1 0x4 PUSH1 0x20 MSTORE PUSH1 0x40 SWAP1 KECCAK256 SLOAD DUP2 AND SWAP1 DUP3 AND EQ PUSH2 0xA29 JUMPI PUSH1 0x40 MLOAD PUSH3 0x461BCD PUSH1 0xE5 SHL DUP2 MSTORE PUSH1 0x20 PUSH1 0x4 DUP3 ADD MSTORE PUSH1 0x2E PUSH1 0x24 DUP3 ADD MSTORE PUSH32 0x596F7520617265206E6F742074686520666565207265636569766572206F6620 PUSH1 0x44 DUP3 ADD MSTORE PUSH14 0x3A3434B9903B30B634B230BA37B9 PUSH1 0x91 SHL PUSH1 0x64 DUP3 ADD MSTORE PUSH1 0x84 ADD PUSH2 0x99D JUMP JUMPDEST PUSH1 0x1 PUSH1 0x1 PUSH1 0xA0 SHL SUB DUP4 AND PUSH1 0x0 SWAP1 DUP2 MSTORE PUSH1 0x4 PUSH1 0x20 MSTORE PUSH1 0x40 SWAP1 KECCAK256 PUSH1 0x7 ADD SLOAD DUP1 PUSH2 0xA92 JUMPI PUSH1 0x40 MLOAD PUSH3 0x461BCD PUSH1 0xE5 SHL DUP2 MSTORE PUSH1 0x20 PUSH1 0x4 DUP3 ADD MSTORE PUSH1 0x1A PUSH1 0x24 DUP3 ADD MSTORE PUSH32 0x596F7520646F6E2774206861766520616E792070726F66697473000000000000 PUSH1 0x44 DUP3 ADD MSTORE PUSH1 0x64 ADD PUSH2 0x99D JUMP JUMPDEST PUSH1 0x1 PUSH1 0x1 PUSH1 0xA0 SHL SUB DUP5 AND PUSH1 0x0 SWAP1 DUP2 MSTORE PUSH1 0x4 PUSH1 0x20 MSTORE PUSH1 0x40 DUP2 KECCAK256 PUSH1 0x7 ADD SSTORE DUP1 ISZERO PUSH2 0xAEC JUMPI PUSH1 0x40 MLOAD PUSH1 0x1 PUSH1 0x1 PUSH1 0xA0 SHL SUB DUP4 AND SWAP1 DUP3 ISZERO PUSH2 0x8FC MUL SWAP1 DUP4 SWAP1 PUSH1 0x0 DUP2 DUP2 DUP2 DUP6 DUP9 DUP9 CALL SWAP4 POP POP POP POP ISZERO DUP1 ISZERO PUSH2 0xAEA JUMPI RETURNDATASIZE PUSH1 0x0 DUP1 RETURNDATACOPY RETURNDATASIZE PUSH1 0x0 REVERT JUMPDEST POP JUMPDEST PUSH2 0xAF5 DUP5 PUSH2 0x1621 JUMP JUMPDEST POP PUSH1 0x40 DUP1 MLOAD DUP3 DUP2 MSTORE TIMESTAMP PUSH1 0x20 DUP3 ADD MSTORE PUSH1 0x1 PUSH1 0x1 PUSH1 0xA0 SHL SUB DUP1 DUP6 AND SWAP3 SWAP1 DUP8 AND SWAP2 PUSH32 0x51A69B4502F660774C9339825C7B5ADBF0B8622289134647E29728EC5D9B3BB9 SWAP2 ADD PUSH1 0x40 MLOAD DUP1 SWAP2 SUB SWAP1 LOG3 POP PUSH1 0x1 SWAP4 SWAP3 POP POP POP JUMP JUMPDEST ORIGIN PUSH1 0x0 DUP2 DUP2 MSTORE PUSH1 0x5 PUSH1 0x20 SWAP1 DUP2 MSTORE PUSH1 0x40 DUP1 DUP4 KECCAK256 PUSH1 0x1 PUSH1 0x1 PUSH1 0xA0 SHL SUB DUP7 AND DUP5 MSTORE DUP3 MSTORE DUP1 DUP4 KECCAK256 PUSH1 0x4 SWAP3 DUP4 SWAP1 MSTORE SWAP1 DUP4 KECCAK256 SLOAD SWAP3 SWAP4 SWAP3 SWAP1 SWAP2 DUP5 SWAP2 PUSH1 0x1 PUSH1 0xA0 SHL SWAP1 DIV PUSH1 0xFF AND SWAP1 DUP2 GT ISZERO PUSH2 0xB96 JUMPI PUSH2 0xB96 PUSH2 0x4548 JUMP JUMPDEST SUB PUSH2 0xBD9 JUMPI PUSH1 0x40 MLOAD PUSH3 0x461BCD PUSH1 0xE5 SHL DUP2 MSTORE PUSH1 0x20 PUSH1 0x4 DUP3 ADD MSTORE PUSH1 0x13 PUSH1 0x24 DUP3 ADD MSTORE PUSH19 0x1D985B1A59185D1BDC881B9BDD08195E1A5CDD PUSH1 0x6A SHL PUSH1 0x44 DUP3 ADD MSTORE PUSH1 0x64 ADD PUSH2 0x99D JUMP JUMPDEST DUP1 PUSH1 0x1 ADD SLOAD PUSH1 0x0 SUB PUSH2 0xC2D JUMPI PUSH1 0x40 MLOAD PUSH3 0x461BCD PUSH1 0xE5 SHL DUP2 MSTORE PUSH1 0x20 PUSH1 0x4 DUP3 ADD MSTORE PUSH1 0x19 PUSH1 0x24 DUP3 ADD MSTORE PUSH32 0x596F75206861766520746F20756E7374616B6520666972737400000000000000 PUSH1 0x44 DUP3 ADD MSTORE PUSH1 0x64 ADD PUSH2 0x99D JUMP JUMPDEST PUSH1 0x1 DUP2 ADD SLOAD NUMBER SWAP1 PUSH2 0xC42 SWAP1 PUSH3 0x15180 SWAP1 PUSH2 0x4389 JUMP JUMPDEST GT ISZERO PUSH2 0xC9A JUMPI PUSH1 0x40 MLOAD PUSH3 0x461BCD PUSH1 0xE5 SHL DUP2 MSTORE PUSH1 0x20 PUSH1 0x4 DUP3 ADD MSTORE PUSH1 0x21 PUSH1 0x24 DUP3 ADD MSTORE PUSH32 0x596F7572207374616B696E6720686176656E277420756E6C6F636B6564207965 PUSH1 0x44 DUP3 ADD MSTORE PUSH1 0x1D PUSH1 0xFA SHL PUSH1 0x64 DUP3 ADD MSTORE PUSH1 0x84 ADD PUSH2 0x99D JUMP JUMPDEST DUP1 SLOAD PUSH2 0xCE3 JUMPI PUSH1 0x40 MLOAD PUSH3 0x461BCD PUSH1 0xE5 SHL DUP2 MSTORE PUSH1 0x20 PUSH1 0x4 DUP3 ADD MSTORE PUSH1 0x18 PUSH1 0x24 DUP3 ADD MSTORE PUSH24 0x596F7520646F6E2774206861766520616E79207374616B65 PUSH1 0x40 SHL PUSH1 0x44 DUP3 ADD MSTORE PUSH1 0x64 ADD PUSH2 0x99D JUMP JUMPDEST DUP1 SLOAD PUSH1 0x0 DUP1 DUP4 SSTORE PUSH1 0x1 DUP4 ADD DUP2 SWAP1 SSTORE PUSH1 0x40 MLOAD PUSH1 0x1 PUSH1 0x1 PUSH1 0xA0 SHL SUB DUP6 AND SWAP2 DUP4 ISZERO PUSH2 0x8FC MUL SWAP2 DUP5 SWAP2 DUP2 DUP2 DUP2 DUP6 DUP9 DUP9 CALL SWAP4 POP POP POP POP ISZERO DUP1 ISZERO PUSH2 0xD25 JUMPI RETURNDATASIZE PUSH1 0x0 DUP1 RETURNDATACOPY RETURNDATASIZE PUSH1 0x0 REVERT JUMPDEST POP PUSH1 0x40 DUP1 MLOAD DUP3 DUP2 MSTORE TIMESTAMP PUSH1 0x20 DUP3 ADD MSTORE PUSH1 0x1 PUSH1 0x1 PUSH1 0xA0 SHL SUB DUP1 DUP9 AND SWAP3 SWAP1 DUP7 AND SWAP2 PUSH32 0xA70CD94070CD852339A76B32CF2D95A3C8F2A322269163D276071C1C14955619 SWAP2 ADD JUMPDEST PUSH1 0x40 MLOAD DUP1 SWAP2 SUB SWAP1 LOG3 POP PUSH1 0x1 SWAP5 SWAP4 POP POP POP POP JUMP JUMPDEST PUSH1 0x0 DUP1 SLOAD PUSH1 0xFF AND PUSH2 0xD9D JUMPI PUSH1 0x40 MLOAD PUSH3 0x461BCD PUSH1 0xE5 SHL DUP2 MSTORE PUSH1 0x4 ADD PUSH2 0x99D SWAP1 PUSH2 0x4AC1 JUMP JUMPDEST ORIGIN CALLVALUE PUSH1 0x1 PUSH1 0x1 PUSH1 0x1 PUSH1 0xA0 SHL SUB DUP6 AND PUSH1 0x0 SWAP1 DUP2 MSTORE PUSH1 0x4 PUSH1 0x20 DUP2 SWAP1 MSTORE PUSH1 0x40 SWAP1 SWAP2 KECCAK256 SLOAD PUSH1 0x1 PUSH1 0xA0 SHL SWAP1 DIV PUSH1 0xFF AND SWAP1 DUP2 GT ISZERO PUSH2 0xDD7 JUMPI PUSH2 0xDD7 PUSH2 0x4548 JUMP JUMPDEST EQ DUP1 PUSH2 0xE18 JUMPI POP PUSH1 0x2 PUSH1 0x1 PUSH1 0x1 PUSH1 0xA0 SHL SUB DUP6 AND PUSH1 0x0 SWAP1 DUP2 MSTORE PUSH1 0x4 PUSH1 0x20 DUP2 SWAP1 MSTORE PUSH1 0x40 SWAP1 SWAP2 KECCAK256 SLOAD PUSH1 0x1 PUSH1 0xA0 SHL SWAP1 DIV PUSH1 0xFF AND SWAP1 DUP2 GT ISZERO PUSH2 0xE16 JUMPI PUSH2 0xE16 PUSH2 0x4548 JUMP JUMPDEST EQ JUMPDEST PUSH2 0xE7A JUMPI PUSH1 0x40 MLOAD PUSH3 0x461BCD PUSH1 0xE5 SHL DUP2 MSTORE PUSH1 0x20 PUSH1 0x4 DUP3 ADD MSTORE PUSH1 0x2D PUSH1 0x24 DUP3 ADD MSTORE PUSH32 0x43616E2774207374616B6520746F20612076616C696461746F7220696E206162 PUSH1 0x44 DUP3 ADD MSTORE PUSH13 0x6E6F726D616C20737461747573 PUSH1 0x98 SHL PUSH1 0x64 DUP3 ADD MSTORE PUSH1 0x84 ADD PUSH2 0x99D JUMP JUMPDEST PUSH1 0x1 PUSH1 0x1 PUSH1 0xA0 SHL SUB DUP1 DUP4 AND PUSH1 0x0 SWAP1 DUP2 MSTORE PUSH1 0x5 PUSH1 0x20 SWAP1 DUP2 MSTORE PUSH1 0x40 DUP1 DUP4 KECCAK256 SWAP4 DUP9 AND DUP4 MSTORE SWAP3 SWAP1 MSTORE KECCAK256 PUSH1 0x1 ADD SLOAD ISZERO PUSH2 0xEFB JUMPI PUSH1 0x40 MLOAD PUSH3 0x461BCD PUSH1 0xE5 SHL DUP2 MSTORE PUSH1 0x20 PUSH1 0x4 DUP3 ADD MSTORE PUSH1 0x22 PUSH1 0x24 DUP3 ADD MSTORE PUSH32 0x43616E2774207374616B65207768656E20796F752061726520756E7374616B69 PUSH1 0x44 DUP3 ADD MSTORE PUSH2 0x6E67 PUSH1 0xF0 SHL PUSH1 0x64 DUP3 ADD MSTORE PUSH1 0x84 ADD PUSH2 0x99D JUMP JUMPDEST PUSH1 0x1 PUSH1 0x1 PUSH1 0xA0 SHL SUB DUP5 AND PUSH1 0x0 SWAP1 DUP2 MSTORE PUSH1 0x4 PUSH1 0x20 MSTORE PUSH1 0x40 SWAP1 KECCAK256 PUSH1 0x1 DUP2 ADD SLOAD PUSH9 0x1BC16D674EC800000 SWAP1 PUSH2 0xF2E SWAP1 DUP5 SWAP1 PUSH2 0x4389 JUMP JUMPDEST LT ISZERO PUSH2 0xF7C JUMPI PUSH1 0x40 MLOAD PUSH3 0x461BCD PUSH1 0xE5 SHL DUP2 MSTORE PUSH1 0x20 PUSH1 0x4 DUP3 ADD MSTORE PUSH1 0x18 PUSH1 0x24 DUP3 ADD MSTORE PUSH32 0x5374616B696E6720636F696E73206E6F7420656E6F7567680000000000000000 PUSH1 0x44 DUP3 ADD MSTORE PUSH1 0x64 ADD PUSH2 0x99D JUMP JUMPDEST PUSH1 0x1 PUSH1 0x1 PUSH1 0xA0 SHL SUB DUP1 DUP5 AND PUSH1 0x0 SWAP1 DUP2 MSTORE PUSH1 0x5 PUSH1 0x20 SWAP1 DUP2 MSTORE PUSH1 0x40 DUP1 DUP4 KECCAK256 SWAP4 DUP10 AND DUP4 MSTORE SWAP3 SWAP1 MSTORE SWAP1 DUP2 KECCAK256 SLOAD SWAP1 SUB PUSH2 0x1095 JUMPI PUSH1 0x1 PUSH1 0x1 PUSH1 0xA0 SHL SUB DUP1 DUP5 AND PUSH1 0x0 SWAP1 DUP2 MSTORE PUSH1 0x5 PUSH1 0x20 SWAP1 DUP2 MSTORE PUSH1 0x40 DUP1 DUP4 KECCAK256 SWAP4 DUP10 AND DUP4 MSTORE SWAP3 SWAP1 MSTORE SWAP1 DUP2 KECCAK256 PUSH1 0x2 ADD SLOAD SWAP1 SUB PUSH2 0x1090 JUMPI PUSH1 0x9 DUP2 ADD DUP1 SLOAD PUSH1 0x1 PUSH1 0x1 PUSH1 0xA0 SHL SUB DUP1 DUP7 AND PUSH1 0x0 DUP2 DUP2 MSTORE PUSH1 0x5 PUSH1 0x20 SWAP1 DUP2 MSTORE PUSH1 0x40 DUP1 DUP4 KECCAK256 SWAP5 DUP13 AND DUP1 DUP5 MSTORE SWAP5 DUP3 MSTORE DUP1 DUP4 KECCAK256 PUSH1 0x2 ADD DUP7 SWAP1 SSTORE PUSH1 0x1 DUP7 ADD DUP8 SSTORE SWAP6 DUP3 MSTORE DUP1 DUP3 KECCAK256 SWAP1 SWAP5 ADD DUP1 SLOAD PUSH1 0x1 PUSH1 0x1 PUSH1 0xA0 SHL SUB NOT AND SWAP1 SWAP3 OR SWAP1 SWAP2 SSTORE SWAP1 DUP2 MSTORE PUSH1 0xC SWAP1 SWAP2 MSTORE SWAP1 DUP2 KECCAK256 SLOAD SWAP1 SUB PUSH2 0x105E JUMPI PUSH1 0x1 PUSH1 0x1 PUSH1 0xA0 SHL SUB DUP6 AND PUSH1 0x0 SWAP1 DUP2 MSTORE PUSH1 0xC PUSH1 0x20 MSTORE PUSH1 0x40 SWAP1 KECCAK256 TIMESTAMP SWAP1 SSTORE JUMPDEST PUSH1 0x1 PUSH1 0x1 PUSH1 0xA0 SHL SUB DUP1 DUP7 AND PUSH1 0x0 DUP2 DUP2 MSTORE PUSH1 0xC PUSH1 0x20 SWAP1 DUP2 MSTORE PUSH1 0x40 DUP1 DUP4 KECCAK256 SLOAD SWAP5 DUP9 AND DUP4 MSTORE PUSH1 0xB DUP3 MSTORE DUP1 DUP4 KECCAK256 SWAP4 DUP4 MSTORE SWAP3 SWAP1 MSTORE KECCAK256 SSTORE JUMPDEST PUSH2 0x10A0 JUMP JUMPDEST PUSH2 0x109E DUP6 PUSH2 0x1621 JUMP JUMPDEST POP JUMPDEST DUP2 DUP2 PUSH1 0x1 ADD SLOAD PUSH2 0x10B0 SWAP2 SWAP1 PUSH2 0x4389 JUMP JUMPDEST PUSH1 0x1 DUP3 ADD SSTORE PUSH1 0x2 DUP2 SLOAD PUSH1 0x1 PUSH1 0xA0 SHL SWAP1 DIV PUSH1 0xFF AND PUSH1 0x4 DUP2 GT ISZERO PUSH2 0x10D4 JUMPI PUSH2 0x10D4 PUSH2 0x4548 JUMP JUMPDEST EQ PUSH2 0x10EB JUMPI DUP1 SLOAD PUSH1 0xFF PUSH1 0xA0 SHL NOT AND PUSH1 0x1 PUSH1 0xA1 SHL OR DUP2 SSTORE JUMPDEST PUSH2 0x10F9 DUP6 DUP3 PUSH1 0x1 ADD SLOAD PUSH2 0x38FC JUMP JUMPDEST PUSH1 0x1 PUSH1 0x1 PUSH1 0xA0 SHL SUB DUP1 DUP5 AND PUSH1 0x0 SWAP1 DUP2 MSTORE PUSH1 0x5 PUSH1 0x20 SWAP1 DUP2 MSTORE PUSH1 0x40 DUP1 DUP4 KECCAK256 SWAP4 DUP10 AND DUP4 MSTORE SWAP3 SWAP1 MSTORE KECCAK256 SLOAD PUSH2 0x112A SWAP1 DUP4 SWAP1 PUSH2 0x4389 JUMP JUMPDEST PUSH1 0x1 PUSH1 0x1 PUSH1 0xA0 SHL SUB DUP1 DUP6 AND PUSH1 0x0 SWAP1 DUP2 MSTORE PUSH1 0x5 PUSH1 0x20 SWAP1 DUP2 MSTORE PUSH1 0x40 DUP1 DUP4 KECCAK256 SWAP4 DUP11 AND DUP4 MSTORE SWAP3 SWAP1 MSTORE KECCAK256 SSTORE PUSH1 0x8 SLOAD PUSH2 0x115E SWAP1 DUP4 SWAP1 PUSH2 0x4389 JUMP JUMPDEST PUSH1 0x8 SSTORE PUSH1 0x40 DUP1 MLOAD DUP4 DUP2 MSTORE TIMESTAMP PUSH1 0x20 DUP3 ADD MSTORE PUSH1 0x1 PUSH1 0x1 PUSH1 0xA0 SHL SUB DUP1 DUP9 AND SWAP3 SWAP1 DUP7 AND SWAP2 PUSH32 0xB9BA725934532316CFFE10975DA6EB25AD49C2D1C294D982C46C9F8D684EE075 SWAP2 ADD PUSH2 0xD67 JUMP JUMPDEST SWAP2 SWAP1 POP JUMP JUMPDEST PUSH1 0x1 PUSH1 0x1 PUSH1 0xA0 SHL SUB DUP1 DUP3 AND PUSH1 0x0 DUP2 DUP2 MSTORE PUSH1 0xD PUSH1 0x20 SWAP1 DUP2 MSTORE PUSH1 0x40 DUP1 DUP4 KECCAK256 SWAP5 DUP8 AND DUP4 MSTORE PUSH1 0xB DUP3 MSTORE DUP1 DUP4 KECCAK256 DUP5 DUP5 MSTORE DUP3 MSTORE DUP1 DUP4 KECCAK256 SLOAD DUP4 MSTORE DUP5 DUP3 MSTORE DUP1 DUP4 KECCAK256 SLOAD SWAP4 DUP4 MSTORE PUSH1 0xC DUP3 MSTORE DUP1 DUP4 KECCAK256 SLOAD DUP4 MSTORE SWAP4 SWAP1 MSTORE SWAP2 DUP3 KECCAK256 SLOAD DUP3 SWAP2 PUSH2 0x1204 SWAP2 PUSH2 0x4AE7 JUMP JUMPDEST SWAP1 POP DUP1 ISZERO PUSH2 0x1283 JUMPI PUSH1 0x1 PUSH1 0x1 PUSH1 0xA0 SHL SUB DUP1 DUP6 AND PUSH1 0x0 SWAP1 DUP2 MSTORE PUSH1 0x5 PUSH1 0x20 SWAP1 DUP2 MSTORE PUSH1 0x40 DUP1 DUP4 KECCAK256 SWAP4 DUP8 AND DUP4 MSTORE SWAP3 DUP2 MSTORE SWAP1 DUP3 SWAP1 KECCAK256 DUP3 MLOAD PUSH1 0x60 DUP2 ADD DUP5 MSTORE DUP2 SLOAD DUP1 DUP3 MSTORE PUSH1 0x1 DUP4 ADD SLOAD SWAP4 DUP3 ADD SWAP4 SWAP1 SWAP4 MSTORE PUSH1 0x2 SWAP1 SWAP2 ADD SLOAD SWAP3 DUP2 ADD SWAP3 SWAP1 SWAP3 MSTORE PUSH9 0x56BC75E2D63100000 SWAP1 PUSH2 0x1270 SWAP1 DUP5 SWAP1 PUSH2 0x4AFA JUMP JUMPDEST PUSH2 0x127A SWAP2 SWAP1 PUSH2 0x4B27 JUMP JUMPDEST SWAP3 POP POP POP PUSH2 0x1289 JUMP JUMPDEST PUSH1 0x0 SWAP2 POP POP JUMPDEST SWAP3 SWAP2 POP POP JUMP JUMPDEST PUSH1 0x0 DUP1 JUMPDEST PUSH1 0x6 SLOAD DUP2 LT ISZERO PUSH2 0x12EF JUMPI DUP3 PUSH1 0x1 PUSH1 0x1 PUSH1 0xA0 SHL SUB AND PUSH1 0x6 DUP3 DUP2 SLOAD DUP2 LT PUSH2 0x12BA JUMPI PUSH2 0x12BA PUSH2 0x4B3B JUMP JUMPDEST PUSH1 0x0 SWAP2 DUP3 MSTORE PUSH1 0x20 SWAP1 SWAP2 KECCAK256 ADD SLOAD PUSH1 0x1 PUSH1 0x1 PUSH1 0xA0 SHL SUB AND SUB PUSH2 0x12DD JUMPI POP PUSH1 0x1 SWAP3 SWAP2 POP POP JUMP JUMPDEST DUP1 PUSH2 0x12E7 DUP2 PUSH2 0x4B51 JUMP JUMPDEST SWAP2 POP POP PUSH2 0x1293 JUMP JUMPDEST POP PUSH1 0x0 SWAP3 SWAP2 POP POP JUMP JUMPDEST CALLER PUSH2 0xF001 EQ PUSH2 0x1340 JUMPI PUSH1 0x40 MLOAD PUSH3 0x461BCD PUSH1 0xE5 SHL DUP2 MSTORE PUSH1 0x20 PUSH1 0x4 DUP3 ADD MSTORE PUSH1 0x14 PUSH1 0x24 DUP3 ADD MSTORE PUSH20 0x50756E69736820636F6E7472616374206F6E6C79 PUSH1 0x60 SHL PUSH1 0x44 DUP3 ADD MSTORE PUSH1 0x64 ADD PUSH2 0x99D JUMP JUMPDEST PUSH1 0x1 PUSH1 0x1 PUSH1 0xA0 SHL SUB DUP2 AND PUSH1 0x0 SWAP1 DUP2 MSTORE PUSH1 0x4 PUSH1 0x20 MSTORE PUSH1 0x40 SWAP1 KECCAK256 PUSH1 0x7 ADD SLOAD PUSH2 0x1365 DUP3 PUSH2 0x3BC5 JUMP JUMPDEST PUSH1 0x7 SLOAD PUSH1 0x1 LT ISZERO PUSH2 0x13BE JUMPI PUSH2 0x1379 DUP3 PUSH2 0x3CDC JUMP JUMPDEST PUSH1 0x40 DUP1 MLOAD DUP3 DUP2 MSTORE TIMESTAMP PUSH1 0x20 DUP3 ADD MSTORE PUSH1 0x1 PUSH1 0x1 PUSH1 0xA0 SHL SUB DUP5 AND SWAP2 PUSH32 0xA26DE7AB324EAC08C596549F421E5C8741213D237D2E9A2C9C0EBDE0A7A849FE SWAP2 ADD JUMPDEST PUSH1 0x40 MLOAD DUP1 SWAP2 SUB SWAP1 LOG2 JUMPDEST POP POP JUMP JUMPDEST PUSH1 0x7 DUP2 DUP2 SLOAD DUP2 LT PUSH2 0x13D2 JUMPI PUSH1 0x0 DUP1 REVERT JUMPDEST PUSH1 0x0 SWAP2 DUP3 MSTORE PUSH1 0x20 SWAP1 SWAP2 KECCAK256 ADD SLOAD PUSH1 0x1 PUSH1 0x1 PUSH1 0xA0 SHL SUB AND SWAP1 POP DUP2 JUMP JUMPDEST CALLER PUSH2 0xF001 EQ PUSH2 0x1434 JUMPI PUSH1 0x40 MLOAD PUSH3 0x461BCD PUSH1 0xE5 SHL DUP2 MSTORE PUSH1 0x20 PUSH1 0x4 DUP3 ADD MSTORE PUSH1 0x14 PUSH1 0x24 DUP3 ADD MSTORE PUSH20 0x50756E69736820636F6E7472616374206F6E6C79 PUSH1 0x60 SHL PUSH1 0x44 DUP3 ADD MSTORE PUSH1 0x64 ADD PUSH2 0x99D JUMP JUMPDEST PUSH2 0x143D DUP2 PUSH2 0x3BC5 JUMP JUMPDEST POP JUMP JUMPDEST CALLER COINBASE EQ PUSH2 0x147C JUMPI PUSH1 0x40 MLOAD PUSH3 0x461BCD PUSH1 0xE5 SHL DUP2 MSTORE PUSH1 0x20 PUSH1 0x4 DUP3 ADD MSTORE PUSH1 0xA PUSH1 0x24 DUP3 ADD MSTORE PUSH10 0x4D696E6572206F6E6C79 PUSH1 0xB0 SHL PUSH1 0x44 DUP3 ADD MSTORE PUSH1 0x64 ADD PUSH2 0x99D JUMP JUMPDEST NUMBER PUSH1 0x0 SWAP1 DUP2 MSTORE PUSH1 0xF PUSH1 0x20 SWAP1 DUP2 MSTORE PUSH1 0x40 DUP1 DUP4 KECCAK256 PUSH1 0x1 DUP5 MSTORE SWAP1 SWAP2 MSTORE SWAP1 KECCAK256 SLOAD PUSH1 0xFF AND ISZERO PUSH2 0x14E8 JUMPI PUSH1 0x40 MLOAD PUSH3 0x461BCD PUSH1 0xE5 SHL DUP2 MSTORE PUSH1 0x20 PUSH1 0x4 DUP3 ADD MSTORE PUSH1 0x1A PUSH1 0x24 DUP3 ADD MSTORE PUSH32 0x56616C696461746F727320616C72656164792075706461746564000000000000 PUSH1 0x44 DUP3 ADD MSTORE PUSH1 0x64 ADD PUSH2 0x99D JUMP JUMPDEST PUSH1 0x0 SLOAD PUSH1 0xFF AND PUSH2 0x150A JUMPI PUSH1 0x40 MLOAD PUSH3 0x461BCD PUSH1 0xE5 SHL DUP2 MSTORE PUSH1 0x4 ADD PUSH2 0x99D SWAP1 PUSH2 0x4AC1 JUMP JUMPDEST DUP1 PUSH2 0x1515 DUP2 NUMBER PUSH2 0x4B6A JUMP JUMPDEST ISZERO PUSH2 0x1555 JUMPI PUSH1 0x40 MLOAD PUSH3 0x461BCD PUSH1 0xE5 SHL DUP2 MSTORE PUSH1 0x20 PUSH1 0x4 DUP3 ADD MSTORE PUSH1 0x10 PUSH1 0x24 DUP3 ADD MSTORE PUSH16 0x426C6F636B2065706F6368206F6E6C79 PUSH1 0x80 SHL PUSH1 0x44 DUP3 ADD MSTORE PUSH1 0x64 ADD PUSH2 0x99D JUMP JUMPDEST NUMBER PUSH1 0x0 SWAP1 DUP2 MSTORE PUSH1 0xF PUSH1 0x20 SWAP1 DUP2 MSTORE PUSH1 0x40 DUP1 DUP4 KECCAK256 PUSH1 0x1 DUP1 DUP6 MSTORE SWAP3 MSTORE SWAP1 SWAP2 KECCAK256 DUP1 SLOAD PUSH1 0xFF NOT AND SWAP1 SWAP2 OR SWAP1 SSTORE DUP3 MLOAD PUSH2 0x15C1 JUMPI PUSH1 0x40 MLOAD PUSH3 0x461BCD PUSH1 0xE5 SHL DUP2 MSTORE PUSH1 0x20 PUSH1 0x4 DUP3 ADD MSTORE PUSH1 0x14 PUSH1 0x24 DUP3 ADD MSTORE PUSH20 0x56616C696461746F722073657420656D70747921 PUSH1 0x60 SHL PUSH1 0x44 DUP3 ADD MSTORE PUSH1 0x64 ADD PUSH2 0x99D JUMP JUMPDEST DUP3 MLOAD PUSH2 0x15D4 SWAP1 PUSH1 0x6 SWAP1 PUSH1 0x20 DUP7 ADD SWAP1 PUSH2 0x42F9 JUMP JUMPDEST POP PUSH32 0xEACEA8F3C22F06C0B18306BDB04D0A967255129E8CE0094DEBB0A0FF89D006B5 DUP4 PUSH1 0x40 MLOAD PUSH2 0x1604 SWAP2 SWAP1 PUSH2 0x4632 JUMP JUMPDEST PUSH1 0x40 MLOAD DUP1 SWAP2 SUB SWAP1 LOG1 POP POP POP JUMP JUMPDEST PUSH1 0x6 DUP2 DUP2 SLOAD DUP2 LT PUSH2 0x13D2 JUMPI PUSH1 0x0 DUP1 REVERT JUMPDEST ORIGIN PUSH1 0x0 SWAP1 DUP2 MSTORE PUSH1 0xB PUSH1 0x20 SWAP1 DUP2 MSTORE PUSH1 0x40 DUP1 DUP4 KECCAK256 PUSH1 0x1 PUSH1 0x1 PUSH1 0xA0 SHL SUB DUP6 AND DUP5 MSTORE SWAP1 SWAP2 MSTORE DUP2 KECCAK256 SLOAD PUSH2 0x1682 JUMPI PUSH1 0x40 MLOAD PUSH3 0x461BCD PUSH1 0xE5 SHL DUP2 MSTORE PUSH1 0x20 PUSH1 0x4 DUP3 ADD MSTORE PUSH1 0xE PUSH1 0x24 DUP3 ADD MSTORE PUSH14 0x1B9BDD1A1A5B99C81CDD185AD959 PUSH1 0x92 SHL PUSH1 0x44 DUP3 ADD MSTORE PUSH1 0x64 ADD PUSH2 0x99D JUMP JUMPDEST ORIGIN PUSH1 0x0 DUP2 DUP2 MSTORE PUSH1 0x5 PUSH1 0x20 SWAP1 DUP2 MSTORE PUSH1 0x40 DUP1 DUP4 KECCAK256 PUSH1 0x1 PUSH1 0x1 PUSH1 0xA0 SHL SUB DUP8 AND DUP1 DUP6 MSTORE SWAP1 DUP4 MSTORE DUP2 DUP5 KECCAK256 PUSH1 0xD DUP5 MSTORE DUP3 DUP6 KECCAK256 SWAP6 DUP6 MSTORE PUSH1 0xB DUP5 MSTORE DUP3 DUP6 KECCAK256 DUP3 DUP7 MSTORE DUP5 MSTORE DUP3 DUP6 KECCAK256 SLOAD DUP6 MSTORE DUP6 DUP5 MSTORE DUP3 DUP6 KECCAK256 SLOAD SWAP2 DUP6 MSTORE PUSH1 0xC DUP5 MSTORE DUP3 DUP6 KECCAK256 SLOAD DUP6 MSTORE SWAP5 SWAP1 SWAP3 MSTORE DUP3 KECCAK256 SLOAD PUSH2 0x16E8 SWAP2 SWAP1 PUSH2 0x4AE7 JUMP JUMPDEST SWAP1 POP DUP1 ISZERO PUSH2 0x17C7 JUMPI PUSH1 0x1 PUSH1 0x1 PUSH1 0xA0 SHL SUB DUP5 AND PUSH1 0x0 DUP2 DUP2 MSTORE PUSH1 0xC PUSH1 0x20 SWAP1 DUP2 MSTORE PUSH1 0x40 DUP1 DUP4 KECCAK256 SLOAD ORIGIN DUP5 MSTORE PUSH1 0xB DUP4 MSTORE DUP2 DUP5 KECCAK256 SWAP5 DUP5 MSTORE SWAP4 SWAP1 SWAP2 MSTORE DUP2 KECCAK256 SWAP2 SWAP1 SWAP2 SSTORE DUP3 SLOAD PUSH9 0x56BC75E2D63100000 SWAP1 PUSH2 0x173B SWAP1 DUP5 SWAP1 PUSH2 0x4AFA JUMP JUMPDEST PUSH2 0x1745 SWAP2 SWAP1 PUSH2 0x4B27 JUMP JUMPDEST PUSH1 0x40 MLOAD SWAP1 SWAP2 POP ORIGIN SWAP1 DUP3 ISZERO PUSH2 0x8FC MUL SWAP1 DUP4 SWAP1 PUSH1 0x0 DUP2 DUP2 DUP2 DUP6 DUP9 DUP9 CALL SWAP4 POP POP POP POP ISZERO DUP1 ISZERO PUSH2 0x1775 JUMPI RETURNDATASIZE PUSH1 0x0 DUP1 RETURNDATACOPY RETURNDATASIZE PUSH1 0x0 REVERT JUMPDEST POP PUSH1 0x40 DUP1 MLOAD ORIGIN DUP2 MSTORE PUSH1 0x1 PUSH1 0x1 PUSH1 0xA0 SHL SUB DUP8 AND PUSH1 0x20 DUP3 ADD MSTORE SWAP1 DUP2 ADD DUP3 SWAP1 MSTORE TIMESTAMP PUSH1 0x60 DUP3 ADD MSTORE PUSH32 0x7DAF1212D032F2F66DB6DBB919BBD591BE3D954B5B6EE491709CBB5FBE4F5170 SWAP1 PUSH1 0x80 ADD PUSH1 0x40 MLOAD DUP1 SWAP2 SUB SWAP1 LOG1 POP JUMPDEST POP PUSH1 0x1 SWAP4 SWAP3 POP POP POP JUMP JUMPDEST PUSH1 0x0 CALLER PUSH2 0xF002 EQ PUSH2 0x181D JUMPI PUSH1 0x40 MLOAD PUSH3 0x461BCD PUSH1 0xE5 SHL DUP2 MSTORE PUSH1 0x20 PUSH1 0x4 DUP3 ADD MSTORE PUSH1 0x16 PUSH1 0x24 DUP3 ADD MSTORE PUSH22 0x50726F706F73616C20636F6E7472616374206F6E6C79 PUSH1 0x50 SHL PUSH1 0x44 DUP3 ADD MSTORE PUSH1 0x64 ADD PUSH2 0x99D JUMP JUMPDEST PUSH1 0x0 SLOAD PUSH1 0xFF AND PUSH2 0x183F JUMPI PUSH1 0x40 MLOAD PUSH3 0x461BCD PUSH1 0xE5 SHL DUP2 MSTORE PUSH1 0x4 ADD PUSH2 0x99D SWAP1 PUSH2 0x4AC1 JUMP JUMPDEST PUSH1 0x3 PUSH1 0x1 PUSH1 0x1 PUSH1 0xA0 SHL SUB DUP4 AND PUSH1 0x0 SWAP1 DUP2 MSTORE PUSH1 0x4 PUSH1 0x20 DUP2 SWAP1 MSTORE PUSH1 0x40 SWAP1 SWAP2 KECCAK256 SLOAD PUSH1 0x1 PUSH1 0xA0 SHL SWAP1 DIV PUSH1 0xFF AND SWAP1 DUP2 GT ISZERO PUSH2 0x1877 JUMPI PUSH2 0x1877 PUSH2 0x4548 JUMP JUMPDEST EQ ISZERO DUP1 ISZERO PUSH2 0x18BB JUMPI POP PUSH1 0x4 PUSH1 0x1 PUSH1 0x1 PUSH1 0xA0 SHL SUB DUP4 AND PUSH1 0x0 SWAP1 DUP2 MSTORE PUSH1 0x4 PUSH1 0x20 DUP2 SWAP1 MSTORE PUSH1 0x40 SWAP1 SWAP2 KECCAK256 SLOAD PUSH1 0x1 PUSH1 0xA0 SHL SWAP1 DIV PUSH1 0xFF AND SWAP1 DUP2 GT ISZERO PUSH2 0x18B8 JUMPI PUSH2 0x18B8 PUSH2 0x4548 JUMP JUMPDEST EQ ISZERO JUMPDEST ISZERO PUSH2 0x18C8 JUMPI POP PUSH1 0x1 SWAP2 SWAP1 POP JUMP JUMPDEST PUSH1 0x4 PUSH1 0x1 PUSH1 0x1 PUSH1 0xA0 SHL SUB DUP4 AND PUSH1 0x0 SWAP1 DUP2 MSTORE PUSH1 0x4 PUSH1 0x20 DUP2 SWAP1 MSTORE PUSH1 0x40 SWAP1 SWAP2 KECCAK256 SLOAD PUSH1 0x1 PUSH1 0xA0 SHL SWAP1 DIV PUSH1 0xFF AND SWAP1 DUP2 GT ISZERO PUSH2 0x1900 JUMPI PUSH2 0x1900 PUSH2 0x4548 JUMP JUMPDEST SUB PUSH2 0x19B0 JUMPI PUSH1 0xE SLOAD PUSH1 0x40 MLOAD PUSH4 0x63E1D451 PUSH1 0xE0 SHL DUP2 MSTORE PUSH1 0x1 PUSH1 0x1 PUSH1 0xA0 SHL SUB DUP5 DUP2 AND PUSH1 0x4 DUP4 ADD MSTORE SWAP1 SWAP2 AND SWAP1 PUSH4 0x63E1D451 SWAP1 PUSH1 0x24 ADD PUSH1 0x20 PUSH1 0x40 MLOAD DUP1 DUP4 SUB DUP2 PUSH1 0x0 DUP8 GAS CALL ISZERO DUP1 ISZERO PUSH2 0x1951 JUMPI RETURNDATASIZE PUSH1 0x0 DUP1 RETURNDATACOPY RETURNDATASIZE PUSH1 0x0 REVERT JUMPDEST POP POP POP POP PUSH1 0x40 MLOAD RETURNDATASIZE PUSH1 0x1F NOT PUSH1 0x1F DUP3 ADD AND DUP3 ADD DUP1 PUSH1 0x40 MSTORE POP DUP2 ADD SWAP1 PUSH2 0x1975 SWAP2 SWAP1 PUSH2 0x4B7E JUMP JUMPDEST PUSH2 0x19B0 JUMPI PUSH1 0x40 MLOAD PUSH3 0x461BCD PUSH1 0xE5 SHL DUP2 MSTORE PUSH1 0x20 PUSH1 0x4 DUP3 ADD MSTORE PUSH1 0xC PUSH1 0x24 DUP3 ADD MSTORE PUSH12 0x18DB19585B8819985A5B1959 PUSH1 0xA2 SHL PUSH1 0x44 DUP3 ADD MSTORE PUSH1 0x64 ADD PUSH2 0x99D JUMP JUMPDEST PUSH1 0x1 PUSH1 0x1 PUSH1 0xA0 SHL SUB DUP3 AND PUSH1 0x0 DUP2 DUP2 MSTORE PUSH1 0x4 PUSH1 0x20 SWAP1 DUP2 MSTORE PUSH1 0x40 SWAP2 DUP3 SWAP1 KECCAK256 DUP1 SLOAD PUSH1 0xFF PUSH1 0xA0 SHL NOT AND PUSH1 0x1 PUSH1 0xA0 SHL OR SWAP1 SSTORE SWAP1 MLOAD TIMESTAMP DUP2 MSTORE PUSH32 0xD8B2C426EC1BE69CA7583D26B1E893946E3227430D3EBC3BD64D9E1C469CB400 SWAP2 ADD PUSH1 0x40 MLOAD DUP1 SWAP2 SUB SWAP1 LOG2 POP PUSH1 0x1 SWAP2 SWAP1 POP JUMP JUMPDEST PUSH1 0x1 PUSH1 0x1 PUSH1 0xA0 SHL SUB DUP2 DUP2 AND PUSH1 0x0 SWAP1 DUP2 MSTORE PUSH1 0x4 PUSH1 0x20 DUP2 DUP2 MSTORE PUSH1 0x40 DUP1 DUP5 KECCAK256 DUP2 MLOAD PUSH1 0xE0 DUP2 ADD SWAP1 SWAP3 MSTORE DUP1 SLOAD SWAP6 DUP7 AND DUP3 MSTORE SWAP4 SWAP5 DUP6 SWAP5 DUP6 SWAP5 DUP6 SWAP5 DUP6 SWAP5 PUSH1 0x60 SWAP5 DUP7 SWAP5 SWAP2 SWAP4 SWAP2 SWAP3 DUP5 ADD SWAP2 PUSH1 0x1 PUSH1 0xA0 SHL SWAP1 SWAP2 DIV PUSH1 0xFF AND SWAP1 DUP2 GT ISZERO PUSH2 0x1A72 JUMPI PUSH2 0x1A72 PUSH2 0x4548 JUMP JUMPDEST PUSH1 0x4 DUP2 GT ISZERO PUSH2 0x1A83 JUMPI PUSH2 0x1A83 PUSH2 0x4548 JUMP JUMPDEST DUP2 MSTORE PUSH1 0x20 ADD PUSH1 0x1 DUP3 ADD SLOAD DUP2 MSTORE PUSH1 0x20 ADD PUSH1 0x2 DUP3 ADD PUSH1 0x40 MLOAD DUP1 PUSH1 0xA0 ADD PUSH1 0x40 MSTORE SWAP1 DUP2 PUSH1 0x0 DUP3 ADD DUP1 SLOAD PUSH2 0x1AB1 SWAP1 PUSH2 0x4BA0 JUMP JUMPDEST DUP1 PUSH1 0x1F ADD PUSH1 0x20 DUP1 SWAP2 DIV MUL PUSH1 0x20 ADD PUSH1 0x40 MLOAD SWAP1 DUP2 ADD PUSH1 0x40 MSTORE DUP1 SWAP3 SWAP2 SWAP1 DUP2 DUP2 MSTORE PUSH1 0x20 ADD DUP3 DUP1 SLOAD PUSH2 0x1ADD SWAP1 PUSH2 0x4BA0 JUMP JUMPDEST DUP1 ISZERO PUSH2 0x1B2A JUMPI DUP1 PUSH1 0x1F LT PUSH2 0x1AFF JUMPI PUSH2 0x100 DUP1 DUP4 SLOAD DIV MUL DUP4 MSTORE SWAP2 PUSH1 0x20 ADD SWAP2 PUSH2 0x1B2A JUMP JUMPDEST DUP3 ADD SWAP2 SWAP1 PUSH1 0x0 MSTORE PUSH1 0x20 PUSH1 0x0 KECCAK256 SWAP1 JUMPDEST DUP2 SLOAD DUP2 MSTORE SWAP1 PUSH1 0x1 ADD SWAP1 PUSH1 0x20 ADD DUP1 DUP4 GT PUSH2 0x1B0D JUMPI DUP3 SWAP1 SUB PUSH1 0x1F AND DUP3 ADD SWAP2 JUMPDEST POP POP POP POP POP DUP2 MSTORE PUSH1 0x20 ADD PUSH1 0x1 DUP3 ADD DUP1 SLOAD PUSH2 0x1B43 SWAP1 PUSH2 0x4BA0 JUMP JUMPDEST DUP1 PUSH1 0x1F ADD PUSH1 0x20 DUP1 SWAP2 DIV MUL PUSH1 0x20 ADD PUSH1 0x40 MLOAD SWAP1 DUP2 ADD PUSH1 0x40 MSTORE DUP1 SWAP3 SWAP2 SWAP1 DUP2 DUP2 MSTORE PUSH1 0x20 ADD DUP3 DUP1 SLOAD PUSH2 0x1B6F SWAP1 PUSH2 0x4BA0 JUMP JUMPDEST DUP1 ISZERO PUSH2 0x1BBC JUMPI DUP1 PUSH1 0x1F LT PUSH2 0x1B91 JUMPI PUSH2 0x100 DUP1 DUP4 SLOAD DIV MUL DUP4 MSTORE SWAP2 PUSH1 0x20 ADD SWAP2 PUSH2 0x1BBC JUMP JUMPDEST DUP3 ADD SWAP2 SWAP1 PUSH1 0x0 MSTORE PUSH1 0x20 PUSH1 0x0 KECCAK256 SWAP1 JUMPDEST DUP2 SLOAD DUP2 MSTORE SWAP1 PUSH1 0x1 ADD SWAP1 PUSH1 0x20 ADD DUP1 DUP4 GT PUSH2 0x1B9F JUMPI DUP3 SWAP1 SUB PUSH1 0x1F AND DUP3 ADD SWAP2 JUMPDEST POP POP POP POP POP DUP2 MSTORE PUSH1 0x20 ADD PUSH1 0x2 DUP3 ADD DUP1 SLOAD PUSH2 0x1BD5 SWAP1 PUSH2 0x4BA0 JUMP JUMPDEST DUP1 PUSH1 0x1F ADD PUSH1 0x20 DUP1 SWAP2 DIV MUL PUSH1 0x20 ADD PUSH1 0x40 MLOAD SWAP1 DUP2 ADD PUSH1 0x40 MSTORE DUP1 SWAP3 SWAP2 SWAP1 DUP2 DUP2 MSTORE PUSH1 0x20 ADD DUP3 DUP1 SLOAD PUSH2 0x1C01 SWAP1 PUSH2 0x4BA0 JUMP JUMPDEST DUP1 ISZERO PUSH2 0x1C4E JUMPI DUP1 PUSH1 0x1F LT PUSH2 0x1C23 JUMPI PUSH2 0x100 DUP1 DUP4 SLOAD DIV MUL DUP4 MSTORE SWAP2 PUSH1 0x20 ADD SWAP2 PUSH2 0x1C4E JUMP JUMPDEST DUP3 ADD SWAP2 SWAP1 PUSH1 0x0 MSTORE PUSH1 0x20 PUSH1 0x0 KECCAK256 SWAP1 JUMPDEST DUP2 SLOAD DUP2 MSTORE SWAP1 PUSH1 0x1 ADD SWAP1 PUSH1 0x20 ADD DUP1 DUP4 GT PUSH2 0x1C31 JUMPI DUP3 SWAP1 SUB PUSH1 0x1F AND DUP3 ADD SWAP2 JUMPDEST POP POP POP POP POP DUP2 MSTORE PUSH1 0x20 ADD PUSH1 0x3 DUP3 ADD DUP1 SLOAD PUSH2 0x1C67 SWAP1 PUSH2 0x4BA0 JUMP JUMPDEST DUP1 PUSH1 0x1F ADD PUSH1 0x20 DUP1 SWAP2 DIV MUL PUSH1 0x20 ADD PUSH1 0x40 MLOAD SWAP1 DUP2 ADD PUSH1 0x40 MSTORE DUP1 SWAP3 SWAP2 SWAP1 DUP2 DUP2 MSTORE PUSH1 0x20 ADD DUP3 DUP1 SLOAD PUSH2 0x1C93 SWAP1 PUSH2 0x4BA0 JUMP JUMPDEST DUP1 ISZERO PUSH2 0x1CE0 JUMPI DUP1 PUSH1 0x1F LT PUSH2 0x1CB5 JUMPI PUSH2 0x100 DUP1 DUP4 SLOAD DIV MUL DUP4 MSTORE SWAP2 PUSH1 0x20 ADD SWAP2 PUSH2 0x1CE0 JUMP JUMPDEST DUP3 ADD SWAP2 SWAP1 PUSH1 0x0 MSTORE PUSH1 0x20 PUSH1 0x0 KECCAK256 SWAP1 JUMPDEST DUP2 SLOAD DUP2 MSTORE SWAP1 PUSH1 0x1 ADD SWAP1 PUSH1 0x20 ADD DUP1 DUP4 GT PUSH2 0x1CC3 JUMPI DUP3 SWAP1 SUB PUSH1 0x1F AND DUP3 ADD SWAP2 JUMPDEST POP POP POP POP POP DUP2 MSTORE PUSH1 0x20 ADD PUSH1 0x4 DUP3 ADD DUP1 SLOAD PUSH2 0x1CF9 SWAP1 PUSH2 0x4BA0 JUMP JUMPDEST DUP1 PUSH1 0x1F ADD PUSH1 0x20 DUP1 SWAP2 DIV MUL PUSH1 0x20 ADD PUSH1 0x40 MLOAD SWAP1 DUP2 ADD PUSH1 0x40 MSTORE DUP1 SWAP3 SWAP2 SWAP1 DUP2 DUP2 MSTORE PUSH1 0x20 ADD DUP3 DUP1 SLOAD PUSH2 0x1D25 SWAP1 PUSH2 0x4BA0 JUMP JUMPDEST DUP1 ISZERO PUSH2 0x1D72 JUMPI DUP1 PUSH1 0x1F LT PUSH2 0x1D47 JUMPI PUSH2 0x100 DUP1 DUP4 SLOAD DIV MUL DUP4 MSTORE SWAP2 PUSH1 0x20 ADD SWAP2 PUSH2 0x1D72 JUMP JUMPDEST DUP3 ADD SWAP2 SWAP1 PUSH1 0x0 MSTORE PUSH1 0x20 PUSH1 0x0 KECCAK256 SWAP1 JUMPDEST DUP2 SLOAD DUP2 MSTORE SWAP1 PUSH1 0x1 ADD SWAP1 PUSH1 0x20 ADD DUP1 DUP4 GT PUSH2 0x1D55 JUMPI DUP3 SWAP1 SUB PUSH1 0x1F AND DUP3 ADD SWAP2 JUMPDEST POP POP POP POP POP DUP2 MSTORE POP POP DUP2 MSTORE PUSH1 0x20 ADD PUSH1 0x7 DUP3 ADD SLOAD DUP2 MSTORE PUSH1 0x20 ADD PUSH1 0x8 DUP3 ADD SLOAD DUP2 MSTORE PUSH1 0x20 ADD PUSH1 0x9 DUP3 ADD DUP1 SLOAD DUP1 PUSH1 0x20 MUL PUSH1 0x20 ADD PUSH1 0x40 MLOAD SWAP1 DUP2 ADD PUSH1 0x40 MSTORE DUP1 SWAP3 SWAP2 SWAP1 DUP2 DUP2 MSTORE PUSH1 0x20 ADD DUP3 DUP1 SLOAD DUP1 ISZERO PUSH2 0x1DEC JUMPI PUSH1 0x20 MUL DUP3 ADD SWAP2 SWAP1 PUSH1 0x0 MSTORE PUSH1 0x20 PUSH1 0x0 KECCAK256 SWAP1 JUMPDEST DUP2 SLOAD PUSH1 0x1 PUSH1 0x1 PUSH1 0xA0 SHL SUB AND DUP2 MSTORE PUSH1 0x1 SWAP1 SWAP2 ADD SWAP1 PUSH1 0x20 ADD DUP1 DUP4 GT PUSH2 0x1DCE JUMPI JUMPDEST POP POP POP SWAP2 SWAP1 SWAP3 MSTORE POP POP DUP2 MLOAD PUSH1 0x20 DUP4 ADD MLOAD PUSH1 0x40 DUP5 ADD MLOAD PUSH1 0x80 DUP6 ADD MLOAD PUSH1 0xA0 DUP7 ADD MLOAD PUSH1 0xC0 SWAP1 SWAP7 ADD MLOAD SWAP4 SWAP15 SWAP3 SWAP14 POP SWAP1 SWAP12 POP SWAP10 POP SWAP3 SWAP8 POP SWAP6 POP SWAP1 SWAP4 POP POP POP POP JUMP JUMPDEST PUSH1 0x0 DUP1 JUMPDEST PUSH1 0x7 SLOAD DUP2 LT ISZERO PUSH2 0x12EF JUMPI DUP3 PUSH1 0x1 PUSH1 0x1 PUSH1 0xA0 SHL SUB AND PUSH1 0x7 DUP3 DUP2 SLOAD DUP2 LT PUSH2 0x1E53 JUMPI PUSH2 0x1E53 PUSH2 0x4B3B JUMP JUMPDEST PUSH1 0x0 SWAP2 DUP3 MSTORE PUSH1 0x20 SWAP1 SWAP2 KECCAK256 ADD SLOAD PUSH1 0x1 PUSH1 0x1 PUSH1 0xA0 SHL SUB AND SUB PUSH2 0x1E76 JUMPI POP PUSH1 0x1 SWAP3 SWAP2 POP POP JUMP JUMPDEST DUP1 PUSH2 0x1E80 DUP2 PUSH2 0x4B51 JUMP JUMPDEST SWAP2 POP POP PUSH2 0x1E2C JUMP JUMPDEST PUSH1 0x60 PUSH1 0x6 DUP1 SLOAD DUP1 PUSH1 0x20 MUL PUSH1 0x20 ADD PUSH1 0x40 MLOAD SWAP1 DUP2 ADD PUSH1 0x40 MSTORE DUP1 SWAP3 SWAP2 SWAP1 DUP2 DUP2 MSTORE PUSH1 0x20 ADD DUP3 DUP1 SLOAD DUP1 ISZERO PUSH2 0x1EE0 JUMPI PUSH1 0x20 MUL DUP3 ADD SWAP2 SWAP1 PUSH1 0x0 MSTORE PUSH1 0x20 PUSH1 0x0 KECCAK256 SWAP1 JUMPDEST DUP2 SLOAD PUSH1 0x1 PUSH1 0x1 PUSH1 0xA0 SHL SUB AND DUP2 MSTORE PUSH1 0x1 SWAP1 SWAP2 ADD SWAP1 PUSH1 0x20 ADD DUP1 DUP4 GT PUSH2 0x1EC2 JUMPI JUMPDEST POP POP POP POP POP SWAP1 POP SWAP1 JUMP JUMPDEST PUSH1 0x0 SLOAD PUSH1 0xFF AND ISZERO PUSH2 0x1F33 JUMPI PUSH1 0x40 MLOAD PUSH3 0x461BCD PUSH1 0xE5 SHL DUP2 MSTORE PUSH1 0x20 PUSH1 0x4 DUP3 ADD MSTORE PUSH1 0x13 PUSH1 0x24 DUP3 ADD MSTORE PUSH19 0x105B1C9958591E481A5B9A5D1A585B1A5E9959 PUSH1 0x6A SHL PUSH1 0x44 DUP3 ADD MSTORE PUSH1 0x64 ADD PUSH2 0x99D JUMP JUMPDEST PUSH1 0xE DUP1 SLOAD PUSH1 0x1 PUSH1 0x1 PUSH1 0xA0 SHL SUB NOT AND PUSH2 0xF001 OR SWAP1 SSTORE PUSH1 0x0 JUMPDEST DUP2 DUP2 LT ISZERO PUSH2 0x22E2 JUMPI PUSH1 0x0 DUP4 DUP4 DUP4 DUP2 DUP2 LT PUSH2 0x1F66 JUMPI PUSH2 0x1F66 PUSH2 0x4B3B JUMP JUMPDEST SWAP1 POP PUSH1 0x20 MUL ADD PUSH1 0x20 DUP2 ADD SWAP1 PUSH2 0x1F7B SWAP2 SWAP1 PUSH2 0x43B1 JUMP JUMPDEST PUSH1 0x1 PUSH1 0x1 PUSH1 0xA0 SHL SUB AND SUB PUSH2 0x1FD1 JUMPI PUSH1 0x40 MLOAD PUSH3 0x461BCD PUSH1 0xE5 SHL DUP2 MSTORE PUSH1 0x20 PUSH1 0x4 DUP3 ADD MSTORE PUSH1 0x19 PUSH1 0x24 DUP3 ADD MSTORE PUSH32 0x496E76616C69642076616C696461746F72206164647265737300000000000000 PUSH1 0x44 DUP3 ADD MSTORE PUSH1 0x64 ADD PUSH2 0x99D JUMP JUMPDEST TIMESTAMP PUSH1 0xC PUSH1 0x0 DUP6 DUP6 DUP6 DUP2 DUP2 LT PUSH2 0x1FE8 JUMPI PUSH2 0x1FE8 PUSH2 0x4B3B JUMP JUMPDEST SWAP1 POP PUSH1 0x20 MUL ADD PUSH1 0x20 DUP2 ADD SWAP1 PUSH2 0x1FFD SWAP2 SWAP1 PUSH2 0x43B1 JUMP JUMPDEST PUSH1 0x1 PUSH1 0x1 PUSH1 0xA0 SHL SUB AND DUP2 MSTORE PUSH1 0x20 DUP2 ADD SWAP2 SWAP1 SWAP2 MSTORE PUSH1 0x40 ADD PUSH1 0x0 KECCAK256 SSTORE PUSH2 0x2041 DUP4 DUP4 DUP4 DUP2 DUP2 LT PUSH2 0x202C JUMPI PUSH2 0x202C PUSH2 0x4B3B JUMP JUMPDEST SWAP1 POP PUSH1 0x20 MUL ADD PUSH1 0x20 DUP2 ADD SWAP1 PUSH2 0x48E SWAP2 SWAP1 PUSH2 0x43B1 JUMP JUMPDEST PUSH2 0x20A1 JUMPI PUSH1 0x6 DUP4 DUP4 DUP4 DUP2 DUP2 LT PUSH2 0x2059 JUMPI PUSH2 0x2059 PUSH2 0x4B3B JUMP JUMPDEST SWAP1 POP PUSH1 0x20 MUL ADD PUSH1 0x20 DUP2 ADD SWAP1 PUSH2 0x206E SWAP2 SWAP1 PUSH2 0x43B1 JUMP JUMPDEST DUP2 SLOAD PUSH1 0x1 DUP2 ADD DUP4 SSTORE PUSH1 0x0 SWAP3 DUP4 MSTORE PUSH1 0x20 SWAP1 SWAP3 KECCAK256 SWAP1 SWAP2 ADD DUP1 SLOAD PUSH1 0x1 PUSH1 0x1 PUSH1 0xA0 SHL SUB NOT AND PUSH1 0x1 PUSH1 0x1 PUSH1 0xA0 SHL SUB SWAP1 SWAP3 AND SWAP2 SWAP1 SWAP2 OR SWAP1 SSTORE JUMPDEST PUSH2 0x20CB DUP4 DUP4 DUP4 DUP2 DUP2 LT PUSH2 0x20B6 JUMPI PUSH2 0x20B6 PUSH2 0x4B3B JUMP JUMPDEST SWAP1 POP PUSH1 0x20 MUL ADD PUSH1 0x20 DUP2 ADD SWAP1 PUSH2 0x6DC SWAP2 SWAP1 PUSH2 0x43B1 JUMP JUMPDEST PUSH2 0x212B JUMPI PUSH1 0x7 DUP4 DUP4 DUP4 DUP2 DUP2 LT PUSH2 0x20E3 JUMPI PUSH2 0x20E3 PUSH2 0x4B3B JUMP JUMPDEST SWAP1 POP PUSH1 0x20 MUL ADD PUSH1 0x20 DUP2 ADD SWAP1 PUSH2 0x20F8 SWAP2 SWAP1 PUSH2 0x43B1 JUMP JUMPDEST DUP2 SLOAD PUSH1 0x1 DUP2 ADD DUP4 SSTORE PUSH1 0x0 SWAP3 DUP4 MSTORE PUSH1 0x20 SWAP1 SWAP3 KECCAK256 SWAP1 SWAP2 ADD DUP1 SLOAD PUSH1 0x1 PUSH1 0x1 PUSH1 0xA0 SHL SUB NOT AND PUSH1 0x1 PUSH1 0x1 PUSH1 0xA0 SHL SUB SWAP1 SWAP3 AND SWAP2 SWAP1 SWAP2 OR SWAP1 SSTORE JUMPDEST PUSH1 0x0 PUSH1 0x4 DUP2 DUP6 DUP6 DUP6 DUP2 DUP2 LT PUSH2 0x2142 JUMPI PUSH2 0x2142 PUSH2 0x4B3B JUMP JUMPDEST SWAP1 POP PUSH1 0x20 MUL ADD PUSH1 0x20 DUP2 ADD SWAP1 PUSH2 0x2157 SWAP2 SWAP1 PUSH2 0x43B1 JUMP JUMPDEST PUSH1 0x1 PUSH1 0x1 PUSH1 0xA0 SHL SUB SWAP1 DUP2 AND DUP3 MSTORE PUSH1 0x20 DUP3 ADD SWAP3 SWAP1 SWAP3 MSTORE PUSH1 0x40 ADD PUSH1 0x0 KECCAK256 SLOAD AND SUB PUSH2 0x21FD JUMPI DUP3 DUP3 DUP3 DUP2 DUP2 LT PUSH2 0x218B JUMPI PUSH2 0x218B PUSH2 0x4B3B JUMP JUMPDEST SWAP1 POP PUSH1 0x20 MUL ADD PUSH1 0x20 DUP2 ADD SWAP1 PUSH2 0x21A0 SWAP2 SWAP1 PUSH2 0x43B1 JUMP JUMPDEST PUSH1 0x4 PUSH1 0x0 DUP6 DUP6 DUP6 DUP2 DUP2 LT PUSH2 0x21B6 JUMPI PUSH2 0x21B6 PUSH2 0x4B3B JUMP JUMPDEST SWAP1 POP PUSH1 0x20 MUL ADD PUSH1 0x20 DUP2 ADD SWAP1 PUSH2 0x21CB SWAP2 SWAP1 PUSH2 0x43B1 JUMP JUMPDEST PUSH1 0x1 PUSH1 0x1 PUSH1 0xA0 SHL SUB SWAP1 DUP2 AND DUP3 MSTORE PUSH1 0x20 DUP3 ADD SWAP3 SWAP1 SWAP3 MSTORE PUSH1 0x40 ADD PUSH1 0x0 KECCAK256 DUP1 SLOAD PUSH1 0x1 PUSH1 0x1 PUSH1 0xA0 SHL SUB NOT AND SWAP3 SWAP1 SWAP2 AND SWAP2 SWAP1 SWAP2 OR SWAP1 SSTORE JUMPDEST PUSH1 0x0 PUSH1 0x4 PUSH1 0x0 DUP6 DUP6 DUP6 DUP2 DUP2 LT PUSH2 0x2215 JUMPI PUSH2 0x2215 PUSH2 0x4B3B JUMP JUMPDEST SWAP1 POP PUSH1 0x20 MUL ADD PUSH1 0x20 DUP2 ADD SWAP1 PUSH2 0x222A SWAP2 SWAP1 PUSH2 0x43B1 JUMP JUMPDEST PUSH1 0x1 PUSH1 0x1 PUSH1 0xA0 SHL SUB AND DUP2 MSTORE PUSH1 0x20 DUP2 ADD SWAP2 SWAP1 SWAP2 MSTORE PUSH1 0x40 ADD PUSH1 0x0 KECCAK256 SLOAD PUSH1 0x1 PUSH1 0xA0 SHL SWAP1 DIV PUSH1 0xFF AND PUSH1 0x4 DUP2 GT ISZERO PUSH2 0x225F JUMPI PUSH2 0x225F PUSH2 0x4548 JUMP JUMPDEST SUB PUSH2 0x22D0 JUMPI PUSH1 0x2 PUSH1 0x4 PUSH1 0x0 DUP6 DUP6 DUP6 DUP2 DUP2 LT PUSH2 0x227C JUMPI PUSH2 0x227C PUSH2 0x4B3B JUMP JUMPDEST SWAP1 POP PUSH1 0x20 MUL ADD PUSH1 0x20 DUP2 ADD SWAP1 PUSH2 0x2291 SWAP2 SWAP1 PUSH2 0x43B1 JUMP JUMPDEST PUSH1 0x1 PUSH1 0x1 PUSH1 0xA0 SHL SUB AND DUP2 MSTORE PUSH1 0x20 DUP2 ADD SWAP2 SWAP1 SWAP2 MSTORE PUSH1 0x40 ADD PUSH1 0x0 KECCAK256 DUP1 SLOAD PUSH1 0xFF PUSH1 0xA0 SHL NOT AND PUSH1 0x1 PUSH1 0xA0 SHL DUP4 PUSH1 0x4 DUP2 GT ISZERO PUSH2 0x22CA JUMPI PUSH2 0x22CA PUSH2 0x4548 JUMP JUMPDEST MUL OR SWAP1 SSTORE POP JUMPDEST DUP1 PUSH2 0x22DA DUP2 PUSH2 0x4B51 JUMP JUMPDEST SWAP2 POP POP PUSH2 0x1F4A JUMP JUMPDEST POP POP PUSH1 0x0 DUP1 SLOAD PUSH1 0xFF NOT AND PUSH1 0x1 OR SWAP1 SSTORE POP JUMP JUMPDEST PUSH1 0x0 DUP1 SLOAD PUSH1 0xFF AND PUSH2 0x2317 JUMPI PUSH1 0x40 MLOAD PUSH3 0x461BCD PUSH1 0xE5 SHL DUP2 MSTORE PUSH1 0x4 ADD PUSH2 0x99D SWAP1 PUSH2 0x4AC1 JUMP JUMPDEST PUSH1 0x1 PUSH1 0x1 PUSH1 0xA0 SHL SUB DUP13 AND PUSH2 0x2363 JUMPI PUSH1 0x40 MLOAD PUSH3 0x461BCD PUSH1 0xE5 SHL DUP2 MSTORE PUSH1 0x20 PUSH1 0x4 DUP3 ADD MSTORE PUSH1 0x13 PUSH1 0x24 DUP3 ADD MSTORE PUSH19 0x496E76616C6964206665652061646472657373 PUSH1 0x68 SHL PUSH1 0x44 DUP3 ADD MSTORE PUSH1 0x64 ADD PUSH2 0x99D JUMP JUMPDEST PUSH2 0x2472 DUP12 DUP12 DUP1 DUP1 PUSH1 0x1F ADD PUSH1 0x20 DUP1 SWAP2 DIV MUL PUSH1 0x20 ADD PUSH1 0x40 MLOAD SWAP1 DUP2 ADD PUSH1 0x40 MSTORE DUP1 SWAP4 SWAP3 SWAP2 SWAP1 DUP2 DUP2 MSTORE PUSH1 0x20 ADD DUP4 DUP4 DUP1 DUP3 DUP5 CALLDATACOPY PUSH1 0x0 SWAP3 ADD SWAP2 SWAP1 SWAP2 MSTORE POP POP PUSH1 0x40 DUP1 MLOAD PUSH1 0x20 PUSH1 0x1F DUP16 ADD DUP2 SWAP1 DIV DUP2 MUL DUP3 ADD DUP2 ADD SWAP1 SWAP3 MSTORE DUP14 DUP2 MSTORE SWAP3 POP DUP14 SWAP2 POP DUP13 SWAP1 DUP2 SWAP1 DUP5 ADD DUP4 DUP3 DUP1 DUP3 DUP5 CALLDATACOPY PUSH1 0x0 SWAP3 ADD SWAP2 SWAP1 SWAP2 MSTORE POP POP PUSH1 0x40 DUP1 MLOAD PUSH1 0x20 PUSH1 0x1F DUP15 ADD DUP2 SWAP1 DIV DUP2 MUL DUP3 ADD DUP2 ADD SWAP1 SWAP3 MSTORE DUP13 DUP2 MSTORE SWAP3 POP DUP13 SWAP2 POP DUP12 SWAP1 DUP2 SWAP1 DUP5 ADD DUP4 DUP3 DUP1 DUP3 DUP5 CALLDATACOPY PUSH1 0x0 SWAP3 ADD SWAP2 SWAP1 SWAP2 MSTORE POP POP PUSH1 0x40 DUP1 MLOAD PUSH1 0x20 PUSH1 0x1F DUP14 ADD DUP2 SWAP1 DIV DUP2 MUL DUP3 ADD DUP2 ADD SWAP1 SWAP3 MSTORE DUP12 DUP2 MSTORE SWAP3 POP DUP12 SWAP2 POP DUP11 SWAP1 DUP2 SWAP1 DUP5 ADD DUP4 DUP3 DUP1 DUP3 DUP5 CALLDATACOPY PUSH1 0x0 SWAP3 ADD SWAP2 SWAP1 SWAP2 MSTORE POP POP PUSH1 0x40 DUP1 MLOAD PUSH1 0x20 PUSH1 0x1F DUP13 ADD DUP2 SWAP1 DIV DUP2 MUL DUP3 ADD DUP2 ADD SWAP1 SWAP3 MSTORE DUP11 DUP2 MSTORE SWAP3 POP DUP11 SWAP2 POP DUP10 SWAP1 DUP2 SWAP1 DUP5 ADD DUP4 DUP3 DUP1 DUP3 DUP5 CALLDATACOPY PUSH1 0x0 SWAP3 ADD SWAP2 SWAP1 SWAP2 MSTORE POP PUSH2 0x2CE5 SWAP3 POP POP POP JUMP JUMPDEST PUSH2 0x24B4 JUMPI PUSH1 0x40 MLOAD PUSH3 0x461BCD PUSH1 0xE5 SHL DUP2 MSTORE PUSH1 0x20 PUSH1 0x4 DUP3 ADD MSTORE PUSH1 0x13 PUSH1 0x24 DUP3 ADD MSTORE PUSH19 0x24B73B30B634B2103232B9B1B934B83A34B7B7 PUSH1 0x69 SHL PUSH1 0x44 DUP3 ADD MSTORE PUSH1 0x64 ADD PUSH2 0x99D JUMP JUMPDEST ORIGIN PUSH1 0x0 DUP1 PUSH1 0x1 PUSH1 0x1 PUSH1 0xA0 SHL SUB DUP4 AND PUSH1 0x0 SWAP1 DUP2 MSTORE PUSH1 0x4 PUSH1 0x20 DUP2 SWAP1 MSTORE PUSH1 0x40 SWAP1 SWAP2 KECCAK256 SLOAD PUSH1 0x1 PUSH1 0xA0 SHL SWAP1 DIV PUSH1 0xFF AND SWAP1 DUP2 GT ISZERO PUSH2 0x24EE JUMPI PUSH2 0x24EE PUSH2 0x4548 JUMP JUMPDEST SUB PUSH2 0x2524 JUMPI POP PUSH1 0x1 PUSH1 0x1 PUSH1 0xA0 SHL SUB DUP2 AND PUSH1 0x0 SWAP1 DUP2 MSTORE PUSH1 0x4 PUSH1 0x20 MSTORE PUSH1 0x40 SWAP1 KECCAK256 DUP1 SLOAD PUSH1 0xFF PUSH1 0xA0 SHL NOT AND PUSH1 0x1 PUSH1 0xA0 SHL OR SWAP1 SSTORE PUSH1 0x1 PUSH2 0x2535 JUMP JUMPDEST CALLVALUE ISZERO PUSH2 0x2535 JUMPI PUSH1 0x0 SWAP3 POP POP POP PUSH2 0x2869 JUMP JUMPDEST PUSH1 0x1 PUSH1 0x1 PUSH1 0xA0 SHL SUB DUP3 DUP2 AND PUSH1 0x0 SWAP1 DUP2 MSTORE PUSH1 0x4 PUSH1 0x20 MSTORE PUSH1 0x40 SWAP1 KECCAK256 SLOAD DUP2 AND SWAP1 DUP16 AND EQ PUSH2 0x25A7 JUMPI DUP14 PUSH1 0x4 PUSH1 0x0 DUP5 PUSH1 0x1 PUSH1 0x1 PUSH1 0xA0 SHL SUB AND PUSH1 0x1 PUSH1 0x1 PUSH1 0xA0 SHL SUB AND DUP2 MSTORE PUSH1 0x20 ADD SWAP1 DUP2 MSTORE PUSH1 0x20 ADD PUSH1 0x0 KECCAK256 PUSH1 0x0 ADD PUSH1 0x0 PUSH2 0x100 EXP DUP2 SLOAD DUP2 PUSH1 0x1 PUSH1 0x1 PUSH1 0xA0 SHL SUB MUL NOT AND SWAP1 DUP4 PUSH1 0x1 PUSH1 0x1 PUSH1 0xA0 SHL SUB AND MUL OR SWAP1 SSTORE POP JUMPDEST PUSH1 0x40 MLOAD DUP1 PUSH1 0xA0 ADD PUSH1 0x40 MSTORE DUP1 DUP15 DUP15 DUP1 DUP1 PUSH1 0x1F ADD PUSH1 0x20 DUP1 SWAP2 DIV MUL PUSH1 0x20 ADD PUSH1 0x40 MLOAD SWAP1 DUP2 ADD PUSH1 0x40 MSTORE DUP1 SWAP4 SWAP3 SWAP2 SWAP1 DUP2 DUP2 MSTORE PUSH1 0x20 ADD DUP4 DUP4 DUP1 DUP3 DUP5 CALLDATACOPY PUSH1 0x0 SWAP3 ADD SWAP2 SWAP1 SWAP2 MSTORE POP POP POP SWAP1 DUP3 MSTORE POP PUSH1 0x40 DUP1 MLOAD PUSH1 0x20 PUSH1 0x1F DUP16 ADD DUP2 SWAP1 DIV DUP2 MUL DUP3 ADD DUP2 ADD SWAP1 SWAP3 MSTORE DUP14 DUP2 MSTORE SWAP2 DUP2 ADD SWAP2 SWAP1 DUP15 SWAP1 DUP15 SWAP1 DUP2 SWAP1 DUP5 ADD DUP4 DUP3 DUP1 DUP3 DUP5 CALLDATACOPY PUSH1 0x0 SWAP3 ADD SWAP2 SWAP1 SWAP2 MSTORE POP POP POP SWAP1 DUP3 MSTORE POP PUSH1 0x40 DUP1 MLOAD PUSH1 0x20 PUSH1 0x1F DUP14 ADD DUP2 SWAP1 DIV DUP2 MUL DUP3 ADD DUP2 ADD SWAP1 SWAP3 MSTORE DUP12 DUP2 MSTORE SWAP2 DUP2 ADD SWAP2 SWAP1 DUP13 SWAP1 DUP13 SWAP1 DUP2 SWAP1 DUP5 ADD DUP4 DUP3 DUP1 DUP3 DUP5 CALLDATACOPY PUSH1 0x0 SWAP3 ADD SWAP2 SWAP1 SWAP2 MSTORE POP POP POP SWAP1 DUP3 MSTORE POP PUSH1 0x40 DUP1 MLOAD PUSH1 0x20 PUSH1 0x1F DUP12 ADD DUP2 SWAP1 DIV DUP2 MUL DUP3 ADD DUP2 ADD SWAP1 SWAP3 MSTORE DUP10 DUP2 MSTORE SWAP2 DUP2 ADD SWAP2 SWAP1 DUP11 SWAP1 DUP11 SWAP1 DUP2 SWAP1 DUP5 ADD DUP4 DUP3 DUP1 DUP3 DUP5 CALLDATACOPY PUSH1 0x0 SWAP3 ADD SWAP2 SWAP1 SWAP2 MSTORE POP POP POP SWAP1 DUP3 MSTORE POP PUSH1 0x40 DUP1 MLOAD PUSH1 0x20 PUSH1 0x1F DUP10 ADD DUP2 SWAP1 DIV DUP2 MUL DUP3 ADD DUP2 ADD SWAP1 SWAP3 MSTORE DUP8 DUP2 MSTORE SWAP2 DUP2 ADD SWAP2 SWAP1 DUP9 SWAP1 DUP9 SWAP1 DUP2 SWAP1 DUP5 ADD DUP4 DUP3 DUP1 DUP3 DUP5 CALLDATACOPY PUSH1 0x0 SWAP3 ADD DUP3 SWAP1 MSTORE POP SWAP4 SWAP1 SWAP5 MSTORE POP POP PUSH1 0x1 PUSH1 0x1 PUSH1 0xA0 SHL SUB DUP6 AND DUP2 MSTORE PUSH1 0x4 PUSH1 0x20 MSTORE PUSH1 0x40 SWAP1 KECCAK256 DUP3 MLOAD PUSH1 0x2 SWAP1 SWAP2 ADD SWAP2 POP DUP2 SWAP1 PUSH2 0x2700 SWAP1 DUP3 PUSH2 0x4C29 JUMP JUMPDEST POP PUSH1 0x20 DUP3 ADD MLOAD PUSH1 0x1 DUP3 ADD SWAP1 PUSH2 0x2715 SWAP1 DUP3 PUSH2 0x4C29 JUMP JUMPDEST POP PUSH1 0x40 DUP3 ADD MLOAD PUSH1 0x2 DUP3 ADD SWAP1 PUSH2 0x272A SWAP1 DUP3 PUSH2 0x4C29 JUMP JUMPDEST POP PUSH1 0x60 DUP3 ADD MLOAD PUSH1 0x3 DUP3 ADD SWAP1 PUSH2 0x273F SWAP1 DUP3 PUSH2 0x4C29 JUMP JUMPDEST POP PUSH1 0x80 DUP3 ADD MLOAD PUSH1 0x4 DUP3 ADD SWAP1 PUSH2 0x2754 SWAP1 DUP3 PUSH2 0x4C29 JUMP JUMPDEST POP SWAP1 POP POP DUP1 ISZERO PUSH2 0x2814 JUMPI PUSH10 0xD3C21BCECCEDA1000000 CALLVALUE LT ISZERO PUSH2 0x27B8 JUMPI PUSH1 0x40 MLOAD PUSH3 0x461BCD PUSH1 0xE5 SHL DUP2 MSTORE PUSH1 0x20 PUSH1 0x4 DUP3 ADD MSTORE PUSH1 0x18 PUSH1 0x24 DUP3 ADD MSTORE PUSH32 0x496E76616C69642076616C696461746F7220616D6F756E740000000000000000 PUSH1 0x44 DUP3 ADD MSTORE PUSH1 0x64 ADD PUSH2 0x99D JUMP JUMPDEST PUSH2 0x27C1 DUP3 PUSH2 0xD7A JUMP JUMPDEST POP DUP14 PUSH1 0x1 PUSH1 0x1 PUSH1 0xA0 SHL SUB AND DUP3 PUSH1 0x1 PUSH1 0x1 PUSH1 0xA0 SHL SUB AND PUSH32 0x887EEC9D757B7247DD8E51198F9D1B8F27979BCEB34BDCC1BFFD4EC5EC736C22 TIMESTAMP PUSH1 0x40 MLOAD PUSH2 0x2807 SWAP2 DUP2 MSTORE PUSH1 0x20 ADD SWAP1 JUMP JUMPDEST PUSH1 0x40 MLOAD DUP1 SWAP2 SUB SWAP1 LOG3 PUSH2 0x2862 JUMP JUMPDEST DUP14 PUSH1 0x1 PUSH1 0x1 PUSH1 0xA0 SHL SUB AND DUP3 PUSH1 0x1 PUSH1 0x1 PUSH1 0xA0 SHL SUB AND PUSH32 0xB8421F65501371F54D58DE1937FF1E1CCDB76423EF6F84ACEA1814A0F6362CA0 TIMESTAMP PUSH1 0x40 MLOAD PUSH2 0x2859 SWAP2 DUP2 MSTORE PUSH1 0x20 ADD SWAP1 JUMP JUMPDEST PUSH1 0x40 MLOAD DUP1 SWAP2 SUB SWAP1 LOG3 JUMPDEST PUSH1 0x1 SWAP3 POP POP POP JUMPDEST SWAP12 SWAP11 POP POP POP POP POP POP POP POP POP POP POP JUMP JUMPDEST PUSH1 0x1 PUSH1 0x1 PUSH1 0xA0 SHL SUB DUP2 DUP2 AND PUSH1 0x0 SWAP1 DUP2 MSTORE PUSH1 0x4 PUSH1 0x20 DUP2 DUP2 MSTORE PUSH1 0x40 DUP1 DUP5 KECCAK256 DUP2 MLOAD PUSH1 0xE0 DUP2 ADD SWAP1 SWAP3 MSTORE DUP1 SLOAD SWAP6 DUP7 AND DUP3 MSTORE PUSH1 0x60 SWAP6 DUP7 SWAP6 DUP7 SWAP6 DUP7 SWAP6 DUP7 SWAP6 SWAP3 SWAP5 SWAP3 SWAP4 SWAP1 DUP5 ADD SWAP2 PUSH1 0x1 PUSH1 0xA0 SHL SWAP1 SWAP2 DIV PUSH1 0xFF AND SWAP1 DUP2 GT ISZERO PUSH2 0x28D2 JUMPI PUSH2 0x28D2 PUSH2 0x4548 JUMP JUMPDEST PUSH1 0x4 DUP2 GT ISZERO PUSH2 0x28E3 JUMPI PUSH2 0x28E3 PUSH2 0x4548 JUMP JUMPDEST DUP2 MSTORE PUSH1 0x20 ADD PUSH1 0x1 DUP3 ADD SLOAD DUP2 MSTORE PUSH1 0x20 ADD PUSH1 0x2 DUP3 ADD PUSH1 0x40 MLOAD DUP1 PUSH1 0xA0 ADD PUSH1 0x40 MSTORE SWAP1 DUP2 PUSH1 0x0 DUP3 ADD DUP1 SLOAD PUSH2 0x2911 SWAP1 PUSH2 0x4BA0 JUMP JUMPDEST DUP1 PUSH1 0x1F ADD PUSH1 0x20 DUP1 SWAP2 DIV MUL PUSH1 0x20 ADD PUSH1 0x40 MLOAD SWAP1 DUP2 ADD PUSH1 0x40 MSTORE DUP1 SWAP3 SWAP2 SWAP1 DUP2 DUP2 MSTORE PUSH1 0x20 ADD DUP3 DUP1 SLOAD PUSH2 0x293D SWAP1 PUSH2 0x4BA0 JUMP JUMPDEST DUP1 ISZERO PUSH2 0x298A JUMPI DUP1 PUSH1 0x1F LT PUSH2 0x295F JUMPI PUSH2 0x100 DUP1 DUP4 SLOAD DIV MUL DUP4 MSTORE SWAP2 PUSH1 0x20 ADD SWAP2 PUSH2 0x298A JUMP JUMPDEST DUP3 ADD SWAP2 SWAP1 PUSH1 0x0 MSTORE PUSH1 0x20 PUSH1 0x0 KECCAK256 SWAP1 JUMPDEST DUP2 SLOAD DUP2 MSTORE SWAP1 PUSH1 0x1 ADD SWAP1 PUSH1 0x20 ADD DUP1 DUP4 GT PUSH2 0x296D JUMPI DUP3 SWAP1 SUB PUSH1 0x1F AND DUP3 ADD SWAP2 JUMPDEST POP POP POP POP POP DUP2 MSTORE PUSH1 0x20 ADD PUSH1 0x1 DUP3 ADD DUP1 SLOAD PUSH2 0x29A3 SWAP1 PUSH2 0x4BA0 JUMP JUMPDEST DUP1 PUSH1 0x1F ADD PUSH1 0x20 DUP1 SWAP2 DIV MUL PUSH1 0x20 ADD PUSH1 0x40 MLOAD SWAP1 DUP2 ADD PUSH1 0x40 MSTORE DUP1 SWAP3 SWAP2 SWAP1 DUP2 DUP2 MSTORE PUSH1 0x20 ADD DUP3 DUP1 SLOAD PUSH2 0x29CF SWAP1 PUSH2 0x4BA0 JUMP JUMPDEST DUP1 ISZERO PUSH2 0x2A1C JUMPI DUP1 PUSH1 0x1F LT PUSH2 0x29F1 JUMPI PUSH2 0x100 DUP1 DUP4 SLOAD DIV MUL DUP4 MSTORE SWAP2 PUSH1 0x20 ADD SWAP2 PUSH2 0x2A1C JUMP JUMPDEST DUP3 ADD SWAP2 SWAP1 PUSH1 0x0 MSTORE PUSH1 0x20 PUSH1 0x0 KECCAK256 SWAP1 JUMPDEST DUP2 SLOAD DUP2 MSTORE SWAP1 PUSH1 0x1 ADD SWAP1 PUSH1 0x20 ADD DUP1 DUP4 GT PUSH2 0x29FF JUMPI DUP3 SWAP1 SUB PUSH1 0x1F AND DUP3 ADD SWAP2 JUMPDEST POP POP POP POP POP DUP2 MSTORE PUSH1 0x20 ADD PUSH1 0x2 DUP3 ADD DUP1 SLOAD PUSH2 0x2A35 SWAP1 PUSH2 0x4BA0 JUMP JUMPDEST DUP1 PUSH1 0x1F ADD PUSH1 0x20 DUP1 SWAP2 DIV MUL PUSH1 0x20 ADD PUSH1 0x40 MLOAD SWAP1 DUP2 ADD PUSH1 0x40 MSTORE DUP1 SWAP3 SWAP2 SWAP1 DUP2 DUP2 MSTORE PUSH1 0x20 ADD DUP3 DUP1 SLOAD PUSH2 0x2A61 SWAP1 PUSH2 0x4BA0 JUMP JUMPDEST DUP1 ISZERO PUSH2 0x2AAE JUMPI DUP1 PUSH1 0x1F LT PUSH2 0x2A83 JUMPI PUSH2 0x100 DUP1 DUP4 SLOAD DIV MUL DUP4 MSTORE SWAP2 PUSH1 0x20 ADD SWAP2 PUSH2 0x2AAE JUMP JUMPDEST DUP3 ADD SWAP2 SWAP1 PUSH1 0x0 MSTORE PUSH1 0x20 PUSH1 0x0 KECCAK256 SWAP1 JUMPDEST DUP2 SLOAD DUP2 MSTORE SWAP1 PUSH1 0x1 ADD SWAP1 PUSH1 0x20 ADD DUP1 DUP4 GT PUSH2 0x2A91 JUMPI DUP3 SWAP1 SUB PUSH1 0x1F AND DUP3 ADD SWAP2 JUMPDEST POP POP POP POP POP DUP2 MSTORE PUSH1 0x20 ADD PUSH1 0x3 DUP3 ADD DUP1 SLOAD PUSH2 0x2AC7 SWAP1 PUSH2 0x4BA0 JUMP JUMPDEST DUP1 PUSH1 0x1F ADD PUSH1 0x20 DUP1 SWAP2 DIV MUL PUSH1 0x20 ADD PUSH1 0x40 MLOAD SWAP1 DUP2 ADD PUSH1 0x40 MSTORE DUP1 SWAP3 SWAP2 SWAP1 DUP2 DUP2 MSTORE PUSH1 0x20 ADD DUP3 DUP1 SLOAD PUSH2 0x2AF3 SWAP1 PUSH2 0x4BA0 JUMP JUMPDEST DUP1 ISZERO PUSH2 0x2B40 JUMPI DUP1 PUSH1 0x1F LT PUSH2 0x2B15 JUMPI PUSH2 0x100 DUP1 DUP4 SLOAD DIV MUL DUP4 MSTORE SWAP2 PUSH1 0x20 ADD SWAP2 PUSH2 0x2B40 JUMP JUMPDEST DUP3 ADD SWAP2 SWAP1 PUSH1 0x0 MSTORE PUSH1 0x20 PUSH1 0x0 KECCAK256 SWAP1 JUMPDEST DUP2 SLOAD DUP2 MSTORE SWAP1 PUSH1 0x1 ADD SWAP1 PUSH1 0x20 ADD DUP1 DUP4 GT PUSH2 0x2B23 JUMPI DUP3 SWAP1 SUB PUSH1 0x1F AND DUP3 ADD SWAP2 JUMPDEST POP POP POP POP POP DUP2 MSTORE PUSH1 0x20 ADD PUSH1 0x4 DUP3 ADD DUP1 SLOAD PUSH2 0x2B59 SWAP1 PUSH2 0x4BA0 JUMP JUMPDEST DUP1 PUSH1 0x1F ADD PUSH1 0x20 DUP1 SWAP2 DIV MUL PUSH1 0x20 ADD PUSH1 0x40 MLOAD SWAP1 DUP2 ADD PUSH1 0x40 MSTORE DUP1 SWAP3 SWAP2 SWAP1 DUP2 DUP2 MSTORE PUSH1 0x20 ADD DUP3 DUP1 SLOAD PUSH2 0x2B85 SWAP1 PUSH2 0x4BA0 JUMP JUMPDEST DUP1 ISZERO PUSH2 0x2BD2 JUMPI DUP1 PUSH1 0x1F LT PUSH2 0x2BA7 JUMPI PUSH2 0x100 DUP1 DUP4 SLOAD DIV MUL DUP4 MSTORE SWAP2 PUSH1 0x20 ADD SWAP2 PUSH2 0x2BD2 JUMP JUMPDEST DUP3 ADD SWAP2 SWAP1 PUSH1 0x0 MSTORE PUSH1 0x20 PUSH1 0x0 KECCAK256 SWAP1 JUMPDEST DUP2 SLOAD DUP2 MSTORE SWAP1 PUSH1 0x1 ADD SWAP1 PUSH1 0x20 ADD DUP1 DUP4 GT PUSH2 0x2BB5 JUMPI DUP3 SWAP1 SUB PUSH1 0x1F AND DUP3 ADD SWAP2 JUMPDEST POP POP POP POP POP DUP2 MSTORE POP POP DUP2 MSTORE PUSH1 0x20 ADD PUSH1 0x7 DUP3 ADD SLOAD DUP2 MSTORE PUSH1 0x20 ADD PUSH1 0x8 DUP3 ADD SLOAD DUP2 MSTORE PUSH1 0x20 ADD PUSH1 0x9 DUP3 ADD DUP1 SLOAD DUP1 PUSH1 0x20 MUL PUSH1 0x20 ADD PUSH1 0x40 MLOAD SWAP1 DUP2 ADD PUSH1 0x40 MSTORE DUP1 SWAP3 SWAP2 SWAP1 DUP2 DUP2 MSTORE PUSH1 0x20 ADD DUP3 DUP1 SLOAD DUP1 ISZERO PUSH2 0x2C4C JUMPI PUSH1 0x20 MUL DUP3 ADD SWAP2 SWAP1 PUSH1 0x0 MSTORE PUSH1 0x20 PUSH1 0x0 KECCAK256 SWAP1 JUMPDEST DUP2 SLOAD PUSH1 0x1 PUSH1 0x1 PUSH1 0xA0 SHL SUB AND DUP2 MSTORE PUSH1 0x1 SWAP1 SWAP2 ADD SWAP1 PUSH1 0x20 ADD DUP1 DUP4 GT PUSH2 0x2C2E JUMPI JUMPDEST POP POP POP SWAP2 SWAP1 SWAP3 MSTORE POP POP POP PUSH1 0x60 SWAP1 DUP2 ADD MLOAD DUP1 MLOAD PUSH1 0x20 DUP3 ADD MLOAD PUSH1 0x40 DUP4 ADD MLOAD SWAP4 DUP4 ADD MLOAD PUSH1 0x80 SWAP1 SWAP4 ADD MLOAD SWAP2 SWAP12 SWAP1 SWAP11 POP SWAP3 SWAP9 POP SWAP1 SWAP7 POP SWAP5 POP SWAP3 POP POP POP JUMP JUMPDEST PUSH1 0x60 PUSH1 0x7 DUP1 SLOAD DUP1 PUSH1 0x20 MUL PUSH1 0x20 ADD PUSH1 0x40 MLOAD SWAP1 DUP2 ADD PUSH1 0x40 MSTORE DUP1 SWAP3 SWAP2 SWAP1 DUP2 DUP2 MSTORE PUSH1 0x20 ADD DUP3 DUP1 SLOAD DUP1 ISZERO PUSH2 0x1EE0 JUMPI PUSH1 0x20 MUL DUP3 ADD SWAP2 SWAP1 PUSH1 0x0 MSTORE PUSH1 0x20 PUSH1 0x0 KECCAK256 SWAP1 DUP2 SLOAD PUSH1 0x1 PUSH1 0x1 PUSH1 0xA0 SHL SUB AND DUP2 MSTORE PUSH1 0x1 SWAP1 SWAP2 ADD SWAP1 PUSH1 0x20 ADD DUP1 DUP4 GT PUSH2 0x1EC2 JUMPI POP POP POP POP POP SWAP1 POP SWAP1 JUMP JUMPDEST PUSH1 0x0 PUSH1 0x46 DUP7 MLOAD GT ISZERO PUSH2 0x2D32 JUMPI PUSH1 0x40 MLOAD PUSH3 0x461BCD PUSH1 0xE5 SHL DUP2 MSTORE PUSH1 0x20 PUSH1 0x4 DUP3 ADD MSTORE PUSH1 0x16 PUSH1 0x24 DUP3 ADD MSTORE PUSH22 0x92DCECC2D8D2C840DADEDCD2D6CAE440D8CADCCEE8D PUSH1 0x53 SHL PUSH1 0x44 DUP3 ADD MSTORE PUSH1 0x64 ADD PUSH2 0x99D JUMP JUMPDEST PUSH2 0xBB8 DUP6 MLOAD GT ISZERO PUSH2 0x2D85 JUMPI PUSH1 0x40 MLOAD PUSH3 0x461BCD PUSH1 0xE5 SHL DUP2 MSTORE PUSH1 0x20 PUSH1 0x4 DUP3 ADD MSTORE PUSH1 0x17 PUSH1 0x24 DUP3 ADD MSTORE PUSH32 0x496E76616C6964206964656E74697479206C656E677468000000000000000000 PUSH1 0x44 DUP3 ADD MSTORE PUSH1 0x64 ADD PUSH2 0x99D JUMP JUMPDEST PUSH1 0x8C DUP5 MLOAD GT ISZERO PUSH2 0x2DD0 JUMPI PUSH1 0x40 MLOAD PUSH3 0x461BCD PUSH1 0xE5 SHL DUP2 MSTORE PUSH1 0x20 PUSH1 0x4 DUP3 ADD MSTORE PUSH1 0x16 PUSH1 0x24 DUP3 ADD MSTORE PUSH22 0x92DCECC2D8D2C840EECAC4E6D2E8CA40D8CADCCEE8D PUSH1 0x53 SHL PUSH1 0x44 DUP3 ADD MSTORE PUSH1 0x64 ADD PUSH2 0x99D JUMP JUMPDEST PUSH1 0x8C DUP4 MLOAD GT ISZERO PUSH2 0x2E19 JUMPI PUSH1 0x40 MLOAD PUSH3 0x461BCD PUSH1 0xE5 SHL DUP2 MSTORE PUSH1 0x20 PUSH1 0x4 DUP3 ADD MSTORE PUSH1 0x14 PUSH1 0x24 DUP3 ADD MSTORE PUSH20 0x92DCECC2D8D2C840CADAC2D2D840D8CADCCEE8D PUSH1 0x63 SHL PUSH1 0x44 DUP3 ADD MSTORE PUSH1 0x64 ADD PUSH2 0x99D JUMP JUMPDEST PUSH2 0x118 DUP3 MLOAD GT ISZERO PUSH2 0x2E65 JUMPI PUSH1 0x40 MLOAD PUSH3 0x461BCD PUSH1 0xE5 SHL DUP2 MSTORE PUSH1 0x20 PUSH1 0x4 DUP3 ADD MSTORE PUSH1 0x16 PUSH1 0x24 DUP3 ADD MSTORE PUSH22 0x92DCECC2D8D2C840C8CAE8C2D2D8E640D8CADCCEE8D PUSH1 0x53 SHL PUSH1 0x44 DUP3 ADD MSTORE PUSH1 0x64 ADD PUSH2 0x99D JUMP JUMPDEST POP PUSH1 0x1 SWAP6 SWAP5 POP POP POP POP POP JUMP JUMPDEST CALLER COINBASE EQ PUSH2 0x2EAD JUMPI PUSH1 0x40 MLOAD PUSH3 0x461BCD PUSH1 0xE5 SHL DUP2 MSTORE PUSH1 0x20 PUSH1 0x4 DUP3 ADD MSTORE PUSH1 0xA PUSH1 0x24 DUP3 ADD MSTORE PUSH10 0x4D696E6572206F6E6C79 PUSH1 0xB0 SHL PUSH1 0x44 DUP3 ADD MSTORE PUSH1 0x64 ADD PUSH2 0x99D JUMP JUMPDEST NUMBER PUSH1 0x0 SWAP1 DUP2 MSTORE PUSH1 0xF PUSH1 0x20 SWAP1 DUP2 MSTORE PUSH1 0x40 DUP1 DUP4 KECCAK256 DUP4 DUP1 MSTORE SWAP1 SWAP2 MSTORE SWAP1 KECCAK256 SLOAD PUSH1 0xFF AND ISZERO PUSH2 0x2F18 JUMPI PUSH1 0x40 MLOAD PUSH3 0x461BCD PUSH1 0xE5 SHL DUP2 MSTORE PUSH1 0x20 PUSH1 0x4 DUP3 ADD MSTORE PUSH1 0x19 PUSH1 0x24 DUP3 ADD MSTORE PUSH32 0x426C6F636B20697320616C726561647920726577617264656400000000000000 PUSH1 0x44 DUP3 ADD MSTORE PUSH1 0x64 ADD PUSH2 0x99D JUMP JUMPDEST PUSH1 0x0 SLOAD PUSH1 0xFF AND PUSH2 0x2F3A JUMPI PUSH1 0x40 MLOAD PUSH3 0x461BCD PUSH1 0xE5 SHL DUP2 MSTORE PUSH1 0x4 ADD PUSH2 0x99D SWAP1 PUSH2 0x4AC1 JUMP JUMPDEST NUMBER PUSH1 0x0 SWAP1 DUP2 MSTORE PUSH1 0xF PUSH1 0x20 SWAP1 DUP2 MSTORE PUSH1 0x40 DUP1 DUP4 KECCAK256 DUP4 DUP1 MSTORE SWAP1 SWAP2 MSTORE DUP2 KECCAK256 DUP1 SLOAD PUSH1 0xFF NOT AND PUSH1 0x1 OR SWAP1 SSTORE CALLER SWAP1 CALLVALUE SWAP1 DUP2 SWAP1 PUSH3 0x186A0 PUSH2 0x2F75 PUSH2 0x1388 DUP5 PUSH2 0x4AFA JUMP JUMPDEST PUSH2 0x2F7F SWAP2 SWAP1 PUSH2 0x4B27 JUMP JUMPDEST SWAP1 POP PUSH2 0x2F8B DUP2 DUP4 PUSH2 0x4AE7 JUMP JUMPDEST SWAP2 POP PUSH1 0x0 PUSH3 0x186A0 PUSH2 0x2F9F PUSH2 0x2710 DUP7 PUSH2 0x4AFA JUMP JUMPDEST PUSH2 0x2FA9 SWAP2 SWAP1 PUSH2 0x4B27 JUMP JUMPDEST SWAP1 POP PUSH11 0x52B7D2DCC80CD2E4000000 DUP2 PUSH1 0x1 SLOAD PUSH2 0x2FC5 SWAP2 SWAP1 PUSH2 0x4389 JUMP JUMPDEST GT PUSH2 0x3022 JUMPI PUSH2 0x2FD4 DUP2 DUP5 PUSH2 0x4AE7 JUMP JUMPDEST SWAP3 POP DUP1 PUSH1 0x1 PUSH1 0x0 DUP3 DUP3 SLOAD PUSH2 0x2FE8 SWAP2 SWAP1 PUSH2 0x4389 JUMP JUMPDEST SWAP1 SWAP2 SSTORE POP POP DUP1 ISZERO PUSH2 0x3022 JUMPI PUSH1 0x40 MLOAD PUSH1 0x0 SWAP1 DUP3 ISZERO PUSH2 0x8FC MUL SWAP1 DUP4 SWAP1 DUP4 DUP2 DUP2 DUP2 DUP6 DUP3 DUP9 CALL SWAP4 POP POP POP POP ISZERO DUP1 ISZERO PUSH2 0x3020 JUMPI RETURNDATASIZE PUSH1 0x0 DUP1 RETURNDATACOPY RETURNDATASIZE PUSH1 0x0 REVERT JUMPDEST POP JUMPDEST DUP7 MLOAD ISZERO PUSH2 0x31CF JUMPI PUSH1 0x0 PUSH3 0x186A0 PUSH2 0x303B PUSH2 0x9C40 DUP8 PUSH2 0x4AFA JUMP JUMPDEST PUSH2 0x3045 SWAP2 SWAP1 PUSH2 0x4B27 JUMP JUMPDEST SWAP1 POP PUSH2 0x3051 DUP2 DUP6 PUSH2 0x4AE7 JUMP JUMPDEST SWAP4 POP PUSH1 0x0 DUP9 MLOAD DUP3 PUSH2 0x3062 SWAP2 SWAP1 PUSH2 0x4B27 JUMP JUMPDEST SWAP1 POP DUP1 ISZERO PUSH2 0x31CC JUMPI PUSH1 0x0 JUMPDEST DUP10 MLOAD DUP2 LT ISZERO PUSH2 0x31CA JUMPI PUSH1 0x0 PUSH1 0x1 PUSH1 0x1 PUSH1 0xA0 SHL SUB AND DUP11 DUP3 DUP2 MLOAD DUP2 LT PUSH2 0x3093 JUMPI PUSH2 0x3093 PUSH2 0x4B3B JUMP JUMPDEST PUSH1 0x20 MUL PUSH1 0x20 ADD ADD MLOAD PUSH1 0x1 PUSH1 0x1 PUSH1 0xA0 SHL SUB AND EQ ISZERO DUP1 ISZERO PUSH2 0x30F9 JUMPI POP PUSH1 0x0 PUSH1 0x1 PUSH1 0x1 PUSH1 0xA0 SHL SUB AND PUSH1 0xA PUSH1 0x0 DUP13 DUP5 DUP2 MLOAD DUP2 LT PUSH2 0x30CE JUMPI PUSH2 0x30CE PUSH2 0x4B3B JUMP JUMPDEST PUSH1 0x20 SWAP1 DUP2 MUL SWAP2 SWAP1 SWAP2 ADD DUP2 ADD MLOAD PUSH1 0x1 PUSH1 0x1 PUSH1 0xA0 SHL SUB SWAP1 DUP2 AND DUP4 MSTORE SWAP1 DUP3 ADD SWAP3 SWAP1 SWAP3 MSTORE PUSH1 0x40 ADD PUSH1 0x0 KECCAK256 SLOAD AND EQ ISZERO JUMPDEST DUP1 ISZERO PUSH2 0x3127 JUMPI POP PUSH1 0x0 DUP10 DUP3 DUP2 MLOAD DUP2 LT PUSH2 0x3114 JUMPI PUSH2 0x3114 PUSH2 0x4B3B JUMP JUMPDEST PUSH1 0x20 MUL PUSH1 0x20 ADD ADD MLOAD PUSH1 0x1 PUSH1 0x1 PUSH1 0x40 SHL SUB AND GT JUMPDEST ISZERO PUSH2 0x31B8 JUMPI PUSH1 0xA PUSH1 0x0 DUP12 DUP4 DUP2 MLOAD DUP2 LT PUSH2 0x3142 JUMPI PUSH2 0x3142 PUSH2 0x4B3B JUMP JUMPDEST PUSH1 0x20 MUL PUSH1 0x20 ADD ADD MLOAD PUSH1 0x1 PUSH1 0x1 PUSH1 0xA0 SHL SUB AND PUSH1 0x1 PUSH1 0x1 PUSH1 0xA0 SHL SUB AND DUP2 MSTORE PUSH1 0x20 ADD SWAP1 DUP2 MSTORE PUSH1 0x20 ADD PUSH1 0x0 KECCAK256 PUSH1 0x0 SWAP1 SLOAD SWAP1 PUSH2 0x100 EXP SWAP1 DIV PUSH1 0x1 PUSH1 0x1 PUSH1 0xA0 SHL SUB AND PUSH1 0x1 PUSH1 0x1 PUSH1 0xA0 SHL SUB AND PUSH2 0x8FC DUP4 SWAP1 DUP2 ISZERO MUL SWAP1 PUSH1 0x40 MLOAD PUSH1 0x0 PUSH1 0x40 MLOAD DUP1 DUP4 SUB DUP2 DUP6 DUP9 DUP9 CALL SWAP4 POP POP POP POP ISZERO DUP1 ISZERO PUSH2 0x31B6 JUMPI RETURNDATASIZE PUSH1 0x0 DUP1 RETURNDATACOPY RETURNDATASIZE PUSH1 0x0 REVERT JUMPDEST POP JUMPDEST DUP1 PUSH2 0x31C2 DUP2 PUSH2 0x4B51 JUMP JUMPDEST SWAP2 POP POP PUSH2 0x306D JUMP JUMPDEST POP JUMPDEST POP POP JUMPDEST PUSH1 0x1 PUSH1 0x1 PUSH1 0xA0 SHL SUB DUP6 AND PUSH1 0x0 DUP2 DUP2 MSTORE PUSH1 0xD PUSH1 0x20 SWAP1 DUP2 MSTORE PUSH1 0x40 DUP1 DUP4 KECCAK256 PUSH1 0xC DUP4 MSTORE DUP2 DUP5 KECCAK256 DUP1 SLOAD DUP6 MSTORE SWAP1 DUP4 MSTORE DUP2 DUP5 KECCAK256 SLOAD SWAP5 DUP5 MSTORE TIMESTAMP SWAP1 SSTORE PUSH1 0x4 SWAP1 SWAP2 MSTORE SWAP1 KECCAK256 PUSH1 0x1 ADD SLOAD ISZERO PUSH2 0x3285 JUMPI PUSH1 0x1 PUSH1 0x1 PUSH1 0xA0 SHL SUB DUP7 AND PUSH1 0x0 SWAP1 DUP2 MSTORE PUSH1 0x4 PUSH1 0x20 MSTORE PUSH1 0x40 SWAP1 KECCAK256 PUSH1 0x1 ADD SLOAD PUSH2 0x3241 DUP6 PUSH9 0x56BC75E2D63100000 PUSH2 0x4AFA JUMP JUMPDEST PUSH2 0x324B SWAP2 SWAP1 PUSH2 0x4B27 JUMP JUMPDEST PUSH2 0x3255 SWAP1 DUP3 PUSH2 0x4389 JUMP JUMPDEST PUSH1 0x1 PUSH1 0x1 PUSH1 0xA0 SHL SUB DUP8 AND PUSH1 0x0 SWAP1 DUP2 MSTORE PUSH1 0xD PUSH1 0x20 SWAP1 DUP2 MSTORE PUSH1 0x40 DUP1 DUP4 KECCAK256 PUSH1 0xC DUP4 MSTORE DUP2 DUP5 KECCAK256 SLOAD DUP5 MSTORE SWAP1 SWAP2 MSTORE SWAP1 KECCAK256 SSTORE PUSH2 0x32BF JUMP JUMPDEST PUSH1 0x1 PUSH1 0x1 PUSH1 0xA0 SHL SUB DUP7 AND PUSH1 0x0 SWAP1 DUP2 MSTORE PUSH1 0xD PUSH1 0x20 SWAP1 DUP2 MSTORE PUSH1 0x40 DUP1 DUP4 KECCAK256 PUSH1 0xC DUP4 MSTORE DUP2 DUP5 KECCAK256 SLOAD DUP5 MSTORE SWAP1 SWAP2 MSTORE SWAP1 KECCAK256 DUP2 SWAP1 SSTORE PUSH2 0x32BC DUP5 DUP5 PUSH2 0x4389 JUMP JUMPDEST SWAP3 POP JUMPDEST PUSH1 0x1 PUSH1 0x1 PUSH1 0xA0 SHL SUB DUP7 AND PUSH1 0x0 SWAP1 DUP2 MSTORE PUSH1 0x4 PUSH1 0x20 DUP2 SWAP1 MSTORE PUSH1 0x40 DUP3 KECCAK256 SLOAD PUSH1 0x1 PUSH1 0xA0 SHL SWAP1 DIV PUSH1 0xFF AND SWAP1 DUP2 GT ISZERO PUSH2 0x32F4 JUMPI PUSH2 0x32F4 PUSH2 0x4548 JUMP JUMPDEST SUB PUSH2 0x3303 JUMPI POP POP POP POP POP POP POP POP JUMP JUMPDEST PUSH8 0xDE0B6B3A7640000 PUSH1 0x2 SLOAD LT ISZERO DUP1 ISZERO PUSH2 0x3324 JUMPI POP PUSH8 0xDE0B6B3A7640000 SELFBALANCE GT JUMPDEST ISZERO PUSH2 0x337F JUMPI PUSH8 0xDE0B6B3A7640000 PUSH1 0x2 PUSH1 0x0 DUP3 DUP3 SLOAD PUSH2 0x3343 SWAP2 SWAP1 PUSH2 0x4AE7 JUMP JUMPDEST SWAP3 POP POP DUP2 SWAP1 SSTORE POP PUSH8 0xDE0B6B3A7640000 PUSH1 0x3 PUSH1 0x0 DUP3 DUP3 SLOAD PUSH2 0x3364 SWAP2 SWAP1 PUSH2 0x4389 JUMP JUMPDEST SWAP1 SWAP2 SSTORE POP PUSH2 0x337C SWAP1 POP PUSH8 0xDE0B6B3A7640000 DUP5 PUSH2 0x4389 JUMP JUMPDEST SWAP3 POP JUMPDEST PUSH2 0x338A DUP4 PUSH1 0x0 PUSH2 0x3D4B JUMP JUMPDEST DUP6 PUSH1 0x1 PUSH1 0x1 PUSH1 0xA0 SHL SUB AND PUSH32 0x1D6CE8F9F300ECD90371399CE90DA8388BBA45019701A1FD6D6EE08EA5800776 DUP5 TIMESTAMP DUP12 DUP12 PUSH1 0x40 MLOAD PUSH2 0x33C9 SWAP5 SWAP4 SWAP3 SWAP2 SWAP1 PUSH2 0x4CE8 JUMP JUMPDEST PUSH1 0x40 MLOAD DUP1 SWAP2 SUB SWAP1 LOG2 POP POP POP POP POP POP POP POP JUMP JUMPDEST PUSH1 0x1 PUSH1 0x1 PUSH1 0xA0 SHL SUB DUP2 DUP2 AND PUSH1 0x0 SWAP1 DUP2 MSTORE PUSH1 0xA PUSH1 0x20 MSTORE PUSH1 0x40 DUP2 KECCAK256 SLOAD SWAP1 SWAP2 AND ISZERO PUSH2 0x3434 JUMPI PUSH1 0x40 MLOAD PUSH3 0x461BCD PUSH1 0xE5 SHL DUP2 MSTORE PUSH1 0x20 PUSH1 0x4 DUP3 ADD MSTORE PUSH1 0xC PUSH1 0x24 DUP3 ADD MSTORE PUSH12 0x1A5B9D985B1A590818D85B1B PUSH1 0xA2 SHL PUSH1 0x44 DUP3 ADD MSTORE PUSH1 0x64 ADD PUSH2 0x99D JUMP JUMPDEST POP PUSH1 0x1 PUSH1 0x1 PUSH1 0xA0 SHL SUB AND PUSH1 0x0 SWAP1 DUP2 MSTORE PUSH1 0xA PUSH1 0x20 MSTORE PUSH1 0x40 SWAP1 KECCAK256 DUP1 SLOAD PUSH1 0x1 PUSH1 0x1 PUSH1 0xA0 SHL SUB NOT AND ORIGIN OR SWAP1 SSTORE PUSH1 0x1 SWAP1 JUMP JUMPDEST PUSH1 0x0 DUP1 PUSH2 0x346E PUSH1 0x0 PUSH2 0x4083 JUMP JUMPDEST SWAP2 POP SWAP2 POP SWAP1 SWAP2 JUMP JUMPDEST PUSH1 0x0 DUP1 SLOAD PUSH1 0xFF AND PUSH2 0x3499 JUMPI PUSH1 0x40 MLOAD PUSH3 0x461BCD PUSH1 0xE5 SHL DUP2 MSTORE PUSH1 0x4 ADD PUSH2 0x99D SWAP1 PUSH2 0x4AC1 JUMP JUMPDEST ORIGIN PUSH1 0x0 PUSH1 0x1 PUSH1 0x1 PUSH1 0xA0 SHL SUB DUP5 AND PUSH1 0x0 SWAP1 DUP2 MSTORE PUSH1 0x4 PUSH1 0x20 DUP2 SWAP1 MSTORE PUSH1 0x40 SWAP1 SWAP2 KECCAK256 SLOAD PUSH1 0x1 PUSH1 0xA0 SHL SWAP1 DIV PUSH1 0xFF AND SWAP1 DUP2 GT ISZERO PUSH2 0x34D2 JUMPI PUSH2 0x34D2 PUSH2 0x4548 JUMP JUMPDEST SUB PUSH2 0x3515 JUMPI PUSH1 0x40 MLOAD PUSH3 0x461BCD PUSH1 0xE5 SHL DUP2 MSTORE PUSH1 0x20 PUSH1 0x4 DUP3 ADD MSTORE PUSH1 0x13 PUSH1 0x24 DUP3 ADD MSTORE PUSH19 0x15985B1A59185D1BDC881B9BDD08195E1A5CDD PUSH1 0x6A SHL PUSH1 0x44 DUP3 ADD MSTORE PUSH1 0x64 ADD PUSH2 0x99D JUMP JUMPDEST PUSH1 0x1 PUSH1 0x1 PUSH1 0xA0 SHL SUB DUP1 DUP3 AND PUSH1 0x0 SWAP1 DUP2 MSTORE PUSH1 0x5 PUSH1 0x20 SWAP1 DUP2 MSTORE PUSH1 0x40 DUP1 DUP4 KECCAK256 SWAP4 DUP8 AND DUP4 MSTORE SWAP3 DUP2 MSTORE DUP3 DUP3 KECCAK256 PUSH1 0x4 SWAP1 SWAP2 MSTORE SWAP2 SWAP1 KECCAK256 DUP2 SLOAD PUSH1 0x1 DUP4 ADD SLOAD ISZERO PUSH2 0x35A4 JUMPI PUSH1 0x40 MLOAD PUSH3 0x461BCD PUSH1 0xE5 SHL DUP2 MSTORE PUSH1 0x20 PUSH1 0x4 DUP3 ADD MSTORE PUSH1 0x23 PUSH1 0x24 DUP3 ADD MSTORE PUSH32 0x596F752061726520616C726561647920696E20756E7374616B696E6720737461 PUSH1 0x44 DUP3 ADD MSTORE PUSH3 0x747573 PUSH1 0xE8 SHL PUSH1 0x64 DUP3 ADD MSTORE PUSH1 0x84 ADD PUSH2 0x99D JUMP JUMPDEST PUSH1 0x0 DUP2 GT PUSH2 0x35EF JUMPI PUSH1 0x40 MLOAD PUSH3 0x461BCD PUSH1 0xE5 SHL DUP2 MSTORE PUSH1 0x20 PUSH1 0x4 DUP3 ADD MSTORE PUSH1 0x18 PUSH1 0x24 DUP3 ADD MSTORE PUSH24 0x596F7520646F6E2774206861766520616E79207374616B65 PUSH1 0x40 SHL PUSH1 0x44 DUP3 ADD MSTORE PUSH1 0x64 ADD PUSH2 0x99D JUMP JUMPDEST PUSH1 0x7 SLOAD PUSH1 0x1 EQ DUP1 ISZERO PUSH2 0x3605 JUMPI POP PUSH2 0x3605 DUP7 PUSH2 0x1E28 JUMP JUMPDEST DUP1 ISZERO PUSH2 0x3628 JUMPI POP PUSH9 0x1BC16D674EC800000 DUP2 DUP4 PUSH1 0x1 ADD SLOAD PUSH2 0x3626 SWAP2 SWAP1 PUSH2 0x4AE7 JUMP JUMPDEST LT JUMPDEST ISZERO PUSH2 0x36A9 JUMPI PUSH1 0x40 MLOAD PUSH3 0x461BCD PUSH1 0xE5 SHL DUP2 MSTORE PUSH1 0x20 PUSH1 0x4 DUP3 ADD MSTORE PUSH1 0x45 PUSH1 0x24 DUP3 ADD MSTORE PUSH32 0x596F752063616E277420756E7374616B652C2076616C696461746F72206C6973 PUSH1 0x44 DUP3 ADD MSTORE PUSH32 0x742077696C6C20626520656D7074792061667465722074686973206F70657261 PUSH1 0x64 DUP3 ADD MSTORE PUSH5 0x74696F6E21 PUSH1 0xD8 SHL PUSH1 0x84 DUP3 ADD MSTORE PUSH1 0xA4 ADD PUSH2 0x99D JUMP JUMPDEST PUSH1 0x9 DUP3 ADD SLOAD PUSH2 0x36BA SWAP1 PUSH1 0x1 SWAP1 PUSH2 0x4AE7 JUMP JUMPDEST DUP4 PUSH1 0x2 ADD SLOAD EQ PUSH2 0x37A6 JUMPI PUSH1 0x9 DUP3 ADD DUP1 SLOAD PUSH2 0x36D6 SWAP1 PUSH1 0x1 SWAP1 PUSH2 0x4AE7 JUMP JUMPDEST DUP2 SLOAD DUP2 LT PUSH2 0x36E6 JUMPI PUSH2 0x36E6 PUSH2 0x4B3B JUMP JUMPDEST SWAP1 PUSH1 0x0 MSTORE PUSH1 0x20 PUSH1 0x0 KECCAK256 ADD PUSH1 0x0 SWAP1 SLOAD SWAP1 PUSH2 0x100 EXP SWAP1 DIV PUSH1 0x1 PUSH1 0x1 PUSH1 0xA0 SHL SUB AND DUP3 PUSH1 0x9 ADD DUP5 PUSH1 0x2 ADD SLOAD DUP2 SLOAD DUP2 LT PUSH2 0x371D JUMPI PUSH2 0x371D PUSH2 0x4B3B JUMP JUMPDEST SWAP1 PUSH1 0x0 MSTORE PUSH1 0x20 PUSH1 0x0 KECCAK256 ADD PUSH1 0x0 PUSH2 0x100 EXP DUP2 SLOAD DUP2 PUSH1 0x1 PUSH1 0x1 PUSH1 0xA0 SHL SUB MUL NOT AND SWAP1 DUP4 PUSH1 0x1 PUSH1 0x1 PUSH1 0xA0 SHL SUB AND MUL OR SWAP1 SSTORE POP DUP3 PUSH1 0x2 ADD SLOAD PUSH1 0x5 PUSH1 0x0 DUP5 PUSH1 0x9 ADD DUP7 PUSH1 0x2 ADD SLOAD DUP2 SLOAD DUP2 LT PUSH2 0x376D JUMPI PUSH2 0x376D PUSH2 0x4B3B JUMP JUMPDEST PUSH1 0x0 SWAP2 DUP3 MSTORE PUSH1 0x20 DUP1 DUP4 KECCAK256 SWAP1 SWAP2 ADD SLOAD PUSH1 0x1 PUSH1 0x1 PUSH1 0xA0 SHL SUB SWAP1 DUP2 AND DUP5 MSTORE DUP4 DUP3 ADD SWAP5 SWAP1 SWAP5 MSTORE PUSH1 0x40 SWAP3 DUP4 ADD DUP3 KECCAK256 SWAP4 DUP12 AND DUP3 MSTORE SWAP3 SWAP1 SWAP3 MSTORE SWAP1 KECCAK256 PUSH1 0x2 ADD SSTORE JUMPDEST DUP2 PUSH1 0x9 ADD DUP1 SLOAD DUP1 PUSH2 0x37B9 JUMPI PUSH2 0x37B9 PUSH2 0x4D53 JUMP JUMPDEST PUSH1 0x0 DUP3 DUP2 MSTORE PUSH1 0x20 SWAP1 KECCAK256 DUP2 ADD PUSH1 0x0 NOT SWAP1 DUP2 ADD DUP1 SLOAD PUSH1 0x1 PUSH1 0x1 PUSH1 0xA0 SHL SUB NOT AND SWAP1 SSTORE ADD SWAP1 SSTORE PUSH1 0x1 DUP3 ADD SLOAD PUSH2 0x37EB SWAP1 DUP3 SWAP1 PUSH2 0x4AE7 JUMP JUMPDEST PUSH1 0x1 DUP1 DUP5 ADD SWAP2 SWAP1 SWAP2 SSTORE NUMBER SWAP1 DUP5 ADD SSTORE PUSH1 0x0 PUSH1 0x2 DUP5 ADD SSTORE PUSH1 0x8 SLOAD PUSH2 0x380E SWAP1 DUP3 SWAP1 PUSH2 0x4AE7 JUMP JUMPDEST PUSH1 0x8 SSTORE PUSH1 0x1 DUP3 ADD SLOAD PUSH9 0x1BC16D674EC800000 GT DUP1 ISZERO PUSH2 0x3863 JUMPI POP PUSH1 0x4 PUSH1 0x1 PUSH1 0x1 PUSH1 0xA0 SHL SUB DUP8 AND PUSH1 0x0 SWAP1 DUP2 MSTORE PUSH1 0x4 PUSH1 0x20 DUP2 SWAP1 MSTORE PUSH1 0x40 SWAP1 SWAP2 KECCAK256 SLOAD PUSH1 0x1 PUSH1 0xA0 SHL SWAP1 DIV PUSH1 0xFF AND SWAP1 DUP2 GT ISZERO PUSH2 0x3860 JUMPI PUSH2 0x3860 PUSH2 0x4548 JUMP JUMPDEST EQ ISZERO JUMPDEST ISZERO PUSH2 0x3882 JUMPI DUP2 SLOAD PUSH1 0xFF PUSH1 0xA0 SHL NOT AND PUSH1 0x3 PUSH1 0xA0 SHL OR DUP3 SSTORE PUSH2 0x3882 DUP7 PUSH2 0x419A JUMP JUMPDEST PUSH2 0x388B DUP7 PUSH2 0x1621 JUMP JUMPDEST POP PUSH1 0x1 PUSH1 0x1 PUSH1 0xA0 SHL SUB DUP5 DUP2 AND PUSH1 0x0 DUP2 DUP2 MSTORE PUSH1 0xB PUSH1 0x20 SWAP1 DUP2 MSTORE PUSH1 0x40 DUP1 DUP4 KECCAK256 SWAP5 DUP12 AND DUP1 DUP5 MSTORE SWAP5 DUP3 MSTORE DUP1 DUP4 KECCAK256 SWAP3 SWAP1 SWAP3 SSTORE DUP2 MLOAD DUP6 DUP2 MSTORE TIMESTAMP SWAP2 DUP2 ADD SWAP2 SWAP1 SWAP2 MSTORE PUSH32 0x449002AE18E748D69A55F38514400D64F966492E593E32D6E9B8B24DB98A0BC1 SWAP2 ADD PUSH1 0x40 MLOAD DUP1 SWAP2 SUB SWAP1 LOG3 POP PUSH1 0x1 SWAP6 SWAP5 POP POP POP POP POP JUMP JUMPDEST PUSH1 0x0 JUMPDEST PUSH1 0x7 SLOAD DUP2 LT ISZERO PUSH2 0x3957 JUMPI DUP3 PUSH1 0x1 PUSH1 0x1 PUSH1 0xA0 SHL SUB AND PUSH1 0x7 DUP3 DUP2 SLOAD DUP2 LT PUSH2 0x3926 JUMPI PUSH2 0x3926 PUSH2 0x4B3B JUMP JUMPDEST PUSH1 0x0 SWAP2 DUP3 MSTORE PUSH1 0x20 SWAP1 SWAP2 KECCAK256 ADD SLOAD PUSH1 0x1 PUSH1 0x1 PUSH1 0xA0 SHL SUB AND SUB PUSH2 0x3945 JUMPI POP POP POP JUMP JUMPDEST DUP1 PUSH2 0x394F DUP2 PUSH2 0x4B51 JUMP JUMPDEST SWAP2 POP POP PUSH2 0x38FF JUMP JUMPDEST POP PUSH1 0x7 SLOAD PUSH1 0x1E GT ISZERO PUSH2 0x39E1 JUMPI PUSH1 0x7 DUP1 SLOAD PUSH1 0x1 DUP2 ADD DUP3 SSTORE PUSH1 0x0 SWAP2 SWAP1 SWAP2 MSTORE PUSH32 0xA66CC928B5EDB82AF9BD49922954155AB7B0942694BEA4CE44661D9A8736C688 ADD DUP1 SLOAD PUSH1 0x1 PUSH1 0x1 PUSH1 0xA0 SHL SUB NOT AND PUSH1 0x1 PUSH1 0x1 PUSH1 0xA0 SHL SUB DUP5 AND SWAP1 DUP2 OR SWAP1 SWAP2 SSTORE PUSH1 0x40 MLOAD TIMESTAMP DUP2 MSTORE PUSH32 0x1E3310AD6891B30E03874EC3D1422A6386C5DA63D9FAF595F5D99EEAF443B99A SWAP1 PUSH1 0x20 ADD PUSH2 0x13B5 JUMP JUMPDEST PUSH1 0x0 PUSH1 0x4 PUSH1 0x0 PUSH1 0x7 PUSH1 0x0 DUP2 SLOAD DUP2 LT PUSH2 0x39FB JUMPI PUSH2 0x39FB PUSH2 0x4B3B JUMP JUMPDEST PUSH1 0x0 SWAP2 DUP3 MSTORE PUSH1 0x20 DUP1 DUP4 KECCAK256 SWAP1 SWAP2 ADD SLOAD PUSH1 0x1 PUSH1 0x1 PUSH1 0xA0 SHL SUB AND DUP4 MSTORE DUP3 ADD SWAP3 SWAP1 SWAP3 MSTORE PUSH1 0x40 ADD DUP2 KECCAK256 PUSH1 0x1 SWAP1 DUP2 ADD SLOAD SWAP3 POP JUMPDEST PUSH1 0x7 SLOAD DUP2 LT ISZERO PUSH2 0x3ACF JUMPI DUP3 PUSH1 0x4 PUSH1 0x0 PUSH1 0x7 DUP5 DUP2 SLOAD DUP2 LT PUSH2 0x3A4A JUMPI PUSH2 0x3A4A PUSH2 0x4B3B JUMP JUMPDEST PUSH1 0x0 SWAP2 DUP3 MSTORE PUSH1 0x20 DUP1 DUP4 KECCAK256 SWAP1 SWAP2 ADD SLOAD PUSH1 0x1 PUSH1 0x1 PUSH1 0xA0 SHL SUB AND DUP4 MSTORE DUP3 ADD SWAP3 SWAP1 SWAP3 MSTORE PUSH1 0x40 ADD SWAP1 KECCAK256 PUSH1 0x1 ADD SLOAD LT ISZERO PUSH2 0x3ABD JUMPI PUSH1 0x4 PUSH1 0x0 PUSH1 0x7 DUP4 DUP2 SLOAD DUP2 LT PUSH2 0x3A8F JUMPI PUSH2 0x3A8F PUSH2 0x4B3B JUMP JUMPDEST PUSH1 0x0 SWAP2 DUP3 MSTORE PUSH1 0x20 DUP1 DUP4 KECCAK256 SWAP1 SWAP2 ADD SLOAD PUSH1 0x1 PUSH1 0x1 PUSH1 0xA0 SHL SUB AND DUP4 MSTORE DUP3 ADD SWAP3 SWAP1 SWAP3 MSTORE PUSH1 0x40 ADD SWAP1 KECCAK256 PUSH1 0x1 ADD SLOAD SWAP3 POP SWAP1 POP DUP1 JUMPDEST DUP1 PUSH2 0x3AC7 DUP2 PUSH2 0x4B51 JUMP JUMPDEST SWAP2 POP POP PUSH2 0x3A28 JUMP JUMPDEST POP DUP2 DUP4 GT PUSH2 0x3ADD JUMPI POP POP POP POP JUMP JUMPDEST DUP4 PUSH1 0x1 PUSH1 0x1 PUSH1 0xA0 SHL SUB AND PUSH32 0x1E3310AD6891B30E03874EC3D1422A6386C5DA63D9FAF595F5D99EEAF443B99A TIMESTAMP PUSH1 0x40 MLOAD PUSH2 0x3B18 SWAP2 DUP2 MSTORE PUSH1 0x20 ADD SWAP1 JUMP JUMPDEST PUSH1 0x40 MLOAD DUP1 SWAP2 SUB SWAP1 LOG2 PUSH1 0x7 DUP2 DUP2 SLOAD DUP2 LT PUSH2 0x3B33 JUMPI PUSH2 0x3B33 PUSH2 0x4B3B JUMP JUMPDEST PUSH1 0x0 SWAP2 DUP3 MSTORE PUSH1 0x20 SWAP2 DUP3 SWAP1 KECCAK256 ADD SLOAD PUSH1 0x40 MLOAD TIMESTAMP DUP2 MSTORE PUSH1 0x1 PUSH1 0x1 PUSH1 0xA0 SHL SUB SWAP1 SWAP2 AND SWAP2 PUSH32 0x7521E44559C870C316E84E60BC4785D9C034A8AB1D6ACDCE8134AC03F946C6ED SWAP2 ADD PUSH1 0x40 MLOAD DUP1 SWAP2 SUB SWAP1 LOG2 DUP4 PUSH1 0x7 DUP3 DUP2 SLOAD DUP2 LT PUSH2 0x3B91 JUMPI PUSH2 0x3B91 PUSH2 0x4B3B JUMP JUMPDEST SWAP1 PUSH1 0x0 MSTORE PUSH1 0x20 PUSH1 0x0 KECCAK256 ADD PUSH1 0x0 PUSH2 0x100 EXP DUP2 SLOAD DUP2 PUSH1 0x1 PUSH1 0x1 PUSH1 0xA0 SHL SUB MUL NOT AND SWAP1 DUP4 PUSH1 0x1 PUSH1 0x1 PUSH1 0xA0 SHL SUB AND MUL OR SWAP1 SSTORE POP POP POP POP POP JUMP JUMPDEST PUSH1 0x1 PUSH1 0x1 PUSH1 0xA0 SHL SUB DUP2 AND PUSH1 0x0 SWAP1 DUP2 MSTORE PUSH1 0x4 PUSH1 0x20 DUP2 SWAP1 MSTORE PUSH1 0x40 DUP3 KECCAK256 SLOAD PUSH1 0x1 PUSH1 0xA0 SHL SWAP1 DIV PUSH1 0xFF AND SWAP1 DUP2 GT ISZERO PUSH2 0x3BFA JUMPI PUSH2 0x3BFA PUSH2 0x4548 JUMP JUMPDEST EQ DUP1 PUSH2 0x3C09 JUMPI POP PUSH1 0x6 SLOAD PUSH1 0x1 LT ISZERO JUMPDEST ISZERO PUSH2 0x3C11 JUMPI POP JUMP JUMPDEST PUSH1 0x1 PUSH1 0x1 PUSH1 0xA0 SHL SUB DUP2 AND PUSH1 0x0 SWAP1 DUP2 MSTORE PUSH1 0x4 PUSH1 0x20 MSTORE PUSH1 0x40 SWAP1 KECCAK256 PUSH1 0x7 ADD SLOAD DUP1 ISZERO PUSH2 0x3C9C JUMPI PUSH2 0x3C3D DUP2 DUP4 PUSH2 0x3D4B JUMP JUMPDEST DUP1 PUSH1 0x9 SLOAD PUSH2 0x3C4B SWAP2 SWAP1 PUSH2 0x4389 JUMP JUMPDEST PUSH1 0x9 SSTORE PUSH1 0x1 PUSH1 0x1 PUSH1 0xA0 SHL SUB DUP3 AND PUSH1 0x0 SWAP1 DUP2 MSTORE PUSH1 0x4 PUSH1 0x20 MSTORE PUSH1 0x40 SWAP1 KECCAK256 PUSH1 0x8 ADD SLOAD PUSH2 0x3C75 SWAP1 DUP3 SWAP1 PUSH2 0x4389 JUMP JUMPDEST PUSH1 0x1 PUSH1 0x1 PUSH1 0xA0 SHL SUB DUP4 AND PUSH1 0x0 SWAP1 DUP2 MSTORE PUSH1 0x4 PUSH1 0x20 MSTORE PUSH1 0x40 DUP2 KECCAK256 PUSH1 0x8 DUP2 ADD SWAP3 SWAP1 SWAP3 SSTORE PUSH1 0x7 SWAP1 SWAP2 ADD SSTORE JUMPDEST PUSH1 0x40 DUP1 MLOAD DUP3 DUP2 MSTORE TIMESTAMP PUSH1 0x20 DUP3 ADD MSTORE PUSH1 0x1 PUSH1 0x1 PUSH1 0xA0 SHL SUB DUP5 AND SWAP2 PUSH32 0xE294E9D73F8EEE23E21B2E1567960625A6B5D339CB127B55D0D09473A9951235 SWAP2 ADD PUSH2 0x13B5 JUMP JUMPDEST PUSH1 0x1 PUSH1 0x1 PUSH1 0xA0 SHL SUB DUP2 AND PUSH1 0x0 SWAP1 DUP2 MSTORE PUSH1 0x4 PUSH1 0x20 DUP2 SWAP1 MSTORE PUSH1 0x40 DUP3 KECCAK256 SLOAD PUSH1 0x1 PUSH1 0xA0 SHL SWAP1 DIV PUSH1 0xFF AND SWAP1 DUP2 GT ISZERO PUSH2 0x3D11 JUMPI PUSH2 0x3D11 PUSH2 0x4548 JUMP JUMPDEST SUB PUSH2 0x3D19 JUMPI POP JUMP JUMPDEST PUSH1 0x1 PUSH1 0x1 PUSH1 0xA0 SHL SUB DUP2 AND PUSH1 0x0 SWAP1 DUP2 MSTORE PUSH1 0x4 PUSH1 0x20 MSTORE PUSH1 0x40 SWAP1 KECCAK256 DUP1 SLOAD PUSH1 0xFF PUSH1 0xA0 SHL NOT AND PUSH1 0x1 PUSH1 0xA2 SHL OR SWAP1 SSTORE PUSH2 0x143D DUP2 PUSH2 0x419A JUMP JUMPDEST DUP2 PUSH1 0x0 SUB PUSH2 0x3D57 JUMPI POP POP JUMP JUMPDEST PUSH1 0x0 DUP1 PUSH2 0x3D63 DUP4 PUSH2 0x4083 JUMP JUMPDEST SWAP1 SWAP3 POP SWAP1 POP PUSH1 0x0 DUP2 SWAP1 SUB PUSH2 0x3D77 JUMPI POP POP POP POP JUMP JUMPDEST PUSH1 0x0 DUP1 DUP4 PUSH1 0x0 SUB PUSH2 0x3F01 JUMPI PUSH1 0x0 PUSH2 0x3D8E DUP5 DUP9 PUSH2 0x4B27 JUMP JUMPDEST SWAP1 POP PUSH2 0x3D9A DUP5 DUP3 PUSH2 0x4AFA JUMP JUMPDEST PUSH2 0x3DA4 SWAP1 DUP9 PUSH2 0x4AE7 JUMP JUMPDEST SWAP3 POP PUSH1 0x0 JUMPDEST PUSH1 0x6 SLOAD DUP2 LT ISZERO PUSH2 0x3E96 JUMPI PUSH1 0x0 PUSH1 0x6 DUP3 DUP2 SLOAD DUP2 LT PUSH2 0x3DC8 JUMPI PUSH2 0x3DC8 PUSH2 0x4B3B JUMP JUMPDEST PUSH1 0x0 SWAP2 DUP3 MSTORE PUSH1 0x20 SWAP1 SWAP2 KECCAK256 ADD SLOAD PUSH1 0x1 PUSH1 0x1 PUSH1 0xA0 SHL SUB AND SWAP1 POP PUSH1 0x4 PUSH1 0x1 PUSH1 0x1 PUSH1 0xA0 SHL SUB DUP3 AND PUSH1 0x0 SWAP1 DUP2 MSTORE PUSH1 0x4 PUSH1 0x20 DUP2 SWAP1 MSTORE PUSH1 0x40 SWAP1 SWAP2 KECCAK256 SLOAD PUSH1 0x1 PUSH1 0xA0 SHL SWAP1 DIV PUSH1 0xFF AND SWAP1 DUP2 GT ISZERO PUSH2 0x3E17 JUMPI PUSH2 0x3E17 PUSH2 0x4548 JUMP JUMPDEST EQ ISZERO DUP1 ISZERO PUSH2 0x3E37 JUMPI POP DUP8 PUSH1 0x1 PUSH1 0x1 PUSH1 0xA0 SHL SUB AND DUP2 PUSH1 0x1 PUSH1 0x1 PUSH1 0xA0 SHL SUB AND EQ ISZERO JUMPDEST ISZERO PUSH2 0x3E83 JUMPI PUSH1 0x1 PUSH1 0x1 PUSH1 0xA0 SHL SUB DUP2 AND PUSH1 0x0 SWAP1 DUP2 MSTORE PUSH1 0x4 PUSH1 0x20 MSTORE PUSH1 0x40 SWAP1 KECCAK256 PUSH1 0x7 ADD SLOAD PUSH2 0x3E63 SWAP1 DUP5 SWAP1 PUSH2 0x4389 JUMP JUMPDEST PUSH1 0x1 PUSH1 0x1 PUSH1 0xA0 SHL SUB DUP3 AND PUSH1 0x0 SWAP1 DUP2 MSTORE PUSH1 0x4 PUSH1 0x20 MSTORE PUSH1 0x40 SWAP1 KECCAK256 PUSH1 0x7 ADD SSTORE SWAP3 POP DUP3 JUMPDEST POP DUP1 PUSH2 0x3E8E DUP2 PUSH2 0x4B51 JUMP JUMPDEST SWAP2 POP POP PUSH2 0x3DA9 JUMP JUMPDEST POP PUSH1 0x0 DUP4 GT DUP1 ISZERO PUSH2 0x3EAF JUMPI POP PUSH1 0x1 PUSH1 0x1 PUSH1 0xA0 SHL SUB DUP3 AND ISZERO ISZERO JUMPDEST ISZERO PUSH2 0x3EF8 JUMPI PUSH1 0x1 PUSH1 0x1 PUSH1 0xA0 SHL SUB DUP3 AND PUSH1 0x0 SWAP1 DUP2 MSTORE PUSH1 0x4 PUSH1 0x20 MSTORE PUSH1 0x40 SWAP1 KECCAK256 PUSH1 0x7 ADD SLOAD PUSH2 0x3EDB SWAP1 DUP5 SWAP1 PUSH2 0x4389 JUMP JUMPDEST PUSH1 0x1 PUSH1 0x1 PUSH1 0xA0 SHL SUB DUP4 AND PUSH1 0x0 SWAP1 DUP2 MSTORE PUSH1 0x4 PUSH1 0x20 MSTORE PUSH1 0x40 SWAP1 KECCAK256 PUSH1 0x7 ADD SSTORE JUMPDEST POP POP POP POP POP POP POP JUMP JUMPDEST PUSH1 0x0 DUP1 JUMPDEST PUSH1 0x6 SLOAD DUP2 LT ISZERO PUSH2 0x4035 JUMPI PUSH1 0x0 PUSH1 0x6 DUP3 DUP2 SLOAD DUP2 LT PUSH2 0x3F24 JUMPI PUSH2 0x3F24 PUSH2 0x4B3B JUMP JUMPDEST PUSH1 0x0 SWAP2 DUP3 MSTORE PUSH1 0x20 SWAP1 SWAP2 KECCAK256 ADD SLOAD PUSH1 0x1 PUSH1 0x1 PUSH1 0xA0 SHL SUB AND SWAP1 POP PUSH1 0x4 PUSH1 0x1 PUSH1 0x1 PUSH1 0xA0 SHL SUB DUP3 AND PUSH1 0x0 SWAP1 DUP2 MSTORE PUSH1 0x4 PUSH1 0x20 DUP2 SWAP1 MSTORE PUSH1 0x40 SWAP1 SWAP2 KECCAK256 SLOAD PUSH1 0x1 PUSH1 0xA0 SHL SWAP1 DIV PUSH1 0xFF AND SWAP1 DUP2 GT ISZERO PUSH2 0x3F73 JUMPI PUSH2 0x3F73 PUSH2 0x4548 JUMP JUMPDEST EQ ISZERO DUP1 ISZERO PUSH2 0x3F93 JUMPI POP DUP8 PUSH1 0x1 PUSH1 0x1 PUSH1 0xA0 SHL SUB AND DUP2 PUSH1 0x1 PUSH1 0x1 PUSH1 0xA0 SHL SUB AND EQ ISZERO JUMPDEST ISZERO PUSH2 0x4022 JUMPI PUSH1 0x1 PUSH1 0x1 PUSH1 0xA0 SHL SUB DUP2 AND PUSH1 0x0 SWAP1 DUP2 MSTORE PUSH1 0x4 PUSH1 0x20 MSTORE PUSH1 0x40 DUP2 KECCAK256 PUSH1 0x1 ADD SLOAD DUP9 SWAP1 PUSH2 0x3FC0 SWAP1 DUP13 PUSH2 0x4AFA JUMP JUMPDEST PUSH2 0x3FCA SWAP2 SWAP1 PUSH2 0x4B27 JUMP JUMPDEST SWAP1 POP PUSH2 0x3FD6 DUP2 DUP6 PUSH2 0x4389 JUMP JUMPDEST PUSH1 0x1 PUSH1 0x1 PUSH1 0xA0 SHL SUB DUP4 AND PUSH1 0x0 SWAP1 DUP2 MSTORE PUSH1 0x4 PUSH1 0x20 MSTORE PUSH1 0x40 SWAP1 KECCAK256 PUSH1 0x7 ADD SLOAD SWAP3 SWAP6 POP SWAP4 POP DUP5 SWAP2 PUSH2 0x4004 SWAP1 DUP3 SWAP1 PUSH2 0x4389 JUMP JUMPDEST PUSH1 0x1 PUSH1 0x1 PUSH1 0xA0 SHL SUB DUP4 AND PUSH1 0x0 SWAP1 DUP2 MSTORE PUSH1 0x4 PUSH1 0x20 MSTORE PUSH1 0x40 SWAP1 KECCAK256 PUSH1 0x7 ADD SSTORE POP JUMPDEST POP DUP1 PUSH2 0x402D DUP2 PUSH2 0x4B51 JUMP JUMPDEST SWAP2 POP POP PUSH2 0x3F05 JUMP JUMPDEST POP PUSH2 0x4040 DUP2 DUP9 PUSH2 0x4AE7 JUMP JUMPDEST SWAP3 POP PUSH1 0x0 DUP4 GT DUP1 ISZERO PUSH2 0x3EAF JUMPI POP PUSH1 0x1 PUSH1 0x1 PUSH1 0xA0 SHL SUB DUP3 AND ISZERO PUSH2 0x3EF8 JUMPI PUSH1 0x1 PUSH1 0x1 PUSH1 0xA0 SHL SUB DUP3 AND PUSH1 0x0 SWAP1 DUP2 MSTORE PUSH1 0x4 PUSH1 0x20 MSTORE PUSH1 0x40 SWAP1 KECCAK256 PUSH1 0x7 ADD SLOAD PUSH2 0x3EDB SWAP1 DUP5 SWAP1 PUSH2 0x4389 JUMP JUMPDEST PUSH1 0x0 DUP1 PUSH1 0x0 JUMPDEST PUSH1 0x6 SLOAD DUP2 LT ISZERO PUSH2 0x4194 JUMPI PUSH1 0x4 DUP1 PUSH1 0x0 PUSH1 0x6 DUP5 DUP2 SLOAD DUP2 LT PUSH2 0x40AB JUMPI PUSH2 0x40AB PUSH2 0x4B3B JUMP JUMPDEST PUSH1 0x0 SWAP2 DUP3 MSTORE PUSH1 0x20 DUP1 DUP4 KECCAK256 SWAP1 SWAP2 ADD SLOAD PUSH1 0x1 PUSH1 0x1 PUSH1 0xA0 SHL SUB AND DUP4 MSTORE DUP3 ADD SWAP3 SWAP1 SWAP3 MSTORE PUSH1 0x40 ADD SWAP1 KECCAK256 SLOAD PUSH1 0xFF PUSH1 0x1 PUSH1 0xA0 SHL SWAP1 SWAP2 DIV AND PUSH1 0x4 DUP2 GT ISZERO PUSH2 0x40EC JUMPI PUSH2 0x40EC PUSH2 0x4548 JUMP JUMPDEST EQ ISZERO DUP1 ISZERO PUSH2 0x4124 JUMPI POP PUSH1 0x6 DUP2 DUP2 SLOAD DUP2 LT PUSH2 0x4108 JUMPI PUSH2 0x4108 PUSH2 0x4B3B JUMP JUMPDEST PUSH1 0x0 SWAP2 DUP3 MSTORE PUSH1 0x20 SWAP1 SWAP2 KECCAK256 ADD SLOAD PUSH1 0x1 PUSH1 0x1 PUSH1 0xA0 SHL SUB DUP6 DUP2 AND SWAP2 AND EQ ISZERO JUMPDEST ISZERO PUSH2 0x4182 JUMPI PUSH1 0x4 PUSH1 0x0 PUSH1 0x6 DUP4 DUP2 SLOAD DUP2 LT PUSH2 0x4140 JUMPI PUSH2 0x4140 PUSH2 0x4B3B JUMP JUMPDEST PUSH1 0x0 SWAP2 DUP3 MSTORE PUSH1 0x20 DUP1 DUP4 KECCAK256 SWAP1 SWAP2 ADD SLOAD PUSH1 0x1 PUSH1 0x1 PUSH1 0xA0 SHL SUB AND DUP4 MSTORE DUP3 ADD SWAP3 SWAP1 SWAP3 MSTORE PUSH1 0x40 ADD SWAP1 KECCAK256 PUSH1 0x1 ADD SLOAD PUSH2 0x4172 SWAP1 DUP5 PUSH2 0x4389 JUMP JUMPDEST SWAP3 POP DUP2 PUSH2 0x417E DUP2 PUSH2 0x4B51 JUMP JUMPDEST SWAP3 POP POP JUMPDEST DUP1 PUSH2 0x418C DUP2 PUSH2 0x4B51 JUMP JUMPDEST SWAP2 POP POP PUSH2 0x4089 JUMP JUMPDEST POP SWAP2 POP SWAP2 JUMP JUMPDEST PUSH1 0x0 JUMPDEST PUSH1 0x7 SLOAD DUP2 LT DUP1 ISZERO PUSH2 0x41B0 JUMPI POP PUSH1 0x7 SLOAD PUSH1 0x1 LT JUMPDEST ISZERO PUSH2 0x13BE JUMPI PUSH1 0x7 DUP2 DUP2 SLOAD DUP2 LT PUSH2 0x41C8 JUMPI PUSH2 0x41C8 PUSH2 0x4B3B JUMP JUMPDEST PUSH1 0x0 SWAP2 DUP3 MSTORE PUSH1 0x20 SWAP1 SWAP2 KECCAK256 ADD SLOAD PUSH1 0x1 PUSH1 0x1 PUSH1 0xA0 SHL SUB SWAP1 DUP2 AND SWAP1 DUP4 AND SUB PUSH2 0x42E7 JUMPI PUSH1 0x7 SLOAD PUSH2 0x41F6 SWAP1 PUSH1 0x1 SWAP1 PUSH2 0x4AE7 JUMP JUMPDEST DUP2 EQ PUSH2 0x4277 JUMPI PUSH1 0x7 DUP1 SLOAD PUSH2 0x420C SWAP1 PUSH1 0x1 SWAP1 PUSH2 0x4AE7 JUMP JUMPDEST DUP2 SLOAD DUP2 LT PUSH2 0x421C JUMPI PUSH2 0x421C PUSH2 0x4B3B JUMP JUMPDEST PUSH1 0x0 SWAP2 DUP3 MSTORE PUSH1 0x20 SWAP1 SWAP2 KECCAK256 ADD SLOAD PUSH1 0x7 DUP1 SLOAD PUSH1 0x1 PUSH1 0x1 PUSH1 0xA0 SHL SUB SWAP1 SWAP3 AND SWAP2 DUP4 SWAP1 DUP2 LT PUSH2 0x4248 JUMPI PUSH2 0x4248 PUSH2 0x4B3B JUMP JUMPDEST SWAP1 PUSH1 0x0 MSTORE PUSH1 0x20 PUSH1 0x0 KECCAK256 ADD PUSH1 0x0 PUSH2 0x100 EXP DUP2 SLOAD DUP2 PUSH1 0x1 PUSH1 0x1 PUSH1 0xA0 SHL SUB MUL NOT AND SWAP1 DUP4 PUSH1 0x1 PUSH1 0x1 PUSH1 0xA0 SHL SUB AND MUL OR SWAP1 SSTORE POP JUMPDEST PUSH1 0x7 DUP1 SLOAD DUP1 PUSH2 0x4288 JUMPI PUSH2 0x4288 PUSH2 0x4D53 JUMP JUMPDEST PUSH1 0x0 DUP3 DUP2 MSTORE PUSH1 0x20 SWAP1 KECCAK256 DUP2 ADD PUSH1 0x0 NOT SWAP1 DUP2 ADD DUP1 SLOAD PUSH1 0x1 PUSH1 0x1 PUSH1 0xA0 SHL SUB NOT AND SWAP1 SSTORE ADD SWAP1 SSTORE PUSH1 0x40 MLOAD PUSH1 0x1 PUSH1 0x1 PUSH1 0xA0 SHL SUB DUP4 AND SWAP1 PUSH32 0x7521E44559C870C316E84E60BC4785D9C034A8AB1D6ACDCE8134AC03F946C6ED SWAP1 PUSH2 0x13B5 SWAP1 TIMESTAMP DUP2 MSTORE PUSH1 0x20 ADD SWAP1 JUMP JUMPDEST DUP1 PUSH2 0x42F1 DUP2 PUSH2 0x4B51 JUMP JUMPDEST SWAP2 POP POP PUSH2 0x419D JUMP JUMPDEST DUP3 DUP1 SLOAD DUP3 DUP3 SSTORE SWAP1 PUSH1 0x0 MSTORE PUSH1 0x20 PUSH1 0x0 KECCAK256 SWAP1 DUP2 ADD SWAP3 DUP3 ISZERO PUSH2 0x434E JUMPI SWAP2 PUSH1 0x20 MUL DUP3 ADD JUMPDEST DUP3 DUP2 GT ISZERO PUSH2 0x434E JUMPI DUP3 MLOAD DUP3 SLOAD PUSH1 0x1 PUSH1 0x1 PUSH1 0xA0 SHL SUB NOT AND PUSH1 0x1 PUSH1 0x1 PUSH1 0xA0 SHL SUB SWAP1 SWAP2 AND OR DUP3 SSTORE PUSH1 0x20 SWAP1 SWAP3 ADD SWAP2 PUSH1 0x1 SWAP1 SWAP2 ADD SWAP1 PUSH2 0x4319 JUMP JUMPDEST POP PUSH2 0x435A SWAP3 SWAP2 POP PUSH2 0x435E JUMP JUMPDEST POP SWAP1 JUMP JUMPDEST JUMPDEST DUP1 DUP3 GT ISZERO PUSH2 0x435A JUMPI PUSH1 0x0 DUP2 SSTORE PUSH1 0x1 ADD PUSH2 0x435F JUMP JUMPDEST PUSH4 0x4E487B71 PUSH1 0xE0 SHL PUSH1 0x0 MSTORE PUSH1 0x11 PUSH1 0x4 MSTORE PUSH1 0x24 PUSH1 0x0 REVERT JUMPDEST DUP1 DUP3 ADD DUP1 DUP3 GT ISZERO PUSH2 0x1289 JUMPI PUSH2 0x1289 PUSH2 0x4373 JUMP JUMPDEST PUSH1 0x1 PUSH1 0x1 PUSH1 0xA0 SHL SUB DUP2 AND DUP2 EQ PUSH2 0x143D JUMPI PUSH1 0x0 DUP1 REVERT JUMPDEST PUSH1 0x0 PUSH1 0x20 DUP3 DUP5 SUB SLT ISZERO PUSH2 0x43C3 JUMPI PUSH1 0x0 DUP1 REVERT JUMPDEST DUP2 CALLDATALOAD PUSH2 0x43CE DUP2 PUSH2 0x439C JUMP JUMPDEST SWAP4 SWAP3 POP POP POP JUMP JUMPDEST PUSH1 0x0 DUP1 PUSH1 0x40 DUP4 DUP6 SUB SLT ISZERO PUSH2 0x43E8 JUMPI PUSH1 0x0 DUP1 REVERT JUMPDEST DUP3 CALLDATALOAD PUSH2 0x43F3 DUP2 PUSH2 0x439C JUMP JUMPDEST SWAP2 POP PUSH1 0x20 DUP4 ADD CALLDATALOAD PUSH2 0x4403 DUP2 PUSH2 0x439C JUMP JUMPDEST DUP1 SWAP2 POP POP SWAP3 POP SWAP3 SWAP1 POP JUMP JUMPDEST PUSH1 0x0 PUSH1 0x20 DUP3 DUP5 SUB SLT ISZERO PUSH2 0x4420 JUMPI PUSH1 0x0 DUP1 REVERT JUMPDEST POP CALLDATALOAD SWAP2 SWAP1 POP JUMP JUMPDEST PUSH4 0x4E487B71 PUSH1 0xE0 SHL PUSH1 0x0 MSTORE PUSH1 0x41 PUSH1 0x4 MSTORE PUSH1 0x24 PUSH1 0x0 REVERT JUMPDEST PUSH1 0x40 MLOAD PUSH1 0x1F DUP3 ADD PUSH1 0x1F NOT AND DUP2 ADD PUSH1 0x1 PUSH1 0x1 PUSH1 0x40 SHL SUB DUP2 GT DUP3 DUP3 LT OR ISZERO PUSH2 0x4465 JUMPI PUSH2 0x4465 PUSH2 0x4427 JUMP JUMPDEST PUSH1 0x40 MSTORE SWAP2 SWAP1 POP JUMP JUMPDEST PUSH1 0x0 PUSH1 0x1 PUSH1 0x1 PUSH1 0x40 SHL SUB DUP3 GT ISZERO PUSH2 0x4486 JUMPI PUSH2 0x4486 PUSH2 0x4427 JUMP JUMPDEST POP PUSH1 0x5 SHL PUSH1 0x20 ADD SWAP1 JUMP JUMPDEST PUSH1 0x0 DUP3 PUSH1 0x1F DUP4 ADD SLT PUSH2 0x44A1 JUMPI PUSH1 0x0 DUP1 REVERT JUMPDEST DUP2 CALLDATALOAD PUSH1 0x20 PUSH2 0x44B6 PUSH2 0x44B1 DUP4 PUSH2 0x446D JUMP JUMPDEST PUSH2 0x443D JUMP JUMPDEST DUP3 DUP2 MSTORE PUSH1 0x5 SWAP3 SWAP1 SWAP3 SHL DUP5 ADD DUP2 ADD SWAP2 DUP2 DUP2 ADD SWAP1 DUP7 DUP5 GT ISZERO PUSH2 0x44D5 JUMPI PUSH1 0x0 DUP1 REVERT JUMPDEST DUP3 DUP7 ADD JUMPDEST DUP5 DUP2 LT ISZERO PUSH2 0x44F9 JUMPI DUP1 CALLDATALOAD PUSH2 0x44EC DUP2 PUSH2 0x439C JUMP JUMPDEST DUP4 MSTORE SWAP2 DUP4 ADD SWAP2 DUP4 ADD PUSH2 0x44D9 JUMP JUMPDEST POP SWAP7 SWAP6 POP POP POP POP POP POP JUMP JUMPDEST PUSH1 0x0 DUP1 PUSH1 0x40 DUP4 DUP6 SUB SLT ISZERO PUSH2 0x4517 JUMPI PUSH1 0x0 DUP1 REVERT JUMPDEST DUP3 CALLDATALOAD PUSH1 0x1 PUSH1 0x1 PUSH1 0x40 SHL SUB DUP2 GT ISZERO PUSH2 0x452D JUMPI PUSH1 0x0 DUP1 REVERT JUMPDEST PUSH2 0x4539 DUP6 DUP3 DUP7 ADD PUSH2 0x4490 JUMP JUMPDEST SWAP6 PUSH1 0x20 SWAP5 SWAP1 SWAP5 ADD CALLDATALOAD SWAP5 POP POP POP POP JUMP JUMPDEST PUSH4 0x4E487B71 PUSH1 0xE0 SHL PUSH1 0x0 MSTORE PUSH1 0x21 PUSH1 0x4 MSTORE PUSH1 0x24 PUSH1 0x0 REVERT JUMPDEST PUSH1 0x0 DUP2 MLOAD DUP1 DUP5 MSTORE PUSH1 0x20 DUP1 DUP6 ADD SWAP5 POP DUP1 DUP5 ADD PUSH1 0x0 JUMPDEST DUP4 DUP2 LT ISZERO PUSH2 0x4597 JUMPI DUP2 MLOAD PUSH1 0x1 PUSH1 0x1 PUSH1 0xA0 SHL SUB AND DUP8 MSTORE SWAP6 DUP3 ADD SWAP6 SWAP1 DUP3 ADD SWAP1 PUSH1 0x1 ADD PUSH2 0x4572 JUMP JUMPDEST POP SWAP5 SWAP6 SWAP5 POP POP POP POP POP JUMP JUMPDEST PUSH1 0x1 PUSH1 0x1 PUSH1 0xA0 SHL SUB DUP8 AND DUP2 MSTORE PUSH1 0x0 PUSH1 0x5 DUP8 LT PUSH2 0x45CE JUMPI PUSH4 0x4E487B71 PUSH1 0xE0 SHL PUSH1 0x0 MSTORE PUSH1 0x21 PUSH1 0x4 MSTORE PUSH1 0x24 PUSH1 0x0 REVERT JUMPDEST DUP7 PUSH1 0x20 DUP4 ADD MSTORE DUP6 PUSH1 0x40 DUP4 ADD MSTORE DUP5 PUSH1 0x60 DUP4 ADD MSTORE DUP4 PUSH1 0x80 DUP4 ADD MSTORE PUSH1 0xC0 PUSH1 0xA0 DUP4 ADD MSTORE PUSH2 0x45FA PUSH1 0xC0 DUP4 ADD DUP5 PUSH2 0x455E JUMP JUMPDEST SWAP9 SWAP8 POP POP POP POP POP POP POP POP JUMP JUMPDEST PUSH1 0x0 DUP1 PUSH1 0x40 DUP4 DUP6 SUB SLT ISZERO PUSH2 0x4619 JUMPI PUSH1 0x0 DUP1 REVERT JUMPDEST DUP3 CALLDATALOAD PUSH2 0x4624 DUP2 PUSH2 0x439C JUMP JUMPDEST SWAP5 PUSH1 0x20 SWAP4 SWAP1 SWAP4 ADD CALLDATALOAD SWAP4 POP POP POP JUMP JUMPDEST PUSH1 0x20 DUP2 MSTORE PUSH1 0x0 PUSH2 0x43CE PUSH1 0x20 DUP4 ADD DUP5 PUSH2 0x455E JUMP JUMPDEST PUSH1 0x0 DUP1 PUSH1 0x20 DUP4 DUP6 SUB SLT ISZERO PUSH2 0x4658 JUMPI PUSH1 0x0 DUP1 REVERT JUMPDEST DUP3 CALLDATALOAD PUSH1 0x1 PUSH1 0x1 PUSH1 0x40 SHL SUB DUP1 DUP3 GT ISZERO PUSH2 0x466F JUMPI PUSH1 0x0 DUP1 REVERT JUMPDEST DUP2 DUP6 ADD SWAP2 POP DUP6 PUSH1 0x1F DUP4 ADD SLT PUSH2 0x4683 JUMPI PUSH1 0x0 DUP1 REVERT JUMPDEST DUP2 CALLDATALOAD DUP2 DUP2 GT ISZERO PUSH2 0x4692 JUMPI PUSH1 0x0 DUP1 REVERT JUMPDEST DUP7 PUSH1 0x20 DUP3 PUSH1 0x5 SHL DUP6 ADD ADD GT ISZERO PUSH2 0x46A7 JUMPI PUSH1 0x0 DUP1 REVERT JUMPDEST PUSH1 0x20 SWAP3 SWAP1 SWAP3 ADD SWAP7 SWAP2 SWAP6 POP SWAP1 SWAP4 POP POP POP POP JUMP JUMPDEST DUP1 CALLDATALOAD PUSH2 0x11A6 DUP2 PUSH2 0x439C JUMP JUMPDEST PUSH1 0x0 DUP1 DUP4 PUSH1 0x1F DUP5 ADD SLT PUSH2 0x46D6 JUMPI PUSH1 0x0 DUP1 REVERT JUMPDEST POP DUP2 CALLDATALOAD PUSH1 0x1 PUSH1 0x1 PUSH1 0x40 SHL SUB DUP2 GT ISZERO PUSH2 0x46ED JUMPI PUSH1 0x0 DUP1 REVERT JUMPDEST PUSH1 0x20 DUP4 ADD SWAP2 POP DUP4 PUSH1 0x20 DUP3 DUP6 ADD ADD GT ISZERO PUSH2 0x4705 JUMPI PUSH1 0x0 DUP1 REVERT JUMPDEST SWAP3 POP SWAP3 SWAP1 POP JUMP JUMPDEST PUSH1 0x0 DUP1 PUSH1 0x0 DUP1 PUSH1 0x0 DUP1 PUSH1 0x0 DUP1 PUSH1 0x0 DUP1 PUSH1 0x0 PUSH1 0xC0 DUP13 DUP15 SUB SLT ISZERO PUSH2 0x472D JUMPI PUSH1 0x0 DUP1 REVERT JUMPDEST PUSH2 0x4736 DUP13 PUSH2 0x46B9 JUMP JUMPDEST SWAP11 POP PUSH1 0x1 PUSH1 0x1 PUSH1 0x40 SHL SUB DUP1 PUSH1 0x20 DUP15 ADD CALLDATALOAD GT ISZERO PUSH2 0x4751 JUMPI PUSH1 0x0 DUP1 REVERT JUMPDEST PUSH2 0x4761 DUP15 PUSH1 0x20 DUP16 ADD CALLDATALOAD DUP16 ADD PUSH2 0x46C4 JUMP JUMPDEST SWAP1 SWAP12 POP SWAP10 POP PUSH1 0x40 DUP14 ADD CALLDATALOAD DUP2 LT ISZERO PUSH2 0x4777 JUMPI PUSH1 0x0 DUP1 REVERT JUMPDEST PUSH2 0x4787 DUP15 PUSH1 0x40 DUP16 ADD CALLDATALOAD DUP16 ADD PUSH2 0x46C4 JUMP JUMPDEST SWAP1 SWAP10 POP SWAP8 POP PUSH1 0x60 DUP14 ADD CALLDATALOAD DUP2 LT ISZERO PUSH2 0x479D JUMPI PUSH1 0x0 DUP1 REVERT JUMPDEST PUSH2 0x47AD DUP15 PUSH1 0x60 DUP16 ADD CALLDATALOAD DUP16 ADD PUSH2 0x46C4 JUMP JUMPDEST SWAP1 SWAP8 POP SWAP6 POP PUSH1 0x80 DUP14 ADD CALLDATALOAD DUP2 LT ISZERO PUSH2 0x47C3 JUMPI PUSH1 0x0 DUP1 REVERT JUMPDEST PUSH2 0x47D3 DUP15 PUSH1 0x80 DUP16 ADD CALLDATALOAD DUP16 ADD PUSH2 0x46C4 JUMP JUMPDEST SWAP1 SWAP6 POP SWAP4 POP PUSH1 0xA0 DUP14 ADD CALLDATALOAD DUP2 LT ISZERO PUSH2 0x47E9 JUMPI PUSH1 0x0 DUP1 REVERT JUMPDEST POP PUSH2 0x47FA DUP14 PUSH1 0xA0 DUP15 ADD CALLDATALOAD DUP15 ADD PUSH2 0x46C4 JUMP JUMPDEST DUP2 SWAP4 POP DUP1 SWAP3 POP POP POP SWAP3 SWAP6 SWAP9 SWAP12 POP SWAP3 SWAP6 SWAP9 SWAP12 SWAP1 SWAP4 SWAP7 SWAP10 POP JUMP JUMPDEST PUSH1 0x0 DUP2 MLOAD DUP1 DUP5 MSTORE PUSH1 0x0 JUMPDEST DUP2 DUP2 LT ISZERO PUSH2 0x4838 JUMPI PUSH1 0x20 DUP2 DUP6 ADD DUP2 ADD MLOAD DUP7 DUP4 ADD DUP3 ADD MSTORE ADD PUSH2 0x481C JUMP JUMPDEST POP PUSH1 0x0 PUSH1 0x20 DUP3 DUP7 ADD ADD MSTORE PUSH1 0x20 PUSH1 0x1F NOT PUSH1 0x1F DUP4 ADD AND DUP6 ADD ADD SWAP2 POP POP SWAP3 SWAP2 POP POP JUMP JUMPDEST PUSH1 0xA0 DUP2 MSTORE PUSH1 0x0 PUSH2 0x486B PUSH1 0xA0 DUP4 ADD DUP9 PUSH2 0x4812 JUMP JUMPDEST DUP3 DUP2 SUB PUSH1 0x20 DUP5 ADD MSTORE PUSH2 0x487D DUP2 DUP9 PUSH2 0x4812 JUMP JUMPDEST SWAP1 POP DUP3 DUP2 SUB PUSH1 0x40 DUP5 ADD MSTORE PUSH2 0x4891 DUP2 DUP8 PUSH2 0x4812 JUMP JUMPDEST SWAP1 POP DUP3 DUP2 SUB PUSH1 0x60 DUP5 ADD MSTORE PUSH2 0x48A5 DUP2 DUP7 PUSH2 0x4812 JUMP JUMPDEST SWAP1 POP DUP3 DUP2 SUB PUSH1 0x80 DUP5 ADD MSTORE PUSH2 0x45FA DUP2 DUP6 PUSH2 0x4812 JUMP JUMPDEST PUSH1 0x0 DUP3 PUSH1 0x1F DUP4 ADD SLT PUSH2 0x48CA JUMPI PUSH1 0x0 DUP1 REVERT JUMPDEST DUP2 CALLDATALOAD PUSH1 0x1 PUSH1 0x1 PUSH1 0x40 SHL SUB DUP2 GT ISZERO PUSH2 0x48E3 JUMPI PUSH2 0x48E3 PUSH2 0x4427 JUMP JUMPDEST PUSH2 0x48F6 PUSH1 0x1F DUP3 ADD PUSH1 0x1F NOT AND PUSH1 0x20 ADD PUSH2 0x443D JUMP JUMPDEST DUP2 DUP2 MSTORE DUP5 PUSH1 0x20 DUP4 DUP7 ADD ADD GT ISZERO PUSH2 0x490B JUMPI PUSH1 0x0 DUP1 REVERT JUMPDEST DUP2 PUSH1 0x20 DUP6 ADD PUSH1 0x20 DUP4 ADD CALLDATACOPY PUSH1 0x0 SWAP2 DUP2 ADD PUSH1 0x20 ADD SWAP2 SWAP1 SWAP2 MSTORE SWAP4 SWAP3 POP POP POP JUMP JUMPDEST PUSH1 0x0 DUP1 PUSH1 0x0 DUP1 PUSH1 0x0 PUSH1 0xA0 DUP7 DUP9 SUB SLT ISZERO PUSH2 0x4940 JUMPI PUSH1 0x0 DUP1 REVERT JUMPDEST DUP6 CALLDATALOAD PUSH1 0x1 PUSH1 0x1 PUSH1 0x40 SHL SUB DUP1 DUP3 GT ISZERO PUSH2 0x4957 JUMPI PUSH1 0x0 DUP1 REVERT JUMPDEST PUSH2 0x4963 DUP10 DUP4 DUP11 ADD PUSH2 0x48B9 JUMP JUMPDEST SWAP7 POP PUSH1 0x20 DUP9 ADD CALLDATALOAD SWAP2 POP DUP1 DUP3 GT ISZERO PUSH2 0x4979 JUMPI PUSH1 0x0 DUP1 REVERT JUMPDEST PUSH2 0x4985 DUP10 DUP4 DUP11 ADD PUSH2 0x48B9 JUMP JUMPDEST SWAP6 POP PUSH1 0x40 DUP9 ADD CALLDATALOAD SWAP2 POP DUP1 DUP3 GT ISZERO PUSH2 0x499B JUMPI PUSH1 0x0 DUP1 REVERT JUMPDEST PUSH2 0x49A7 DUP10 DUP4 DUP11 ADD PUSH2 0x48B9 JUMP JUMPDEST SWAP5 POP PUSH1 0x60 DUP9 ADD CALLDATALOAD SWAP2 POP DUP1 DUP3 GT ISZERO PUSH2 0x49BD JUMPI PUSH1 0x0 DUP1 REVERT JUMPDEST PUSH2 0x49C9 DUP10 DUP4 DUP11 ADD PUSH2 0x48B9 JUMP JUMPDEST SWAP4 POP PUSH1 0x80 DUP9 ADD CALLDATALOAD SWAP2 POP DUP1 DUP3 GT ISZERO PUSH2 0x49DF JUMPI PUSH1 0x0 DUP1 REVERT JUMPDEST POP PUSH2 0x49EC DUP9 DUP3 DUP10 ADD PUSH2 0x48B9 JUMP JUMPDEST SWAP2 POP POP SWAP3 SWAP6 POP SWAP3 SWAP6 SWAP1 SWAP4 POP JUMP JUMPDEST PUSH1 0x0 DUP1 PUSH1 0x40 DUP4 DUP6 SUB SLT ISZERO PUSH2 0x4A0C JUMPI PUSH1 0x0 DUP1 REVERT JUMPDEST DUP3 CALLDATALOAD PUSH1 0x1 PUSH1 0x1 PUSH1 0x40 SHL SUB DUP1 DUP3 GT ISZERO PUSH2 0x4A23 JUMPI PUSH1 0x0 DUP1 REVERT JUMPDEST PUSH2 0x4A2F DUP7 DUP4 DUP8 ADD PUSH2 0x4490 JUMP JUMPDEST SWAP4 POP PUSH1 0x20 SWAP2 POP DUP2 DUP6 ADD CALLDATALOAD DUP2 DUP2 GT ISZERO PUSH2 0x4A46 JUMPI PUSH1 0x0 DUP1 REVERT JUMPDEST DUP6 ADD PUSH1 0x1F DUP2 ADD DUP8 SGT PUSH2 0x4A57 JUMPI PUSH1 0x0 DUP1 REVERT JUMPDEST DUP1 CALLDATALOAD PUSH2 0x4A65 PUSH2 0x44B1 DUP3 PUSH2 0x446D JUMP JUMPDEST DUP2 DUP2 MSTORE PUSH1 0x5 SWAP2 SWAP1 SWAP2 SHL DUP3 ADD DUP5 ADD SWAP1 DUP5 DUP2 ADD SWAP1 DUP10 DUP4 GT ISZERO PUSH2 0x4A84 JUMPI PUSH1 0x0 DUP1 REVERT JUMPDEST SWAP3 DUP6 ADD SWAP3 JUMPDEST DUP3 DUP5 LT ISZERO PUSH2 0x4AB1 JUMPI DUP4 CALLDATALOAD DUP6 DUP2 AND DUP2 EQ PUSH2 0x4AA2 JUMPI PUSH1 0x0 DUP1 DUP2 REVERT JUMPDEST DUP3 MSTORE SWAP3 DUP6 ADD SWAP3 SWAP1 DUP6 ADD SWAP1 PUSH2 0x4A89 JUMP JUMPDEST DUP1 SWAP7 POP POP POP POP POP POP POP SWAP3 POP SWAP3 SWAP1 POP JUMP JUMPDEST PUSH1 0x20 DUP1 DUP3 MSTORE PUSH1 0xC SWAP1 DUP3 ADD MSTORE PUSH12 0x139BDD081A5B9A5D081E595D PUSH1 0xA2 SHL PUSH1 0x40 DUP3 ADD MSTORE PUSH1 0x60 ADD SWAP1 JUMP JUMPDEST DUP2 DUP2 SUB DUP2 DUP2 GT ISZERO PUSH2 0x1289 JUMPI PUSH2 0x1289 PUSH2 0x4373 JUMP JUMPDEST DUP1 DUP3 MUL DUP2 ISZERO DUP3 DUP3 DIV DUP5 EQ OR PUSH2 0x1289 JUMPI PUSH2 0x1289 PUSH2 0x4373 JUMP JUMPDEST PUSH4 0x4E487B71 PUSH1 0xE0 SHL PUSH1 0x0 MSTORE PUSH1 0x12 PUSH1 0x4 MSTORE PUSH1 0x24 PUSH1 0x0 REVERT JUMPDEST PUSH1 0x0 DUP3 PUSH2 0x4B36 JUMPI PUSH2 0x4B36 PUSH2 0x4B11 JUMP JUMPDEST POP DIV SWAP1 JUMP JUMPDEST PUSH4 0x4E487B71 PUSH1 0xE0 SHL PUSH1 0x0 MSTORE PUSH1 0x32 PUSH1 0x4 MSTORE PUSH1 0x24 PUSH1 0x0 REVERT JUMPDEST PUSH1 0x0 PUSH1 0x1 DUP3 ADD PUSH2 0x4B63 JUMPI PUSH2 0x4B63 PUSH2 0x4373 JUMP JUMPDEST POP PUSH1 0x1 ADD SWAP1 JUMP JUMPDEST PUSH1 0x0 DUP3 PUSH2 0x4B79 JUMPI PUSH2 0x4B79 PUSH2 0x4B11 JUMP JUMPDEST POP MOD SWAP1 JUMP JUMPDEST PUSH1 0x0 PUSH1 0x20 DUP3 DUP5 SUB SLT ISZERO PUSH2 0x4B90 JUMPI PUSH1 0x0 DUP1 REVERT JUMPDEST DUP2 MLOAD DUP1 ISZERO ISZERO DUP2 EQ PUSH2 0x43CE JUMPI PUSH1 0x0 DUP1 REVERT JUMPDEST PUSH1 0x1 DUP2 DUP2 SHR SWAP1 DUP3 AND DUP1 PUSH2 0x4BB4 JUMPI PUSH1 0x7F DUP3 AND SWAP2 POP JUMPDEST PUSH1 0x20 DUP3 LT DUP2 SUB PUSH2 0x4BD4 JUMPI PUSH4 0x4E487B71 PUSH1 0xE0 SHL PUSH1 0x0 MSTORE PUSH1 0x22 PUSH1 0x4 MSTORE PUSH1 0x24 PUSH1 0x0 REVERT JUMPDEST POP SWAP2 SWAP1 POP JUMP JUMPDEST PUSH1 0x1F DUP3 GT ISZERO PUSH2 0x4C24 JUMPI PUSH1 0x0 DUP2 DUP2 MSTORE PUSH1 0x20 DUP2 KECCAK256 PUSH1 0x1F DUP6 ADD PUSH1 0x5 SHR DUP2 ADD PUSH1 0x20 DUP7 LT ISZERO PUSH2 0x4C01 JUMPI POP DUP1 JUMPDEST PUSH1 0x1F DUP6 ADD PUSH1 0x5 SHR DUP3 ADD SWAP2 POP JUMPDEST DUP2 DUP2 LT ISZERO PUSH2 0x4C20 JUMPI DUP3 DUP2 SSTORE PUSH1 0x1 ADD PUSH2 0x4C0D JUMP JUMPDEST POP POP POP JUMPDEST POP POP POP JUMP JUMPDEST DUP2 MLOAD PUSH1 0x1 PUSH1 0x1 PUSH1 0x40 SHL SUB DUP2 GT ISZERO PUSH2 0x4C42 JUMPI PUSH2 0x4C42 PUSH2 0x4427 JUMP JUMPDEST PUSH2 0x4C56 DUP2 PUSH2 0x4C50 DUP5 SLOAD PUSH2 0x4BA0 JUMP JUMPDEST DUP5 PUSH2 0x4BDA JUMP JUMPDEST PUSH1 0x20 DUP1 PUSH1 0x1F DUP4 GT PUSH1 0x1 DUP2 EQ PUSH2 0x4C8B JUMPI PUSH1 0x0 DUP5 ISZERO PUSH2 0x4C73 JUMPI POP DUP6 DUP4 ADD MLOAD JUMPDEST PUSH1 0x0 NOT PUSH1 0x3 DUP7 SWAP1 SHL SHR NOT AND PUSH1 0x1 DUP6 SWAP1 SHL OR DUP6 SSTORE PUSH2 0x4C20 JUMP JUMPDEST PUSH1 0x0 DUP6 DUP2 MSTORE PUSH1 0x20 DUP2 KECCAK256 PUSH1 0x1F NOT DUP7 AND SWAP2 JUMPDEST DUP3 DUP2 LT ISZERO PUSH2 0x4CBA JUMPI DUP9 DUP7 ADD MLOAD DUP3 SSTORE SWAP5 DUP5 ADD SWAP5 PUSH1 0x1 SWAP1 SWAP2 ADD SWAP1 DUP5 ADD PUSH2 0x4C9B JUMP JUMPDEST POP DUP6 DUP3 LT ISZERO PUSH2 0x4CD8 JUMPI DUP8 DUP6 ADD MLOAD PUSH1 0x0 NOT PUSH1 0x3 DUP9 SWAP1 SHL PUSH1 0xF8 AND SHR NOT AND DUP2 SSTORE JUMPDEST POP POP POP POP POP PUSH1 0x1 SWAP1 DUP2 SHL ADD SWAP1 SSTORE POP JUMP JUMPDEST DUP5 DUP2 MSTORE PUSH1 0x0 PUSH1 0x20 DUP6 DUP2 DUP5 ADD MSTORE PUSH1 0x80 PUSH1 0x40 DUP5 ADD MSTORE PUSH2 0x4D08 PUSH1 0x80 DUP5 ADD DUP7 PUSH2 0x455E JUMP JUMPDEST DUP4 DUP2 SUB PUSH1 0x60 DUP6 ADD MSTORE DUP5 MLOAD DUP1 DUP3 MSTORE DUP3 DUP7 ADD SWAP2 DUP4 ADD SWAP1 PUSH1 0x0 JUMPDEST DUP2 DUP2 LT ISZERO PUSH2 0x4D44 JUMPI DUP4 MLOAD PUSH1 0x1 PUSH1 0x1 PUSH1 0x40 SHL SUB AND DUP4 MSTORE SWAP3 DUP5 ADD SWAP3 SWAP2 DUP5 ADD SWAP2 PUSH1 0x1 ADD PUSH2 0x4D1F JUMP JUMPDEST POP SWAP1 SWAP10 SWAP9 POP POP POP POP POP POP POP POP POP JUMP JUMPDEST PUSH4 0x4E487B71 PUSH1 0xE0 SHL PUSH1 0x0 MSTORE PUSH1 0x31 PUSH1 0x4 MSTORE PUSH1 0x24 PUSH1 0x0 REVERT INVALID LOG2 PUSH5 0x6970667358 0x22 SLT KECCAK256 0xC7 LOG3 MLOAD MSIZE 0xF8 MOD CHAINID POP PUSH22 0xD0453D03F5EF103361E5630D623FBB33B6E51F72A228 PUSH18 0x64736F6C6343000811003300000000000000 "},"methodIdentifiers":{"MaxValidators()":"c967f90f","MinimalStakingCoin()":"be645692","ProposalAddr()":"6233be5d","PunishContractAddr()":"1b5e358c","StakingLockPeriod()":"db78dd28","ValidatorContractAddr()":"3a061bd3","burnPartPercent()":"37dbc8cc","burnStopAmount()":"9d7714ce","contractCreator(address)":"d571770c","contractPartPercent()":"fca737c0","createOrEditValidator(address,string,string,string,string,string)":"a406fcb7","currentValidatorSet(uint256)":"6969a25c","distributeBlockReward(address[],uint64[])":"bb1c0310","extraRewardsPerBlock()":"8ae53dbd","getActiveValidators()":"9de70258","getStakingInfo(address,address)":"7f4f95fa","getTopValidators()":"afeea115","getTotalStakeOfActiveValidators()":"c253c384","getValidatorDescription(address)":"a43569b3","getValidatorInfo(address)":"8a11d7c9","highestValidatorsSet(uint256)":"4b3d500b","initialize(address[])":"a224cee7","initialized()":"158ef93e","isActiveValidator(address)":"40550a1c","isTopValidator(address)":"98e3b626","lastRewardTime(address)":"3b5d441e","minimumValidatorStaking()":"0976c65d","reflectionPercentSum(address,uint256)":"92f2c437","removeValidator(address)":"40a141ff","removeValidatorIncoming(address)":"5dd09590","rewardFund()":"efe22266","setContractCreator(address)":"bd10ba76","stake(address)":"26476204","stakeTime(address,address)":"01aec704","stakerPartPercent()":"cd779d21","totalBurnt()":"966ff650","totalJailedHB()":"1303f7cf","totalRewards()":"0e15561a","totalStake()":"8b0e9f3f","tryReactive(address)":"82bd3d92","unstake(address)":"f2888dbb","updateActiveValidatorSet(address[],uint256)":"6846992a","validateDescription(string,string,string,string,string)":"b6c88519","validatorPartPercent()":"42127ee7","viewStakeReward(address,address)":"3ae898ca","withdrawProfits(address)":"00362a77","withdrawStaking(address)":"222d3b05","withdrawStakingReward(address)":"72d30a70"}}}}}