{
  "_format": "hh-sol-artifact-1",
  "contractName": "ValidatorHelper",
  "sourceName": "contracts/ValidatorHelper.sol",
  "abi": [
    {
      "anonymous": false,
      "inputs": [
        {
          "indexed": true,
          "internalType": "address",
          "name": "previousOwner",
          "type": "address"
        },
        {
          "indexed": true,
          "internalType": "address",
          "name": "newOwner",
          "type": "address"
        }
      ],
      "name": "OwnershipTransferred",
      "type": "event"
    },
    {
      "anonymous": false,
      "inputs": [
        {
          "indexed": false,
          "internalType": "address",
          "name": "validator",
          "type": "address"
        },
        {
          "indexed": false,
          "internalType": "uint256",
          "name": "amount",
          "type": "uint256"
        },
        {
          "indexed": false,
          "internalType": "uint256",
          "name": "timestamp",
          "type": "uint256"
        }
      ],
      "name": "Stake",
      "type": "event"
    },
    {
      "anonymous": false,
      "inputs": [
        {
          "indexed": false,
          "internalType": "address",
          "name": "validator",
          "type": "address"
        },
        {
          "indexed": false,
          "internalType": "uint256",
          "name": "timestamp",
          "type": "uint256"
        }
      ],
      "name": "Unstake",
      "type": "event"
    },
    {
      "anonymous": false,
      "inputs": [
        {
          "indexed": false,
          "internalType": "address",
          "name": "validator",
          "type": "address"
        },
        {
          "indexed": false,
          "internalType": "uint256",
          "name": "amount",
          "type": "uint256"
        },
        {
          "indexed": false,
          "internalType": "uint256",
          "name": "timestamp",
          "type": "uint256"
        }
      ],
      "name": "WithdrawProfit",
      "type": "event"
    },
    {
      "inputs": [
        {
          "internalType": "uint256",
          "name": "amount",
          "type": "uint256"
        }
      ],
      "name": "changeMinimumValidatorStaking",
      "outputs": [],
      "stateMutability": "nonpayable",
      "type": "function"
    },
    {
      "inputs": [
        {
          "internalType": "address",
          "name": "user",
          "type": "address"
        }
      ],
      "name": "checkValidator",
      "outputs": [
        {
          "internalType": "bool",
          "name": "",
          "type": "bool"
        }
      ],
      "stateMutability": "view",
      "type": "function"
    },
    {
      "inputs": [
        {
          "internalType": "address payable",
          "name": "feeAddr",
          "type": "address"
        },
        {
          "internalType": "string",
          "name": "moniker",
          "type": "string"
        },
        {
          "internalType": "string",
          "name": "identity",
          "type": "string"
        },
        {
          "internalType": "string",
          "name": "website",
          "type": "string"
        },
        {
          "internalType": "string",
          "name": "email",
          "type": "string"
        },
        {
          "internalType": "string",
          "name": "details",
          "type": "string"
        }
      ],
      "name": "createOrEditValidator",
      "outputs": [
        {
          "internalType": "bool",
          "name": "",
          "type": "bool"
        }
      ],
      "stateMutability": "payable",
      "type": "function"
    },
    {
      "inputs": [],
      "name": "extraRewardsPerBlock",
      "outputs": [
        {
          "internalType": "uint256",
          "name": "",
          "type": "uint256"
        }
      ],
      "stateMutability": "view",
      "type": "function"
    },
    {
      "inputs": [],
      "name": "getAllValidatorInfo",
      "outputs": [
        {
          "internalType": "uint256",
          "name": "totalValidatorCount",
          "type": "uint256"
        },
        {
          "internalType": "uint256",
          "name": "totalStakedCoins",
          "type": "uint256"
        },
        {
          "internalType": "address[]",
          "name": "",
          "type": "address[]"
        },
        {
          "internalType": "enum InterfaceValidator.Status[]",
          "name": "",
          "type": "uint8[]"
        },
        {
          "internalType": "uint256[]",
          "name": "",
          "type": "uint256[]"
        },
        {
          "internalType": "string[]",
          "name": "",
          "type": "string[]"
        },
        {
          "internalType": "string[]",
          "name": "",
          "type": "string[]"
        }
      ],
      "stateMutability": "view",
      "type": "function"
    },
    {
      "inputs": [],
      "name": "lastRewardedBlock",
      "outputs": [
        {
          "internalType": "uint256",
          "name": "",
          "type": "uint256"
        }
      ],
      "stateMutability": "view",
      "type": "function"
    },
    {
      "inputs": [],
      "name": "minimumStakingAmount",
      "outputs": [
        {
          "internalType": "uint256",
          "name": "",
          "type": "uint256"
        }
      ],
      "stateMutability": "view",
      "type": "function"
    },
    {
      "inputs": [],
      "name": "minimumValidatorStaking",
      "outputs": [
        {
          "internalType": "uint256",
          "name": "",
          "type": "uint256"
        }
      ],
      "stateMutability": "view",
      "type": "function"
    },
    {
      "inputs": [],
      "name": "owner",
      "outputs": [
        {
          "internalType": "address",
          "name": "",
          "type": "address"
        }
      ],
      "stateMutability": "view",
      "type": "function"
    },
    {
      "inputs": [],
      "name": "renounceOwnership",
      "outputs": [],
      "stateMutability": "nonpayable",
      "type": "function"
    },
    {
      "inputs": [],
      "name": "rescueCoins",
      "outputs": [],
      "stateMutability": "nonpayable",
      "type": "function"
    },
    {
      "inputs": [
        {
          "internalType": "address",
          "name": "",
          "type": "address"
        }
      ],
      "name": "rewardBalance",
      "outputs": [
        {
          "internalType": "uint256",
          "name": "",
          "type": "uint256"
        }
      ],
      "stateMutability": "view",
      "type": "function"
    },
    {
      "inputs": [],
      "name": "rewardFund",
      "outputs": [
        {
          "internalType": "uint256",
          "name": "",
          "type": "uint256"
        }
      ],
      "stateMutability": "view",
      "type": "function"
    },
    {
      "inputs": [
        {
          "internalType": "address",
          "name": "user",
          "type": "address"
        },
        {
          "internalType": "address",
          "name": "validatorAddress",
          "type": "address"
        }
      ],
      "name": "stakingValidations",
      "outputs": [
        {
          "internalType": "uint256",
          "name": "minimumStakingAmt",
          "type": "uint256"
        },
        {
          "internalType": "uint256",
          "name": "stakingWaiting",
          "type": "uint256"
        }
      ],
      "stateMutability": "view",
      "type": "function"
    },
    {
      "inputs": [
        {
          "internalType": "address",
          "name": "validator",
          "type": "address"
        }
      ],
      "name": "totalProfitEarned",
      "outputs": [
        {
          "internalType": "uint256",
          "name": "",
          "type": "uint256"
        }
      ],
      "stateMutability": "view",
      "type": "function"
    },
    {
      "inputs": [
        {
          "internalType": "address",
          "name": "",
          "type": "address"
        }
      ],
      "name": "totalProfitWithdrawn",
      "outputs": [
        {
          "internalType": "uint256",
          "name": "",
          "type": "uint256"
        }
      ],
      "stateMutability": "view",
      "type": "function"
    },
    {
      "inputs": [
        {
          "internalType": "address",
          "name": "newOwner",
          "type": "address"
        }
      ],
      "name": "transferOwnership",
      "outputs": [],
      "stateMutability": "nonpayable",
      "type": "function"
    },
    {
      "inputs": [
        {
          "internalType": "address",
          "name": "validator",
          "type": "address"
        }
      ],
      "name": "unstake",
      "outputs": [
        {
          "internalType": "bool",
          "name": "",
          "type": "bool"
        }
      ],
      "stateMutability": "nonpayable",
      "type": "function"
    },
    {
      "inputs": [],
      "name": "valContract",
      "outputs": [
        {
          "internalType": "contract InterfaceValidator",
          "name": "",
          "type": "address"
        }
      ],
      "stateMutability": "view",
      "type": "function"
    },
    {
      "inputs": [
        {
          "internalType": "address",
          "name": "validatorAddress",
          "type": "address"
        },
        {
          "internalType": "address",
          "name": "user",
          "type": "address"
        }
      ],
      "name": "validatorSpecificInfo1",
      "outputs": [
        {
          "internalType": "string",
          "name": "identityName",
          "type": "string"
        },
        {
          "internalType": "string",
          "name": "website",
          "type": "string"
        },
        {
          "internalType": "string",
          "name": "otherDetails",
          "type": "string"
        },
        {
          "internalType": "uint256",
          "name": "withdrawableRewards",
          "type": "uint256"
        },
        {
          "internalType": "uint256",
          "name": "stakedCoins",
          "type": "uint256"
        },
        {
          "internalType": "uint256",
          "name": "waitingBlocksForUnstake",
          "type": "uint256"
        }
      ],
      "stateMutability": "view",
      "type": "function"
    },
    {
      "inputs": [
        {
          "internalType": "address",
          "name": "validatorAddress",
          "type": "address"
        },
        {
          "internalType": "address",
          "name": "user",
          "type": "address"
        }
      ],
      "name": "validatorSpecificInfo2",
      "outputs": [
        {
          "internalType": "uint256",
          "name": "totalStakedCoins",
          "type": "uint256"
        },
        {
          "internalType": "enum InterfaceValidator.Status",
          "name": "status",
          "type": "uint8"
        },
        {
          "internalType": "uint256",
          "name": "selfStakedCoins",
          "type": "uint256"
        },
        {
          "internalType": "uint256",
          "name": "masterVoters",
          "type": "uint256"
        },
        {
          "internalType": "uint256",
          "name": "stakers",
          "type": "uint256"
        },
        {
          "internalType": "address",
          "name": "",
          "type": "address"
        }
      ],
      "stateMutability": "view",
      "type": "function"
    },
    {
      "inputs": [
        {
          "internalType": "address",
          "name": "validator",
          "type": "address"
        }
      ],
      "name": "viewValidatorRewards",
      "outputs": [
        {
          "internalType": "uint256",
          "name": "rewardAmount",
          "type": "uint256"
        }
      ],
      "stateMutability": "view",
      "type": "function"
    },
    {
      "inputs": [
        {
          "internalType": "address",
          "name": "user",
          "type": "address"
        },
        {
          "internalType": "address",
          "name": "validator",
          "type": "address"
        }
      ],
      "name": "waitingUnstaking",
      "outputs": [
        {
          "internalType": "uint256",
          "name": "",
          "type": "uint256"
        }
      ],
      "stateMutability": "view",
      "type": "function"
    },
    {
      "inputs": [
        {
          "internalType": "address",
          "name": "user",
          "type": "address"
        },
        {
          "internalType": "address",
          "name": "validatorAddress",
          "type": "address"
        }
      ],
      "name": "waitingWithdrawProfit",
      "outputs": [
        {
          "internalType": "uint256",
          "name": "",
          "type": "uint256"
        }
      ],
      "stateMutability": "view",
      "type": "function"
    },
    {
      "inputs": [
        {
          "internalType": "address",
          "name": "user",
          "type": "address"
        },
        {
          "internalType": "address",
          "name": "validatorAddress",
          "type": "address"
        }
      ],
      "name": "waitingWithdrawStaking",
      "outputs": [
        {
          "internalType": "uint256",
          "name": "",
          "type": "uint256"
        }
      ],
      "stateMutability": "view",
      "type": "function"
    },
    {
      "inputs": [
        {
          "internalType": "address",
          "name": "validator",
          "type": "address"
        }
      ],
      "name": "withdrawStakingReward",
      "outputs": [],
      "stateMutability": "nonpayable",
      "type": "function"
    },
    {
      "stateMutability": "payable",
      "type": "receive"
    }
  ],
  "bytecode": "0x6080604052600180546001600160a01b03191661f00017905569d3c21bcecceda1000000600255670de0b6b3a764000060045534801561003e57600080fd5b506100483361004d565b61009d565b600080546001600160a01b038381166001600160a01b0319831681178455604051919092169283917f8be0079c531659141344cd1fd0a4f28419497f9722a3daafe3b4186f6b6457e09190a35050565b61210d806100ac6000396000f3fe6080604052600436106101855760003560e01c80638ae53dbd116100d1578063b0d2d0111161008a578063efe2226611610064578063efe2226614610483578063f188df2b14610499578063f2888dbb146104c6578063f2fde38b146104e657600080fd5b8063b0d2d01114610419578063d4aa673b1461042e578063e1b6d9d41461044e57600080fd5b80638ae53dbd146103575780638da5cb5b1461036d57806390efe56d1461039f578063a406fcb7146103d1578063afbbc803146103e4578063b08061081461040457600080fd5b806358ae4e991161013e578063715018a611610118578063715018a6146102d157806372d30a70146102e6578063797327ae146103065780637fc5e1e51461033757600080fd5b806358ae4e99146101d2578063648779811461027257806367b40cf7146102a457600080fd5b80630976c65d146101a957806314306168146101d25780631d06022c146101f25780631e724caa146102145780633f8dc65a146102345780634cc67b5b1461025c57600080fd5b366101a457346005600082825461019c91906117c9565b925050819055005b600080fd5b3480156101b557600080fd5b506101bf60025481565b6040519081526020015b60405180910390f35b3480156101de57600080fd5b506101bf6101ed3660046117f1565b610506565b3480156101fe57600080fd5b5061021261020d36600461182a565b61050f565b005b34801561022057600080fd5b506101bf61022f366004611843565b61051c565b34801561024057600080fd5b50610249610716565b6040516101c997969594939291906119af565b34801561026857600080fd5b506101bf60035481565b34801561027e57600080fd5b5061029261028d3660046117f1565b610bb7565b6040516101c996959493929190611a60565b3480156102b057600080fd5b506101bf6102bf366004611843565b60066020526000908152604090205481565b3480156102dd57600080fd5b50610212610ce1565b3480156102f257600080fd5b50610212610301366004611843565b610cf5565b34801561031257600080fd5b50610327610321366004611843565b50600190565b60405190151581526020016101c9565b34801561034357600080fd5b506101bf610352366004611843565b610ef0565b34801561036357600080fd5b506101bf60045481565b34801561037957600080fd5b506000546001600160a01b03165b6040516001600160a01b0390911681526020016101c9565b3480156103ab57600080fd5b506103bf6103ba3660046117f1565b610f1e565b6040516101c996959493929190611aa1565b6103276103df366004611b4a565b61106b565b3480156103f057600080fd5b50600154610387906001600160a01b031681565b34801561041057600080fd5b506102126111c0565b34801561042557600080fd5b506101bf61120e565b34801561043a57600080fd5b506101bf6104493660046117f1565b611281565b34801561045a57600080fd5b5061046e6104693660046117f1565b61143e565b604080519283526020830191909152016101c9565b34801561048f57600080fd5b506101bf60055481565b3480156104a557600080fd5b506101bf6104b4366004611843565b60076020526000908152604090205481565b3480156104d257600080fd5b506103276104e1366004611843565b6114ce565b3480156104f257600080fd5b50610212610501366004611843565b611589565b60005b92915050565b6105176115ff565b600255565b600154604051638a11d7c960e01b81526001600160a01b0383811660048301526000928392911690638a11d7c990602401600060405180830381865afa15801561056a573d6000803e3d6000fd5b505050506040513d6000823e601f3d908101601f191682016040526105929190810190611d1e565b50929450600493506105a392505050565b8160048111156105b5576105b5611860565b14806105d2575060008160048111156105d0576105d0611860565b145b806105ee575060018160048111156105ec576105ec611860565b145b156105fc5750600092915050565b60045460055410158015610611575060045447115b801561062f5750600381600481111561062c5761062c611860565b14155b156106eb576001546040805163afeea11560e01b815290516000926001600160a01b03169163afeea11591600480830192869291908290030181865afa15801561067d573d6000803e3d6000fd5b505050506040513d6000823e601f3d908101601f191682016040526106a59190810190611da2565b80516003549192509081906106ba9043611dde565b106106e85780600454600354436106d19190611dde565b6106db9190611df1565b6106e59190611e08565b93505b50505b6001600160a01b03831660009081526006602052604090205461070f9083906117c9565b9392505050565b60008060608060608060606000600160009054906101000a90046001600160a01b03166001600160a01b031663afeea1156040518163ffffffff1660e01b8152600401600060405180830381865afa158015610776573d6000803e3d6000fd5b505050506040513d6000823e601f3d908101601f1916820160405261079e9190810190611da2565b8051909150600080826001600160401b038111156107be576107be611c50565b6040519080825280602002602001820160405280156107e7578160200160208202803683370190505b5090506000836001600160401b0381111561080457610804611c50565b60405190808252806020026020018201604052801561082d578160200160208202803683370190505b5090506000846001600160401b0381111561084a5761084a611c50565b60405190808252806020026020018201604052801561087d57816020015b60608152602001906001900390816108685790505b5090506000856001600160401b0381111561089a5761089a611c50565b6040519080825280602002602001820160405280156108cd57816020015b60608152602001906001900390816108b85790505b50905060005b868160ff161015610b1c57600154885160009182916001600160a01b0390911690638a11d7c9908c9060ff871690811061090f5761090f611e2a565b60200260200101516040518263ffffffff1660e01b815260040161094291906001600160a01b0391909116815260200190565b600060405180830381865afa15801561095f573d6000803e3d6000fd5b505050506040513d6000823e601f3d908101601f191682016040526109879190810190611d1e565b50505092509250506000811115610af9576001548a5160009182916001600160a01b039091169063a43569b3908e9060ff89169081106109c9576109c9611e2a565b60200260200101516040518263ffffffff1660e01b81526004016109fc91906001600160a01b0391909116815260200190565b600060405180830381865afa158015610a19573d6000803e3d6000fd5b505050506040513d6000823e601f3d908101601f19168201604052610a419190810190611ea3565b5050925092505083898660ff1681518110610a5e57610a5e611e2a565b60200260200101906004811115610a7757610a77611860565b90816004811115610a8a57610a8a611860565b8152505082888660ff1681518110610aa457610aa4611e2a565b60200260200101818152505081878660ff1681518110610ac657610ac6611e2a565b602002602001018190525080868660ff1681518110610ae757610ae7611e2a565b60200260200101819052505050610b07565b610b046001896117c9565b97505b50508080610b1490611f74565b9150506108d3565b50610b278587611dde565b600160009054906101000a90046001600160a01b03166001600160a01b0316638b0e9f3f6040518163ffffffff1660e01b8152600401602060405180830381865afa158015610b7a573d6000803e3d6000fd5b505050506040513d601f19601f82011682018060405250810190610b9e9190611f93565b909f909e50969c50929a50909850965094509192505050565b600154604051638a11d7c960e01b81526001600160a01b038481166004830152600092839283928392839283926060921690638a11d7c990602401600060405180830381865afa158015610c0f573d6000803e3d6000fd5b505050506040513d6000823e601f3d908101601f19168201604052610c379190810190611d1e565b600154604051633fa7cafd60e11b8152949d50949b509550506001600160a01b039092169250637f4f95fa9150610c89908c9081906004016001600160a01b0392831681529116602082015260400190565b606060405180830381865afa158015610ca6573d6000803e3d6000fd5b505050506040513d601f19601f82011682018060405250810190610cca9190611fac565b505090519699959850966000969590945092505050565b610ce96115ff565b610cf36000611659565b565b6001600160a01b0381163214610d525760405162461bcd60e51b815260206004820152601f60248201527f63616c6c65722073686f756c64206265207265616c2076616c696461746f720060448201526064015b60405180910390fd5b6000610d5d8261051c565b905060008111610da55760405162461bcd60e51b81526020600482015260136024820152724e6f7468696e6720746f20776974686472617760681b6044820152606401610d49565b610dad6116a9565b60015460405162362a7760e01b81526001600160a01b0384811660048301529091169062362a77906024016020604051808303816000875af1158015610df7573d6000803e3d6000fd5b505050506040513d601f19601f82011682018060405250810190610e1b9190611fda565b508060056000828254610e2e9190611dde565b90915550506001600160a01b0382166000908152600660209081526040808320839055600790915281208054839290610e689084906117c9565b90915550506040516001600160a01b0383169082156108fc029083906000818181858888f19350505050158015610ea3573d6000803e3d6000fd5b50604080516001600160a01b038416815260208101839052428183015290517f66f79629c03cd92f64c49d27760e90fd00ebc6f4ab63c8e3553228d9f62b3c019181900360600190a15050565b6000610efb8261051c565b6001600160a01b03831660009081526007602052604090205461050991906117c9565b60015460405163a43569b360e01b81526001600160a01b03848116600483015260609283928392600092839283928392839283929091169063a43569b390602401600060405180830381865afa158015610f7c573d6000803e3d6000fd5b505050506040513d6000823e601f3d908101601f19168201604052610fa49190810190611ea3565b600154604051633fa7cafd60e11b8152949850929650945060009350506001600160a01b031690637f4f95fa90610ff6908f9081906004016001600160a01b0392831681529116602082015260400190565b606060405180830381865afa158015611013573d6000803e3d6000fd5b505050506040513d601f19601f820116820180604052508101906110379190611fac565b50909650905080156110495760009594505b8383836110558f61051c565b9950995099509950505050509295509295509295565b60006110756116a9565b6002543410156110d65760405162461bcd60e51b815260206004820152602660248201527f506c65617365207374616b65206d696e696d756d2076616c696461746f72207360448201526574616b696e6760d01b6064820152608401610d49565b600160009054906101000a90046001600160a01b03166001600160a01b031663a406fcb7348e8e8e8e8e8e8e8e8e8e8e6040518d63ffffffff1660e01b815260040161112c9b9a99989796959493929190612025565b60206040518083038185885af115801561114a573d6000803e3d6000fd5b50505050506040513d601f19601f8201168201806040525081019061116f9190611fda565b5060408051338152346020820152428183015290517f5af417134f72a9d41143ace85b0a26dce6f550f894f2cbc1eeee8810603d91b69181900360600190a15060019b9a5050505050505050505050565b6111c86115ff565b47600560008282546111da9190611dde565b909155505060405133904780156108fc02916000818181858888f1935050505015801561120b573d6000803e3d6000fd5b50565b60015460408051635f322b4960e11b815290516000926001600160a01b03169163be6456929160048083019260209291908290030181865afa158015611258573d6000803e3d6000fd5b505050506040513d601f19601f8201168201806040525081019061127c9190611f93565b905090565b600154604051633fa7cafd60e11b81526001600160a01b03848116600483015283811660248301526000928392911690637f4f95fa90604401606060405180830381865afa1580156112d7573d6000803e3d6000fd5b505050506040513d601f19601f820116820180604052508101906112fb9190611fac565b5091505080600003611311576000915050610509565b60015460408051631b6f1ba560e31b8152905143926001600160a01b03169163db78dd289160048083019260209291908290030181865afa15801561135a573d6000803e3d6000fd5b505050506040513d601f19601f8201168201806040525081019061137e91906120ae565b611391906001600160401b0316836117c9565b11156114345760015460408051631b6f1ba560e31b8152905143926001600160a01b03169163db78dd289160048083019260209291908290030181865afa1580156113e0573d6000803e3d6000fd5b505050506040513d601f19601f8201168201806040525081019061140491906120ae565b611417906001600160401b0316836117c9565b6114219190611dde565b61142c906002611df1565b915050610509565b5060009392505050565b600080600160009054906101000a90046001600160a01b03166001600160a01b031663be6456926040518163ffffffff1660e01b8152600401602060405180830381865afa158015611494573d6000803e3d6000fd5b505050506040513d601f19601f820116820180604052508101906114b89190611f93565b6114c28585611281565b915091505b9250929050565b60006114d86116a9565b60015460405163f2888dbb60e01b81526001600160a01b0384811660048301529091169063f2888dbb906024016020604051808303816000875af1158015611524573d6000803e3d6000fd5b505050506040513d601f19601f820116820180604052508101906115489190611fda565b50604080513381524260208201527f85082129d87b2fe11527cb1b3b7a520aeb5aa6913f88a3d8757fe40d1db02fdd910160405180910390a1506001919050565b6115916115ff565b6001600160a01b0381166115f65760405162461bcd60e51b815260206004820152602660248201527f4f776e61626c653a206e6577206f776e657220697320746865207a65726f206160448201526564647265737360d01b6064820152608401610d49565b61120b81611659565b6000546001600160a01b03163314610cf35760405162461bcd60e51b815260206004820181905260248201527f4f776e61626c653a2063616c6c6572206973206e6f7420746865206f776e65726044820152606401610d49565b600080546001600160a01b038381166001600160a01b0319831681178455604051919092169283917f8be0079c531659141344cd1fd0a4f28419497f9722a3daafe3b4186f6b6457e09190a35050565b6001546040805163afeea11560e01b815290516000926001600160a01b03169163afeea11591600480830192869291908290030181865afa1580156116f2573d6000803e3d6000fd5b505050506040513d6000823e601f3d908101601f1916820160405261171a9190810190611da2565b805190915060005b818160ff1610156117aa57611752838260ff168151811061174557611745611e2a565b602002602001015161051c565b60066000858460ff168151811061176b5761176b611e2a565b60200260200101516001600160a01b03166001600160a01b031681526020019081526020016000208190555080806117a290611f74565b915050611722565b50504360035550565b634e487b7160e01b600052601160045260246000fd5b80820180821115610509576105096117b3565b6001600160a01b038116811461120b57600080fd5b6000806040838503121561180457600080fd5b823561180f816117dc565b9150602083013561181f816117dc565b809150509250929050565b60006020828403121561183c57600080fd5b5035919050565b60006020828403121561185557600080fd5b813561070f816117dc565b634e487b7160e01b600052602160045260246000fd5b6005811061189457634e487b7160e01b600052602160045260246000fd5b9052565b600081518084526020808501945080840160005b838110156118cf576118bf878351611876565b95820195908201906001016118ac565b509495945050505050565b600081518084526020808501945080840160005b838110156118cf578151875295820195908201906001016118ee565b60005b8381101561192557818101518382015260200161190d565b50506000910152565b6000815180845261194681602086016020860161190a565b601f01601f19169290920160200192915050565b600081518084526020808501808196508360051b8101915082860160005b858110156119a257828403895261199084835161192e565b98850198935090840190600101611978565b5091979650505050505050565b600060e082018983526020898185015260e0604085015281895180845261010086019150828b01935060005b81811015611a005784516001600160a01b0316835293830193918301916001016119db565b50508481036060860152611a14818a611898565b925050508281036080840152611a2a81876118da565b905082810360a0840152611a3e818661195a565b905082810360c0840152611a52818561195a565b9a9950505050505050505050565b86815260c08101611a746020830188611876565b6040820195909552606081019390935260808301919091526001600160a01b031660a09091015292915050565b60c081526000611ab460c083018961192e565b8281036020840152611ac6818961192e565b90508281036040840152611ada818861192e565b60608401969096525050608081019290925260a0909101529392505050565b8035611b04816117dc565b919050565b60008083601f840112611b1b57600080fd5b5081356001600160401b03811115611b3257600080fd5b6020830191508360208285010111156114c757600080fd5b600080600080600080600080600080600060c08c8e031215611b6b57600080fd5b611b748c611af9565b9a506001600160401b038060208e01351115611b8f57600080fd5b611b9f8e60208f01358f01611b09565b909b50995060408d0135811015611bb557600080fd5b611bc58e60408f01358f01611b09565b909950975060608d0135811015611bdb57600080fd5b611beb8e60608f01358f01611b09565b909750955060808d0135811015611c0157600080fd5b611c118e60808f01358f01611b09565b909550935060a08d0135811015611c2757600080fd5b50611c388d60a08e01358e01611b09565b81935080925050509295989b509295989b9093969950565b634e487b7160e01b600052604160045260246000fd5b604051601f8201601f191681016001600160401b0381118282101715611c8e57611c8e611c50565b604052919050565b600082601f830112611ca757600080fd5b815160206001600160401b03821115611cc257611cc2611c50565b8160051b611cd1828201611c66565b9283528481018201928281019087851115611ceb57600080fd5b83870192505b84831015611d13578251611d04816117dc565b82529183019190830190611cf1565b979650505050505050565b60008060008060008060c08789031215611d3757600080fd5b8651611d42816117dc565b602088015190965060058110611d5757600080fd5b8095505060408701519350606087015192506080870151915060a08701516001600160401b03811115611d8957600080fd5b611d9589828a01611c96565b9150509295509295509295565b600060208284031215611db457600080fd5b81516001600160401b03811115611dca57600080fd5b611dd684828501611c96565b949350505050565b81810381811115610509576105096117b3565b8082028115828204841417610509576105096117b3565b600082611e2557634e487b7160e01b600052601260045260246000fd5b500490565b634e487b7160e01b600052603260045260246000fd5b600082601f830112611e5157600080fd5b81516001600160401b03811115611e6a57611e6a611c50565b611e7d601f8201601f1916602001611c66565b818152846020838601011115611e9257600080fd5b611dd682602083016020870161190a565b600080600080600060a08688031215611ebb57600080fd5b85516001600160401b0380821115611ed257600080fd5b611ede89838a01611e40565b96506020880151915080821115611ef457600080fd5b611f0089838a01611e40565b95506040880151915080821115611f1657600080fd5b611f2289838a01611e40565b94506060880151915080821115611f3857600080fd5b611f4489838a01611e40565b93506080880151915080821115611f5a57600080fd5b50611f6788828901611e40565b9150509295509295909350565b600060ff821660ff8103611f8a57611f8a6117b3565b60010192915050565b600060208284031215611fa557600080fd5b5051919050565b600080600060608486031215611fc157600080fd5b8351925060208401519150604084015190509250925092565b600060208284031215611fec57600080fd5b8151801515811461070f57600080fd5b81835281816020850137506000828201602090810191909152601f909101601f19169091010190565b6001600160a01b038c16815260c06020820181905260009061204a9083018c8e611ffc565b828103604084015261205d818b8d611ffc565b9050828103606084015261207281898b611ffc565b90508281036080840152612087818789611ffc565b905082810360a084015261209c818587611ffc565b9e9d5050505050505050505050505050565b6000602082840312156120c057600080fd5b81516001600160401b038116811461070f57600080fdfea26469706673582212207d086164aa00a15d07652ba8469c93ff724cfa061f4199701ec94add1779f83a64736f6c63430008130033",
  "linkReferences": {},
  "deployedLinkReferences": {}
}