{
  "_format": "hh-sol-artifact-1",
  "contractName": "Validators",
  "sourceName": "contracts/Validators.sol",
  "abi": [
    {
      "anonymous": false,
      "inputs": [
        {
          "indexed": true,
          "internalType": "address",
          "name": "val",
          "type": "address"
        },
        {
          "indexed": false,
          "internalType": "uint256",
          "name": "time",
          "type": "uint256"
        }
      ],
      "name": "LogAddToTopValidators",
      "type": "event"
    },
    {
      "anonymous": false,
      "inputs": [
        {
          "indexed": true,
          "internalType": "address",
          "name": "val",
          "type": "address"
        },
        {
          "indexed": true,
          "internalType": "address",
          "name": "fee",
          "type": "address"
        },
        {
          "indexed": false,
          "internalType": "uint256",
          "name": "time",
          "type": "uint256"
        }
      ],
      "name": "LogCreateValidator",
      "type": "event"
    },
    {
      "anonymous": false,
      "inputs": [
        {
          "indexed": true,
          "internalType": "address",
          "name": "coinbase",
          "type": "address"
        },
        {
          "indexed": false,
          "internalType": "uint256",
          "name": "blockReward",
          "type": "uint256"
        },
        {
          "indexed": false,
          "internalType": "uint256",
          "name": "time",
          "type": "uint256"
        },
        {
          "indexed": false,
          "internalType": "address[]",
          "name": "To",
          "type": "address[]"
        },
        {
          "indexed": false,
          "internalType": "uint64[]",
          "name": "Gass",
          "type": "uint64[]"
        }
      ],
      "name": "LogDistributeBlockReward",
      "type": "event"
    },
    {
      "anonymous": false,
      "inputs": [
        {
          "indexed": true,
          "internalType": "address",
          "name": "val",
          "type": "address"
        },
        {
          "indexed": true,
          "internalType": "address",
          "name": "fee",
          "type": "address"
        },
        {
          "indexed": false,
          "internalType": "uint256",
          "name": "time",
          "type": "uint256"
        }
      ],
      "name": "LogEditValidator",
      "type": "event"
    },
    {
      "anonymous": false,
      "inputs": [
        {
          "indexed": true,
          "internalType": "address",
          "name": "val",
          "type": "address"
        },
        {
          "indexed": false,
          "internalType": "uint256",
          "name": "time",
          "type": "uint256"
        }
      ],
      "name": "LogReactive",
      "type": "event"
    },
    {
      "anonymous": false,
      "inputs": [
        {
          "indexed": true,
          "internalType": "address",
          "name": "val",
          "type": "address"
        },
        {
          "indexed": false,
          "internalType": "uint256",
          "name": "time",
          "type": "uint256"
        }
      ],
      "name": "LogRemoveFromTopValidators",
      "type": "event"
    },
    {
      "anonymous": false,
      "inputs": [
        {
          "indexed": true,
          "internalType": "address",
          "name": "val",
          "type": "address"
        },
        {
          "indexed": false,
          "internalType": "uint256",
          "name": "hb",
          "type": "uint256"
        },
        {
          "indexed": false,
          "internalType": "uint256",
          "name": "time",
          "type": "uint256"
        }
      ],
      "name": "LogRemoveValidator",
      "type": "event"
    },
    {
      "anonymous": false,
      "inputs": [
        {
          "indexed": true,
          "internalType": "address",
          "name": "val",
          "type": "address"
        },
        {
          "indexed": false,
          "internalType": "uint256",
          "name": "hb",
          "type": "uint256"
        },
        {
          "indexed": false,
          "internalType": "uint256",
          "name": "time",
          "type": "uint256"
        }
      ],
      "name": "LogRemoveValidatorIncoming",
      "type": "event"
    },
    {
      "anonymous": false,
      "inputs": [
        {
          "indexed": true,
          "internalType": "address",
          "name": "staker",
          "type": "address"
        },
        {
          "indexed": true,
          "internalType": "address",
          "name": "val",
          "type": "address"
        },
        {
          "indexed": false,
          "internalType": "uint256",
          "name": "staking",
          "type": "uint256"
        },
        {
          "indexed": false,
          "internalType": "uint256",
          "name": "time",
          "type": "uint256"
        }
      ],
      "name": "LogStake",
      "type": "event"
    },
    {
      "anonymous": false,
      "inputs": [
        {
          "indexed": true,
          "internalType": "address",
          "name": "staker",
          "type": "address"
        },
        {
          "indexed": true,
          "internalType": "address",
          "name": "val",
          "type": "address"
        },
        {
          "indexed": false,
          "internalType": "uint256",
          "name": "amount",
          "type": "uint256"
        },
        {
          "indexed": false,
          "internalType": "uint256",
          "name": "time",
          "type": "uint256"
        }
      ],
      "name": "LogUnstake",
      "type": "event"
    },
    {
      "anonymous": false,
      "inputs": [
        {
          "indexed": false,
          "internalType": "address[]",
          "name": "newSet",
          "type": "address[]"
        }
      ],
      "name": "LogUpdateValidator",
      "type": "event"
    },
    {
      "anonymous": false,
      "inputs": [
        {
          "indexed": true,
          "internalType": "address",
          "name": "val",
          "type": "address"
        },
        {
          "indexed": true,
          "internalType": "address",
          "name": "fee",
          "type": "address"
        },
        {
          "indexed": false,
          "internalType": "uint256",
          "name": "hb",
          "type": "uint256"
        },
        {
          "indexed": false,
          "internalType": "uint256",
          "name": "time",
          "type": "uint256"
        }
      ],
      "name": "LogWithdrawProfits",
      "type": "event"
    },
    {
      "anonymous": false,
      "inputs": [
        {
          "indexed": true,
          "internalType": "address",
          "name": "staker",
          "type": "address"
        },
        {
          "indexed": true,
          "internalType": "address",
          "name": "val",
          "type": "address"
        },
        {
          "indexed": false,
          "internalType": "uint256",
          "name": "amount",
          "type": "uint256"
        },
        {
          "indexed": false,
          "internalType": "uint256",
          "name": "time",
          "type": "uint256"
        }
      ],
      "name": "LogWithdrawStaking",
      "type": "event"
    },
    {
      "anonymous": false,
      "inputs": [
        {
          "indexed": false,
          "internalType": "address",
          "name": "user",
          "type": "address"
        },
        {
          "indexed": false,
          "internalType": "address",
          "name": "validator",
          "type": "address"
        },
        {
          "indexed": false,
          "internalType": "uint256",
          "name": "reward",
          "type": "uint256"
        },
        {
          "indexed": false,
          "internalType": "uint256",
          "name": "timeStamp",
          "type": "uint256"
        }
      ],
      "name": "withdrawStakingRewardEv",
      "type": "event"
    },
    {
      "inputs": [],
      "name": "MaxValidators",
      "outputs": [
        {
          "internalType": "uint16",
          "name": "",
          "type": "uint16"
        }
      ],
      "stateMutability": "view",
      "type": "function"
    },
    {
      "inputs": [],
      "name": "MinimalStakingCoin",
      "outputs": [
        {
          "internalType": "uint256",
          "name": "",
          "type": "uint256"
        }
      ],
      "stateMutability": "view",
      "type": "function"
    },
    {
      "inputs": [],
      "name": "ProposalAddr",
      "outputs": [
        {
          "internalType": "address",
          "name": "",
          "type": "address"
        }
      ],
      "stateMutability": "view",
      "type": "function"
    },
    {
      "inputs": [],
      "name": "PunishContractAddr",
      "outputs": [
        {
          "internalType": "address",
          "name": "",
          "type": "address"
        }
      ],
      "stateMutability": "view",
      "type": "function"
    },
    {
      "inputs": [],
      "name": "StakingLockPeriod",
      "outputs": [
        {
          "internalType": "uint64",
          "name": "",
          "type": "uint64"
        }
      ],
      "stateMutability": "view",
      "type": "function"
    },
    {
      "inputs": [],
      "name": "ValidatorContractAddr",
      "outputs": [
        {
          "internalType": "address payable",
          "name": "",
          "type": "address"
        }
      ],
      "stateMutability": "view",
      "type": "function"
    },
    {
      "inputs": [],
      "name": "burnPartPercent",
      "outputs": [
        {
          "internalType": "uint256",
          "name": "",
          "type": "uint256"
        }
      ],
      "stateMutability": "view",
      "type": "function"
    },
    {
      "inputs": [],
      "name": "burnStopAmount",
      "outputs": [
        {
          "internalType": "uint256",
          "name": "",
          "type": "uint256"
        }
      ],
      "stateMutability": "view",
      "type": "function"
    },
    {
      "inputs": [
        {
          "internalType": "address",
          "name": "",
          "type": "address"
        }
      ],
      "name": "contractCreator",
      "outputs": [
        {
          "internalType": "address",
          "name": "",
          "type": "address"
        }
      ],
      "stateMutability": "view",
      "type": "function"
    },
    {
      "inputs": [],
      "name": "contractPartPercent",
      "outputs": [
        {
          "internalType": "uint256",
          "name": "",
          "type": "uint256"
        }
      ],
      "stateMutability": "view",
      "type": "function"
    },
    {
      "inputs": [
        {
          "internalType": "address payable",
          "name": "feeAddr",
          "type": "address"
        },
        {
          "internalType": "string",
          "name": "moniker",
          "type": "string"
        },
        {
          "internalType": "string",
          "name": "identity",
          "type": "string"
        },
        {
          "internalType": "string",
          "name": "website",
          "type": "string"
        },
        {
          "internalType": "string",
          "name": "email",
          "type": "string"
        },
        {
          "internalType": "string",
          "name": "details",
          "type": "string"
        }
      ],
      "name": "createOrEditValidator",
      "outputs": [
        {
          "internalType": "bool",
          "name": "",
          "type": "bool"
        }
      ],
      "stateMutability": "payable",
      "type": "function"
    },
    {
      "inputs": [
        {
          "internalType": "uint256",
          "name": "",
          "type": "uint256"
        }
      ],
      "name": "currentValidatorSet",
      "outputs": [
        {
          "internalType": "address",
          "name": "",
          "type": "address"
        }
      ],
      "stateMutability": "view",
      "type": "function"
    },
    {
      "inputs": [
        {
          "internalType": "address[]",
          "name": "_to",
          "type": "address[]"
        },
        {
          "internalType": "uint64[]",
          "name": "_gass",
          "type": "uint64[]"
        }
      ],
      "name": "distributeBlockReward",
      "outputs": [],
      "stateMutability": "payable",
      "type": "function"
    },
    {
      "inputs": [],
      "name": "extraRewardsPerBlock",
      "outputs": [
        {
          "internalType": "uint256",
          "name": "",
          "type": "uint256"
        }
      ],
      "stateMutability": "view",
      "type": "function"
    },
    {
      "inputs": [],
      "name": "getActiveValidators",
      "outputs": [
        {
          "internalType": "address[]",
          "name": "",
          "type": "address[]"
        }
      ],
      "stateMutability": "view",
      "type": "function"
    },
    {
      "inputs": [
        {
          "internalType": "address",
          "name": "staker",
          "type": "address"
        },
        {
          "internalType": "address",
          "name": "val",
          "type": "address"
        }
      ],
      "name": "getStakingInfo",
      "outputs": [
        {
          "internalType": "uint256",
          "name": "",
          "type": "uint256"
        },
        {
          "internalType": "uint256",
          "name": "",
          "type": "uint256"
        },
        {
          "internalType": "uint256",
          "name": "",
          "type": "uint256"
        }
      ],
      "stateMutability": "view",
      "type": "function"
    },
    {
      "inputs": [],
      "name": "getTopValidators",
      "outputs": [
        {
          "internalType": "address[]",
          "name": "",
          "type": "address[]"
        }
      ],
      "stateMutability": "view",
      "type": "function"
    },
    {
      "inputs": [],
      "name": "getTotalStakeOfActiveValidators",
      "outputs": [
        {
          "internalType": "uint256",
          "name": "total",
          "type": "uint256"
        },
        {
          "internalType": "uint256",
          "name": "len",
          "type": "uint256"
        }
      ],
      "stateMutability": "view",
      "type": "function"
    },
    {
      "inputs": [
        {
          "internalType": "address",
          "name": "val",
          "type": "address"
        }
      ],
      "name": "getValidatorDescription",
      "outputs": [
        {
          "internalType": "string",
          "name": "",
          "type": "string"
        },
        {
          "internalType": "string",
          "name": "",
          "type": "string"
        },
        {
          "internalType": "string",
          "name": "",
          "type": "string"
        },
        {
          "internalType": "string",
          "name": "",
          "type": "string"
        },
        {
          "internalType": "string",
          "name": "",
          "type": "string"
        }
      ],
      "stateMutability": "view",
      "type": "function"
    },
    {
      "inputs": [
        {
          "internalType": "address",
          "name": "val",
          "type": "address"
        }
      ],
      "name": "getValidatorInfo",
      "outputs": [
        {
          "internalType": "address payable",
          "name": "",
          "type": "address"
        },
        {
          "internalType": "enum Validators.Status",
          "name": "",
          "type": "uint8"
        },
        {
          "internalType": "uint256",
          "name": "",
          "type": "uint256"
        },
        {
          "internalType": "uint256",
          "name": "",
          "type": "uint256"
        },
        {
          "internalType": "uint256",
          "name": "",
          "type": "uint256"
        },
        {
          "internalType": "address[]",
          "name": "",
          "type": "address[]"
        }
      ],
      "stateMutability": "view",
      "type": "function"
    },
    {
      "inputs": [
        {
          "internalType": "uint256",
          "name": "",
          "type": "uint256"
        }
      ],
      "name": "highestValidatorsSet",
      "outputs": [
        {
          "internalType": "address",
          "name": "",
          "type": "address"
        }
      ],
      "stateMutability": "view",
      "type": "function"
    },
    {
      "inputs": [
        {
          "internalType": "address[]",
          "name": "vals",
          "type": "address[]"
        }
      ],
      "name": "initialize",
      "outputs": [],
      "stateMutability": "nonpayable",
      "type": "function"
    },
    {
      "inputs": [],
      "name": "initialized",
      "outputs": [
        {
          "internalType": "bool",
          "name": "",
          "type": "bool"
        }
      ],
      "stateMutability": "view",
      "type": "function"
    },
    {
      "inputs": [
        {
          "internalType": "address",
          "name": "who",
          "type": "address"
        }
      ],
      "name": "isActiveValidator",
      "outputs": [
        {
          "internalType": "bool",
          "name": "",
          "type": "bool"
        }
      ],
      "stateMutability": "view",
      "type": "function"
    },
    {
      "inputs": [
        {
          "internalType": "address",
          "name": "who",
          "type": "address"
        }
      ],
      "name": "isTopValidator",
      "outputs": [
        {
          "internalType": "bool",
          "name": "",
          "type": "bool"
        }
      ],
      "stateMutability": "view",
      "type": "function"
    },
    {
      "inputs": [
        {
          "internalType": "address",
          "name": "",
          "type": "address"
        }
      ],
      "name": "lastRewardTime",
      "outputs": [
        {
          "internalType": "uint256",
          "name": "",
          "type": "uint256"
        }
      ],
      "stateMutability": "view",
      "type": "function"
    },
    {
      "inputs": [],
      "name": "minimumValidatorStaking",
      "outputs": [
        {
          "internalType": "uint256",
          "name": "",
          "type": "uint256"
        }
      ],
      "stateMutability": "view",
      "type": "function"
    },
    {
      "inputs": [
        {
          "internalType": "address",
          "name": "",
          "type": "address"
        },
        {
          "internalType": "uint256",
          "name": "",
          "type": "uint256"
        }
      ],
      "name": "reflectionPercentSum",
      "outputs": [
        {
          "internalType": "uint256",
          "name": "",
          "type": "uint256"
        }
      ],
      "stateMutability": "view",
      "type": "function"
    },
    {
      "inputs": [
        {
          "internalType": "address",
          "name": "val",
          "type": "address"
        }
      ],
      "name": "removeValidator",
      "outputs": [],
      "stateMutability": "nonpayable",
      "type": "function"
    },
    {
      "inputs": [
        {
          "internalType": "address",
          "name": "val",
          "type": "address"
        }
      ],
      "name": "removeValidatorIncoming",
      "outputs": [],
      "stateMutability": "nonpayable",
      "type": "function"
    },
    {
      "inputs": [],
      "name": "rewardFund",
      "outputs": [
        {
          "internalType": "uint256",
          "name": "",
          "type": "uint256"
        }
      ],
      "stateMutability": "view",
      "type": "function"
    },
    {
      "inputs": [
        {
          "internalType": "address",
          "name": "_contract",
          "type": "address"
        }
      ],
      "name": "setContractCreator",
      "outputs": [
        {
          "internalType": "bool",
          "name": "",
          "type": "bool"
        }
      ],
      "stateMutability": "nonpayable",
      "type": "function"
    },
    {
      "inputs": [
        {
          "internalType": "address",
          "name": "validator",
          "type": "address"
        }
      ],
      "name": "stake",
      "outputs": [
        {
          "internalType": "bool",
          "name": "",
          "type": "bool"
        }
      ],
      "stateMutability": "payable",
      "type": "function"
    },
    {
      "inputs": [
        {
          "internalType": "address",
          "name": "",
          "type": "address"
        },
        {
          "internalType": "address",
          "name": "",
          "type": "address"
        }
      ],
      "name": "stakeTime",
      "outputs": [
        {
          "internalType": "uint256",
          "name": "",
          "type": "uint256"
        }
      ],
      "stateMutability": "view",
      "type": "function"
    },
    {
      "inputs": [],
      "name": "stakerPartPercent",
      "outputs": [
        {
          "internalType": "uint256",
          "name": "",
          "type": "uint256"
        }
      ],
      "stateMutability": "view",
      "type": "function"
    },
    {
      "inputs": [],
      "name": "totalBurnt",
      "outputs": [
        {
          "internalType": "uint256",
          "name": "",
          "type": "uint256"
        }
      ],
      "stateMutability": "view",
      "type": "function"
    },
    {
      "inputs": [],
      "name": "totalJailedHB",
      "outputs": [
        {
          "internalType": "uint256",
          "name": "",
          "type": "uint256"
        }
      ],
      "stateMutability": "view",
      "type": "function"
    },
    {
      "inputs": [],
      "name": "totalRewards",
      "outputs": [
        {
          "internalType": "uint256",
          "name": "",
          "type": "uint256"
        }
      ],
      "stateMutability": "view",
      "type": "function"
    },
    {
      "inputs": [],
      "name": "totalStake",
      "outputs": [
        {
          "internalType": "uint256",
          "name": "",
          "type": "uint256"
        }
      ],
      "stateMutability": "view",
      "type": "function"
    },
    {
      "inputs": [
        {
          "internalType": "address",
          "name": "validator",
          "type": "address"
        }
      ],
      "name": "tryReactive",
      "outputs": [
        {
          "internalType": "bool",
          "name": "",
          "type": "bool"
        }
      ],
      "stateMutability": "nonpayable",
      "type": "function"
    },
    {
      "inputs": [
        {
          "internalType": "address",
          "name": "validator",
          "type": "address"
        }
      ],
      "name": "unstake",
      "outputs": [
        {
          "internalType": "bool",
          "name": "",
          "type": "bool"
        }
      ],
      "stateMutability": "nonpayable",
      "type": "function"
    },
    {
      "inputs": [
        {
          "internalType": "address[]",
          "name": "newSet",
          "type": "address[]"
        },
        {
          "internalType": "uint256",
          "name": "epoch",
          "type": "uint256"
        }
      ],
      "name": "updateActiveValidatorSet",
      "outputs": [],
      "stateMutability": "nonpayable",
      "type": "function"
    },
    {
      "inputs": [
        {
          "internalType": "string",
          "name": "moniker",
          "type": "string"
        },
        {
          "internalType": "string",
          "name": "identity",
          "type": "string"
        },
        {
          "internalType": "string",
          "name": "website",
          "type": "string"
        },
        {
          "internalType": "string",
          "name": "email",
          "type": "string"
        },
        {
          "internalType": "string",
          "name": "details",
          "type": "string"
        }
      ],
      "name": "validateDescription",
      "outputs": [
        {
          "internalType": "bool",
          "name": "",
          "type": "bool"
        }
      ],
      "stateMutability": "pure",
      "type": "function"
    },
    {
      "inputs": [],
      "name": "validatorPartPercent",
      "outputs": [
        {
          "internalType": "uint256",
          "name": "",
          "type": "uint256"
        }
      ],
      "stateMutability": "view",
      "type": "function"
    },
    {
      "inputs": [
        {
          "internalType": "address",
          "name": "_staker",
          "type": "address"
        },
        {
          "internalType": "address",
          "name": "_validator",
          "type": "address"
        }
      ],
      "name": "viewStakeReward",
      "outputs": [
        {
          "internalType": "uint256",
          "name": "",
          "type": "uint256"
        }
      ],
      "stateMutability": "view",
      "type": "function"
    },
    {
      "inputs": [
        {
          "internalType": "address",
          "name": "validator",
          "type": "address"
        }
      ],
      "name": "withdrawProfits",
      "outputs": [
        {
          "internalType": "bool",
          "name": "",
          "type": "bool"
        }
      ],
      "stateMutability": "nonpayable",
      "type": "function"
    },
    {
      "inputs": [
        {
          "internalType": "address",
          "name": "validator",
          "type": "address"
        }
      ],
      "name": "withdrawStaking",
      "outputs": [
        {
          "internalType": "bool",
          "name": "",
          "type": "bool"
        }
      ],
      "stateMutability": "nonpayable",
      "type": "function"
    },
    {
      "inputs": [
        {
          "internalType": "address",
          "name": "validator",
          "type": "address"
        }
      ],
      "name": "withdrawStakingReward",
      "outputs": [
        {
          "internalType": "bool",
          "name": "",
          "type": "bool"
        }
      ],
      "stateMutability": "nonpayable",
      "type": "function"
    },
    {
      "stateMutability": "payable",
      "type": "receive"
    }
  ],
  "bytecode": "0x608060405234801561001057600080fd5b50614d9f806100206000396000f3fe6080604052600436106102965760003560e01c80638a11d7c91161015a578063b6c88519116100c1578063cd779d211161007a578063cd779d211461085d578063d571770c14610873578063db78dd28146108a9578063efe22266146108d8578063f2888dbb146108ee578063fca737c01461090e57600080fd5b8063b6c885191461079b578063bb1c0310146107bb578063bd10ba76146107ce578063be645692146107ee578063c253c3841461080b578063c967f90f1461083557600080fd5b80639d7714ce116101135780639d7714ce146106e15780639de7025814610700578063a224cee714610722578063a406fcb714610742578063a43569b314610755578063afeea1151461078657600080fd5b80638a11d7c91461060f5780638ae53dbd146106415780638b0e9f3f1461065d57806392f2c43714610673578063966ff650146106ab57806398e3b626146106c157600080fd5b80633b5d441e116101fe5780636233be5d116101b75780636233be5d1461050b5780636846992a146105215780636969a25c1461054157806372d30a70146105615780637f4f95fa1461058157806382bd3d92146105ef57600080fd5b80633b5d441e1461044657806340550a1c1461047357806340a141ff1461049357806342127ee7146104b55780634b3d500b146104cb5780635dd09590146104eb57600080fd5b80631b5e358c116102505780631b5e358c14610399578063222d3b05146103c757806326476204146103e757806337dbc8cc146103fa5780633a061bd3146104105780633ae898ca1461042657600080fd5b8062362a77146102ba57806301aec704146102ef5780630976c65d146103355780630e15561a146103535780631303f7cf14610369578063158ef93e1461037f57600080fd5b366102b55734600260008282546102ad9190614389565b925050819055005b600080fd5b3480156102c657600080fd5b506102da6102d53660046143b1565b610924565b60405190151581526020015b60405180910390f35b3480156102fb57600080fd5b5061032761030a3660046143d5565b600b60209081526000928352604080842090915290825290205481565b6040519081526020016102e6565b34801561034157600080fd5b5061032769d3c21bcecceda100000081565b34801561035f57600080fd5b5061032760035481565b34801561037557600080fd5b5061032760095481565b34801561038b57600080fd5b506000546102da9060ff1681565b3480156103a557600080fd5b506103af61f00181565b6040516001600160a01b0390911681526020016102e6565b3480156103d357600080fd5b506102da6103e23660046143b1565b610b48565b6102da6103f53660046143b1565b610d7a565b34801561040657600080fd5b5061032761271081565b34801561041c57600080fd5b506103af61f00081565b34801561043257600080fd5b506103276104413660046143d5565b6111ab565b34801561045257600080fd5b506103276104613660046143b1565b600c6020526000908152604090205481565b34801561047f57600080fd5b506102da61048e3660046143b1565b61128f565b34801561049f57600080fd5b506104b36104ae3660046143b1565b6112f8565b005b3480156104c157600080fd5b5061032761138881565b3480156104d757600080fd5b506103af6104e636600461440e565b6113c2565b3480156104f757600080fd5b506104b36105063660046143b1565b6113ec565b34801561051757600080fd5b506103af61f00281565b34801561052d57600080fd5b506104b361053c366004614504565b611440565b34801561054d57600080fd5b506103af61055c36600461440e565b611611565b34801561056d57600080fd5b506102da61057c3660046143b1565b611621565b34801561058d57600080fd5b506105d461059c3660046143d5565b6001600160a01b0391821660009081526005602090815260408083209390941682529190915220805460018201546002909201549092565b604080519384526020840192909252908201526060016102e6565b3480156105fb57600080fd5b506102da61060a3660046143b1565b6117d1565b34801561061b57600080fd5b5061062f61062a3660046143b1565b611a15565b6040516102e6969594939291906145a2565b34801561064d57600080fd5b50610327670de0b6b3a764000081565b34801561066957600080fd5b5061032760085481565b34801561067f57600080fd5b5061032761068e366004614606565b600d60209081526000928352604080842090915290825290205481565b3480156106b757600080fd5b5061032760015481565b3480156106cd57600080fd5b506102da6106dc3660046143b1565b611e28565b3480156106ed57600080fd5b506103276a52b7d2dcc80cd2e400000081565b34801561070c57600080fd5b50610715611e88565b6040516102e69190614632565b34801561072e57600080fd5b506104b361073d366004614645565b611eea565b6102da61075036600461470c565b6122f4565b34801561076157600080fd5b506107756107703660046143b1565b612878565b6040516102e6959493929190614858565b34801561079257600080fd5b50610715612c85565b3480156107a757600080fd5b506102da6107b6366004614928565b612ce5565b6104b36107c93660046149f9565b612e71565b3480156107da57600080fd5b506102da6107e93660046143b1565b6133db565b3480156107fa57600080fd5b506103276801bc16d674ec80000081565b34801561081757600080fd5b50610820613461565b604080519283526020830191909152016102e6565b34801561084157600080fd5b5061084a601e81565b60405161ffff90911681526020016102e6565b34801561086957600080fd5b5061032761afc881565b34801561087f57600080fd5b506103af61088e3660046143b1565b600a602052600090815260409020546001600160a01b031681565b3480156108b557600080fd5b506108c06201518081565b6040516001600160401b0390911681526020016102e6565b3480156108e457600080fd5b5061032760025481565b3480156108fa57600080fd5b506102da6109093660046143b1565b613476565b34801561091a57600080fd5b50610327619c4081565b600032816001600160a01b038416600090815260046020819052604090912054600160a01b900460ff169081111561095e5761095e614548565b036109a65760405162461bcd60e51b815260206004820152601360248201527215985b1a59185d1bdc881b9bdd08195e1a5cdd606a1b60448201526064015b60405180910390fd5b6001600160a01b03838116600090815260046020526040902054811690821614610a295760405162461bcd60e51b815260206004820152602e60248201527f596f7520617265206e6f742074686520666565207265636569766572206f662060448201526d3a3434b9903b30b634b230ba37b960911b606482015260840161099d565b6001600160a01b03831660009081526004602052604090206007015480610a925760405162461bcd60e51b815260206004820152601a60248201527f596f7520646f6e2774206861766520616e792070726f66697473000000000000604482015260640161099d565b6001600160a01b0384166000908152600460205260408120600701558015610aec576040516001600160a01b0383169082156108fc029083906000818181858888f19350505050158015610aea573d6000803e3d6000fd5b505b610af584611621565b50604080518281524260208201526001600160a01b0380851692908716917f51a69b4502f660774c9339825c7b5adbf0b8622289134647e29728ec5d9b3bb9910160405180910390a35060019392505050565b3260008181526005602090815260408083206001600160a01b038616845282528083206004928390529083205492939290918491600160a01b900460ff1690811115610b9657610b96614548565b03610bd95760405162461bcd60e51b81526020600482015260136024820152721d985b1a59185d1bdc881b9bdd08195e1a5cdd606a1b604482015260640161099d565b8060010154600003610c2d5760405162461bcd60e51b815260206004820152601960248201527f596f75206861766520746f20756e7374616b6520666972737400000000000000604482015260640161099d565b60018101544390610c42906201518090614389565b1115610c9a5760405162461bcd60e51b815260206004820152602160248201527f596f7572207374616b696e6720686176656e277420756e6c6f636b65642079656044820152601d60fa1b606482015260840161099d565b8054610ce35760405162461bcd60e51b8152602060048201526018602482015277596f7520646f6e2774206861766520616e79207374616b6560401b604482015260640161099d565b80546000808355600183018190556040516001600160a01b0385169183156108fc02918491818181858888f19350505050158015610d25573d6000803e3d6000fd5b50604080518281524260208201526001600160a01b0380881692908616917fa70cd94070cd852339a76b32cf2d95a3c8f2a322269163d276071c1c1495561991015b60405180910390a3506001949350505050565b6000805460ff16610d9d5760405162461bcd60e51b815260040161099d90614ac1565b323460016001600160a01b038516600090815260046020819052604090912054600160a01b900460ff1690811115610dd757610dd7614548565b1480610e18575060026001600160a01b038516600090815260046020819052604090912054600160a01b900460ff1690811115610e1657610e16614548565b145b610e7a5760405162461bcd60e51b815260206004820152602d60248201527f43616e2774207374616b6520746f20612076616c696461746f7220696e20616260448201526c6e6f726d616c2073746174757360981b606482015260840161099d565b6001600160a01b0380831660009081526005602090815260408083209388168352929052206001015415610efb5760405162461bcd60e51b815260206004820152602260248201527f43616e2774207374616b65207768656e20796f752061726520756e7374616b696044820152616e6760f01b606482015260840161099d565b6001600160a01b038416600090815260046020526040902060018101546801bc16d674ec80000090610f2e908490614389565b1015610f7c5760405162461bcd60e51b815260206004820152601860248201527f5374616b696e6720636f696e73206e6f7420656e6f7567680000000000000000604482015260640161099d565b6001600160a01b0380841660009081526005602090815260408083209389168352929052908120549003611095576001600160a01b0380841660009081526005602090815260408083209389168352929052908120600201549003611090576009810180546001600160a01b038086166000818152600560209081526040808320948c1680845294825280832060020186905560018601875595825280822090940180546001600160a01b031916909217909155908152600c90915290812054900361105e576001600160a01b0385166000908152600c602052604090204290555b6001600160a01b038086166000818152600c60209081526040808320549488168352600b825280832093835292905220555b6110a0565b61109e85611621565b505b8181600101546110b09190614389565b600182015560028154600160a01b900460ff1660048111156110d4576110d4614548565b146110eb57805460ff60a01b1916600160a11b1781555b6110f98582600101546138fc565b6001600160a01b0380841660009081526005602090815260408083209389168352929052205461112a908390614389565b6001600160a01b038085166000908152600560209081526040808320938a168352929052205560085461115e908390614389565b600855604080518381524260208201526001600160a01b0380881692908616917fb9ba725934532316cffe10975da6eb25ad49c2d1c294d982c46c9f8d684ee0759101610d67565b919050565b6001600160a01b038082166000818152600d602090815260408083209487168352600b8252808320848452825280832054835284825280832054938352600c825280832054835293905291822054829161120491614ae7565b90508015611283576001600160a01b038085166000908152600560209081526040808320938716835292815290829020825160608101845281548082526001830154938201939093526002909101549281019290925268056bc75e2d6310000090611270908490614afa565b61127a9190614b27565b92505050611289565b60009150505b92915050565b6000805b6006548110156112ef57826001600160a01b0316600682815481106112ba576112ba614b3b565b6000918252602090912001546001600160a01b0316036112dd5750600192915050565b806112e781614b51565b915050611293565b50600092915050565b3361f001146113405760405162461bcd60e51b815260206004820152601460248201527350756e69736820636f6e7472616374206f6e6c7960601b604482015260640161099d565b6001600160a01b03811660009081526004602052604090206007015461136582613bc5565b600754600110156113be5761137982613cdc565b604080518281524260208201526001600160a01b038416917fa26de7ab324eac08c596549f421e5c8741213d237d2e9a2c9c0ebde0a7a849fe91015b60405180910390a25b5050565b600781815481106113d257600080fd5b6000918252602090912001546001600160a01b0316905081565b3361f001146114345760405162461bcd60e51b815260206004820152601460248201527350756e69736820636f6e7472616374206f6e6c7960601b604482015260640161099d565b61143d81613bc5565b50565b33411461147c5760405162461bcd60e51b815260206004820152600a6024820152694d696e6572206f6e6c7960b01b604482015260640161099d565b436000908152600f602090815260408083206001845290915290205460ff16156114e85760405162461bcd60e51b815260206004820152601a60248201527f56616c696461746f727320616c72656164792075706461746564000000000000604482015260640161099d565b60005460ff1661150a5760405162461bcd60e51b815260040161099d90614ac1565b806115158143614b6a565b156115555760405162461bcd60e51b815260206004820152601060248201526f426c6f636b2065706f6368206f6e6c7960801b604482015260640161099d565b436000908152600f6020908152604080832060018085529252909120805460ff1916909117905582516115c15760405162461bcd60e51b815260206004820152601460248201527356616c696461746f722073657420656d7074792160601b604482015260640161099d565b82516115d49060069060208601906142f9565b507feacea8f3c22f06c0b18306bdb04d0a967255129e8ce0094debb0a0ff89d006b5836040516116049190614632565b60405180910390a1505050565b600681815481106113d257600080fd5b326000908152600b602090815260408083206001600160a01b03851684529091528120546116825760405162461bcd60e51b815260206004820152600e60248201526d1b9bdd1a1a5b99c81cdd185ad95960921b604482015260640161099d565b3260008181526005602090815260408083206001600160a01b038716808552908352818420600d8452828520958552600b8452828520828652845282852054855285845282852054918552600c8452828520548552949092528220546116e89190614ae7565b905080156117c7576001600160a01b0384166000818152600c6020908152604080832054328452600b835281842094845293909152812091909155825468056bc75e2d631000009061173b908490614afa565b6117459190614b27565b604051909150329082156108fc029083906000818181858888f19350505050158015611775573d6000803e3d6000fd5b50604080513281526001600160a01b03871660208201529081018290524260608201527f7daf1212d032f2f66db6dbb919bbd591be3d954b5b6ee491709cbb5fbe4f51709060800160405180910390a1505b5060019392505050565b60003361f0021461181d5760405162461bcd60e51b815260206004820152601660248201527550726f706f73616c20636f6e7472616374206f6e6c7960501b604482015260640161099d565b60005460ff1661183f5760405162461bcd60e51b815260040161099d90614ac1565b60036001600160a01b038316600090815260046020819052604090912054600160a01b900460ff169081111561187757611877614548565b141580156118bb575060046001600160a01b038316600090815260046020819052604090912054600160a01b900460ff16908111156118b8576118b8614548565b14155b156118c857506001919050565b60046001600160a01b038316600090815260046020819052604090912054600160a01b900460ff169081111561190057611900614548565b036119b057600e546040516363e1d45160e01b81526001600160a01b038481166004830152909116906363e1d451906024016020604051808303816000875af1158015611951573d6000803e3d6000fd5b505050506040513d601f19601f820116820180604052508101906119759190614b7e565b6119b05760405162461bcd60e51b815260206004820152600c60248201526b18db19585b8819985a5b195960a21b604482015260640161099d565b6001600160a01b038216600081815260046020908152604091829020805460ff60a01b1916600160a01b17905590514281527fd8b2c426ec1be69ca7583d26b1e893946e3227430d3ebc3bd64d9e1c469cb400910160405180910390a2506001919050565b6001600160a01b038181166000908152600460208181526040808420815160e081019092528054958616825293948594859485948594606094869491939192840191600160a01b90910460ff1690811115611a7257611a72614548565b6004811115611a8357611a83614548565b815260200160018201548152602001600282016040518060a0016040529081600082018054611ab190614ba0565b80601f0160208091040260200160405190810160405280929190818152602001828054611add90614ba0565b8015611b2a5780601f10611aff57610100808354040283529160200191611b2a565b820191906000526020600020905b815481529060010190602001808311611b0d57829003601f168201915b50505050508152602001600182018054611b4390614ba0565b80601f0160208091040260200160405190810160405280929190818152602001828054611b6f90614ba0565b8015611bbc5780601f10611b9157610100808354040283529160200191611bbc565b820191906000526020600020905b815481529060010190602001808311611b9f57829003601f168201915b50505050508152602001600282018054611bd590614ba0565b80601f0160208091040260200160405190810160405280929190818152602001828054611c0190614ba0565b8015611c4e5780601f10611c2357610100808354040283529160200191611c4e565b820191906000526020600020905b815481529060010190602001808311611c3157829003601f168201915b50505050508152602001600382018054611c6790614ba0565b80601f0160208091040260200160405190810160405280929190818152602001828054611c9390614ba0565b8015611ce05780601f10611cb557610100808354040283529160200191611ce0565b820191906000526020600020905b815481529060010190602001808311611cc357829003601f168201915b50505050508152602001600482018054611cf990614ba0565b80601f0160208091040260200160405190810160405280929190818152602001828054611d2590614ba0565b8015611d725780601f10611d4757610100808354040283529160200191611d72565b820191906000526020600020905b815481529060010190602001808311611d5557829003601f168201915b5050505050815250508152602001600782015481526020016008820154815260200160098201805480602002602001604051908101604052809291908181526020018280548015611dec57602002820191906000526020600020905b81546001600160a01b03168152600190910190602001808311611dce575b505050919092525050815160208301516040840151608085015160a086015160c090960151939e929d50909b5099509297509550909350505050565b6000805b6007548110156112ef57826001600160a01b031660078281548110611e5357611e53614b3b565b6000918252602090912001546001600160a01b031603611e765750600192915050565b80611e8081614b51565b915050611e2c565b60606006805480602002602001604051908101604052809291908181526020018280548015611ee057602002820191906000526020600020905b81546001600160a01b03168152600190910190602001808311611ec2575b5050505050905090565b60005460ff1615611f335760405162461bcd60e51b8152602060048201526013602482015272105b1c9958591e481a5b9a5d1a585b1a5e9959606a1b604482015260640161099d565b600e80546001600160a01b03191661f00117905560005b818110156122e2576000838383818110611f6657611f66614b3b565b9050602002016020810190611f7b91906143b1565b6001600160a01b031603611fd15760405162461bcd60e51b815260206004820152601960248201527f496e76616c69642076616c696461746f72206164647265737300000000000000604482015260640161099d565b42600c6000858585818110611fe857611fe8614b3b565b9050602002016020810190611ffd91906143b1565b6001600160a01b0316815260208101919091526040016000205561204183838381811061202c5761202c614b3b565b905060200201602081019061048e91906143b1565b6120a157600683838381811061205957612059614b3b565b905060200201602081019061206e91906143b1565b81546001810183556000928352602090922090910180546001600160a01b0319166001600160a01b039092169190911790555b6120cb8383838181106120b6576120b6614b3b565b90506020020160208101906106dc91906143b1565b61212b5760078383838181106120e3576120e3614b3b565b90506020020160208101906120f891906143b1565b81546001810183556000928352602090922090910180546001600160a01b0319166001600160a01b039092169190911790555b600060048185858581811061214257612142614b3b565b905060200201602081019061215791906143b1565b6001600160a01b03908116825260208201929092526040016000205416036121fd5782828281811061218b5761218b614b3b565b90506020020160208101906121a091906143b1565b600460008585858181106121b6576121b6614b3b565b90506020020160208101906121cb91906143b1565b6001600160a01b039081168252602082019290925260400160002080546001600160a01b031916929091169190911790555b60006004600085858581811061221557612215614b3b565b905060200201602081019061222a91906143b1565b6001600160a01b03168152602081019190915260400160002054600160a01b900460ff16600481111561225f5761225f614548565b036122d05760026004600085858581811061227c5761227c614b3b565b905060200201602081019061229191906143b1565b6001600160a01b031681526020810191909152604001600020805460ff60a01b1916600160a01b8360048111156122ca576122ca614548565b02179055505b806122da81614b51565b915050611f4a565b50506000805460ff1916600117905550565b6000805460ff166123175760405162461bcd60e51b815260040161099d90614ac1565b6001600160a01b038c166123635760405162461bcd60e51b8152602060048201526013602482015272496e76616c696420666565206164647265737360681b604482015260640161099d565b6124728b8b8080601f01602080910402602001604051908101604052809392919081815260200183838082843760009201919091525050604080516020601f8f018190048102820181019092528d815292508d91508c908190840183828082843760009201919091525050604080516020601f8e018190048102820181019092528c815292508c91508b908190840183828082843760009201919091525050604080516020601f8d018190048102820181019092528b815292508b91508a908190840183828082843760009201919091525050604080516020601f8c018190048102820181019092528a815292508a9150899081908401838280828437600092019190915250612ce592505050565b6124b45760405162461bcd60e51b815260206004820152601360248201527224b73b30b634b2103232b9b1b934b83a34b7b760691b604482015260640161099d565b326000806001600160a01b038316600090815260046020819052604090912054600160a01b900460ff16908111156124ee576124ee614548565b0361252457506001600160a01b0381166000908152600460205260409020805460ff60a01b1916600160a01b1790556001612535565b341561253557600092505050612869565b6001600160a01b038281166000908152600460205260409020548116908f16146125a7578d60046000846001600160a01b03166001600160a01b0316815260200190815260200160002060000160006101000a8154816001600160a01b0302191690836001600160a01b031602179055505b6040518060a001604052808e8e8080601f016020809104026020016040519081016040528093929190818152602001838380828437600092019190915250505090825250604080516020601f8f018190048102820181019092528d815291810191908e908e9081908401838280828437600092019190915250505090825250604080516020601f8d018190048102820181019092528b815291810191908c908c9081908401838280828437600092019190915250505090825250604080516020601f8b0181900481028201810190925289815291810191908a908a9081908401838280828437600092019190915250505090825250604080516020601f89018190048102820181019092528781529181019190889088908190840183828082843760009201829052509390945250506001600160a01b038516815260046020526040902082516002909101915081906127009082614c29565b50602082015160018201906127159082614c29565b506040820151600282019061272a9082614c29565b506060820151600382019061273f9082614c29565b50608082015160048201906127549082614c29565b5090505080156128145769d3c21bcecceda10000003410156127b85760405162461bcd60e51b815260206004820152601860248201527f496e76616c69642076616c696461746f7220616d6f756e740000000000000000604482015260640161099d565b6127c182610d7a565b508d6001600160a01b0316826001600160a01b03167f887eec9d757b7247dd8e51198f9d1b8f27979bceb34bdcc1bffd4ec5ec736c224260405161280791815260200190565b60405180910390a3612862565b8d6001600160a01b0316826001600160a01b03167fb8421f65501371f54d58de1937ff1e1ccdb76423ef6f84acea1814a0f6362ca04260405161285991815260200190565b60405180910390a35b6001925050505b9b9a5050505050505050505050565b6001600160a01b038181166000908152600460208181526040808420815160e081019092528054958616825260609586958695869586959294929390840191600160a01b90910460ff16908111156128d2576128d2614548565b60048111156128e3576128e3614548565b815260200160018201548152602001600282016040518060a001604052908160008201805461291190614ba0565b80601f016020809104026020016040519081016040528092919081815260200182805461293d90614ba0565b801561298a5780601f1061295f5761010080835404028352916020019161298a565b820191906000526020600020905b81548152906001019060200180831161296d57829003601f168201915b505050505081526020016001820180546129a390614ba0565b80601f01602080910402602001604051908101604052809291908181526020018280546129cf90614ba0565b8015612a1c5780601f106129f157610100808354040283529160200191612a1c565b820191906000526020600020905b8154815290600101906020018083116129ff57829003601f168201915b50505050508152602001600282018054612a3590614ba0565b80601f0160208091040260200160405190810160405280929190818152602001828054612a6190614ba0565b8015612aae5780601f10612a8357610100808354040283529160200191612aae565b820191906000526020600020905b815481529060010190602001808311612a9157829003601f168201915b50505050508152602001600382018054612ac790614ba0565b80601f0160208091040260200160405190810160405280929190818152602001828054612af390614ba0565b8015612b405780601f10612b1557610100808354040283529160200191612b40565b820191906000526020600020905b815481529060010190602001808311612b2357829003601f168201915b50505050508152602001600482018054612b5990614ba0565b80601f0160208091040260200160405190810160405280929190818152602001828054612b8590614ba0565b8015612bd25780601f10612ba757610100808354040283529160200191612bd2565b820191906000526020600020905b815481529060010190602001808311612bb557829003601f168201915b5050505050815250508152602001600782015481526020016008820154815260200160098201805480602002602001604051908101604052809291908181526020018280548015612c4c57602002820191906000526020600020905b81546001600160a01b03168152600190910190602001808311612c2e575b5050509190925250505060609081015180516020820151604083015193830151608090930151919b909a50929850909650945092505050565b60606007805480602002602001604051908101604052809291908181526020018280548015611ee0576020028201919060005260206000209081546001600160a01b03168152600190910190602001808311611ec2575050505050905090565b6000604686511115612d325760405162461bcd60e51b8152602060048201526016602482015275092dcecc2d8d2c840dadedcd2d6cae440d8cadccee8d60531b604482015260640161099d565b610bb885511115612d855760405162461bcd60e51b815260206004820152601760248201527f496e76616c6964206964656e74697479206c656e677468000000000000000000604482015260640161099d565b608c84511115612dd05760405162461bcd60e51b8152602060048201526016602482015275092dcecc2d8d2c840eecac4e6d2e8ca40d8cadccee8d60531b604482015260640161099d565b608c83511115612e195760405162461bcd60e51b8152602060048201526014602482015273092dcecc2d8d2c840cadac2d2d840d8cadccee8d60631b604482015260640161099d565b61011882511115612e655760405162461bcd60e51b8152602060048201526016602482015275092dcecc2d8d2c840c8cae8c2d2d8e640d8cadccee8d60531b604482015260640161099d565b50600195945050505050565b334114612ead5760405162461bcd60e51b815260206004820152600a6024820152694d696e6572206f6e6c7960b01b604482015260640161099d565b436000908152600f6020908152604080832083805290915290205460ff1615612f185760405162461bcd60e51b815260206004820152601960248201527f426c6f636b20697320616c726561647920726577617264656400000000000000604482015260640161099d565b60005460ff16612f3a5760405162461bcd60e51b815260040161099d90614ac1565b436000908152600f602090815260408083208380529091528120805460ff19166001179055339034908190620186a0612f7561138884614afa565b612f7f9190614b27565b9050612f8b8183614ae7565b91506000620186a0612f9f61271086614afa565b612fa99190614b27565b90506a52b7d2dcc80cd2e400000081600154612fc59190614389565b1161302257612fd48184614ae7565b92508060016000828254612fe89190614389565b909155505080156130225760405160009082156108fc0290839083818181858288f19350505050158015613020573d6000803e3d6000fd5b505b8651156131cf576000620186a061303b619c4087614afa565b6130459190614b27565b90506130518185614ae7565b935060008851826130629190614b27565b905080156131cc5760005b89518110156131ca5760006001600160a01b03168a828151811061309357613093614b3b565b60200260200101516001600160a01b0316141580156130f9575060006001600160a01b0316600a60008c84815181106130ce576130ce614b3b565b6020908102919091018101516001600160a01b03908116835290820192909252604001600020541614155b80156131275750600089828151811061311457613114614b3b565b60200260200101516001600160401b0316115b156131b857600a60008b838151811061314257613142614b3b565b60200260200101516001600160a01b03166001600160a01b0316815260200190815260200160002060009054906101000a90046001600160a01b03166001600160a01b03166108fc839081150290604051600060405180830381858888f193505050501580156131b6573d6000803e3d6000fd5b505b806131c281614b51565b91505061306d565b505b50505b6001600160a01b0385166000818152600d60209081526040808320600c83528184208054855290835281842054948452429055600490915290206001015415613285576001600160a01b0386166000908152600460205260409020600101546132418568056bc75e2d63100000614afa565b61324b9190614b27565b6132559082614389565b6001600160a01b0387166000908152600d60209081526040808320600c83528184205484529091529020556132bf565b6001600160a01b0386166000908152600d60209081526040808320600c835281842054845290915290208190556132bc8484614389565b92505b6001600160a01b0386166000908152600460208190526040822054600160a01b900460ff16908111156132f4576132f4614548565b03613303575050505050505050565b670de0b6b3a7640000600254101580156133245750670de0b6b3a764000047115b1561337f57670de0b6b3a7640000600260008282546133439190614ae7565b92505081905550670de0b6b3a7640000600360008282546133649190614389565b9091555061337c9050670de0b6b3a764000084614389565b92505b61338a836000613d4b565b856001600160a01b03167f1d6ce8f9f300ecd90371399ce90da8388bba45019701a1fd6d6ee08ea580077684428b8b6040516133c99493929190614ce8565b60405180910390a25050505050505050565b6001600160a01b038181166000908152600a6020526040812054909116156134345760405162461bcd60e51b815260206004820152600c60248201526b1a5b9d985b1a590818d85b1b60a21b604482015260640161099d565b506001600160a01b03166000908152600a6020526040902080546001600160a01b03191632179055600190565b60008061346e6000614083565b915091509091565b6000805460ff166134995760405162461bcd60e51b815260040161099d90614ac1565b3260006001600160a01b038416600090815260046020819052604090912054600160a01b900460ff16908111156134d2576134d2614548565b036135155760405162461bcd60e51b815260206004820152601360248201527215985b1a59185d1bdc881b9bdd08195e1a5cdd606a1b604482015260640161099d565b6001600160a01b0380821660009081526005602090815260408083209387168352928152828220600490915291902081546001830154156135a45760405162461bcd60e51b815260206004820152602360248201527f596f752061726520616c726561647920696e20756e7374616b696e672073746160448201526274757360e81b606482015260840161099d565b600081116135ef5760405162461bcd60e51b8152602060048201526018602482015277596f7520646f6e2774206861766520616e79207374616b6560401b604482015260640161099d565b6007546001148015613605575061360586611e28565b801561362857506801bc16d674ec8000008183600101546136269190614ae7565b105b156136a95760405162461bcd60e51b815260206004820152604560248201527f596f752063616e277420756e7374616b652c2076616c696461746f72206c697360448201527f742077696c6c20626520656d7074792061667465722074686973206f7065726160648201526474696f6e2160d81b608482015260a40161099d565b60098201546136ba90600190614ae7565b8360020154146137a6576009820180546136d690600190614ae7565b815481106136e6576136e6614b3b565b9060005260206000200160009054906101000a90046001600160a01b03168260090184600201548154811061371d5761371d614b3b565b9060005260206000200160006101000a8154816001600160a01b0302191690836001600160a01b031602179055508260020154600560008460090186600201548154811061376d5761376d614b3b565b60009182526020808320909101546001600160a01b0390811684528382019490945260409283018220938b168252929092529020600201555b816009018054806137b9576137b9614d53565b600082815260209020810160001990810180546001600160a01b031916905501905560018201546137eb908290614ae7565b60018084019190915543908401556000600284015560085461380e908290614ae7565b60085560018201546801bc16d674ec800000118015613863575060046001600160a01b038716600090815260046020819052604090912054600160a01b900460ff169081111561386057613860614548565b14155b1561388257815460ff60a01b1916600360a01b1782556138828661419a565b61388b86611621565b506001600160a01b038481166000818152600b60209081526040808320948b1680845294825280832092909255815185815242918101919091527f449002ae18e748d69a55f38514400d64f966492e593e32d6e9b8b24db98a0bc1910160405180910390a350600195945050505050565b60005b60075481101561395757826001600160a01b03166007828154811061392657613926614b3b565b6000918252602090912001546001600160a01b03160361394557505050565b8061394f81614b51565b9150506138ff565b50600754601e11156139e157600780546001810182556000919091527fa66cc928b5edb82af9bd49922954155ab7b0942694bea4ce44661d9a8736c6880180546001600160a01b0319166001600160a01b0384169081179091556040514281527f1e3310ad6891b30e03874ec3d1422a6386c5da63d9faf595f5d99eeaf443b99a906020016113b5565b60006004600060076000815481106139fb576139fb614b3b565b60009182526020808320909101546001600160a01b03168352820192909252604001812060019081015492505b600754811015613acf57826004600060078481548110613a4a57613a4a614b3b565b60009182526020808320909101546001600160a01b031683528201929092526040019020600101541015613abd576004600060078381548110613a8f57613a8f614b3b565b60009182526020808320909101546001600160a01b0316835282019290925260400190206001015492509050805b80613ac781614b51565b915050613a28565b50818311613add5750505050565b836001600160a01b03167f1e3310ad6891b30e03874ec3d1422a6386c5da63d9faf595f5d99eeaf443b99a42604051613b1891815260200190565b60405180910390a260078181548110613b3357613b33614b3b565b600091825260209182902001546040514281526001600160a01b03909116917f7521e44559c870c316e84e60bc4785d9c034a8ab1d6acdce8134ac03f946c6ed910160405180910390a28360078281548110613b9157613b91614b3b565b9060005260206000200160006101000a8154816001600160a01b0302191690836001600160a01b0316021790555050505050565b6001600160a01b0381166000908152600460208190526040822054600160a01b900460ff1690811115613bfa57613bfa614548565b1480613c095750600654600110155b15613c115750565b6001600160a01b0381166000908152600460205260409020600701548015613c9c57613c3d8183613d4b565b80600954613c4b9190614389565b6009556001600160a01b038216600090815260046020526040902060080154613c75908290614389565b6001600160a01b038316600090815260046020526040812060088101929092556007909101555b604080518281524260208201526001600160a01b038416917fe294e9d73f8eee23e21b2e1567960625a6b5d339cb127b55d0d09473a995123591016113b5565b6001600160a01b0381166000908152600460208190526040822054600160a01b900460ff1690811115613d1157613d11614548565b03613d195750565b6001600160a01b0381166000908152600460205260409020805460ff60a01b1916600160a21b17905561143d8161419a565b81600003613d57575050565b600080613d6383614083565b90925090506000819003613d775750505050565b60008083600003613f01576000613d8e8488614b27565b9050613d9a8482614afa565b613da49088614ae7565b925060005b600654811015613e9657600060068281548110613dc857613dc8614b3b565b6000918252602090912001546001600160a01b0316905060046001600160a01b038216600090815260046020819052604090912054600160a01b900460ff1690811115613e1757613e17614548565b14158015613e375750876001600160a01b0316816001600160a01b031614155b15613e83576001600160a01b038116600090815260046020526040902060070154613e63908490614389565b6001600160a01b0382166000908152600460205260409020600701559250825b5080613e8e81614b51565b915050613da9565b50600083118015613eaf57506001600160a01b03821615155b15613ef8576001600160a01b038216600090815260046020526040902060070154613edb908490614389565b6001600160a01b0383166000908152600460205260409020600701555b50505050505050565b6000805b60065481101561403557600060068281548110613f2457613f24614b3b565b6000918252602090912001546001600160a01b0316905060046001600160a01b038216600090815260046020819052604090912054600160a01b900460ff1690811115613f7357613f73614548565b14158015613f935750876001600160a01b0316816001600160a01b031614155b15614022576001600160a01b0381166000908152600460205260408120600101548890613fc0908c614afa565b613fca9190614b27565b9050613fd68185614389565b6001600160a01b03831660009081526004602052604090206007015492955093508491614004908290614389565b6001600160a01b038316600090815260046020526040902060070155505b508061402d81614b51565b915050613f05565b506140408188614ae7565b9250600083118015613eaf57506001600160a01b03821615613ef8576001600160a01b038216600090815260046020526040902060070154613edb908490614389565b60008060005b600654811015614194576004806000600684815481106140ab576140ab614b3b565b60009182526020808320909101546001600160a01b0316835282019290925260400190205460ff600160a01b9091041660048111156140ec576140ec614548565b1415801561412457506006818154811061410857614108614b3b565b6000918252602090912001546001600160a01b03858116911614155b1561418257600460006006838154811061414057614140614b3b565b60009182526020808320909101546001600160a01b031683528201929092526040019020600101546141729084614389565b92508161417e81614b51565b9250505b8061418c81614b51565b915050614089565b50915091565b60005b600754811080156141b057506007546001105b156113be57600781815481106141c8576141c8614b3b565b6000918252602090912001546001600160a01b03908116908316036142e7576007546141f690600190614ae7565b8114614277576007805461420c90600190614ae7565b8154811061421c5761421c614b3b565b600091825260209091200154600780546001600160a01b03909216918390811061424857614248614b3b565b9060005260206000200160006101000a8154816001600160a01b0302191690836001600160a01b031602179055505b600780548061428857614288614d53565b600082815260209020810160001990810180546001600160a01b03191690550190556040516001600160a01b038316907f7521e44559c870c316e84e60bc4785d9c034a8ab1d6acdce8134ac03f946c6ed906113b59042815260200190565b806142f181614b51565b91505061419d565b82805482825590600052602060002090810192821561434e579160200282015b8281111561434e57825182546001600160a01b0319166001600160a01b03909116178255602090920191600190910190614319565b5061435a92915061435e565b5090565b5b8082111561435a576000815560010161435f565b634e487b7160e01b600052601160045260246000fd5b8082018082111561128957611289614373565b6001600160a01b038116811461143d57600080fd5b6000602082840312156143c357600080fd5b81356143ce8161439c565b9392505050565b600080604083850312156143e857600080fd5b82356143f38161439c565b915060208301356144038161439c565b809150509250929050565b60006020828403121561442057600080fd5b5035919050565b634e487b7160e01b600052604160045260246000fd5b604051601f8201601f191681016001600160401b038111828210171561446557614465614427565b604052919050565b60006001600160401b0382111561448657614486614427565b5060051b60200190565b600082601f8301126144a157600080fd5b813560206144b66144b18361446d565b61443d565b82815260059290921b840181019181810190868411156144d557600080fd5b8286015b848110156144f95780356144ec8161439c565b83529183019183016144d9565b509695505050505050565b6000806040838503121561451757600080fd5b82356001600160401b0381111561452d57600080fd5b61453985828601614490565b95602094909401359450505050565b634e487b7160e01b600052602160045260246000fd5b600081518084526020808501945080840160005b838110156145975781516001600160a01b031687529582019590820190600101614572565b509495945050505050565b6001600160a01b03871681526000600587106145ce57634e487b7160e01b600052602160045260246000fd5b86602083015285604083015284606083015283608083015260c060a08301526145fa60c083018461455e565b98975050505050505050565b6000806040838503121561461957600080fd5b82356146248161439c565b946020939093013593505050565b6020815260006143ce602083018461455e565b6000806020838503121561465857600080fd5b82356001600160401b038082111561466f57600080fd5b818501915085601f83011261468357600080fd5b81358181111561469257600080fd5b8660208260051b85010111156146a757600080fd5b60209290920196919550909350505050565b80356111a68161439c565b60008083601f8401126146d657600080fd5b5081356001600160401b038111156146ed57600080fd5b60208301915083602082850101111561470557600080fd5b9250929050565b600080600080600080600080600080600060c08c8e03121561472d57600080fd5b6147368c6146b9565b9a506001600160401b038060208e0135111561475157600080fd5b6147618e60208f01358f016146c4565b909b50995060408d013581101561477757600080fd5b6147878e60408f01358f016146c4565b909950975060608d013581101561479d57600080fd5b6147ad8e60608f01358f016146c4565b909750955060808d01358110156147c357600080fd5b6147d38e60808f01358f016146c4565b909550935060a08d01358110156147e957600080fd5b506147fa8d60a08e01358e016146c4565b81935080925050509295989b509295989b9093969950565b6000815180845260005b818110156148385760208185018101518683018201520161481c565b506000602082860101526020601f19601f83011685010191505092915050565b60a08152600061486b60a0830188614812565b828103602084015261487d8188614812565b905082810360408401526148918187614812565b905082810360608401526148a58186614812565b905082810360808401526145fa8185614812565b600082601f8301126148ca57600080fd5b81356001600160401b038111156148e3576148e3614427565b6148f6601f8201601f191660200161443d565b81815284602083860101111561490b57600080fd5b816020850160208301376000918101602001919091529392505050565b600080600080600060a0868803121561494057600080fd5b85356001600160401b038082111561495757600080fd5b61496389838a016148b9565b9650602088013591508082111561497957600080fd5b61498589838a016148b9565b9550604088013591508082111561499b57600080fd5b6149a789838a016148b9565b945060608801359150808211156149bd57600080fd5b6149c989838a016148b9565b935060808801359150808211156149df57600080fd5b506149ec888289016148b9565b9150509295509295909350565b60008060408385031215614a0c57600080fd5b82356001600160401b0380821115614a2357600080fd5b614a2f86838701614490565b9350602091508185013581811115614a4657600080fd5b8501601f81018713614a5757600080fd5b8035614a656144b18261446d565b81815260059190911b82018401908481019089831115614a8457600080fd5b928501925b82841015614ab15783358581168114614aa25760008081fd5b82529285019290850190614a89565b8096505050505050509250929050565b6020808252600c908201526b139bdd081a5b9a5d081e595d60a21b604082015260600190565b8181038181111561128957611289614373565b808202811582820484141761128957611289614373565b634e487b7160e01b600052601260045260246000fd5b600082614b3657614b36614b11565b500490565b634e487b7160e01b600052603260045260246000fd5b600060018201614b6357614b63614373565b5060010190565b600082614b7957614b79614b11565b500690565b600060208284031215614b9057600080fd5b815180151581146143ce57600080fd5b600181811c90821680614bb457607f821691505b602082108103614bd457634e487b7160e01b600052602260045260246000fd5b50919050565b601f821115614c2457600081815260208120601f850160051c81016020861015614c015750805b601f850160051c820191505b81811015614c2057828155600101614c0d565b5050505b505050565b81516001600160401b03811115614c4257614c42614427565b614c5681614c508454614ba0565b84614bda565b602080601f831160018114614c8b5760008415614c735750858301515b600019600386901b1c1916600185901b178555614c20565b600085815260208120601f198616915b82811015614cba57888601518255948401946001909101908401614c9b565b5085821015614cd85787850151600019600388901b60f8161c191681555b5050505050600190811b01905550565b84815260006020858184015260806040840152614d08608084018661455e565b838103606085015284518082528286019183019060005b81811015614d445783516001600160401b031683529284019291840191600101614d1f565b50909998505050505050505050565b634e487b7160e01b600052603160045260246000fdfea2646970667358221220c7a35159f806465075d0453d03f5ef103361e5630d623fbb33b6e51f72a2287164736f6c63430008110033",
  "linkReferences": {},
  "deployedLinkReferences": {}
}