{
  "_format": "hh-sol-artifact-1",
  "contractName": "Proposal",
  "sourceName": "contracts/Proposal.sol",
  "abi": [
    {
      "anonymous": false,
      "inputs": [
        {
          "indexed": true,
          "internalType": "bytes32",
          "name": "id",
          "type": "bytes32"
        },
        {
          "indexed": true,
          "internalType": "address",
          "name": "proposer",
          "type": "address"
        },
        {
          "indexed": true,
          "internalType": "address",
          "name": "dst",
          "type": "address"
        },
        {
          "indexed": false,
          "internalType": "uint256",
          "name": "time",
          "type": "uint256"
        }
      ],
      "name": "LogCreateProposal",
      "type": "event"
    },
    {
      "anonymous": false,
      "inputs": [
        {
          "indexed": true,
          "internalType": "bytes32",
          "name": "id",
          "type": "bytes32"
        },
        {
          "indexed": true,
          "internalType": "address",
          "name": "dst",
          "type": "address"
        },
        {
          "indexed": false,
          "internalType": "uint256",
          "name": "time",
          "type": "uint256"
        }
      ],
      "name": "LogPassProposal",
      "type": "event"
    },
    {
      "anonymous": false,
      "inputs": [
        {
          "indexed": true,
          "internalType": "bytes32",
          "name": "id",
          "type": "bytes32"
        },
        {
          "indexed": true,
          "internalType": "address",
          "name": "dst",
          "type": "address"
        },
        {
          "indexed": false,
          "internalType": "uint256",
          "name": "time",
          "type": "uint256"
        }
      ],
      "name": "LogRejectProposal",
      "type": "event"
    },
    {
      "anonymous": false,
      "inputs": [
        {
          "indexed": true,
          "internalType": "address",
          "name": "val",
          "type": "address"
        },
        {
          "indexed": false,
          "internalType": "uint256",
          "name": "time",
          "type": "uint256"
        }
      ],
      "name": "LogSetUnpassed",
      "type": "event"
    },
    {
      "anonymous": false,
      "inputs": [
        {
          "indexed": true,
          "internalType": "bytes32",
          "name": "id",
          "type": "bytes32"
        },
        {
          "indexed": true,
          "internalType": "address",
          "name": "voter",
          "type": "address"
        },
        {
          "indexed": false,
          "internalType": "bool",
          "name": "auth",
          "type": "bool"
        },
        {
          "indexed": false,
          "internalType": "uint256",
          "name": "time",
          "type": "uint256"
        }
      ],
      "name": "LogVote",
      "type": "event"
    },
    {
      "inputs": [],
      "name": "MaxValidators",
      "outputs": [
        {
          "internalType": "uint16",
          "name": "",
          "type": "uint16"
        }
      ],
      "stateMutability": "view",
      "type": "function"
    },
    {
      "inputs": [],
      "name": "MinimalStakingCoin",
      "outputs": [
        {
          "internalType": "uint256",
          "name": "",
          "type": "uint256"
        }
      ],
      "stateMutability": "view",
      "type": "function"
    },
    {
      "inputs": [],
      "name": "ProposalAddr",
      "outputs": [
        {
          "internalType": "address",
          "name": "",
          "type": "address"
        }
      ],
      "stateMutability": "view",
      "type": "function"
    },
    {
      "inputs": [],
      "name": "PunishContractAddr",
      "outputs": [
        {
          "internalType": "address",
          "name": "",
          "type": "address"
        }
      ],
      "stateMutability": "view",
      "type": "function"
    },
    {
      "inputs": [],
      "name": "StakingLockPeriod",
      "outputs": [
        {
          "internalType": "uint64",
          "name": "",
          "type": "uint64"
        }
      ],
      "stateMutability": "view",
      "type": "function"
    },
    {
      "inputs": [],
      "name": "ValidatorContractAddr",
      "outputs": [
        {
          "internalType": "address payable",
          "name": "",
          "type": "address"
        }
      ],
      "stateMutability": "view",
      "type": "function"
    },
    {
      "inputs": [],
      "name": "burnPartPercent",
      "outputs": [
        {
          "internalType": "uint256",
          "name": "",
          "type": "uint256"
        }
      ],
      "stateMutability": "view",
      "type": "function"
    },
    {
      "inputs": [],
      "name": "burnStopAmount",
      "outputs": [
        {
          "internalType": "uint256",
          "name": "",
          "type": "uint256"
        }
      ],
      "stateMutability": "view",
      "type": "function"
    },
    {
      "inputs": [],
      "name": "contractPartPercent",
      "outputs": [
        {
          "internalType": "uint256",
          "name": "",
          "type": "uint256"
        }
      ],
      "stateMutability": "view",
      "type": "function"
    },
    {
      "inputs": [
        {
          "internalType": "address",
          "name": "dst",
          "type": "address"
        },
        {
          "internalType": "string",
          "name": "details",
          "type": "string"
        }
      ],
      "name": "createProposal",
      "outputs": [
        {
          "internalType": "bool",
          "name": "",
          "type": "bool"
        }
      ],
      "stateMutability": "nonpayable",
      "type": "function"
    },
    {
      "inputs": [],
      "name": "extraRewardsPerBlock",
      "outputs": [
        {
          "internalType": "uint256",
          "name": "",
          "type": "uint256"
        }
      ],
      "stateMutability": "view",
      "type": "function"
    },
    {
      "inputs": [
        {
          "internalType": "address[]",
          "name": "vals",
          "type": "address[]"
        }
      ],
      "name": "initialize",
      "outputs": [],
      "stateMutability": "nonpayable",
      "type": "function"
    },
    {
      "inputs": [],
      "name": "initialized",
      "outputs": [
        {
          "internalType": "bool",
          "name": "",
          "type": "bool"
        }
      ],
      "stateMutability": "view",
      "type": "function"
    },
    {
      "inputs": [
        {
          "internalType": "address",
          "name": "",
          "type": "address"
        }
      ],
      "name": "lastProposalActive",
      "outputs": [
        {
          "internalType": "bool",
          "name": "",
          "type": "bool"
        }
      ],
      "stateMutability": "view",
      "type": "function"
    },
    {
      "inputs": [],
      "name": "minimumValidatorStaking",
      "outputs": [
        {
          "internalType": "uint256",
          "name": "",
          "type": "uint256"
        }
      ],
      "stateMutability": "view",
      "type": "function"
    },
    {
      "inputs": [
        {
          "internalType": "address",
          "name": "",
          "type": "address"
        }
      ],
      "name": "pass",
      "outputs": [
        {
          "internalType": "bool",
          "name": "",
          "type": "bool"
        }
      ],
      "stateMutability": "view",
      "type": "function"
    },
    {
      "inputs": [],
      "name": "proposalLastingPeriod",
      "outputs": [
        {
          "internalType": "uint256",
          "name": "",
          "type": "uint256"
        }
      ],
      "stateMutability": "view",
      "type": "function"
    },
    {
      "inputs": [
        {
          "internalType": "bytes32",
          "name": "",
          "type": "bytes32"
        }
      ],
      "name": "proposals",
      "outputs": [
        {
          "internalType": "address",
          "name": "proposer",
          "type": "address"
        },
        {
          "internalType": "address",
          "name": "dst",
          "type": "address"
        },
        {
          "internalType": "string",
          "name": "details",
          "type": "string"
        },
        {
          "internalType": "uint256",
          "name": "createTime",
          "type": "uint256"
        },
        {
          "internalType": "uint16",
          "name": "agree",
          "type": "uint16"
        },
        {
          "internalType": "uint16",
          "name": "reject",
          "type": "uint16"
        },
        {
          "internalType": "bool",
          "name": "resultExist",
          "type": "bool"
        }
      ],
      "stateMutability": "view",
      "type": "function"
    },
    {
      "inputs": [],
      "name": "rewardFund",
      "outputs": [
        {
          "internalType": "uint256",
          "name": "",
          "type": "uint256"
        }
      ],
      "stateMutability": "view",
      "type": "function"
    },
    {
      "inputs": [
        {
          "internalType": "address",
          "name": "val",
          "type": "address"
        }
      ],
      "name": "setUnpassed",
      "outputs": [
        {
          "internalType": "bool",
          "name": "",
          "type": "bool"
        }
      ],
      "stateMutability": "nonpayable",
      "type": "function"
    },
    {
      "inputs": [],
      "name": "stakerPartPercent",
      "outputs": [
        {
          "internalType": "uint256",
          "name": "",
          "type": "uint256"
        }
      ],
      "stateMutability": "view",
      "type": "function"
    },
    {
      "inputs": [],
      "name": "totalBurnt",
      "outputs": [
        {
          "internalType": "uint256",
          "name": "",
          "type": "uint256"
        }
      ],
      "stateMutability": "view",
      "type": "function"
    },
    {
      "inputs": [],
      "name": "totalRewards",
      "outputs": [
        {
          "internalType": "uint256",
          "name": "",
          "type": "uint256"
        }
      ],
      "stateMutability": "view",
      "type": "function"
    },
    {
      "inputs": [],
      "name": "validatorPartPercent",
      "outputs": [
        {
          "internalType": "uint256",
          "name": "",
          "type": "uint256"
        }
      ],
      "stateMutability": "view",
      "type": "function"
    },
    {
      "inputs": [
        {
          "internalType": "bytes32",
          "name": "id",
          "type": "bytes32"
        },
        {
          "internalType": "bool",
          "name": "auth",
          "type": "bool"
        }
      ],
      "name": "voteProposal",
      "outputs": [
        {
          "internalType": "bool",
          "name": "",
          "type": "bool"
        }
      ],
      "stateMutability": "nonpayable",
      "type": "function"
    },
    {
      "inputs": [
        {
          "internalType": "address",
          "name": "",
          "type": "address"
        },
        {
          "internalType": "bytes32",
          "name": "",
          "type": "bytes32"
        }
      ],
      "name": "votes",
      "outputs": [
        {
          "internalType": "address",
          "name": "voter",
          "type": "address"
        },
        {
          "internalType": "uint256",
          "name": "voteTime",
          "type": "uint256"
        },
        {
          "internalType": "bool",
          "name": "auth",
          "type": "bool"
        }
      ],
      "stateMutability": "view",
      "type": "function"
    }
  ],
  "bytecode": "0x608060405234801561001057600080fd5b506115d6806100206000396000f3fe608060405234801561001057600080fd5b506004361061018e5760003560e01c806382c4b3b2116100de578063be64569211610097578063db78dd2811610071578063db78dd28146103a8578063e823c814146103cb578063efe22266146103d4578063fca737c0146103dd57600080fd5b8063be64569214610374578063c967f90f14610384578063cd779d211461039f57600080fd5b806382c4b3b2146102ff5780638ae53dbd14610322578063966ff650146103315780639d7714ce1461033a578063a224cee71461034c578063a4c4d9221461036157600080fd5b80631f4f7d291161014b5780633a061bd3116101255780633a061bd3146102c157806342127ee7146102ca5780636233be5d146102d35780636e0e16cf146102dc57600080fd5b80631f4f7d291461027f57806332ed5b121461029257806337dbc8cc146102b857600080fd5b80630976c65d146101935780630e15561a146101b7578063158ef93e146101c057806315ea2781146101dd5780631b5e358c146101f05780631db5ade814610211575b600080fd5b6101a469d3c21bcecceda100000081565b6040519081526020015b60405180910390f35b6101a460035481565b6000546101cd9060ff1681565b60405190151581526020016101ae565b6101cd6101eb36600461104b565b6103e6565b6101f961f00181565b6040516001600160a01b0390911681526020016101ae565b61025861021f36600461106f565b60086020908152600092835260408084209091529082529020805460018201546002909201546001600160a01b03909116919060ff1683565b604080516001600160a01b03909416845260208401929092521515908201526060016101ae565b6101cd61028d36600461109b565b6104b0565b6102a56102a0366004611120565b610793565b6040516101ae9796959493929190611139565b6101a461271081565b6101f961f00081565b6101a461138881565b6101f961f00281565b6101cd6102ea36600461104b565b60066020526000908152604090205460ff1681565b6101cd61030d36600461104b565b60056020526000908152604090205460ff1681565b6101a4670de0b6b3a764000081565b6101a460015481565b6101a46a52b7d2dcc80cd2e400000081565b61035f61035a3660046111d3565b610871565b005b6101cd61036f366004611256565b6109d8565b6101a46801bc16d674ec80000081565b61038c601e81565b60405161ffff90911681526020016101ae565b6101a461afc881565b6103b26201518081565b60405167ffffffffffffffff90911681526020016101ae565b6101a460045481565b6101a460025481565b6101a4619c4081565b60003361f0001461043e5760405162461bcd60e51b815260206004820152601860248201527f56616c696461746f727320636f6e7472616374206f6e6c79000000000000000060448201526064015b60405180910390fd5b6001600160a01b0382166000818152600560209081526040808320805460ff199081169091556006835292819020805490931660011790925590514281527f4e0b191f7f5c32b1b5e3704b68874b1a3980147cae00be8ece271bfb5b92c07a910160405180910390a25060015b919050565b6001600160a01b03831660009081526006602052604081205460ff16156105195760405162461bcd60e51b815260206004820152601760248201527f416c7265616479206163746976652070726f706f73616c0000000000000000006044820152606401610435565b60003385858542604051602001610534959493929190611286565b60408051601f1981840301815291905280516020909101209050610bb88311156105935760405162461bcd60e51b815260206004820152601060248201526f44657461696c7320746f6f206c6f6e6760801b6044820152606401610435565b600081815260076020526040902060030154156105f25760405162461bcd60e51b815260206004820152601760248201527f50726f706f73616c20616c7265616479206578697374730000000000000000006044820152606401610435565b6040805160e081018252606081830181905260009082018190526080820181905260a0820181905260c08201523381526001600160a01b0387166020808301919091528251601f87018290048202810182019093528583529091908690869081908401838280828437600092018290525060408087019586524260608801526001600160a01b03808d16835260066020908152828420805460ff191660019081179091558a85526007825292909320885181549083166001600160a01b031991821617825593890151928101805493909216929093169190911790559351859493506002840192506106e5915082611363565b506060820151600382015560808201516004909101805460a084015160c09094015115156401000000000264ff000000001961ffff958616620100000263ffffffff19909316959094169490941717919091169190911790556040516001600160a01b03871690339084907fc10f2f4d53a0e342536c6af3cce9c6ee25c32dbb323521ce0e1d4494a3e362e89061077f9042815260200190565b60405180910390a450600195945050505050565b6007602052600090815260409020805460018201546002830180546001600160a01b039384169492909316926107c8906112da565b80601f01602080910402602001604051908101604052809291908181526020018280546107f4906112da565b80156108415780601f1061081657610100808354040283529160200191610841565b820191906000526020600020905b81548152906001019060200180831161082457829003601f168201915b50505050600383015460049093015491929161ffff80821692506201000082041690640100000000900460ff1687565b60005460ff16156108ba5760405162461bcd60e51b8152602060048201526013602482015272105b1c9958591e481a5b9a5d1a585b1a5e9959606a1b6044820152606401610435565b62093a80600455600980546001600160a01b03191661f00017905560005b818110156109c65760008383838181106108f4576108f4611423565b9050602002016020810190610909919061104b565b6001600160a01b03160361095f5760405162461bcd60e51b815260206004820152601960248201527f496e76616c69642076616c696461746f722061646472657373000000000000006044820152606401610435565b60016005600085858581811061097757610977611423565b905060200201602081019061098c919061104b565b6001600160a01b031681526020810191909152604001600020805460ff1916911515919091179055806109be8161144f565b9150506108d8565b50506000805460ff1916600117905550565b600954604051631015428760e21b81523360048201526000916001600160a01b0316906340550a1c90602401602060405180830381865afa158015610a21573d6000803e3d6000fd5b505050506040513d601f19601f82011682018060405250810190610a459190611468565b610a825760405162461bcd60e51b815260206004820152600e60248201526d56616c696461746f72206f6e6c7960901b6044820152606401610435565b6000838152600760205260408120600301549003610ad75760405162461bcd60e51b8152602060048201526012602482015271141c9bdc1bdcd85b081b9bdd08195e1a5cdd60721b6044820152606401610435565b33600090815260086020908152604080832086845290915290206001015415610b4e5760405162461bcd60e51b815260206004820152602360248201527f596f752063616e277420766f746520666f7220612070726f706f73616c20747760448201526269636560e81b6064820152608401610435565b600454600084815260076020526040902060030154610b6d9190611485565b4210610bae5760405162461bcd60e51b815260206004820152601060248201526f141c9bdc1bdcd85b08195e1c1a5c995960821b6044820152606401610435565b336000818152600860209081526040808320878452825291829020426001820181905581546001600160a01b031916851782556002909101805460ff191687151590811790915583519081529182015285917f6c59bda68cac318717c60c7c9635a78a0f0613f9887cc18a7157f5745a86d14e910160405180910390a38115610c7c57600083815260076020526040902060040154610c529061ffff166001611498565b6000848152600760205260409020600401805461ffff191661ffff92909216919091179055610cd2565b600083815260076020526040902060040154610ca39062010000900461ffff166001611498565b6000848152600760205260409020600401805461ffff92909216620100000263ffff0000199092169190911790555b6000838152600760209081526040808320600101546001600160a01b03168352600690915290205460ff161580610d225750600083815260076020526040902060040154640100000000900460ff165b15610d2f5750600161102d565b600954604080516313bce04b60e31b815290516002926001600160a01b031691639de702589160048083019260009291908290030181865afa158015610d79573d6000803e3d6000fd5b505050506040513d6000823e601f3d908101601f19168201604052610da191908101906114c5565b51610dac919061157e565b610db7906001611485565b60008481526007602052604090206004015461ffff1610610f0d576000838152600760208181526040808420600180820180546001600160a01b03908116885260058652848820805460ff191690931790925595899052939092526004918201805464ff0000000019166401000000001790556009549354905163415e9ec960e11b8152908316918101919091529116906382bd3d92906024016020604051808303816000875af1158015610e70573d6000803e3d6000fd5b505050506040513d601f19601f82011682018060405250810190610e949190611468565b50600083815260076020818152604080842060010180546001600160a01b03908116865260068452828620805460ff191690559488905292825291548251428152925193169286927fc9d96d61eb62031865c523ae107f3c22f5ed445af237636bcd88bea1705c70d592908290030190a350600161102d565b600954604080516313bce04b60e31b815290516002926001600160a01b031691639de702589160048083019260009291908290030181865afa158015610f57573d6000803e3d6000fd5b505050506040513d6000823e601f3d908101601f19168201604052610f7f91908101906114c5565b51610f8a919061157e565b610f95906001611485565b60008481526007602052604090206004015462010000900461ffff1610611029576000838152600760205260409081902060048101805464ff0000000019166401000000001790556001015490516001600160a01b039091169084907fec955d77e6e7d74e18b1c91977ef0f6fd5a6d02a28d1979686339fe693997825906110209042815260200190565b60405180910390a35b5060015b92915050565b6001600160a01b038116811461104857600080fd5b50565b60006020828403121561105d57600080fd5b813561106881611033565b9392505050565b6000806040838503121561108257600080fd5b823561108d81611033565b946020939093013593505050565b6000806000604084860312156110b057600080fd5b83356110bb81611033565b9250602084013567ffffffffffffffff808211156110d857600080fd5b818601915086601f8301126110ec57600080fd5b8135818111156110fb57600080fd5b87602082850101111561110d57600080fd5b6020830194508093505050509250925092565b60006020828403121561113257600080fd5b5035919050565b600060018060a01b03808a1683526020818a168185015260e06040850152885191508160e085015260005b828110156111815789810182015185820161010001528101611164565b5050610100600081838601015280601f19601f840116850101925050508560608301526111b4608083018661ffff169052565b61ffff841660a083015282151560c08301525b98975050505050505050565b600080602083850312156111e657600080fd5b823567ffffffffffffffff808211156111fe57600080fd5b818501915085601f83011261121257600080fd5b81358181111561122157600080fd5b8660208260051b850101111561123657600080fd5b60209290920196919550909350505050565b801515811461104857600080fd5b6000806040838503121561126957600080fd5b82359150602083013561127b81611248565b809150509250929050565b60006bffffffffffffffffffffffff19808860601b168352808760601b16601484015250838560288401375060289201918201526048019392505050565b634e487b7160e01b600052604160045260246000fd5b600181811c908216806112ee57607f821691505b60208210810361130e57634e487b7160e01b600052602260045260246000fd5b50919050565b601f82111561135e57600081815260208120601f850160051c8101602086101561133b5750805b601f850160051c820191505b8181101561135a57828155600101611347565b5050505b505050565b815167ffffffffffffffff81111561137d5761137d6112c4565b6113918161138b84546112da565b84611314565b602080601f8311600181146113c657600084156113ae5750858301515b600019600386901b1c1916600185901b17855561135a565b600085815260208120601f198616915b828110156113f5578886015182559484019460019091019084016113d6565b50858210156114135787850151600019600388901b60f8161c191681555b5050505050600190811b01905550565b634e487b7160e01b600052603260045260246000fd5b634e487b7160e01b600052601160045260246000fd5b60006001820161146157611461611439565b5060010190565b60006020828403121561147a57600080fd5b815161106881611248565b8082018082111561102d5761102d611439565b61ffff8181168382160190808211156114b3576114b3611439565b5092915050565b80516104ab81611033565b600060208083850312156114d857600080fd5b825167ffffffffffffffff808211156114f057600080fd5b818501915085601f83011261150457600080fd5b815181811115611516576115166112c4565b8060051b604051601f19603f8301168101818110858211171561153b5761153b6112c4565b60405291825284820192508381018501918883111561155957600080fd5b938501935b828510156111c75761156f856114ba565b8452938501939285019261155e565b60008261159b57634e487b7160e01b600052601260045260246000fd5b50049056fea2646970667358221220d95e1452c3a79a04f9f8c2b6261b8f5c21f072145985bba1a99a0339f003a38f64736f6c63430008110033",
  "linkReferences": {},
  "deployedLinkReferences": {}
}